:040000001DEF00F000
:100018005E80E0CF01F00E0133AB15EF00F017EF73
:1000280000F019EF00F07F82339B01C0E0FF5E9083
:06003800100022EF21F090
:100E00000043616C6962726174696F6E2073746112
:100E10007465203D20677265656E200A0D00436190
:100E20006C6962726174696F6E207374617465209D
:100E30003D2020616D6269656E740043616C69627A
:100E4000726174696F6E2073746174653D20626CA9
:100E50007565200A0D0043616C6962726174696F87
:100E60006E207374617465203D2020776869746515
:100E70000043414C4942524154494F4E20434F4D4B
:100E8000504C45544544200A0D0043616C69627220
:100E90006174696F6E207374617465203D207265A2
:100EA0006400566F6C74616765203D2025642E25B3
:100EB0003032642C2020006875653D253033642C69
:100EC0002020002E0000000E00019C6F000E9D6F80
:100ED000000E9E6F000E9F6F5750D96EDA6ADECFFC
:100EE00058F0DDCF59F058C002F059C003F0046A41
:100EF000056A000E77EC15F002C060F003C061F0E7
:100F000004C062F005C063F05650D96EDA6ADECFD5
:100F100058F0DDCF59F058C002F059C003F0046A10
:100F2000056A000E77EC15F002C064F003C065F0AE
:100F300004C066F005C067F05750D96EDA6A020E39
:100F4000D926DECF58F0DDCF59F058C002F059C095
:100F500003F0046A056A000E77EC15F002C068F031
:100F600003C069F004C06AF005C06BF05650D96E3A
:100F7000DA6A020ED926DECF58F0DDCF59F058C01C
:100F800002F059C003F0046A056A000E77EC15F010
:100F900002C06CF003C06DF004C06EF005C06FF0CD
:100FA0005750D96EDA6A040ED926DECF58F0DDCF5D
:100FB00059F058C002F059C003F0046A056A000EE7
:100FC00077EC15F002C070F003C071F004C072F04D
:100FD00005C073F05650D96EDA6A040ED926DECFFA
:100FE00058F0DDCF59F058C002F059C003F0046A40
:100FF000056A000E77EC15F002C074F003C075F0BE
:1010000004C076F005C077F05750D96EDA6A060E44
:10101000D926DECF58F0DDCF59F058C002F059C0C4
:1010200003F0046A056A000E77EC15F002C078F050
:1010300003C079F004C07AF005C07BF05650D96E39
:10104000DA6A060ED926DECF58F0DDCF59F058C047
:1010500002F059C003F0046A056A000E77EC15F03F
:1010600002C07CF003C07DF004C07EF005C07FF0BC
:1010700078C033F079C034F07AC035F07BC036F0F8
:101080007CC037F07DC038F07EC039F07FC03AF0C8
:10109000A1EC0FF060C033F061C034F062C035F0F5
:1010A00063C036F064C037F065C038F066C039F010
:1010B00067C03AF0A1EC0FF033C0A0F034C0A1F04B
:1010C00035C0A2F036C0A3F068C033F069C034F078
:1010D0006AC035F06BC036F06CC037F06DC038F0C8
:1010E0006EC039F06FC03AF0A1EC0FF033C0A4F03D
:1010F00034C0A5F035C0A6F036C0A7F070C033F0FC
:1011000071C034F072C035F073C036F074C037F07F
:1011100075C038F076C039F077C03AF0A1EC0FF026
:1011200033C0A8F034C0A9F035C0AAF036C0ABF087
:10113000A0C002F0A1C003F0A2C004F0A3C005F05B
:10114000A4C006F0A5C007F0A6C008F0A7C009F02B
:1011500033EC1AF0D8A0AFEF08F0B1EF08F0E6EFEB
:1011600008F0A4C002F0A5C003F0A6C004F0A7C018
:1011700005F0A8C006F0A9C007F0AAC008F0ABC0EF
:1011800009F033EC1AF0D8A0C8EF08F0CAEF08F065
:10119000D4EF08F0A8C080F0A9C081F0AAC082F006
:1011A000ABC083F0DCEF08F0A4C080F0A5C081F0F4
:1011B000A6C082F0A7C083F080C090F081C091F0FB
:1011C00082C092F083C093F019EF09F0A0C002F042
:1011D000A1C003F0A2C004F0A3C005F0A8C006F0AF
:1011E000A9C007F0AAC008F0ABC009F033EC1AF0B0
:1011F000D8A0FDEF08F0FFEF08F009EF09F0A8C054
:1012000084F0A9C085F0AAC086F0ABC087F011EFCA
:1012100009F0A0C084F0A1C085F0A2C086F0A3C0F0
:1012200087F084C090F085C091F086C092F087C0AE
:1012300093F0A4C002F0A5C003F0A6C004F0A7C0BC
:1012400005F0A0C006F0A1C007F0A2C008F0A3C03E
:1012500009F033EC1AF0D8A030EF09F032EF09F0C2
:1012600067EF09F0A8C002F0A9C003F0AAC004F01B
:10127000ABC005F0A4C006F0A5C007F0A6C008F0FA
:10128000A7C009F033EC1AF0D8A049EF09F04BEFF2
:1012900009F055EF09F0A8C088F0A9C089F0AAC0EC
:1012A0008AF0ABC08BF05DEF09F0A4C088F0A5C058
:1012B00089F0A6C08AF0A7C08BF088C098F089C0DA
:1012C00099F08AC09AF08BC09BF09AEF09F0A8C001
:1012D00002F0A9C003F0AAC004F0ABC005F0A0C0A2
:1012E00006F0A1C007F0A2C008F0A3C009F033ECDB
:1012F0001AF0D8A07EEF09F080EF09F08AEF09F02C
:10130000A8C08CF0A9C08DF0AAC08EF0ABC08FF041
:1013100092EF09F0A0C08CF0A1C08DF0A2C08EF0B9
:10132000A3C08FF08CC098F08DC099F08EC09AF059
:101330008FC09BF098C012F099C013F09AC014F0BF
:101340009BC015F090C016F091C017F092C018F035
:1013500093C019F0DDEC20F012C094F013C095F0AA
:1013600014C096F015C097F098C002F099C003F031
:101370009AC004F09BC005F090C006F091C007F041
:1013800092C008F093C009F091EC1DF0D8A0CBEF0B
:1013900009F0CDEF09F0D8EF09F0000E00019C6FC5
:1013A000000E9D6F000E9E6F000E9F6FE1EF0AF022
:1013B00098C002F099C003F09AC004F09BC005F0F9
:1013C000A0C006F0A1C007F0A2C008F0A3C009F0B9
:1013D00091EC1DF0D8A0EFEF09F0F1EF09F01FEF4D
:1013E0000AF0A4C016F0A5C017F0A6C018F0A7C058
:1013F00019F0A8C012F0A9C013F0AAC014F0ABC035
:1014000015F0DDEC20F012C033F013C034F014C03E
:1014100035F015C036F094C037F095C038F096C05E
:1014200039F097C03AF0A1EC0FF033C09CF034C013
:101430009DF035C09EF036C09FF0E1EF0AF098C0F5
:1014400002F099C003F09AC004F09BC005F0A4C05C
:1014500006F0A5C007F0A6C008F0A7C009F091ECFF
:101460001DF0D8A036EF0AF038EF0AF080EF0AF04E
:10147000A0C016F0A1C017F0A2C018F0A3C019F0C8
:10148000A8C012F0A9C013F0AAC014F0ABC015F0A8
:10149000DDEC20F012C033F013C034F014C035F08E
:1014A00015C036F094C037F095C038F096C039F0CA
:1014B00097C03AF0A1EC0FF033C09CF034C09DF01F
:1014C00035C09EF036C09FF09CC002F09DC003F076
:1014D0009EC004F09FC005F0000E066E000E076E61
:1014E000000E086E400E096E2CEC0BF002C09CF052
:1014F00003C09DF004C09EF005C09FF0E1EF0AF02C
:1015000098C002F099C003F09AC004F09BC005F0A7
:10151000A8C006F0A9C007F0AAC008F0ABC009F047
:1015200091EC1DF0D8A097EF0AF099EF0AF0E1EFE7
:101530000AF0A4C016F0A5C017F0A6C018F0A7C006
:1015400019F0A0C012F0A1C013F0A2C014F0A3C003
:1015500015F0DDEC20F012C033F013C034F014C0ED
:1015600035F015C036F094C037F095C038F096C00D
:1015700039F097C03AF0A1EC0FF033C09CF034C0C2
:101580009DF035C09EF036C09FF09CC002F09DC01B
:1015900003F09EC004F09FC005F0000E066E000E22
:1015A000076E800E086E400E096E2CEC0BF002C028
:1015B0009CF003C09DF004C09EF005C09FF0E1EFD9
:1015C0000AF09CC01AF09DC01BF09EC01CF09FC08A
:1015D0001DF0000E1E6E000E1F6E700E206E420E6D
:1015E000216E8CEC0DF01AC09CF01BC09DF01CC04D
:1015F0009EF01DC09FF000019FBF03EF0BF001EFB5
:101600000BF01DEF0BF09CC002F09DC003F09EC0DC
:1016100004F09FC005F0000E066E000E076EB40EBB
:10162000086E430E096E2CEC0BF002C09CF003C058
:101630009DF004C09EF005C09FF09CC04CF09DC082
:101640004DF09EC04EF09FC04FF0B0EC19F04CC072
:1016500056F04DC057F012000550800B0E6E05502D
:101660000524106E04AE37EF0BF039EF0BF03AEFB4
:101670000BF010801050D8B440EF0BF042EF0BF09D
:1016800057EF0BF01028D8A448EF0BF04AEF0BF0FF
:1016900052EF0BF0000E026E000E036E000E046E91
:1016A000000E056E048E000E056E5FEF0BF0000E4F
:1016B000026E000E036E000E046E000E056E0950E1
:1016C000800B0F6E0E500F18D8B469EF0BF06BEF54
:1016D0000BF06CEF0BF00E8C095009240F6E08AE66
:1016E00074EF0BF076EF0BF077EF0BF00F800F50ED
:1016F000D8B47DEF0BF07FEF0BF094EF0BF00F28D9
:10170000D8A485EF0BF087EF0BF08FEF0BF0000EF6
:10171000066E000E076E000E086E000E096E088E33
:10172000000E096E9CEF0BF0000E066E000E076EA9
:10173000000E086E000E096E10500F5CD8B0A3EFBB
:101740000BF0A5EF0BF0CCEF0BF00EACAAEF0BF00B
:10175000ACEF0BF0AEEF0BF0800E0E1A10C011F0D4
:101760000FC010F011C00FF002C011F006C002F05F
:1017700011C006F003C011F007C003F011C007F05C
:1017800004C011F008C004F011C008F005C011F049
:1017900009C005F011C009F0000E116E10500FC005
:1017A0000AF00B6A0A5E000E0B5A0BBEE1EF0BF05B
:1017B0000B5009E11A0E0A5CD8A0E1EF0BF0E3EF41
:1017C0000BF01AEF0CF00250031004100510D8A40F
:1017D000ECEF0BF0EFEF0BF0010EF0EF0BF0000E63
:1017E000116E000E026E000E036E000E046E000EEF
:1017F000056E0FC010F023EF0CF011A002EF0CF0FB
:1018000004EF0CF00AEF0CF0D89011300109116EC2
:101810000CEF0CF0D890113202A011EF0CF013EF86
:101820000CF014EF0CF0118E053405320432033243
:101830000232102A0F50105CD8A021EF0CF023EFD9
:101840000CF0FDEF0BF00EBC28EF0CF02AEF0CF0C3
:101850006AEF0CF01050D8A430EF0CF032EF0CF01F
:101860003CEF0CF0000E026E000E036E000E046ED4
:10187000000E056E8BEF0DF0065002260750032276
:10188000085004220950052205A049EF0CF04BEF47
:101890000CF0F7EF0CF011A050EF0CF052EF0CF041
:1018A00058EF0CF0D89011300109116E5AEF0CF07E
:1018B000D890113202A05FEF0CF061EF0CF062EFF4
:1018C0000CF0118E05340532043203320232102A34
:1018D000F7EF0CF00650025C07500358085004580C
:1018E0000550800A0A6E0950800A0A58D8B07BEF6A
:1018F0000CF07DEF0CF0A8EF0CF00250065C0A6EC5
:10190000035007580B6E045008580C6E05500958C8
:101910000D6EFF0E0A24026EFF0E0B20036EFF0EEB
:101920000C20046EFF0E0D20056E800E0E1A116C39
:101930001150D8A49EEF0CF0A0EF0CF0B0EF0CF01B
:10194000010E0226000E032204220522B0EF0CF045
:101950000650025E0750035A0850045A0950055AAF
:101960000250031004100510D8A4B9EF0CF0BBEF1F
:101970000CF0F0EF0CF01150D8A4C1EF0CF0C3EF55
:101980000CF0F0EF0CF0000E026E000E036E000E75
:10199000046E000E056E8BEF0DF0D8900236033604
:1019A0000436053611AED7EF0CF0D9EF0CF0DAEFB4
:1019B0000CF0028011A0DFEF0CF0E1EF0CF0E5EF8E
:1019C0000CF0D8801136E7EF0CF0D890113610509B
:1019D000D8B4EDEF0CF0EFEF0CF0F0EF0CF01006D8
:1019E00004AEF5EF0CF0F7EF0CF0CDEF0CF0000EBD
:1019F0000F6E11AEFEEF0CF000EF0DF018EF0DF0D2
:101A000011C00AF07F0E0A16D8B409EF0DF00BEFE3
:101A10000DF00FEF0DF0010E0F6E18EF0DF002A09C
:101A200014EF0DF016EF0DF018EF0DF00BEF0DF0B9
:101A30000F50D8B41EEF0DF020EF0DF04BEF0DF06E
:101A4000010E0226000E03220422052205A02BEF20
:101A50000DF02DEF0DF04BEF0DF002C00AF003C0BA
:101A60000BF004C00CF005C00DF00D340D320C323B
:101A70000B320A320AC002F00BC003F00CC004F0B3
:101A80000DC005F01028D8B448EF0DF04AEF0DF066
:101A90004BEF0DF0102A1028D8B451EF0DF053EF92
:101AA0000DF05BEF0DF01050D8A459EF0DF05BEF87
:101AB0000DF06DEF0DF0000E026E000E036E000EC5
:101AC000046E000E056E1050D8A469EF0DF06BEF98
:101AD0000DF06DEF0DF0000E0E6E10A072EF0DF018
:101AE00074EF0DF077EF0DF0048E78EF0DF0049E9B
:101AF000D8901030056E0EAE80EF0DF082EF0DF035
:101B000083EF0DF0058E02C002F003C003F004C0A5
:101B100004F005C005F012001D50800B266E1D500C
:101B20001D242C6E1CAE97EF0DF099EF0DF09AEF7F
:101B30000DF02C802C50D8B4A0EF0DF0A2EF0DF0DA
:101B4000B5EF0DF02C28D8A4A8EF0DF0AAEF0DF0FA
:101B5000B2EF0DF0000E1A6E000E1B6E000E1C6E22
:101B6000000E1D6E1C8EBDEF0DF0000E1A6E000EE5
:101B70001B6E000E1C6E000E1D6E2150800B261A6F
:101B8000215021242B6E20AEC8EF0DF0CAEF0DF0CE
:101B9000CBEF0DF02B802B50D8B4D1EF0DF0D3EF5D
:101BA0000DF0E6EF0DF02B28D8A4D9EF0DF0DBEF08
:101BB0000DF0E3EF0DF0000E1E6E000E1F6E000E16
:101BC000206E000E216E208EEEEF0DF0000E1E6EC8
:101BD000000E1F6E000E206E000E216E2B50D8B42A
:101BE000F4EF0DF0F6EF0DF0FEEF0DF02C50D8A451
:101BF000FCEF0DF0FEEF0DF008EF0EF0000E1A6E88
:101C0000000E1B6E000E1C6E000E1D6EA0EF0FF07E
:101C100020501A02F3CF31F0F4CF32F03150276E5A
:101C2000286A296A2A6A32502D6E2E6A2F6A306A13
:101C30001F501B02F3CF31F0F4CF32F03150272682
:101C4000000E282229222A2232502D26000E2E2272
:101C50002F2230221E501C02F3CF31F0F4CF32F08D
:101C600031502726000E282229222A2232502D26E2
:101C7000000E2E222F22302229C02AF028C029F05F
:101C800027C028F0276A1E501B02F3CF31F0F4CF93
:101C900032F03150272632502822000E2922000E21
:101CA0002A221F501A02F3CF31F0F4CF32F0315014
:101CB000272632502822000E2922000E2A2229C06F
:101CC0002AF028C029F027C028F0276A1E501A02DF
:101CD000F3CF31F0F4CF32F03150272632502822A2
:101CE000000E2922000E2A2220501B02F3CF31F0D1
:101CF000F4CF32F031502D2632502E22000E2F22FA
:101D0000000E30221F501C02F3CF31F0F4CF32F01E
:101D100031502D2632502E22000E2F22000E30225E
:101D200020501C02F3CF31F0F4CF32F03150226E4C
:101D30003250236E246A256A24C025F023C024F083
:101D400022C023F0226A22502D2623502E22245016
:101D50002F222550302227C022F028C023F029C08E
:101D600024F02AC025F0190EBBEF0EF0D8902532D2
:101D7000243223322232E82EB6EF0EF022502D26E6
:101D800023502E2224502F222550302229C02AF001
:101D900028C029F027C028F0276A2B502CC022F039
:101DA000236A2226000E2322820E2224316EFF0E89
:101DB0002320326EF1EF0EF0D8902D362E362F36CE
:101DC00030362AAEE6EF0EF0E8EF0EF0E9EF0EF057
:101DD0002D80D8902736283629362A363106D8A0C5
:101DE00032062FAEF6EF0EF0F8EF0EF0DCEF0EF04D
:101DF000000E2B6E2AAEFFEF0EF001EF0FF025EF75
:101E00000FF0FF0E2714226EFF0E2814236EFF0E14
:101E10002914246E7F0E2A14256E225023102410BC
:101E20002510D8B416EF0FF018EF0FF01CEF0FF0DD
:101E3000010E2B6E25EF0FF02DA021EF0FF023EFF9
:101E40000FF025EF0FF018EF0FF02B50D8B42BEF59
:101E50000FF02DEF0FF051EF0FF0010E2D26000EB9
:101E60002E222F22302230A038EF0FF03AEF0FF061
:101E700051EF0FF02DC022F02EC023F02FC024F020
:101E800030C025F02534253224322332223222C0BC
:101E90002DF023C02EF024C02FF025C030F0314AA1
:101EA000322A32BE5CEF0FF0325008E13128D8A060
:101EB0005CEF0FF05EEF0FF068EF0FF0000E2D6E8D
:101EC000000E2E6E800E2F6E7F0E306E96EF0FF08E
:101ED00032BE75EF0FF0325006E13104D8B073EF27
:101EE0000FF075EF0FF081EF0FF0000E2D6E000E6A
:101EF0002E6E000E2F6E000E306E000E266E96EFC8
:101F00000FF031C02CF0FF0E2D16FF0E2E167F0E97
:101F10002F16000E30162CA090EF0FF092EF0FF05E
:101F200093EF0FF02F8ED8902C30306E2650301259
:101F30002DC01AF02EC01BF02FC01CF030C01DF0B9
:101F400012003650800B436E365036244A6E35AE42
:101F5000ACEF0FF0AEEF0FF0AFEF0FF04A804A504A
:101F6000D8B4B5EF0FF0B7EF0FF0CCEF0FF04A2871
:101F7000D8A4BDEF0FF0BFEF0FF0C7EF0FF0000ECA
:101F8000336E000E346E000E356E000E366E358EDA
:101F9000000E366ED4EF0FF0000E336E000E346E6E
:101FA000000E356E000E366E3A50800B431A3A50D2
:101FB0003A244B6E39AEDFEF0FF0E1EF0FF0E2EFB6
:101FC0000FF04B804B50D8B4E8EF0FF0EAEF0FF072
:101FD000FFEF0FF04B28D8A4F0EF0FF0F2EF0FF067
:101FE000FAEF0FF0000E376E000E386E000E396EED
:101FF000000E3A6E398E000E3A6E07EF10F0000EAA
:10200000376E000E386E000E396E000E3A6E375085
:10201000381039103A10D8A410EF10F012EF10F069
:102020002AEF10F0000E336E000E346E000E356E87
:10203000000E366E800E35127F0E36124350361269
:1020400033C033F034C034F035C035F036C036F02C
:102050006DEF11F04A50D8A430EF10F032EF10F0CD
:102060003CEF10F0000E336E000E346E000E356E35
:10207000000E366E6DEF11F04B504AC03BF03C6ADB
:102080003B5E000E3C5A7F0E3B24446E000E3C200B
:10209000456E33C03FF034C040F035C041F036C02B
:1020A00042F0000E336E000E346E000E356E000EE0
:1020B000366E000E466E000E476E000E486E000E25
:1020C000496E000E4B6E9DEF10F04B50D8B46BEF85
:1020D00010F06DEF10F084EF10F0D8903F364036DE
:1020E00041364236D890333634363536363649AEF8
:1020F0007CEF10F07EEF10F07FEF10F03380D8907F
:10210000463647364836493637503F5C3850405897
:10211000395041583A504258D8A091EF10F093EFFF
:1021200010F09CEF10F0498C37503F5E3850405A09
:102130003950415A3A50425A4B2A190E4B64A3EF78
:1021400010F0A5EF10F065EF10F03F504010411077
:102150004210D8B4AEEF10F0B0EF10F0C8EF10F0AE
:102160004680C8EF10F0D8903336343635363636E0
:1021700049AEBDEF10F0BFEF10F0C0EF10F03380AC
:10218000D89046364736483649364406D8A04506E4
:1021900035AECDEF10F0CFEF10F0B3EF10F0000E32
:1021A0004B6E49AED6EF10F0D8EF10F0FCEF10F008
:1021B000FF0E46143B6EFF0E47143C6EFF0E481494
:1021C0003D6E7F0E49143E6E3B503C103D103E105C
:1021D000D8B4EDEF10F0EFEF10F0F3EF10F0010EC8
:1021E0004B6EFCEF10F033A0F8EF10F0FAEF10F0A8
:1021F000FCEF10F0EFEF10F04B50D8B402EF11F0FD
:1022000004EF11F028EF11F0010E3326000E3422F6
:102210003522362236A00FEF11F011EF11F028EF22
:1022200011F033C03BF034C03CF035C03DF036C057
:102230003EF03E343E323D323C323B323BC033F026
:102240003CC034F03DC035F03EC036F0444A452A2B
:1022500045BE33EF11F0455008E14428D8A033EFD4
:1022600011F035EF11F040EF11F0000E456E4468AB
:10227000000E336E000E346E000E356E000E366E9C
:1022800045BE4DEF11F0455006E14404D8B04BEF88
:1022900011F04DEF11F05BEF11F0000E456E000EE6
:1022A000446E000E336E000E346E000E356E000E5E
:1022B000366E000E436E44C04AF04AA062EF11F041
:1022C00064EF11F067EF11F0358E68EF11F0359E75
:1022D000D8904A30366E1EEF10F0120023EC24F036
:1022E000DEEC21F005EC24F0000E036E630E026EAE
:1022F00086EC1EF0000E0001EE6F010EEF6F010E76
:10230000F06F000EF26F630EF16FAA0EF36F0F0EF7
:10231000F46FA60EF56F0F0EF66F000EE56F010E4F
:10232000E66F010EE76F000EE96F630EE86F250E92
:10233000EA6F0F0EEB6F210EEC6F0F0EED6F7C9EB0
:10234000849E87907F90859E7D9E819679968686D5
:102350000E01B49786847E94B49587927F92889676
:102360008086190E0001B16F5A0EB06FB10EE82EC3
:10237000FED7B02FFCD7B12FFAD700D08096DB0E56
:10238000456E5AEC14F0000E0001BD6F000EBC6FDC
:10239000D9C0B6F0DAC0B7F07F807D8E7986EE0EB8
:1023A000566EE50E576E1BEC1CF0D58E8DEC20F0B2
:1023B00006C0D7F007C0D8F0D7C002F0D8C003F0ED
:1023C000046A056A000E77EC15F002C0B2F003C093
:1023D000B3F004C0B4F005C0B5F00001B651E15D42
:1023E000B06FB751E259B16FB0C002F0B1C003F0A5
:1023F000046A056A000E77EC15F002C037F003C0DE
:1024000038F004C039F005C03AF0000E1E6E000E20
:102410001F6EC80E206E420E216EB6C002F0B7C00D
:1024200003F0046A056A000E77EC15F002C016F09E
:1024300003C017F004C018F005C019F0B2C012F0C4
:10244000B3C013F0B4C014F0B5C015F0DDEC20F04B
:1024500012C01AF013C01BF014C01CF015C01DF000
:102460008CEC0DF01AC033F01BC034F01CC035F0FA
:102470001DC036F0A1EC0FF033C04CF034C04DF06D
:1024800035C04EF036C04FF0B0EC19F04CC0B8F08B
:102490004DC0B9F00001B95109E1090EB85DD8A0ED
:1024A00054EF12F056EF12F0CCEF11F0EE0E146E66
:1024B000E50E156ECEEC1EF0BCC007F0BDC008F0F6
:1024C000A5EC21F007C0BCF008C0BDF0110E000162
:1024D000B16F3C0EB06FCB0EE82EFED7B02FFCD7FD
:1024E000B12FFAD7EE0E566EE50E576E1BEC1CF0B0
:1024F000190E0001B16F5A0EB06FB10EE82EFED763
:10250000B02FFCD7B12FFAD700D0EE0E146EE50E27
:10251000156ECEEC1EF0190E0001B16F5A0EB06FA1
:10252000B10EE82EFED7B02FFCD7B12FFAD700D0CE
:10253000D10E5A6EA6EC1BF05AC0BAF05BC0BBF0CD
:102540000001B95109E1150EB85DD8A0AAEF12F04B
:10255000ACEF12F0C5EF12F0EE0E566EE50E576EB0
:102560001BEC1CF0090E0001B16F1E0EB06FE40EE3
:10257000E82EFED7B02FFCD7B12FFAD70000EE0E11
:10258000146EE50E156ECEEC1EF00001B95109E196
:10259000330EB85DD8A0CFEF12F0D1EF12F0E7EF15
:1025A00012F02E0EBA5D010EBB59D8A0DAEF12F070
:1025B000DCEF12F0EEEF12F05B0EBA5D010EBB59CC
:1025C000D8B0E5EF12F0E7EF12F0EEEF12F07FA2D5
:1025D000ECEF12F0EEEF12F000EF13F0000E466E8B
:1025E000080E456E14EC24F0EE0E0001686FE50E47
:1025F000696FBCC06AF0BDC06BF0B5EC1AF07F9299
:10260000BAC047F0BBC048F0BCC049F0BDC04AF0FA
:1026100012EC13F047C0BCF048C0BDF0CCEF11F095
:102620001DEF00F0485009E10B0E475CD8A01BEFEE
:1026300013F01DEF13F028EF13F0630E475C010E4B
:102640004858D8A026EF13F028EF13F03FEF13F00F
:10265000EE0E1D6EE50E1E6E5EEC22F0000E036E99
:10266000000E026E49C004F04AC005F0310E00ECC5
:1026700021F0000E4C6E010E4B6E4DEF14F04850E1
:1026800009E1690E475CD8A048EF13F04AEF13F058
:102690006CEF13F0485007E1830E475CD8B053EF5E
:1026A00013F055EF13F06CEF13F0EE0E1D6EE50E08
:1026B0001E6E0DEC23F0000E036E000E026E49C07C
:1026C00004F04AC005F0320E00EC21F0000E4C6E12
:1026D000020E4B6E4DEF14F0485009E1E60E475CD8
:1026E000D8A075EF13F077EF13F099EF13F048507F
:1026F00007E1F10E475CD8B080EF13F082EF13F0E2
:1027000099EF13F0EE0E1D6EE50E1E6E26EC23F013
:10271000000E036E000E026E49C004F04AC005F0C0
:10272000330E00EC21F0000E4C6E030E4B6E4DEF9D
:1027300014F0485009E1D80E475CD8A0A2EF13F07E
:10274000A4EF13F0C6EF13F0485007E1DE0E475C2C
:10275000D8B0ADEF13F0AFEF13F0C6EF13F0EE0EFD
:102760001D6EE50E1E6EDBEC22F0000E036E000EF9
:10277000026E49C004F04AC005F0350E00EC21F0AD
:10278000000E4C6E040E4B6E4DEF14F02E0E475C97
:10279000010E4858D8A0CFEF13F0D1EF13F0F3EFAC
:1027A00013F05B0E475C010E4858D8B0DAEF13F017
:1027B000DCEF13F0F3EF13F0EE0E1D6EE50E1E6E60
:1027C00045EC22F0000E036E000E026E49C004F0CC
:1027D0004AC005F0310E00EC21F0000E4C6E050EE3
:1027E0004B6E4DEF14F0485009E10F0E475CD8A036
:1027F000FCEF13F0FEEF13F020EF14F0485007E168
:10280000240E475CD8B007EF14F009EF14F020EF66
:1028100014F0EE0E1D6EE50E1E6EA9EC22F0000EF9
:10282000036E000E026E49C004F04AC005F0340E7B
:1028300000EC21F0000E4C6E060E4B6E4DEF14F0C6
:10284000485009E1F40E475CD8A029EF14F02BEFB3
:1028500014F04DEF14F0485007E1FC0E475CD8B07F
:1028600034EF14F036EF14F04DEF14F0EE0E1D6E51
:10287000E50E1E6E77EC22F0000E036E000E026E67
:1028800049C004F04AC005F0320E00EC21F0000E01
:102890004C6E070E4B6E4DEF14F04BC045F04CC024
:1028A00046F014EC24F0494A4A2A49C047F04AC08D
:1028B00048F012007F907D9E7996480E326E8A0E07
:1028C000336EC30E346E3450D8A40E0E356EF8EC51
:1028D00021F0480E036E58EC23F08EB472EF14F022
:1028E00074EF14F06DEF14F07F80290E476E960E92
:1028F000466E7F0EE82EFED7462EFCD7472EFAD71F
:1029000000003DEC20F04550D96EDA6A06C0DEFFCB
:1029100007C0DDFF7F90480E326E010E336EC30E8E
:10292000346E3450D8A40E0E356EF8EC21F0480EFB
:10293000036E58EC23F08EB4A0EF14F0A2EF14F065
:102940009BEF14F07D8E290E476E960E466E7F0E1D
:10295000E82EFED7462EFCD7472EFAD7000065ECAE
:1029600020F04550D96EDA6A020ED92606C0DEFF85
:1029700007C0DDFF7D9E480E326E3B0E336EC30EE8
:10298000346E3450D8A40E0E356EF8EC21F0480E9B
:10299000036E58EC23F08EB4D0EF14F0D2EF14F0A5
:1029A000CBEF14F07986290E476E960E466E7F0E99
:1029B000E82EFED7462EFCD7472EFAD70000B5ECFE
:1029C00020F04550D96EDA6A040ED92606C0DEFF23
:1029D00007C0DDFF7996480E326E560E336EC30E79
:1029E000346E3450D8A40E0E356EF8EC21F0480E3B
:1029F000036E58EC23F08EB400EF15F002EF15F0E3
:102A0000FBEF14F07F807D8E7986290E476E960E3F
:102A1000466E7F0EE82EFED7462EFCD7472EFAD7FD
:102A200000008DEC20F04550D96EDA6A060ED926EA
:102A300006C0DEFF07C0DDFF7F907D9E7996480EC1
:102A4000326E1E0E336EC30E346E3450D8A40E0E8A
:102A5000356EF8EC21F0480E036E58EC23F08EB47E
:102A600034EF15F036EF15F02FEF15F07F807D8EE7
:102A70007986290E476E960E466E7F0EE82EFED79B
:102A8000462EFCD7472EFAD700008DEC20F045509B
:102A9000D96EDA6A080ED92606C0DEFF07C0DDFF50
:102AA0007F907D9E7996480E326E710E336EC30E06
:102AB000346E3450D8A40E0E356EF8EC21F0480E6A
:102AC000036E58EC23F08EB468EF15F06AEF15F042
:102AD00063EF15F0290E476E960E466E7F0EE82EB8
:102AE000FED7462EFCD7472EFAD7000012000A6EFA
:102AF0000A50D8B47EEF15F080EF15F0A2EF15F074
:102B000005BE87EF15F085EF15F0A2EF15F002C0B6
:102B100006F003C007F004C008F005C009F0061E67
:102B2000071E081E091E062A000E07220822092277
:102B300006C00CF007C00DF008C00EF009C00FF081
:102B4000AAEF15F002C00CF003C00DF004C00EF0A7
:102B500005C00FF00250031004100510D8A4B3EF05
:102B600015F0B5EF15F0BFEF15F0000E026E000E78
:102B7000036E000E046E000E056E50EF16F0960EFA
:102B80000B6EC9EF15F00B2AD8900F320E320D32B2
:102B90000C32000E0C14066E000E0D14076E000EA3
:102BA0000E14086EFE0E0F14096E06500710081062
:102BB0000910D8A4DEEF15F0E0EF15F0C3EF15F023
:102BC000EEEF15F00B2A010E0C26000E0D220E2240
:102BD0000F22D8900F320E320D320C32000E0C1430
:102BE000066E000E0D14076E000E0E14086EFF0E1A
:102BF0000F14096E0650071008100910D8A403EF2F
:102C000016F005EF16F0E2EF15F00DEF16F00B06DB
:102C1000D8900C360D360E360F360EBE12EF16F06B
:102C200014EF16F01CEF16F0020E0B601AEF16F000
:102C30001CEF16F007EF16F00BB021EF16F023EFA4
:102C400016F024EF16F00E9ED8900B320BC006F053
:102C5000076A086A096A06C009F0086A076A066A0C
:102C600006500C1207500D1208500E1209500F1288
:102C70000A50D8B43EEF16F040EF16F048EF16F0C9
:102C800005BE47EF16F045EF16F048EF16F00F8E31
:102C90000CC002F00DC003F00EC004F00FC005F030
:102CA00012002450D96EDA6ADFCFF6FF0E0EF76EEF
:102CB000000EF86E0800F550250AD8A462EF16F051
:102CC00064EF16F001EF17F02450D96EDA6ADF2AAC
:102CD000000E0001C96F000EC86FC8C0CCF0CA69F1
:102CE000CB69000E2C6E9CEF16F00001CC832450B3
:102CF000D96EDA6ADF2A9CEF16F0010E2C6E9CEF7B
:102D000016F02450D96EDA6ADFCFF6FF0E0EF76E9A
:102D1000000EF86E0800F550266E276A2750000A4C
:102D2000D8B495EF16F07DEF16F02650300AD8B4DF
:102D300075EF16F07DEF16F02C50D8B4A2EF16F018
:102D4000A4EF16F081EF16F024C008F025C009F0BA
:102D50003AEC1DF008C0C8F009C0C9F00001C9BFB5
:102D6000B6EF16F0B4EF16F0BBEF16F0CC81C86DDD
:102D7000C91FD8B0C92B2450D96EDA6ADF502D6E26
:102D80002DC0F6FF0E0EF76E000EF86E0800F5501F
:102D9000640AD8B4CEEF16F0D0EF16F0E0EF16F0DC
:102DA0002DC0F6FF0E0EF76E000EF86E0800F550FF
:102DB000690AD8A4DEEF16F0E0EF16F0FBEF16F08C
:102DC0002550D96EDA6A020EDF26DF5CD96EDA6A28
:102DD000DECF28F0DECF29F02450D96EDA6A2D2814
:102DE000DF6E23C018F028C019F029C01AF015ECC6
:102DF00017F014EF17F02450D96EDA6ADF2A14EFB7
:102E000017F02450D96EDA6ADFCFF6FF0E0EF76E98
:102E1000000EF86E0800F550026E036A23C004F03D
:102E2000E6EC1DF0FBEF16F01200010E1D6E1ABE4F
:102E30001CEF17F01FEF17F0010E20EF17F0000E38
:102E4000206EC8C01EF0C9C01FF02050D8B42BEFB0
:102E500017F02DEF17F044EF17F01E06D8A01F064D
:102E60002050D8A436EF17F038EF17F03EEF17F0E8
:102E7000000E1C6E2B0E1B6E42EF17F0000E1C6E28
:102E80002D0E1B6E1BC020F0000E226E1F0E216E39
:102E9000000E0101B56F7CEF17F02106D8A02206C5
:102EA000960E2124D96E010E2220DA6E19C002F08E
:102EB0001AC003F0000E056E0A0E046EE2EC1CF060
:102EC00002C008F003C009F012EC22F00850300FE5
:102ED000DF6E000E1D6E1E06D8A01F0619C002F080
:102EE0001AC003F0000E056E0A0E046E80EC1CF092
:102EF00002C019F003C01AF022BE87EF17F022506B
:102F000008E12104D8A087EF17F089EF17F0AFEFA1
:102F100017F019501A10D8A490EF17F092EF17F08D
:102F20004DEF17F01D50D8A498EF17F09AEF17F057
:102F30004DEF17F01FBEA5EF17F01F5008E11E045C
:102F4000D8A0A5EF17F0A7EF17F0AFEF17F000012B
:102F5000CCB3ADEF17F0AFEF17F04DEF17F02050F7
:102F6000D8B4B5EF17F0B7EF17F0C2EF17F021069E
:102F7000D8A02206960E2124D96E010E2220DA6EE8
:102F800020C0DFFF18C010F0960E2124116E010E34
:102F90002220126E1EC013F01FC014F03BEC1EF076
:102FA00012001F04D8A4D7EF17F0D9EF17F0F3EFF2
:102FB00017F01DC019F01EC01AF0A1EC23F0290E65
:102FC000216E960E206E7F0EE82EFED7202EFCD7A7
:102FD000212EFAD700001DC019F01EC01AF089EC8E
:102FE00023F07FEF18F0020E1F18D8A4FAEF17F0A5
:102FF000FCEF17F016EF18F01DC019F01EC01AF004
:10300000A1EC23F0290E216E960E206E7F0EE82E85
:10301000FED7202EFCD7212EFAD700001DC019F0B4
:103020001EC01AF071EC23F07FEF18F0030E1F188A
:10303000D8A41DEF18F01FEF18F039EF18F01DC0DD
:1030400019F01EC01AF0A1EC23F0290E216E960E85
:10305000206E7F0EE82EFED7202EFCD7212EFAD729
:1030600000001DC019F01EC01AF03FEC23F07FEFE6
:1030700018F0040E1F18D8A440EF18F042EF18F013
:103080005CEF18F01DC019F01EC01AF0A1EC23F07F
:10309000290E216E960E206E7F0EE82EFED7202E72
:1030A000FCD7212EFAD700001DC019F01EC01AF05F
:1030B000F4EC22F07FEF18F0050E1F18D8A463EF90
:1030C00018F065EF18F07FEF18F01DC019F01EC062
:1030D0001AF0A1EC23F0290E216E960E206E7F0EC1
:1030E000E82EFED7202EFCD7212EFAD700001DC0D7
:1030F00019F01EC01AF0C2EC22F07FEF18F0120097
:103100000F50D96EDA6A020ED926DF50D8B48BEF91
:1031100018F08DEF18F0BDEF18F00F50D96EDA6A85
:10312000DF50106E1050026E036A0F50D96EDA6ACB
:10313000030ED926DECF04F0DDCF05F0E2EC23F05C
:1031400002C008F003C009F0000E0B6E640E0A6E98
:10315000CEEC1FF00F50D96EDA6A030ED926DF507D
:10316000116E0850115C126E0F50D96EDA6A030EA0
:10317000D926DF50136EDEEF18F0000E126E0F50DE
:10318000D96EDA6ADF50106E1050026E036A0F506B
:10319000D96EDA6A030ED926DECF04F0DDCF05F052
:1031A000E2EC23F002C008F003C009F0000E0B6E41
:1031B000640E0A6ECEEC1FF00850136E0F50D96EDD
:1031C000DA6A010ED926DF50D8B4E9EF18F0EBEF38
:1031D00018F00BEF19F00F50D96EDA6A050ED926E8
:1031E000DECF10F0DDCF11F010C0D9FF11C0DAFF33
:1031F00012C0DFFF0F50D96EDA6A070ED926DECF74
:1032000010F0DDCF11F010C0D9FF11C0DAFF13C0EC
:10321000DFFF29EF19F00F50D96EDA6A050ED926B3
:10322000DECF10F0DDCF11F010C0D9FF11C0DAFFF2
:1032300013C0DFFF0F50D96EDA6A070ED926DECF32
:1032400010F0DDCF11F010C0D9FF11C0DAFF12C0AD
:10325000DFFF1200000E176E15BE33EF19F031EFCD
:1032600019F03DEF19F0151E141E131E126C000EFE
:10327000132214221522010E176E11BE44EF19F00D
:1032800042EF19F04EEF19F0111E101E0F1E0E6CBA
:10329000000E0F2210221122010E171A000E186EB6
:1032A000000E196E000E1A6E000E1B6E12501310D7
:1032B00014101510D8B45FEF19F061EF19F097EF03
:1032C00019F0010E166E6BEF19F0D8901236133606
:1032D00014361536162A15AE70EF19F072EF19F084
:1032E00065EF19F0D890183619361A361B36125079
:1032F0000E5C13500F581450105815501158D8A088
:1033000084EF19F086EF19F08FEF19F012500E5E6E
:1033100013500F5A1450105A1550115A1880D89043
:103320001532143213321232162E72EF19F0175072
:10333000D8B49DEF19F09FEF19F0A7EF19F01B1EFD
:103340001A1E191E186C000E19221A221B2218C0F0
:103350000EF019C00FF01AC010F01BC011F01200CF
:103360004E344F34556E5550D8A4B9EF19F0BBEF19
:1033700019F0C5EF19F0000E4C6E000E4D6E000EE8
:103380004E6E000E4F6E32EF1AF04CC050F04DC032
:1033900051F04EC052F04FC053F0200ED5EF19F04F
:1033A000D8905332523251325032E82ED0EF19F0C9
:1033B0005050546E4E8EFF0E4C16FF0E4D16FF0EE3
:1033C0004E16000E4F16960E555E55BEECEF19F0D8
:1033D000EAEF19F002EF1AF05550800A970FD8B0B3
:1033E000F4EF19F0F6EF19F0F8EF19F0BBEF19F060
:1033F000D8904F324E324D324C32553EF8EF19F0E4
:103400001AEF1AF01F0E556408EF1AF00AEF1AF0BF
:1034100012EF1AF0BBEF19F0D8904C364D364E36FD
:103420004F3655065550D8A418EF1AF01AEF1AF077
:103430000CEF1AF05450D8B420EF1AF022EF1AF023
:103440002AEF1AF04F1E4E1E4D1E4C6C000E4D22E0
:103450004E224F224CC04CF04DC04DF04EC04EF0AD
:103460004FC04FF01200000E02140A6E000E03143B
:103470000B6E800E04140C6E7F0E05140D6E0A5038
:103480000B100C100D10D8A448EF1AF04AEF1AF0E8
:1034900052EF1AF0000E026E000E036E000E046E64
:1034A000000E056E000E06140A6E000E07140B6E59
:1034B000800E08140C6E7F0E09140D6E0A500B104E
:1034C0000C100D10D8A467EF1AF069EF1AF071EF25
:1034D0001AF0000E066E000E076E000E086E000E4B
:1034E000096E05AE76EF1AF078EF1AF081EF1AF058
:1034F000026C031ED8B0032A041ED8B0042A800E22
:10350000055609AE86EF1AF088EF1AF091EF1AF01F
:10351000066C071ED8B0072A081ED8B0082A800EED
:103520000956000E021A000E031A000E041A800E2D
:10353000051A000E061A000E071A000E081A800E51
:10354000091A0650025C07500358085004580950E5
:103550000558D8B0AEEF1AF0B0EF1AF0B3EF1AF08A
:10356000D890B4EF1AF0D88012007F907D9E7996A3
:10357000EE0E1D6EE50E1E6E2CEC22F06AC071F090
:103580006BC072F0D89000017135D96E7235DA6E69
:10359000000ED926020EDA22DECF02F0DDCF03F0D4
:1035A000000E03BEFF0E046E056E000E066E800E4A
:1035B000076EFF0E086E7F0E096E08EC20F002C049
:1035C0000EF003C00FF004C010F005C011F0000EA3
:1035D000126E900E136ED00E146E030E156E2AEC42
:1035E00019F00EC06CF00FC06DF010C06EF011C07D
:1035F0006FF03C0E00017125D96E010E7221DA6E5A
:10360000DF50706F3C0E7125D96E010E7221DA6E9B
:10361000DF50D8A40EEF1BF010EF1BF020EF1BF0D3
:10362000EE0E606FE50E616F6CC062F06DC063F00E
:103630006EC064F06FC065F02FEC1BF028EF1BF03C
:10364000EE0E1D6EE50E1E6E70C01FF0D1EC17F071
:1036500000017107D8A07207C2EF1AF01200030E22
:103660000001676FE80E666F65BF43EF1BF06551A1
:1036700064110BE17D0E625D150E6359D8A043EF16
:103680001BF045EF1BF04BEF1BF00B0E676FB80EF6
:10369000666F88EF1BF065BF5AEF1BF06551641130
:1036A0000BE1B90E625D0B0E6359D8A05AEF1BF007
:1036B0005CEF1BF073EF1BF065BF6BEF1BF0655108
:1036C00064110BE1050E625D100E6359D8A06BEF1B
:1036D0001BF06DEF1BF073EF1BF0070E676FD00E42
:1036E000666F88EF1BF065BF84EF1BF065516411B6
:1036F00009E1B80E625D0B0E6359D8B082EF1BF082
:1037000084EF1BF088EF1BF0030E676FE80E666F07
:10371000EE0E566EE50E576E1BEC1CF066C002F006
:1037200067C003F0C2EC21F0EE0E146EE50E156ECC
:10373000CEEC1EF0190E5C6E5A0E5B6EB20EE82EC9
:10374000FED75B2EFCD75C2EFAD712007F807D9EC1
:103750007996290E0001AD6F960EAC6F7F0EE82EA4
:10376000FED7AC2FFCD7AD2FFAD73DEC20F05A5046
:10377000D96EDA6A06C0DEFF07C0DDFF7F907D8E5E
:103780007996290E0001AD6F960EAC6F7F0EE82E74
:10379000FED7AC2FFCD7AD2FFAD765EC20F05A50EE
:1037A000D96EDA6A020ED92606C0DEFF07C0DDFF39
:1037B0007F907D9E7986290E0001AD6F960EAC6FCD
:1037C0007F0EE82EFED7AC2FFCD7AD2FFAD7B5EC85
:1037D00020F05A50D96EDA6A040ED92606C0DEFFF0
:1037E00007C0DDFF7F807D8E7986290E0001AD6FD9
:1037F000960EAC6F7F0EE82EFED7AC2FFCD7AD2F08
:10380000FAD78DEC20F05A50D96EDA6A060ED92616
:1038100006C0DEFF07C0DDFFDB0E566ED10E576E11
:1038200063EC07F056C0AEF057C0AFF0AEC05AF030
:10383000AFC05BF012005650D96EDA6A010ED9267D
:10384000010EDF6E5750D96EDA6A010ED926010ECD
:10385000DF6E000E5A6E000E596E5650D96EDA6A3F
:1038600059C0DFFF5750D96EDA6ACD0E1E6ECC0EEE
:103870001F6ECC0E206E3F0E216E59C002F05AC052
:1038800003F0000E03BEFF0E046E056E010E77EC12
:1038900015F002C01AF003C01BF004C01CF005C0F4
:1038A0001DF08CEC0DF01AC04CF01BC04DF01CC08C
:1038B0004EF01DC04FF0B0EC19F04C50DF6E56C00A
:1038C0000FF080EC18F057C00FF080EC18F00B0EE2
:1038D000586E620EE82EFED7582EFCD700D0594AFB
:1038E0005A2A5ABE7DEF1CF05A5009E1330E595C3A
:1038F000D8A07DEF1CF07FEF1CF02DEF1CF0120024
:10390000000E076E05BE89EF1CF087EF1CF08FEFED
:103910001CF0046C051ED8B0052A010E076E03BE0C
:1039200096EF1CF094EF1CF09CEF1CF0026C031E51
:10393000D8B0032A010E071A000E096E000E086E99
:1039400004500510D8B4A7EF1CF0A9EF1CF0D1EF7C
:103950001CF0010E066EB1EF1CF0D890043605364F
:10396000062A05AEB6EF1CF0B8EF1CF0ADEF1CF068
:10397000D890083609360450025C05500358D8A088
:10398000C4EF1CF0C6EF1CF0CBEF1CF00450025E3D
:103990000550035A0880D89005320432062EB8EF3D
:1039A0001CF00750D8B4D7EF1CF0D9EF1CF0DDEFB6
:1039B0001CF0086C091ED8B0092A08C002F009C022
:1039C00003F01200000E076E03BEEBEF1CF0E9EFF0
:1039D0001CF0F1EF1CF0026C031ED8B0032A010E9C
:1039E000076E05BEF8EF1CF0F6EF1CF0FCEF1CF0C4
:1039F000046C051ED8B0052A04500510D8B403EF96
:103A00001DF005EF1DF029EF1DF0010E066E0DEF04
:103A10001DF0D89004360536062A05AE12EF1DF0CB
:103A200014EF1DF009EF1DF00450025C055003581F
:103A3000D8A01DEF1DF01FEF1DF023EF1DF0045067
:103A4000025E0550035AD89005320432062E14EF58
:103A50001DF00750D8B42FEF1DF031EF1DF035EFFA
:103A60001DF0026C031ED8B0032A02C002F003C08E
:103A700003F01200000E0C6E000E0B6E0850D96E93
:103A8000DA6ADFCFF6FF0E0EF76E000EF86E080052
:103A9000F5502A0AD8A44FEF1DF051EF1DF077EF33
:103AA0001DF00850D96EDA6ADF2A0950D96EDA6A39
:103AB000020EDF26DF5CD96EDA6ADECF0BF0DECFD6
:103AC0000CF08CEF1DF00BC002F00CC003F0000EE8
:103AD000056E0A0E046EE2EC23F00A5002240B6E0F
:103AE000000E03200C6E0850D96EDA6ADF2A0850E7
:103AF000D96EDA6ADFCFF6FF0E0EF76E000EF86EA3
:103B00000800F550D00F0A6E090E0A648AEF1DF006
:103B10008CEF1DF063EF1DF00BC008F00CC009F036
:103B20001200000E02140A6E000E03140B6E800EBB
:103B300004140C6E7F0E05140D6E0A500B100C1041
:103B40000D10D8A4A6EF1DF0A8EF1DF0B0EF1DF0EA
:103B5000000E026E000E036E000E046E000E056E67
:103B6000000E06140A6E000E07140B6E800E081469
:103B70000C6E7F0E09140D6E0A500B100C100D10F8
:103B8000D8A4C5EF1DF0C7EF1DF0CFEF1DF0000E5C
:103B9000066E000E076E000E086E000E096E0650CF
:103BA00002180FE1075003180CE10850041809E14E
:103BB00009500518D8B4DFEF1DF0E1EF1DF0E4EF78
:103BC0001DF0D890E5EF1DF0D88012000450D8B455
:103BD000ECEF1DF0EEEF1DF0F6EF1DF00450D8A451
:103BE000F4EF1DF0F6EF1DF0FBEF1DF0025051EC6D
:103BF00024F03AEF1EF00450D96EDA6A0A0ED92684
:103C0000DE50DE10D8B407EF1EF009EF1EF022EFF1
:103C10001EF00450D96EDA6A0A0ED9260450E16EFD
:103C2000E26A030EE126DE50E65CE650800A096E89
:103C3000DE50800A0958D8B020EF1EF022EF1EF0A7
:103C40003AEF1EF00450D96EDA6A030ED926DF501F
:103C5000056E0450D96EDA6ADF500524D96EDA6A2F
:103C600002C0DFFF0450D96EDA6A030ED926DE2ABD
:103C7000000EDD2212000001CCA141EF1EF043EF47
:103C80001EF04BEF1EF011C00AF012C00BF010C076
:103C90000CF085EC21F014BE52EF1EF050EF1EF038
:103CA00056EF1EF0000E146E000E136E000E176E0F
:103CB000000E166E66EF1EF0000E036E200E026EF2
:103CC00010C004F0E6EC1DF0164A172A1350165CDB
:103CD0001750800A156E1450800A1558D8A073EF3B
:103CE0001EF075EF1EF05CEF1EF00001CCB17BEF13
:103CF0001EF07DEF1EF085EF1EF011C00AF012C01D
:103D00000BF010C00CF085EC21F012008594839E1E
:103D10008598879C7D947B9E7D987F9C050E0E01E7
:103D2000746F060E766F070E696F080E886FBD50B0
:103D30008F0B4009BD6EE00EBE16BF50F00B01099F
:103D4000BF6E02C0BCFFBD8E000EAA6E000EA66E36
:103D5000000E0F01256F000E216FFC0EAD16F30E45
:103D6000AD16CF0EAD163F0EAD16AB88AB50F00BB7
:103D70000C09AB6EAB8EA788A750F00B0C09A76E91
:103D8000A78E26892651F00B0C09266F268F2289D3
:103D90002251F00B0C09226F228F1200FEEF1EF051
:103DA0001450D96EDA6ADF50D8B4D9EF1EF0DBEFC9
:103DB0001EF0DFEF1EF01450D96EDA6ADF061550E0
:103DC000D96EDA6ADF50D8B4E8EF1EF0EAEF1EF0E1
:103DD000EEEF1EF01550D96EDA6ADF0614C00FF050
:103DE00080EC18F015C00FF080EC18F00B0E166E7A
:103DF000620EE82EFED7162EFCD700D01450D96ED6
:103E0000DA6ADF50D8A407EF1FF009EF1FF0D0EFF8
:103E10001EF01550D96EDA6ADF50D8A412EF1FF0E9
:103E200014EF1FF0D0EF1EF012001450D96EDA6AB2
:103E3000010ED926010EDF6E1550D96EDA6A010E19
:103E4000D926DF6A14C00FF080EC18F015C00FF00F
:103E500080EC18F0000E186E000E176E1450D96E1C
:103E6000DA6ADF2A1550D96EDA6ADF2A14C00FF039
:103E700080EC18F015C00FF080EC18F00B0E166EE9
:103E8000620EE82EFED7162EFCD700D0174A182A4D
:103E9000185009E1320E175CD8A051EF1FF053EF14
:103EA0001FF02EEF1FF012001450D96EDA6A010EC7
:103EB000D926DF6A1550D96EDA6A010ED926010EAD
:103EC000DF6E14C00FF080EC18F015C00FF080EC1E
:103ED00018F0000E186E000E176E1450D96EDA6AC4
:103EE000DF2A1550D96EDA6ADF2A14C00FF080EC91
:103EF00018F015C00FF080EC18F00B0E166E620E65
:103F0000E82EFED7162EFCD700D0174A182A1850D4
:103F100009E1320E175CD8A090EF1FF092EF1FF06E
:103F20006DEF1FF012001450D96EDA6A010ED92617
:103F3000DF6A1550D96EDA6A010ED926DF6A000EE3
:103F4000186E000E176E1450D96EDA6A17C0DFFFB4
:103F50001550D96EDA6A17C0DFFF14C00FF080EC7D
:103F600018F015C00FF080EC18F00B0E166E620EF4
:103F7000E82EFED7162EFCD700D0174A182A18BEF6
:103F8000CBEF1FF0185009E1330E175CD8A0CBEF30
:103F90001FF0CDEF1FF0A3EF1FF01200000E0D6E0B
:103FA000000E0C6E0A500B10D8B4D9EF1FF0DBEFE7
:103FB0001FF003EF20F0010E0E6EE3EF1FF0D8901C
:103FC0000A360B360E2A0BAEE8EF1FF0EAEF1FF0B1
:103FD000DFEF1FF0D8900C360D360A50085C0B50FE
:103FE0000958D8A0F6EF1FF0F8EF1FF0FDEF1FF013
:103FF0000A50085E0B50095A0C80D8900B320A32D6
:104000000E2EEAEF1FF00CC008F00DC009F01200F0
:10401000000E0A6E000E0B6E000E0C6E000E0D6E82
:1040200002A015EF20F017EF20F01FEF20F0065050
:104030000A2607500B2208500C2209500D22D89056
:104040000636073608360936D89005320432033270
:1040500002320250031004100510D8A432EF20F0F1
:1040600034EF20F010EF20F00AC002F00BC003F094
:104070000CC004F00DC005F0120047EC24F0520E05
:104080003CEC24F0B60E3CEC24F04CEC24F0530E47
:104090003CEC24F0010E64EC21F0086E08500B6E2D
:1040A0000C6A000E64EC21F0086E08500A6E096A72
:1040B0000B5009100B6E0C500A100C6E42EC24F0E1
:1040C0000BC006F00CC007F0120047EC24F0520EB3
:1040D0003CEC24F0B80E3CEC24F04CEC24F0530EF5
:1040E0003CEC24F0010E64EC21F0086E08500B6EDD
:1040F0000C6A000E64EC21F0086E08500A6E096A22
:104100000B5009100B6E0C500A100C6E42EC24F090
:104110000BC006F00CC007F0120047EC24F0520E62
:104120003CEC24F0B40E3CEC24F04CEC24F0530EA8
:104130003CEC24F0010E64EC21F0086E08500B6E8C
:104140000C6A000E64EC21F0086E08500A6E096AD1
:104150000B5009100B6E0C500A100C6E42EC24F040
:104160000BC006F00CC007F0120047EC24F0520E12
:104170003CEC24F0BA0E3CEC24F04CEC24F0530E52
:104180003CEC24F0010E64EC21F0086E08500B6E3C
:104190000C6A000E64EC21F0086E08500A6E096A81
:1041A0000B5009100B6E0C500A100C6E42EC24F0F0
:1041B0000BC006F00CC007F01200000E161A000E1D
:1041C000171A000E181A800E191A12C002F013C026
:1041D00003F014C004F015C005F016C006F017C0B7
:1041E00007F018C008F019C009F02CEC0BF002C061
:1041F00012F003C013F004C014F005C015F0120053
:10420000066E055007E1320E045CD8B00AEF21F0CB
:104210000CEF21F021EF21F03C0E0424D96E010EA9
:104220000520DA6E06C0DFFFD8900434D96E05345D
:10423000DA6E000ED926020EDA2202C0DEFF03C0BB
:10424000DDFF1200A40EF66E480EF76E000EF86E3B
:104250000900F5CFF7F002EE00F0640EEE6AE80612
:10426000FDE101EE00F0B60EEE6AE806FDE100EEBB
:10427000BEF0390EEE6AE806FDE15D6A5E905E9280
:1042800000016EEF11F02FC031F04FEF21F02EC082
:1042900023F0310E246E30C025F051EC16F031C001
:1042A000F6FF0E0EF76E000EF86E0800F5500009CE
:1042B000D8A45DEF21F05FEF21F047EF21F0000E71
:1042C0002F6E000E2E6E1200046ECEEC23F00E0147
:1042D000DA87CEEC23F0D5CE05F0CEEC23F00450F7
:1042E000D8B475EF21F079EF21F0036A032A7AEF51
:1042F00021F0036A033A03460E01DA510318DF0B7B
:104300000318DA6FDA8905501200000E0F6E000EE6
:104310000E6E94EF21F00DC002F0036A0CC004F0A1
:10432000E6EC1DF00E4A0F2A0E500A24D96E0F50EB
:104330000B20DA6EDF500D6E0D50D8A4A2EF21F0E5
:10434000A4EF21F08BEF21F01200D4500A6E096A1D
:10435000D3500B6E0C6A09500B100D6E0A500C10E6
:104360000E6ED59E0DC002F00EC003F007C004F023
:1043700008C005F0300E00EC21F007C007F008C0BF
:1043800008F01200000E066E000E056ED2EF21F04E
:10439000150E046EC60EE82EFED7042EFCD700D0F4
:1043A000054A062A0250055C03500658D8A0DBEFE8
:1043B00021F0DDEF21F0C8EF21F01200B9EC23F07D
:1043C000010E046E000EF5EC23F03F0E066E550E46
:1043D000E82EFED7062EFCD70000030E046E000E5A
:1043E000F5EC23F0D50E046E010EF5EC23F012006F
:1043F000340E386E32C039F0000E3D6E000E3C6E49
:10440000000E446E000E436E390E2E6E33C02FF038
:10441000380E306E43EC21F032503C24D96EDA6A0B
:10442000DF6A120009BE17EF22F019EF22F01FEF2A
:1044300022F008C008F009C009F02BEF22F008C0F4
:104440000AF009C00BF00A1E0B1E0A4A0B2A0AC00A
:1044500008F00BC009F012001DC019F01EC01AF0C0
:10446000A1EC23F0290E206E960E1F6E7F0EE82E13
:10447000FED71F2EFCD7202EFAD700001DC019F042
:104480001EC01AF03FEC23F012001DC019F01EC030
:104490001AF090EC22F0290E206E960E1F6E7F0E01
:1044A000E82EFED71F2EFCD7202EFAD700001DC005
:1044B00019F01EC01AF071EC23F012001DC019F0A3
:1044C0001EC01AF0A1EC23F0290E206E960E1F6E6E
:1044D0007F0EE82EFED71F2EFCD7202EFAD7000025
:1044E0001DC019F01EC01AF071EC23F012001DC09F
:1044F00019F01EC01AF090EC22F0290E206E960ED4
:104500001F6E7F0EE82EFED71F2EFCD7202EFAD767
:1045100000001DC019F01EC01AF089EC23F0120033
:1045200019C014F01AC015F093EC1FF06A0E1C6E3F
:10453000850E1B6EB40EE82EFED71B2EFCD71C2E4C
:10454000FAD700D019C014F01AC015F0CEEC1EF046
:1045500012001DC019F01EC01AF0A1EC23F0290EA4
:10456000206E960E1F6E7F0EE82EFED71F2EFCD7F4
:10457000202EFAD700001DC019F01EC01AF0C2ECA0
:1045800022F0120019C014F01AC015F015EC1FF03B
:10459000210E1C6E780E1B6E980EE82EFED71B2E79
:1045A000FCD71C2EFAD700D019C014F01AC015F091
:1045B000CEEC1EF012001DC019F01EC01AF0A1ECC6
:1045C00023F0290E206E960E1F6E7F0EE82EFED76A
:1045D0001F2EFCD7202EFAD700001DC019F01EC0D8
:1045E0001AF0F4EC22F0120019C014F01AC015F001
:1045F00054EC1FF0210E1C6E780E1B6E980EE82EE8
:10460000FED71B2EFCD71C2EFAD700D019C014F0F1
:104610001AC015F0CEEC1EF012001DC019F01EC01D
:104620001AF0A1EC23F0290E206E960E1F6E7F0E5D
:10463000E82EFED71F2EFCD7202EFAD700001DC073
:1046400019F01EC01AF089EC23F012001DC019F0F9
:104650001EC01AF0A1EC23F0290E206E960E1F6EDC
:104660007F0EE82EFED71F2EFCD7202EFAD7000093
:104670001DC019F01EC01AF03FEC23F0120019C043
:1046800014F01AC015F054EC1FF0300E1C6E140E0E
:104690001B6ED10EE82EFED71B2EFCD71C2EFAD790
:1046A000000019C014F01AC015F0CEEC1EF0120074
:1046B00065EF23F00350D96EDA6ADF5030EC24F056
:1046C000032A6A0EE82EFED700D00350D96EDA6AAC
:1046D000DF50D8A46EEF23F070EF23F05AEF23F0F1
:1046E000120019C014F01AC015F015EC1FF0180EC6
:1046F0001C6E8A0E1B6EE80EE82EFED71B2EFCD712
:104700001C2EFAD719C014F01AC015F0CEEC1EF00A
:10471000120019C014F01AC015F054EC1FF0180E56
:104720001C6E8A0E1B6EE80EE82EFED71B2EFCD7E1
:104730001C2EFAD719C014F01AC015F0CEEC1EF0DA
:10474000120019C014F01AC015F093EC1FF0190EE6
:104750001C6E5A0E1B6EB20EE82EFED71B2EFCD717
:104760001C2EFAD719C014F01AC015F0CEEC1EF0AA
:1047700012000E01D951F00B0809D96FD98B9F0E89
:10478000D66F848A848CA79BA79D1D0E1D6F1E0E5D
:104790001C6F1C0E6F6F1B0E706F12000E01D8B5D0
:1047A000D4EF23F0D6EF23F0CEEF23F0DACE02F0F1
:1047B0001F0E0216D8A4DFEF23F0E1EF23F0CEEFB7
:1047C00023F0120002500402F3CF06F0F4CF07F0FA
:1047D00002500502F350072603500402F350072647
:1047E00006C002F007C003F01200056E47EC24F08B
:1047F000520E3CEC24F0055080093CEC24F00450AF
:104800003CEC24F042EC24F01200120E0E01626F18
:10481000110E156FE997E895330EE56F000EE66F00
:10482000E789E88BE78F1200600E326EB70E336EA9
:1048300045C034F046C035F0F8EC21F0600E036E50
:1048400058EC23F01200868C0E01B48D0F0158999C
:10485000FC0E58172E0E5F6F60946088608E1200F9
:10486000026E0E0137A537EF24F039EF24F031EF57
:1048700024F002C0E4FE1200036ECEEC23F003C06D
:10488000D5FE1200CEEC23F00E01DA851200CEEC3C
:1048900023F00E01DA811200CEEC23F00E01DA8350
:0548A0001200120001EE
:020000040030CA
:02000000AAFF55
:020004009FFF5C
:00000001FF
