:0400000002EF0EF00D
:100E000000566F6C74616765203D2025642E253087
:100E100032642C202000477265656E5F6C696768DC
:100E2000743D25642C202000426C75655F6C6967F9
:100E300068743D2564200A0D00436C6561723D2590
:100E40003035642C20200A0D005265645F6C6967A0
:100E500068743D25642C202000477265656E3D2531
:100E60003035642C202000426C75653D253035649A
:100E70002C2020005265643D253035642C20200054
:010E80000071
:100E8200000E03019F6F000E9E6F9EB14BEF07F0A5
:100E92004FEF07F0596A592A50EF07F0596A7F500D
:100EA2005918FE0B59187F6E03019EB35BEF07F0D2
:100EB2005FEF07F0596A592A60EF07F0596A593211
:100EC20059327D5059187F0B59187D6E03019EB51A
:100ED2006DEF07F071EF07F0596A592A72EF07F0C8
:100EE200596A59465946594679505918F70B5918B3
:100EF200796EE2EC0CF005C096F306C097F35AEC5B
:100F02000DF005C098F306C099F30AEC0DF005C088
:100F12009AF306C09BF332EC0DF005C09CF306C0B9
:100F22009DF3000E316E030E326E490E336E7FB0AA
:100F32009DEF07F0A1EF07F0596A592AA2EF07F0D7
:100F4200596A5950346E356AE4EC0DF0320E316E46
:100F5200030E326E160E336E7DBEB2EF07F0B6EFA1
:100F620007F0596A592AB7EF07F0596A5950346E97
:100F7200356AE4EC0DF0640E316E030E326E280E0B
:100F8200336E79B6C7EF07F0CBEF07F0596A592AEB
:100F9200CCEF07F0596A5950346E356AE4EC0DF023
:100FA200000E026E030E036E1FEC0EF0320E026E86
:100FB200030E036E1FEC0EF0640E026E030E036E40
:100FC2001FEC0EF060C04FF061C050F096C351F0BC
:100FD20097C352F09AC353F09BC354F098C355F091
:100FE20099C356F09CC357F09DC358F0BCEC0AF06D
:100FF20003019E4B9F2B9F5109E1080E9E5DD8A0D5
:1010020005EF08F007EF08F046EF07F01200235053
:10101200D96EDA6ADFCFF6FF0E0EF76E000EF86EAB
:101022000800F550250AD8A419EF08F01BEF08F0C4
:10103200B7EF08F02350D96EDA6ADF2A000E0101F9
:10104200FB6F000EFA6FFAC15AF0FC69FD69000EDF
:101052002B6E52EF08F05A822350D96EDA6ADF2AD9
:1010620052EF08F0010E2B6E52EF08F02350D96EAA
:10107200DA6ADFCFF6FF0E0EF76E000EF86E08008A
:10108200F550256E266A2650000AD8B44BEF08F0B8
:1010920033EF08F02550300AD8B42CEF08F033EFC4
:1010A20008F02B50D8B458EF08F05AEF08F037EF99
:1010B20008F023C007F024C008F06DEC0BF007C065
:1010C200FAF108C0FBF10101FBBF6CEF08F06AEF17
:1010D20008F071EF08F05A80FA6DFB1FD8B0FB2BB5
:1010E2002350D96EDA6ADF502C6E2CC0F6FF0E0E3A
:1010F200F76E000EF86E0800F550640AD8B484EF5B
:1011020008F086EF08F096EF08F02CC0F6FF0E0EFE
:10111200F76E000EF86E0800F550690AD8A494EF35
:1011220008F096EF08F0B1EF08F02450D96EDA6AB1
:10113200020EDF26DF5CD96EDA6ADECF27F0DECF61
:1011420028F02350D96EDA6A2C28DF6E22C017F0FD
:1011520027C018F028C019F0CBEC08F0CAEF08F04D
:101162002350D96EDA6ADF2ACAEF08F02350D96E0B
:10117200DA6ADFCFF6FF0E0EF76E000EF86E080089
:10118200F550016E026A22C003F05FEC0AF0B1EF83
:1011920008F01200010E1C6E19BED2EF08F0D5EF56
:1011A20008F0010ED6EF08F0000E1F6EFAC11DF016
:1011B200FBC11EF01F50D8B4E1EF08F0E3EF08F0D6
:1011C200FAEF08F01D06D8A01E061F50D8A4ECEFB7
:1011D20008F0EEEF08F0F4EF08F0000E1B6E2B0E95
:1011E2001A6EF8EF08F0000E1B6E2D0E1A6E1AC062
:1011F2001FF0000E216E1F0E206E000E0201836F83
:1012020032EF09F02006D8A02106640E2024D96E00
:10121200020E2120DA6E18C001F019C002F0000E91
:10122200046E0A0E036E15EC0BF001C007F002C04B
:1012320008F03BEC0EF00750300FDF6E000E1C6E14
:101242001D06D8A01E0618C001F019C002F0000E3B
:10125200046E0A0E036EFDEC09F001C018F002C024
:1012620019F021BE3DEF09F0215008E12004D8A079
:101272003DEF09F03FEF09F064EF09F01850191043
:10128200D8A446EF09F048EF09F003EF09F01C502B
:10129200D8A44EEF09F050EF09F003EF09F01EBE9B
:1012A2005BEF09F01E5008E11D04D8A05BEF09F0C6
:1012B2005DEF09F064EF09F05AB262EF09F064EFF2
:1012C20009F003EF09F01F50D8B46AEF09F06CEF90
:1012D20009F077EF09F02006D8A02106640E202439
:1012E200D96E020E2120DA6E1FC0DFFF17C00FF089
:1012F200640E2024106E020E2120116E1DC012F009
:101302001EC013F017EC0CF01200E2EC0EF055ECDC
:101312000EF0D3EC0EF0000E026E630E016E60EC66
:101322000CF0000E02018D6F010E8E6F010E8F6F99
:10133200000E916F630E906FAA0E926F0F0E936F55
:10134200A60E946F0F0E956F000E846F010E856FBF
:10135200010E866F000E886F630E876F250E896FF0
:101362000F0E8A6F210E8B6F0F0E8C6F7C9E849EE8
:1013720087907F90859E7D9E819679966FEC0EF088
:1013820001C06AF002C06BF0E2EC0CF005C062F042
:1013920006C063F05AEC0DF005C064F006C065F0BB
:1013A2000AEC0DF005C066F006C067F032EC0DF0F5
:1013B20005C068F006C069F06AC04FF06BC050F01B
:1013C20062C051F063C052F066C053F067C054F07F
:1013D20064C055F065C056F068C057F069C058F057
:1013E200BCEC0AF06AC060F06BC061F041EC07F03F
:1013F200BFEF09F000EF00F0000E066E04BE06EF2C
:101402000AF004EF0AF00CEF0AF0036C041ED8B0E5
:10141200042A010E066E02BE13EF0AF011EF0AF063
:1014220019EF0AF0016C021ED8B0022A010E061A48
:10143200000E086E000E076E03500410D8B424EF9D
:101442000AF026EF0AF04EEF0AF0010E056E2EEFBB
:101452000AF0D89003360436052A04AE33EF0AF0B8
:1014620035EF0AF02AEF0AF0D89007360836035013
:10147200015C04500258D8A041EF0AF043EF0AF091
:1014820048EF0AF00350015E0450025A0780D890D8
:1014920004320332052E35EF0AF00650D8B454EF69
:1014A2000AF056EF0AF05AEF0AF0076C081ED8B09D
:1014B200082A07C001F008C002F012000350D8B495
:1014C20065EF0AF067EF0AF06FEF0AF00350D8A455
:1014D2006DEF0AF06FEF0AF074EF0AF0015010ECB2
:1014E2000FF0BBEF0AF00350D96EDA6A0A0ED92662
:1014F200DE50DE10D8B480EF0AF082EF0AF09BEFE4
:101502000AF00350D96EDA6A0A0ED9260350E16E48
:10151200E26A030EE126DE50E65CE650800A086EBF
:10152200DE50800A0858D8B099EF0AF09BEF0AF013
:10153200BBEF0AF00350D96EDA6A030ED926DECF6A
:1015420004F0DDCF05F00350D96EDA6ADECF06F083
:10155200DDCF07F004500624D96E05500720DA6E5D
:1015620001C0DFFF0350D96EDA6A030ED926DE2AE4
:10157200000EDD221200000E456E010E466E4FC0B7
:1015820047F050C048F0C4EC0BF0320E316E010E41
:10159200326E740E336E51C034F052C035F0E4EC4A
:1015A2000DF0640E316E010E326E670E336E55C051
:1015B20034F056C035F0E4EC0DF0960E316E010EAB
:1015C200326E590E336E53C034F054C035F0E4EC31
:1015D2000DF0C80E316E010E326E390E336E57C0E9
:1015E20034F058C035F0E4EC0DF0000E026E010E3E
:1015F200036E1FEC0EF0320E026E010E036E1FEC34
:101602000EF0640E026E010E036E1FEC0EF0960ECB
:10161200026E010E036E1FEC0EF0C80E026E010E7A
:10162200036E1FEC0EF01200000E066E02BE1EEFDD
:101632000BF01CEF0BF024EF0BF0016C021ED8B084
:10164200022A010E066E04BE2BEF0BF029EF0BF0FF
:101652002FEF0BF0036C041ED8B0042A03500410C1
:10166200D8B436EF0BF038EF0BF05CEF0BF0010E55
:10167200056E40EF0BF0D89003360436052A04AE0F
:1016820045EF0BF047EF0BF03CEF0BF00350015C22
:1016920004500258D8A050EF0BF052EF0BF056EF67
:1016A2000BF00350015E0450025AD8900432033208
:1016B200052E47EF0BF00650D8B462EF0BF064EF43
:1016C2000BF068EF0BF0016C021ED8B0022A01C0C9
:1016D20001F002C002F01200000E0B6E000E0A6E44
:1016E2000750D96EDA6ADFCFF6FF0E0EF76E000EE4
:1016F200F86E0800F5502A0AD8A482EF0BF084EFA6
:101702000BF0AAEF0BF00750D96EDA6ADF2A085005
:10171200D96EDA6A020EDF26DF5CD96EDA6ADECFB4
:101722000AF0DECF0BF0BFEF0BF00AC001F00BC0E6
:1017320002F0000E046E0A0E036EB0EC0EF00950B9
:1017420001240A6E000E02200B6E0750D96EDA6A6F
:10175200DF2A0750D96EDA6ADFCFF6FF0E0EF76E78
:10176200000EF86E0800F550D00F096E090E0964DC
:10177200BDEF0BF0BFEF0BF096EF0BF00AC007F0D6
:101782000BC008F0120047C007F048C008F0000E76
:101792000A6E4D0E096EA8EC0CF007C04DF008C0A1
:1017A2004EF047C001F048C002F0000E046E640E15
:1017B200036EB0EC0EF001C007F002C008F0000E9C
:1017C2000A6E4D0E096EA8EC0CF007C049F008C075
:1017D2004AF04DC001F04EC002F0FF0E046E9C0EA6
:1017E200036EB0EC0EF0015049244B6E02504A20B9
:1017F2004C6E45C031F046C032F0010E336E4DC022
:1018020034F04EC035F04BC036F04CC037F0E4EC4B
:101812000DF0520E4A6E2B0E496E000EE82EFED7C8
:10182200492EFCD74A2EFAD700D012005AA01CEF3C
:101832000CF01EEF0CF026EF0CF010C009F011C0F6
:101842000AF00FC00BF0C4EC0DF013BE2DEF0CF03C
:101852002BEF0CF031EF0CF0000E136E000E126E37
:10186200000E166E000E156E41EF0CF0000E026EA9
:10187200200E016E0FC003F05FEC0AF0154A162A23
:101882001250155C1650800A146E1350800A1458B8
:10189200D8A04EEF0CF050EF0CF037EF0CF05AB02E
:1018A20055EF0CF057EF0CF05FEF0CF010C009F0A1
:1018B20011C00AF00FC00BF0C4EC0DF012008594B9
:1018C200839E8598879C7D947B9E7D987F9C050E48
:1018D2000E01746F060E766F070E696F080E886F21
:1018E200BD508F0B4009BD6EE00EBE16BF50F00B0F
:1018F2000109BF6E01C0BCFFBD8E000EAA6E000EB4
:10190200A66E000E0F01256F000E216FFC0EAD16A4
:10191200F30EAD16CF0EAD163F0EAD16AB88AB5023
:10192200F00B0C09AB6EAB8EA788A750F00B0C091D
:10193200A76EA78E26892651F00B0C09266F268FDB
:1019420022892251F00B0C09226F228F1200000E05
:101952000D6E000E0C6E09500A10D8B4B3EF0CF0E5
:10196200B5EF0CF0DDEF0CF0010E0B6EBDEF0CF0DD
:10197200D89009360A360B2A0AAEC2EF0CF0C4EF31
:101982000CF0B9EF0CF0D8900C360D360950075C0C
:101992000A500858D8A0D0EF0CF0D2EF0CF0D7EFD5
:1019A2000CF00950075E0A50085A0C80D8900A328F
:1019B20009320B2EC4EF0CF00CC007F00DC008F07A
:1019C20012000BEC0FF0520EFBEC0EF0B60EFBEC1D
:1019D2000EF001EC0FF0530EFBEC0EF0010EA3EC37
:1019E2000DF0076E07500A6E0B6A000EA3EC0DF0A5
:1019F200076E0750096E086A0A5008100A6E0B50EB
:101A020009100B6E06EC0FF00AC005F00BC006F0D1
:101A120012000BEC0FF0520EFBEC0EF0B80EFBECCA
:101A22000EF001EC0FF0530EFBEC0EF0010EA3ECE6
:101A32000DF0076E07500A6E0B6A000EA3EC0DF054
:101A4200076E0750096E086A0A5008100A6E0B509A
:101A520009100B6E06EC0FF00AC005F00BC006F081
:101A620012000BEC0FF0520EFBEC0EF0B40EFBEC7E
:101A72000EF001EC0FF0530EFBEC0EF0010EA3EC96
:101A82000DF0076E07500A6E0B6A000EA3EC0DF004
:101A9200076E0750096E086A0A5008100A6E0B504A
:101AA20009100B6E06EC0FF00AC005F00BC006F031
:101AB20012000BEC0FF0520EFBEC0EF0BA0EFBEC28
:101AC2000EF001EC0FF0530EFBEC0EF0010EA3EC46
:101AD2000DF0076E07500A6E0B6A000EA3EC0DF0B4
:101AE200076E0750096E086A0A5008100A6E0B50FA
:101AF20009100B6E06EC0FF00AC005F00BC006F0E1
:101B020012002EC030F08EEF0DF02DC022F0300EFC
:101B1200236E2FC024F008EC08F030C0F6FF0E0E42
:101B2200F76E000EF86E0800F5500009D8A49CEF7D
:101B32000DF09EEF0DF086EF0DF0000E2E6E000EF2
:101B42002D6E1200036E9CEC0EF00E01DA879CECF7
:101B52000EF0D5CE04F09CEC0EF00350D8B4B4EFE6
:101B62000DF0B8EF0DF0026A022AB9EF0DF0026A29
:101B7200023A02460E01DA510218DF0B0218DA6F3E
:101B8200DA8904501200000E0E6E000E0D6ED3EFB5
:101B92000DF00CC001F0026A0BC003F05FEC0AF01A
:101BA2000D4A0E2A0D500924D96E0E500A20DA6E03
:101BB200DF500C6E0C50D8A4E1EF0DF0E3EF0DF006
:101BC200CAEF0DF01200340E386E31C039F032C057
:101BD2003AF0000E3D6E000E3C6E000E446E000E9A
:101BE200436E390E2D6E33C02EF0380E2F6E82ECFE
:101BF2000DF03C503124D96E3D503220DA6EDF6A4E
:101C02001200220EF66E1E0EF76E000EF86E09001E
:101C1200F5CFFEF102EE00F0960EEE6AE806FDE167
:101C22000101FD6BFC6BFB6BFA6B5F6A5E6A5D6ABE
:101C32005C6A5B6A5A6A000186EF09F02EEF0EF0C9
:101C420002C0D9FF03C0DAFFDF50EFEC0EF0024A08
:101C5200032A6A0EE82EFED700D002C0D9FF03C0C5
:101C6200DAFFDF50D8A438EF0EF03AEF0EF021EF92
:101C72000EF0120008BE40EF0EF042EF0EF048EFF9
:101C82000EF007C007F008C008F054EF0EF007C0CE
:101C920009F008C00AF0091E0A1E094A0A2A09C0E8
:101CA20007F00AC008F0120087EC0EF0010E036E76
:101CB200000EC3EC0EF03F0E056E550EE82EFED759
:101CC200052EFCD70000030E036E000EC3EC0EF0CF
:101CD200D50E036E010EC3EC0EF01200608060B0F0
:101CE20075EF0EF077EF0EF070EF0EF064CF03F0A9
:101CF200046A0350FF08036E0450D8A0E82A0008C3
:101D0200046E03C001F004C002F012000E01D951AA
:101D1200F00B0809D96FD98B9F0ED66F848A848CF9
:101D2200A79BA79D1D0E1D6F1E0E1C6F1C0E6F6FB5
:101D32001B0E706F12000E01D8B5A2EF0EF0A4EFC9
:101D42000EF09CEF0EF0DACE01F01F0E0116D8A4B1
:101D5200ADEF0EF0AFEF0EF09CEF0EF0120001505F
:101D62000302F3CF05F0F4CF06F001500402F35062
:101D7200062602500302F350062605C001F006C0F3
:101D820002F01200046E0BEC0FF0520EFBEC0EF0A0
:101D920004508009FBEC0EF00350FBEC0EF006EC55
:101DA2000FF01200120E0E01626F110E156FE997FD
:101DB200E895330EE56F000EE66FE789E88BE78F53
:101DC2001200868C0E01B48D0F015899FC0E581723
:101DD2002E0E5F6F60946088608E1200016E0E019D
:101DE20037A5F6EF0EF0F8EF0EF0F0EF0EF001C0AF
:101DF200E4FE1200026E9CEC0EF002C0D5FE120050
:101E02009CEC0EF00E01DA8312009CEC0EF00E0137
:101E1200DA8512009CEC0EF00E01DA81120012003B
:011E220001BE
:020000040030CA
:02000000AAFF55
:020004009FFF5C
:00000001FF
