:0400000009EF1AF0FA
:100E00000043616C6962726174696F6E2073746112
:100E10007465203D20207768697465206C69676877
:100E2000740043616C6962726174696F6E207374DF
:100E3000617465203D20677265656E200A0D004370
:100E4000616C6962726174696F6E2073746174653C
:100E50003D20626C7565200A0D0043414C494252A9
:100E60004154494F4E20434F4D504C45544544202A
:100E70000A0D0043616C6962726174696F6E207360
:100E800074617465203D2072656400566F6C7461F6
:100E90006765203D2025642E253032642C202000FB
:100EA0006875653D253033642C202000636C6561D6
:100EB000723D25303364002E0000000E0001B46F37
:100EC000000EB56F000EB66F000EB76F4550D96EAD
:100ED000DA6ADECF46F0DDCF47F046C001F047C00A
:100EE00002F0036A046A000E82EC11F001C074F093
:100EF00002C075F003C076F004C077F04450D96E9C
:100F0000DA6ADECF46F0DDCF47F046C001F047C0D9
:100F100002F0036A046A000E82EC11F001C078F05E
:100F200002C079F003C07AF004C07BF04550D96E5E
:100F3000DA6A020ED926DECF46F0DDCF47F046C092
:100F400001F047C002F0036A046A000E82EC11F05F
:100F500001C07CF002C07DF003C07EF004C07FF0D1
:100F60004450D96EDA6A020ED926DECF46F0DDCFC4
:100F700047F046C001F047C002F0036A046A000E61
:100F800082EC11F001C080F002C081F003C082F059
:100F900004C083F04550D96EDA6A040ED926DECF3C
:100FA00046F0DDCF47F046C001F047C002F0036ACB
:100FB000046A000E82EC11F001C084F002C085F0DA
:100FC00003C086F004C087F04450D96EDA6A040E7C
:100FD000D926DECF46F0DDCF47F046C001F047C04E
:100FE00002F0036A046A000E82EC11F001C088F07E
:100FF00002C089F003C08AF004C08BF04550D96E5E
:10100000DA6A060ED926DECF46F0DDCF47F046C0BD
:1010100001F047C002F0036A046A000E82EC11F08E
:1010200001C08CF002C08DF003C08EF004C08FF0C0
:101030004450D96EDA6A060ED926DECF46F0DDCFEF
:1010400047F046C001F047C002F0036A046A000E90
:1010500082EC11F001C090F002C091F003C092F058
:1010600004C093F08CC019F08DC01AF08EC01BF034
:101070008FC01CF090C01DF091C01EF092C01FF0F8
:1010800093C020F0B5EC0FF019C094F01AC095F0A1
:101090001BC096F01CC097F0600E316EAC0E326E25
:1010A00094C033F095C034F096C035F097C036F058
:1010B0003EEC1AF0600E026E72EC1AF074C019F079
:1010C00075C01AF076C01BF077C01CF078C01DF018
:1010D00079C01EF07AC01FF07BC020F0B5EC0FF095
:1010E00019C0B8F01AC0B9F01BC0BAF01CC0BBF0F0
:1010F0007CC019F07DC01AF07EC01BF07FC01CF0D0
:1011000080C01DF081C01EF082C01FF083C020F09F
:10111000B5EC0FF019C0BCF01AC0BDF01BC0BEF09A
:101120001CC0BFF084C019F085C01AF086C01BF047
:1011300087C01CF088C01DF089C01EF08AC01FF057
:101140008BC020F0B5EC0FF019C0C0F01AC0C1F090
:101150001BC0C2F01CC0C3F0B8C001F0B9C002F09F
:10116000BAC003F0BBC004F0BCC005F0BDC006F0BF
:10117000BEC007F0BFC008F035EC15F0D8A0C3EF33
:1011800008F0C5EF08F0FAEF08F0BCC001F0BDC0F0
:1011900002F0BEC003F0BFC004F0C0C005F0C1C083
:1011A00006F0C2C007F0C3C008F035EC15F0D8A0B7
:1011B000DCEF08F0DEEF08F0E8EF08F0C0C098F0D0
:1011C000C1C099F0C2C09AF0C3C09BF0F0EF08F024
:1011D000BCC098F0BDC099F0BEC09AF0BFC09BF0F3
:1011E00098C0A8F099C0A9F09AC0AAF09BC0ABF033
:1011F0002DEF09F0B8C001F0B9C002F0BAC003F099
:10120000BBC004F0C0C005F0C1C006F0C2C007F00A
:10121000C3C008F035EC15F0D8A011EF09F013EFBA
:1012200009F01DEF09F0C0C09CF0C1C09DF0C2C024
:101230009EF0C3C09FF025EF09F0B8C09CF0B9C084
:101240009DF0BAC09EF0BBC09FF09CC0A8F09DC0AE
:10125000A9F09EC0AAF09FC0ABF0BCC001F0BDC019
:1012600002F0BEC003F0BFC004F0B8C005F0B9C0C2
:1012700006F0BAC007F0BBC008F035EC15F0D8A0F6
:1012800044EF09F046EF09F07BEF09F0C0C001F030
:10129000C1C002F0C2C003F0C3C004F0BCC005F07E
:1012A000BDC006F0BEC007F0BFC008F035EC15F0B9
:1012B000D8A05DEF09F05FEF09F069EF09F0C0C059
:1012C000A0F0C1C0A1F0C2C0A2F0C3C0A3F071EFF2
:1012D00009F0BCC0A0F0BDC0A1F0BEC0A2F0BFC06C
:1012E000A3F0A0C0B0F0A1C0B1F0A2C0B2F0A3C002
:1012F000B3F0AEEF09F0C0C001F0C1C002F0C2C04F
:1013000003F0C3C004F0B8C005F0B9C006F0BAC01D
:1013100007F0BBC008F035EC15F0D8A092EF09F04B
:1013200094EF09F09EEF09F0C0C0A4F0C1C0A5F091
:10133000C2C0A6F0C3C0A7F0A6EF09F0B8C0A4F0E1
:10134000B9C0A5F0BAC0A6F0BBC0A7F0A4C0B0F069
:10135000A5C0B1F0A6C0B2F0A7C0B3F0B0C011F004
:10136000B1C012F0B2C013F0B3C014F0A8C015F0B1
:10137000A9C016F0AAC017F0ABC018F084EC19F0A1
:1013800011C0ACF012C0ADF013C0AEF014C0AFF09D
:10139000B0C001F0B1C002F0B2C003F0B3C004F0BD
:1013A000A8C005F0A9C006F0AAC007F0ABC008F0BD
:1013B000A7EC17F0D8A0DFEF09F0E1EF09F0ECEFB0
:1013C00009F0000E0001B46F000EB56F000EB66F8D
:1013D000000EB76FF5EF0AF0B0C001F0B1C002F037
:1013E000B2C003F0B3C004F0B8C005F0B9C006F055
:1013F000BAC007F0BBC008F0A7EC17F0D8A003EF05
:101400000AF005EF0AF033EF0AF0BCC015F0BDC0DA
:1014100016F0BEC017F0BFC018F0C0C011F0C1C0B8
:1014200012F0C2C013F0C3C014F084EC19F011C064
:1014300019F012C01AF013C01BF014C01CF0ACC09D
:101440001DF0ADC01EF0AEC01FF0AFC020F0B5EC77
:101450000FF019C0B4F01AC0B5F01BC0B6F01CC034
:10146000B7F0F5EF0AF0B0C001F0B1C002F0B2C0C1
:1014700003F0B3C004F0BCC005F0BDC006F0BEC0B0
:1014800007F0BFC008F0A7EC17F0D8A04AEF0AF0A9
:101490004CEF0AF094EF0AF0B8C015F0B9C016F09E
:1014A000BAC017F0BBC018F0C0C011F0C1C012F034
:1014B000C2C013F0C3C014F084EC19F011C019F0CD
:1014C00012C01AF013C01BF014C01CF0ACC01DF009
:1014D000ADC01EF0AEC01FF0AFC020F0B5EC0FF0F5
:1014E00019C0B4F01AC0B5F01BC0B6F01CC0B7F0FC
:1014F000B4C001F0B5C002F0B6C003F0B7C004F04C
:10150000000E056E000E066E000E076E400E086E91
:1015100040EC0BF001C0B4F002C0B5F003C0B6F06F
:1015200004C0B7F0F5EF0AF0B0C001F0B1C002F0AE
:10153000B2C003F0B3C004F0C0C005F0C1C006F0F3
:10154000C2C007F0C3C008F0A7EC17F0D8A0ABEFFB
:101550000AF0ADEF0AF0F5EF0AF0BCC015F0BDC01F
:1015600016F0BEC017F0BFC018F0B8C011F0B9C077
:1015700012F0BAC013F0BBC014F084EC19F011C023
:1015800019F012C01AF013C01BF014C01CF0ACC04C
:101590001DF0ADC01EF0AEC01FF0AFC020F0B5EC26
:1015A0000FF019C0B4F01AC0B5F01BC0B6F01CC0E3
:1015B000B7F0B4C001F0B5C002F0B6C003F0B7C0D8
:1015C00004F0000E056E000E066E800E076E400ED3
:1015D000086E40EC0BF001C0B4F002C0B5F003C0DF
:1015E000B6F004C0B7F0F5EF0AF0B4C001F0B5C032
:1015F00002F0B6C003F0B7C004F0000E056E000E96
:10160000066E700E076E420E086EA0EC0DF001C063
:10161000B4F002C0B5F003C0B6F004C0B7F00001EA
:10162000B7BF17EF0BF015EF0BF031EF0BF0B4C0B5
:1016300001F0B5C002F0B6C003F0B7C004F0000E70
:10164000056E000E066EB40E076E430E086E40EC7B
:101650000BF001C0B4F002C0B5F003C0B6F004C096
:10166000B7F0B4C001F0B5C002F0B6C003F0B7C027
:1016700004F0B2EC14F001C044F002C045F01200D6
:101680000450800B0D6E045004240F6E03AE4BEF1C
:101690000BF04DEF0BF04EEF0BF00F800F50D8B466
:1016A00054EF0BF056EF0BF06BEF0BF00F28D8A4B4
:1016B0005CEF0BF05EEF0BF066EF0BF0000E016ECF
:1016C000000E026E000E036E000E046E038E000EFE
:1016D000046E73EF0BF0000E016E000E026E000E32
:1016E000036E000E046E0850800B0E6E0D500E1827
:1016F000D8B47DEF0BF07FEF0BF080EF0BF00D8C8B
:10170000085008240E6E07AE88EF0BF08AEF0BF03E
:101710008BEF0BF00E800E50D8B491EF0BF093EFDF
:101720000BF0A8EF0BF00E28D8A499EF0BF09BEF6D
:101730000BF0A3EF0BF0000E056E000E066E000E10
:10174000076E000E086E078E000E086EB0EF0BF0ED
:10175000000E056E000E066E000E076E000E086E7F
:101760000F500E5CD8B0B7EF0BF0B9EF0BF0E0EF15
:101770000BF00DACBEEF0BF0C0EF0BF0C2EF0BF0B7
:10178000800E0D1A0FC010F00EC00FF010C00EF03A
:1017900001C010F005C001F010C005F002C010F04B
:1017A00006C002F010C006F003C010F007C003F03E
:1017B00010C007F004C010F008C004F010C008F01A
:1017C000000E106E0F500EC009F00A6A095E000E7E
:1017D0000A5A0ABEF5EF0BF00A5009E11A0E095C2D
:1017E000D8A0F5EF0BF0F7EF0BF02EEF0CF0015057
:1017F000021003100410D8A400EF0CF003EF0CF05B
:10180000010E04EF0CF0000E106E000E016E000EC3
:10181000026E000E036E000E046E0EC00FF037EF66
:101820000CF010A016EF0CF018EF0CF01EEF0CF0FF
:10183000D89010300109106E20EF0CF0D8901032C3
:1018400001A025EF0CF027EF0CF028EF0CF0108E24
:10185000043404320332023201320F2A0E500F5C7C
:10186000D8A035EF0CF037EF0CF011EF0CF00DBCF9
:101870003CEF0CF03EEF0CF07EEF0CF00F50D8A4D4
:1018800044EF0CF046EF0CF050EF0CF0000E016E40
:10189000000E026E000E036E000E046E9FEF0DF040
:1018A0000550012606500222075003220850042248
:1018B00004A05DEF0CF05FEF0CF00BEF0DF010A04B
:1018C00064EF0CF066EF0CF06CEF0CF0D890103079
:1018D0000109106E6EEF0CF0D890103201A073EF7A
:1018E0000CF075EF0CF076EF0CF0108E043404322F
:1018F0000332023201320F2A0BEF0DF00550015C6A
:1019000006500258075003580450800A096E0850C8
:10191000800A0958D8B08FEF0CF091EF0CF0BCEFB3
:101920000CF00150055C096E025006580A6E035017
:1019300007580B6E045008580C6EFF0E0924016EF8
:10194000FF0E0A20026EFF0E0B20036EFF0E0C200E
:10195000046E800E0D1A106C1050D8A4B2EF0CF06B
:10196000B4EF0CF0C4EF0CF0010E0126000E0222C1
:1019700003220422C4EF0CF00550015E0650025A07
:101980000750035A0850045A015002100310041063
:10199000D8A4CDEF0CF0CFEF0CF004EF0DF0105009
:1019A000D8A4D5EF0CF0D7EF0CF004EF0DF0000E3B
:1019B000016E000E026E000E036E000E046E9FEFAD
:1019C0000DF0D890013602360336043610AEEBEF38
:1019D0000CF0EDEF0CF0EEEF0CF0018010A0F3EF47
:1019E0000CF0F5EF0CF0F9EF0CF0D8801036FBEFAF
:1019F0000CF0D89010360F50D8B401EF0DF003EF73
:101A00000DF004EF0DF00F0603AE09EF0DF00BEF34
:101A10000DF0E1EF0CF0000E0E6E10AE12EF0DF0B7
:101A200014EF0DF02CEF0DF010C009F07F0E091629
:101A3000D8B41DEF0DF01FEF0DF023EF0DF0010EE8
:101A40000E6E2CEF0DF001A028EF0DF02AEF0DF037
:101A50002CEF0DF01FEF0DF00E50D8B432EF0DF05B
:101A600034EF0DF05FEF0DF0010E0126000E0222A3
:101A70000322042204A03FEF0DF041EF0DF05FEFD1
:101A80000DF001C009F002C00AF003C00BF004C061
:101A90000CF00C340C320B320A32093209C001F05E
:101AA0000AC002F00BC003F00CC004F00F28D8B439
:101AB0005CEF0DF05EEF0DF05FEF0DF00F2A0F28D9
:101AC000D8B465EF0DF067EF0DF06FEF0DF00F502C
:101AD000D8A46DEF0DF06FEF0DF081EF0DF0000E5B
:101AE000016E000E026E000E036E000E046E0F50AB
:101AF000D8A47DEF0DF07FEF0DF081EF0DF0000E1B
:101B00000D6E0FA086EF0DF088EF0DF08BEF0DF04E
:101B1000038E8CEF0DF0039ED8900F30046E0DAE47
:101B200094EF0DF096EF0DF097EF0DF0048E01C0DD
:101B300001F002C002F003C003F004C004F0120080
:101B40000450800B0D6E04500424136E03AEABEFF3
:101B50000DF0ADEF0DF0AEEF0DF013801350D8B4D3
:101B6000B4EF0DF0B6EF0DF0C9EF0DF01328D8A4C7
:101B7000BCEF0DF0BEEF0DF0C6EF0DF0000E016EE4
:101B8000000E026E000E036E000E046E038ED1EF87
:101B90000DF0000E016E000E026E000E036E000EC0
:101BA000046E0850800B0D1A085008240E6E07AE04
:101BB000DCEF0DF0DEEF0DF0DFEF0DF00E800E50DC
:101BC000D8B4E5EF0DF0E7EF0DF0FAEF0DF00E28C9
:101BD000D8A4EDEF0DF0EFEF0DF0F7EF0DF0000EE4
:101BE000056E000E066E000E076E000E086E078E64
:101BF00002EF0EF0000E056E000E066E000E076E70
:101C0000000E086E0E50D8B408EF0EF00AEF0EF07A
:101C100012EF0EF01350D8A410EF0EF012EF0EF0EA
:101C20001CEF0EF0000E016E000E026E000E036E31
:101C3000000E046EB4EF0FF007500102F3CF18F05E
:101C4000F4CF19F018500F6E106A116A126A195009
:101C5000146E156A166A176A06500202F3CF18F05E
:101C6000F4CF19F018500F26000E10221122122264
:101C700019501426000E15221622172205500302B1
:101C8000F3CF18F0F4CF19F018500F26000E1022E1
:101C90001122122219501426000E15221622172284
:101CA00011C012F010C011F00FC010F00F6A0550F3
:101CB0000202F3CF18F0F4CF19F018500F26195084
:101CC0001022000E1122000E122206500102F3CF44
:101CD00018F0F4CF19F018500F2619501022000EEA
:101CE0001122000E122211C012F010C011F00FC00C
:101CF00010F00F6A05500102F3CF18F0F4CF19F07D
:101D000018500F2619501022000E1122000E122218
:101D100007500202F3CF18F0F4CF19F01850142630
:101D200019501522000E1622000E1722065003022B
:101D3000F3CF18F0F4CF19F01850142619501522CB
:101D4000000E1622000E172207500302F3CF18F0E0
:101D5000F4CF19F01850096E19500A6E0B6A0C6A0C
:101D60000BC00CF00AC00BF009C00AF0096A095058
:101D700014260A5015220B5016220C5017220FC0A1
:101D800009F010C00AF011C00BF012C00CF0190ECF
:101D9000CFEF0EF0D8900C320B320A320932E82E17
:101DA000CAEF0EF0095014260A5015220B501622C5
:101DB0000C50172211C012F010C011F00FC010F01B
:101DC0000F6A0E5013C009F00A6A0926000E0A2293
:101DD000820E0924186EFF0E0A20196E05EF0FF00F
:101DE000D890143615361636173612AEFAEF0EF0B6
:101DF000FCEF0EF0FDEF0EF01480D8900F36103689
:101E0000113612361806D8A0190616AE0AEF0FF0D2
:101E10000CEF0FF0F0EF0EF0000E0E6E12AE13EF9F
:101E20000FF015EF0FF039EF0FF0FF0E0F14096EE2
:101E3000FF0E10140A6EFF0E11140B6E7F0E12149B
:101E40000C6E09500A100B100C10D8B42AEF0FF0CA
:101E50002CEF0FF030EF0FF0010E0E6E39EF0FF098
:101E600014A035EF0FF037EF0FF039EF0FF02CEF34
:101E70000FF00E50D8B43FEF0FF041EF0FF065EFC9
:101E80000FF0010E1426000E15221622172217A09D
:101E90004CEF0FF04EEF0FF065EF0FF014C009F0AC
:101EA00015C00AF016C00BF017C00CF00C340C3241
:101EB0000B320A32093209C014F00AC015F00BC007
:101EC00016F00CC017F0184A192A19BE70EF0FF05F
:101ED000195008E11828D8A070EF0FF072EF0FF03A
:101EE0007CEF0FF0000E146E000E156E800E166E55
:101EF0007F0E176EAAEF0FF019BE89EF0FF0195081
:101F000006E11804D8B087EF0FF089EF0FF095EFD6
:101F10000FF0000E146E000E156E000E166E000E01
:101F2000176E000E0D6EAAEF0FF018C013F0FF0E23
:101F30001416FF0E15167F0E1616000E171613A098
:101F4000A4EF0FF0A6EF0FF0A7EF0FF0168ED890CA
:101F50001330176E0D50171214C001F015C002F0A7
:101F600016C003F017C004F012001C50800B296E3D
:101F70001C501C24306E1BAEC0EF0FF0C2EF0FF0F0
:101F8000C3EF0FF030803050D8B4C9EF0FF0CBEF73
:101F90000FF0E0EF0FF03028D8A4D1EF0FF0D3EF1F
:101FA0000FF0DBEF0FF0000E196E000E1A6E000E30
:101FB0001B6E000E1C6E1B8E000E1C6EE8EF0FF0E9
:101FC000000E196E000E1A6E000E1B6E000E1C6EB7
:101FD0002050800B291A20502024316E1FAEF3EFC1
:101FE0000FF0F5EF0FF0F6EF0FF031803150D8B46D
:101FF000FCEF0FF0FEEF0FF013EF10F03128D8A434
:1020000004EF10F006EF10F00EEF10F0000E1D6E52
:10201000000E1E6E000E1F6E000E206E1F8E000E34
:10202000206E1BEF10F0000E1D6E000E1E6E000ED7
:102030001F6E000E206E1D501E101F102010D8A401
:1020400024EF10F026EF10F03EEF10F0000E196EA6
:10205000000E1A6E000E1B6E000E1C6E800E1B1200
:102060007F0E1C1229501C1219C019F01AC01AF048
:102070001BC01BF01CC01CF081EF11F03050D8A425
:1020800044EF10F046EF10F050EF10F0000E196E14
:10209000000E1A6E000E1B6E000E1C6E81EF11F00A
:1020A000315030C021F0226A215E000E225A7F0E8C
:1020B00021242A6E000E22202B6E19C025F01AC092
:1020C00026F01BC027F01CC028F0000E196E000E71
:1020D0001A6E000E1B6E000E1C6E000E2C6E000E93
:1020E0002D6E000E2E6E000E2F6E000E316EB1EFB3
:1020F00010F03150D8B47FEF10F081EF10F098EF6E
:1021000010F0D8902536263627362836D89019363E
:102110001A361B361C362FAE90EF10F092EF10F0EF
:1021200093EF10F01980D8902C362D362E362F369E
:102130001D50255C1E5026581F50275820502858E7
:10214000D8A0A5EF10F0A7EF10F0B0EF10F02F8C93
:102150001D50255E1E50265A1F50275A2050285ABF
:10216000312A190E3164B7EF10F0B9EF10F079EFA2
:1021700010F02550261027102810D8B4C2EF10F008
:10218000C4EF10F0DCEF10F02C80DCEF10F0D890F2
:1021900019361A361B361C362FAED1EF10F0D3EF9E
:1021A00010F0D4EF10F01980D8902C362D362E3642
:1021B0002F362A06D8A02B061BAEE1EF10F0E3EF76
:1021C00010F0C7EF10F0000E316E2FAEEAEF10F0F6
:1021D000ECEF10F010EF11F0FF0E2C14216EFF0E3B
:1021E0002D14226EFF0E2E14236E7F0E2F14246EDC
:1021F0002150221023102410D8B401EF11F003EF66
:1022000011F007EF11F0010E316E10EF11F019A06F
:102210000CEF11F00EEF11F010EF11F003EF11F0D1
:102220003150D8B416EF11F018EF11F03CEF11F067
:10223000010E1926000E1A221B221C221CA023EFBD
:1022400011F025EF11F03CEF11F019C021F01AC088
:1022500022F01BC023F01CC024F02434243223328B
:102260002232213221C019F022C01AF023C01BF003
:1022700024C01CF02A4A2B2A2BBE47EF11F02B500A
:1022800008E12A28D8A047EF11F049EF11F054EFE8
:1022900011F0000E2B6E2A68000E196E000E1A6ED9
:1022A000000E1B6E000E1C6E2BBE61EF11F02B504A
:1022B00006E12A04D8B05FEF11F061EF11F06FEF83
:1022C00011F0000E2B6E000E2A6E000E196E000E1D
:1022D0001A6E000E1B6E000E1C6E000E296E2AC0B8
:1022E00030F030A076EF11F078EF11F07BEF11F0C5
:1022F0001B8E7CEF11F01B9ED89030301C6E32EF9D
:1023000010F01200096E0950D8B489EF11F08BEF6C
:1023100011F0ADEF11F004BE92EF11F090EF11F05B
:10232000ADEF11F001C005F002C006F003C007F0E8
:1023300004C008F0051E061E071E081E052A000E12
:1023400006220722082205C00BF006C00CF007C0C9
:102350000DF008C00EF0B5EF11F001C00BF002C097
:102360000CF003C00DF004C00EF001500210031079
:102370000410D8A4BEEF11F0C0EF11F0CAEF11F0B5
:10238000000E016E000E026E000E036E000E046E53
:102390005BEF12F0960E0A6ED4EF11F00A2AD89075
:1023A0000E320D320C320B32000E0B14056E000E85
:1023B0000C14066E000E0D14076EFE0E0E14086E41
:1023C0000550061007100810D8A4E9EF11F0EBEF44
:1023D00011F0CEEF11F0F9EF11F00A2A010E0B26E1
:1023E000000E0C220D220E22D8900E320D320C322D
:1023F0000B32000E0B14056E000E0C14066E000E50
:102400000D14076EFF0E0E14086E0550061007100F
:102410000810D8A40EEF12F010EF12F0EDEF11F04B
:1024200018EF12F00A06D8900B360C360D360E3621
:102430000DBE1DEF12F01FEF12F027EF12F0020E8B
:102440000A6025EF12F027EF12F012EF12F00AB037
:102450002CEF12F02EEF12F02FEF12F00D9ED8900D
:102460000A320AC005F0066A076A086A05C008F061
:10247000076A066A056A05500B1206500C120750CF
:102480000D1208500E120950D8B449EF12F04BEF5C
:1024900012F053EF12F004BE52EF12F050EF12F0B0
:1024A00053EF12F00E8E0BC001F00CC002F00DC005
:1024B00003F00EC004F012007F907D9E7996470EC7
:1024C000316E730E326EB70E336E3350D8A40E0ECB
:1024D000346E3EEC1AF0470E026E72EC1AF08EB4B7
:1024E00074EF12F076EF12F06FEF12F07F80290E8A
:1024F000466E960E456E7F0EE82EFED7452EFCD713
:10250000462EFAD70000E4EC18F04450D96EDA6A8F
:1025100005C0DEFF06C0DDFF7F90470E316E220E44
:10252000326EB70E336E3350D8A40E0E346E3EECBE
:102530001AF0470E026E72EC1AF08EB4A2EF12F08F
:10254000A4EF12F09DEF12F07D8E290E466E960ECE
:10255000456E7F0EE82EFED7452EFCD7462EFAD7C5
:1025600000000CEC19F04450D96EDA6A020ED9263C
:1025700005C0DEFF06C0DDFF7D9E470E316E3F0EBB
:10258000326EB70E336E3350D8A40E0E346E3EEC5E
:102590001AF0470E026E72EC1AF08EB4D2EF12F0FF
:1025A000D4EF12F0CDEF12F07986290E466E960E1A
:1025B000456E7F0EE82EFED7452EFCD7462EFAD765
:1025C00000005CEC19F04450D96EDA6A040ED9268A
:1025D00005C0DEFF06C0DDFF7996470E316E010EA5
:1025E000326EB70E336E3350D8A40E0E346E3EECFE
:1025F0001AF0470E026E72EC1AF08EB402EF13F06E
:1026000004EF13F0FDEF12F07F807D8E7986290EA6
:10261000466E960E456E7F0EE82EFED7452EFCD7F1
:10262000462EFAD7000034EC19F04450D96EDA6A1D
:10263000060ED92605C0DEFF06C0DDFF7F907D9E19
:102640007996470E316E5A0E326EB70E336E335096
:10265000D8A40E0E346E3EEC1AF0470E026E72ECE9
:102660001AF012002350D96EDA6ADFCFF6FF0E0E91
:10267000F76E000EF86E0800F550250AD8A443EF57
:1026800013F045EF13F0E2EF13F02350D96EDA6A3E
:10269000DF2A000E0001CF6F000ECE6FCEC0D2F049
:1026A000D069D169000E2B6E7DEF13F00001D2834B
:1026B0002350D96EDA6ADF2A7DEF13F0010E2B6EFC
:1026C0007DEF13F02350D96EDA6ADFCFF6FF0E0EDE
:1026D000F76E000EF86E0800F550256E266A26503B
:1026E000000AD8B476EF13F05EEF13F02550300AED
:1026F000D8B456EF13F05EEF13F02B50D8B483EF3D
:1027000013F085EF13F062EF13F023C007F024C03D
:1027100008F050EC17F007C0CEF008C0CFF0000171
:10272000CFBF97EF13F095EF13F09CEF13F0D2812A
:10273000CE6DCF1FD8B0CF2B2350D96EDA6ADF50C1
:102740002C6E2CC0F6FF0E0EF76E000EF86E080011
:10275000F550640AD8B4AFEF13F0B1EF13F0C1EF46
:1027600013F02CC0F6FF0E0EF76E000EF86E080088
:10277000F550690AD8A4BFEF13F0C1EF13F0DCEFF6
:1027800013F02450D96EDA6A020EDF26DF5CD96EB0
:10279000DA6ADECF27F0DECF28F02350D96EDA6A6E
:1027A0002C28DF6E22C017F027C018F028C019F0BF
:1027B000F6EC13F0F5EF13F02350D96EDA6ADF2A46
:1027C000F5EF13F02350D96EDA6ADFCFF6FF0E0E65
:1027D000F76E000EF86E0800F550016E026A22C016
:1027E00003F0FCEC17F0DCEF13F01200010E1C6E8E
:1027F00019BEFDEF13F000EF14F0010E01EF14F01D
:10280000000E1F6ECEC01DF0CFC01EF01F50D8B4FA
:102810000CEF14F00EEF14F025EF14F01D06D8A005
:102820001E061F50D8A417EF14F019EF14F01FEF75
:1028300014F0000E1B6E2B0E1A6E23EF14F0000E18
:102840001B6E2D0E1A6E1AC01FF0000E216E1F0E89
:10285000206E000E0101836F5DEF14F02006D8A0FA
:102860002106640E2024D96E010E2120DA6E18C0D4
:1028700001F019C002F0000E046E0A0E036EF8ECAF
:1028800016F001C007F002C008F058EC1AF007502B
:10289000300FDF6E000E1C6E1D06D8A01E0618C07D
:1028A00001F019C002F0000E046E0A0E036E96ECE1
:1028B00016F001C018F002C019F021BE68EF14F044
:1028C000215008E12004D8A068EF14F06AEF14F05A
:1028D00090EF14F018501910D8A471EF14F073EFA2
:1028E00014F02EEF14F01C50D8A479EF14F07BEF05
:1028F00014F02EEF14F01EBE86EF14F01E5008E107
:102900001D04D8A086EF14F088EF14F090EF14F0B7
:102910000001D2B38EEF14F090EF14F02EEF14F00C
:102920001F50D8B496EF14F098EF14F0A3EF14F002
:102930002006D8A02106640E2024D96E010E212085
:10294000DA6E1FC0DFFF17C00FF0640E2024106E78
:10295000010E2120116E1DC012F01EC013F051ECAB
:1029600018F01200033404340A6E0A50D8A4BBEFE6
:1029700014F0BDEF14F0C7EF14F0000E016E000E5E
:10298000026E000E036E000E046E34EF15F001C0EF
:1029900005F002C006F003C007F004C008F0200EE6
:1029A000D7EF14F0D8900832073206320532E82EFD
:1029B000D2EF14F00550096E038EFF0E0116FF0EC4
:1029C0000216FF0E0316000E0416960E0A5E0ABECD
:1029D000EEEF14F0ECEF14F004EF15F00A50800A5B
:1029E000970FD8B0F6EF14F0F8EF14F0FAEF14F0F8
:1029F000BDEF14F0D89004320332023201320A3EA5
:102A0000FAEF14F01CEF15F01F0E0A640AEF15F030
:102A10000CEF15F014EF15F0BDEF14F0D89001365F
:102A20000236033604360A060A50D8A41AEF15F007
:102A30001CEF15F00EEF15F00950D8B422EF15F089
:102A400024EF15F02CEF15F0041E031E021E016C7E
:102A5000000E02220322042201C001F002C002F093
:102A600003C003F004C004F01200000E0114096E4C
:102A7000000E02140A6E800E03140B6E7F0E0414F7
:102A80000C6E09500A100B100C10D8A44AEF15F068
:102A90004CEF15F054EF15F0000E016E000E026EB3
:102AA000000E036E000E046E000E0514096E000E7B
:102AB00006140A6E800E07140B6E7F0E08140C6E3F
:102AC00009500A100B100C10D8A469EF15F06BEF29
:102AD00015F073EF15F0000E056E000E066E000E79
:102AE000076E000E086E04AE78EF15F07AEF15F061
:102AF00083EF15F0016C021ED8B0022A031ED8B075
:102B0000032A800E045608AE88EF15F08AEF15F000
:102B100093EF15F0056C061ED8B0062A071ED8B034
:102B2000072A800E0856000E011A000E021A000E27
:102B3000031A800E041A000E051A000E061A000E63
:102B4000071A800E081A0550015C065002580750FB
:102B5000035808500458D8B0B0EF15F0B2EF15F094
:102B6000B5EF15F0D890B6EF15F0D88012007F8041
:102B70007D9E7996290E4B6E960E4A6E7F0EE82E3C
:102B8000FED74A2EFCD74B2EFAD70000E4EC18F003
:102B90004850D96EDA6A05C0DEFF06C0DDFF7F90BF
:102BA0007D8E7996290E4B6E960E4A6E7F0EE82E1C
:102BB000FED74A2EFCD74B2EFAD700000CEC19F0AA
:102BC0004850D96EDA6A020ED92605C0DEFF06C06B
:102BD000DDFF7F907D9E7986290E4B6E960E4A6EA4
:102BE0007F0EE82EFED74A2EFCD74B2EFAD70000D8
:102BF0005CEC19F04850D96EDA6A040ED92605C08B
:102C0000DEFF06C0DDFF7F807D8E7986290E4B6E4C
:102C1000960E4A6E7F0EE82EFED74A2EFCD74B2E1C
:102C2000FAD7000034EC19F04850D96EDA6A060E73
:102C3000D92605C0DEFF06C0DDFFEF0E446EE70EAD
:102C4000456E5DEC07F044C04CF045C04DF04CC003
:102C500044F04DC045F0D7EC1AF04CC048F04DC0E0
:102C600049F01200F5EC1AF024EC1AF0E6EC1AF038
:102C7000000E026E630E016E9CEC18F0000E000157
:102C8000DE6F010EDF6F010EE06F000EE26F630E6C
:102C9000E16FAA0EE36F0F0EE46FA60EE56F0F0E45
:102CA000E66F000ED56F010ED66F010ED76F000EC6
:102CB000D96F630ED86F250EDA6F0F0EDB6F210E02
:102CC000DC6F0F0EDD6F7C9E849E87907F90859ECB
:102CD0007D9E8196799686860E01B4978896808629
:102CE000190E5C6E5A0E5B6EB20EE82EFED75B2E8E
:102CF000FCD75C2EFAD780967E9486840E01B4951C
:102D0000EF0E446E5CEC12F0E70E486EB7EC15F077
:102D100048C0C4F049C0C5F0C4C044F0C5C045F0C7
:102D2000D7EC1AF084EF16F000EF00F0000E066EFC
:102D300004BE9FEF16F09DEF16F0A5EF16F0036CA2
:102D4000041ED8B0042A010E066E02BEACEF16F0C7
:102D5000AAEF16F0B2EF16F0016C021ED8B0022AEC
:102D6000010E061A000E086E000E076E03500410C6
:102D7000D8B4BDEF16F0BFEF16F0E7EF16F0010E76
:102D8000056EC7EF16F0D89003360436052A04AE58
:102D9000CCEF16F0CEEF16F0C3EF16F0D890073652
:102DA00008360350015C04500258D8A0DAEF16F040
:102DB000DCEF16F0E1EF16F00350015E0450025A0A
:102DC0000780D89004320332052ECEEF16F006505D
:102DD000D8B4EDEF16F0EFEF16F0F3EF16F0076C46
:102DE000081ED8B0082A07C001F008C002F012007F
:102DF000000E066E02BE01EF17F0FFEF16F007EFB0
:102E000017F0016C021ED8B0022A010E066E04BE35
:102E10000EEF17F00CEF17F012EF17F0036C041E13
:102E2000D8B0042A03500410D8B419EF17F01BEFE0
:102E300017F03FEF17F0010E056E23EF17F0D89053
:102E400003360436052A04AE28EF17F02AEF17F0F0
:102E50001FEF17F00350015C04500258D8A033EF65
:102E600017F035EF17F039EF17F00350015E0450FB
:102E7000025AD89004320332052E2AEF17F006507A
:102E8000D8B445EF17F047EF17F04BEF17F0016C90
:102E9000021ED8B0022A01C001F002C002F01200E6
:102EA000000E0B6E000E0A6E0750D96EDA6ADFCF85
:102EB000F6FF0E0EF76E000EF86E0800F5502A0AA7
:102EC000D8A465EF17F067EF17F08DEF17F00750F4
:102ED000D96EDA6ADF2A0850D96EDA6A020EDF2666
:102EE000DF5CD96EDA6ADECF0AF0DECF0BF0A2EF3C
:102EF00017F00AC001F00BC002F0000E046E0A0EBB
:102F0000036EB4EC1AF0095001240A6E000E022080
:102F10000B6E0750D96EDA6ADF2A0750D96EDA6A6B
:102F2000DFCFF6FF0E0EF76E000EF86E0800F550BC
:102F3000D00F096E090E0964A0EF17F0A2EF17F089
:102F400079EF17F00AC007F00BC008F01200000E6E
:102F50000114096E000E02140A6E800E03140B6E2B
:102F60007F0E04140C6E09500A100B100C10D8A41C
:102F7000BCEF17F0BEEF17F0C6EF17F0000E016EB2
:102F8000000E026E000E036E000E046E000E05149D
:102F9000096E000E06140A6E800E07140B6E7F0E6B
:102FA00008140C6E09500A100B100C10D8A4DBEF9B
:102FB00017F0DDEF17F0E5EF17F0000E056E000ECD
:102FC000066E000E076E000E086E055001180FE128
:102FD000065002180CE10750031809E108500418C4
:102FE000D8B4F5EF17F0F7EF17F0FAEF17F0D89025
:102FF000FBEF17F0D88012000350D8B402EF18F09E
:1030000004EF18F00CEF18F00350D8A40AEF18F0F2
:103010000CEF18F011EF18F0015023EC1BF050EFFB
:1030200018F00350D96EDA6A0A0ED926DE50DE1087
:10303000D8B41DEF18F01FEF18F038EF18F0035058
:10304000D96EDA6A0A0ED9260350E16EE26A030EDF
:10305000E126DE50E65CE650800A086EDE50800A0B
:103060000858D8B036EF18F038EF18F050EF18F0D5
:103070000350D96EDA6A030ED926DF50046E03506E
:10308000D96EDA6ADF500424D96EDA6A01C0DFFF34
:103090000350D96EDA6A030ED926DE2A000EDD222D
:1030A00012000001D2A157EF18F059EF18F061EFAC
:1030B00018F010C009F011C00AF00FC00BF0E9ECD5
:1030C00019F013BE68EF18F066EF18F06CEF18F007
:1030D000000E136E000E126E000E166E000E156EB0
:1030E0007CEF18F0000E026E200E016E0FC003F090
:1030F000FCEC17F0154A162A1250155C1650800A7F
:10310000146E1350800A1458D8A089EF18F08BEF72
:1031100018F072EF18F00001D2B191EF18F093EFB0
:1031200018F09BEF18F010C009F011C00AF00FC0A2
:103130000BF0E9EC19F012008594839E8598879C2A
:103140007D947B9E7D987F9C050E0E01746F060E0C
:10315000766F070E696F080E886FBD508F0B4009A0
:10316000BD6EE00EBE16BF50F00B0109BF6E01C070
:10317000BCFFBD8E000EAA6E000EA66E000E0F01E3
:10318000256F000E216FFC0EAD16F30EAD16CF0E9F
:10319000AD163F0EAD16AB88AB50F00B0C09AB6E05
:1031A000AB8EA788A750F00B0C09A76EA78E2689B7
:1031B0002651F00B0C09266F268F22892251F00B25
:1031C0000C09226F228F120019EC1BF0520E0EEC2C
:1031D0001BF0B60E0EEC1BF01EEC1BF0530E0EECAB
:1031E0001BF0010EC8EC19F0076E07500A6E0B6A4F
:1031F000000EC8EC19F0076E0750096E086A0A50F5
:1032000008100A6E0B5009100B6E14EC1BF00AC06C
:1032100005F00BC006F0120019EC1BF0520E0EEC7C
:103220001BF0B80E0EEC1BF01EEC1BF0530E0EEC58
:103230001BF0010EC8EC19F0076E07500A6E0B6AFE
:10324000000EC8EC19F0076E0750096E086A0A50A4
:1032500008100A6E0B5009100B6E14EC1BF00AC01C
:1032600005F00BC006F0120019EC1BF0520E0EEC2C
:103270001BF0B40E0EEC1BF01EEC1BF0530E0EEC0C
:103280001BF0010EC8EC19F0076E07500A6E0B6AAE
:10329000000EC8EC19F0076E0750096E086A0A5054
:1032A00008100A6E0B5009100B6E14EC1BF00AC0CC
:1032B00005F00BC006F0120019EC1BF0520E0EECDC
:1032C0001BF0BA0E0EEC1BF01EEC1BF0530E0EECB6
:1032D0001BF0010EC8EC19F0076E07500A6E0B6A5E
:1032E000000EC8EC19F0076E0750096E086A0A5004
:1032F00008100A6E0B5009100B6E14EC1BF00AC07C
:1033000005F00BC006F01200000E151A000E161A7A
:10331000000E171A800E181A11C001F012C002F028
:1033200013C003F014C004F015C005F016C006F079
:1033300017C007F018C008F040EC0BF001C011F006
:1033400002C012F003C013F004C014F012002EC02B
:1033500030F0B3EF19F02DC022F0300E236E2FC0E5
:1033600024F032EC13F030C0F6FF0E0EF76E000EB4
:10337000F86E0800F5500009D8A4C1EF19F0C3EFAA
:1033800019F0ABEF19F0000E2E6E000E2D6E12002C
:10339000036EA0EC1AF00E01DA87A0EC1AF0D5CE7D
:1033A00004F0A0EC1AF00350D8B4D9EF19F0DDEF17
:1033B00019F0026A022ADEEF19F0026A023A0246A6
:1033C0000E01DA510218DF0B0218DA6FDA890450A5
:1033D0001200000E0E6E000E0D6EF8EF19F00CC00C
:1033E00001F0026A0BC003F0FCEC17F00D4A0E2A44
:1033F0000D500924D96E0E500A20DA6EDF500C6E83
:103400000C50D8A406EF1AF008EF1AF0EFEF19F0FD
:103410001200480EF66E360EF76E000EF86E0900BA
:10342000F5CFF7F001EE00F0840EEE6AE806FDE15C
:1034300000EEC6F0310EEE6AE806FDE15F6A5E6AF4
:103440005D6A000132EF16F08BEC1AF0010E036E8C
:10345000000EC7EC1AF03F0E056E550EE82EFED793
:10346000052EFCD70000030E036E000EC7EC1AF009
:10347000D50E036E010EC7EC1AF01200330E376E34
:1034800031C038F0000E3C6E000E3B6E000E436EF5
:10349000000E426E380E2D6E32C02EF0370E2F6E9B
:1034A000A7EC19F031503B24D96EDA6ADF6A1200BA
:1034B00008BE5DEF1AF05FEF1AF065EF1AF007C073
:1034C00007F008C008F071EF1AF007C009F008C053
:1034D0000AF0091E0A1E094A0A2A09C007F00AC092
:1034E00008F012007FEF1AF00250D96EDA6ADF504E
:1034F00002EC1BF0022A6A0EE82EFED700D0025022
:10350000D96EDA6ADF50D8A488EF1AF08AEF1AF081
:1035100074EF1AF012000E01D951F00B0809D96F9F
:10352000D98B9F0ED66F848A848CA79BA79D1D0E76
:103530001D6F1E0E1C6F1C0E6F6F1B0E706F120026
:103540000E01D8B5A6EF1AF0A8EF1AF0A0EF1AF006
:10355000DACE01F01F0E0116D8A4B1EF1AF0B3EFC6
:103560001AF0A0EF1AF0120001500302F3CF05F099
:10357000F4CF06F001500402F35006260250030275
:10358000F350062605C001F006C002F01200046EDA
:1035900019EC1BF0520E0EEC1BF0045080090EECDF
:1035A0001BF003500EEC1BF014EC1BF01200600E2D
:1035B000316EA00E326E44C033F045C034F03EECA4
:1035C0001AF0600E026E72EC1AF01200120E0E016A
:1035D000626F110E156FE997E895330EE56F000ED7
:1035E000E66FE789E88BE78F1200868C0E01B48DB9
:1035F0000F015899FC0E58172E0E5F6F609460886B
:10360000608E1200016E0E0137A509EF1BF00BEF63
:103610001BF003EF1BF001C0E4FE1200026EA0ECF1
:103620001AF002C0D5FE1200A0EC1AF00E01DA85E5
:103630001200A0EC1AF00E01DA811200A0EC1AF0D0
:093640000E01DA831200120001F0
:020000040030CA
:02000000AAFF55
:020004009FFF5C
:00000001FF
