:0400000072EF1FF08C
:100E00000043616C6962726174696F6E2073746112
:100E10007465203D20207768697465206C69676877
:100E2000740043616C6962726174696F6E207374DF
:100E3000617465203D20677265656E200A0D004370
:100E4000616C6962726174696F6E2073746174653C
:100E50003D20626C7565200A0D0043414C494252A9
:100E60004154494F4E20434F4D504C45544544202A
:100E70000A0D0043616C6962726174696F6E207360
:100E800074617465203D2072656400566F6C7461F6
:100E90006765203D2025642E253032642C202000FB
:0F0EA0006875653D253033642C2020002E00003E
:100EB000000E00019C6F000E9D6F000E9E6F000ED5
:100EC0009F6F3E50D96EDA6ADECF3FF0DDCF40F043
:100ED0003FC001F040C002F0036A046A000E99ECC2
:100EE00014F001C060F002C061F003C062F004C001
:100EF00063F03D50D96EDA6ADECF3FF0DDCF40F0CF
:100F00003FC001F040C002F0036A046A000E99EC91
:100F100014F001C064F002C065F003C066F004C0C4
:100F200067F03E50D96EDA6A020ED926DECF3FF066
:100F3000DDCF40F03FC001F040C002F0036A046A18
:100F4000000E99EC14F001C068F002C069F003C013
:100F50006AF004C06BF03D50D96EDA6A020ED926F1
:100F6000DECF3FF0DDCF40F03FC001F040C002F0E7
:100F7000036A046A000E99EC14F001C06CF002C020
:100F80006DF003C06EF004C06FF03E50D96EDA6AA7
:100F9000040ED926DECF3FF0DDCF40F03FC001F098
:100FA00040C002F0036A046A000E99EC14F001C01C
:100FB00070F002C071F003C072F004C073F03D50D5
:100FC000D96EDA6A040ED926DECF3FF0DDCF40F0CD
:100FD0003FC001F040C002F0036A046A000E99ECC1
:100FE00014F001C074F002C075F003C076F004C0C4
:100FF00077F03E50D96EDA6A060ED926DECF3FF082
:10100000DDCF40F03FC001F040C002F0036A046A47
:10101000000E99EC14F001C078F002C079F003C022
:101020007AF004C07BF03D50D96EDA6A060ED926FC
:10103000DECF3FF0DDCF40F03FC001F040C002F016
:10104000036A046A000E99EC14F001C07CF002C03F
:101050007DF003C07EF004C07FF078C01AF079C044
:101060001BF07AC01CF07BC01DF07CC01EF07DC060
:101070001FF07EC020F07FC021F096EC0FF060C022
:101080001AF061C01BF062C01CF063C01DF064C0A8
:101090001EF065C01FF066C020F067C021F096EC1E
:1010A0000FF01AC0A0F01BC0A1F01CC0A2F01DC020
:1010B000A3F068C01AF069C01BF06AC01CF06BC0D6
:1010C0001DF06CC01EF06DC01FF06EC020F06FC030
:1010D00021F096EC0FF01AC0A4F01BC0A5F01CC0C4
:1010E000A6F01DC0A7F070C01AF071C01BF072C04E
:1010F0001CF073C01DF074C01EF075C01FF076C0E8
:1011000020F077C021F096EC0FF01AC0A8F01BC0B9
:10111000A9F01CC0AAF01DC0ABF0A0C001F0A1C096
:1011200002F0A2C003F0A3C004F0A4C005F0A5C063
:1011300006F0A6C007F0A7C008F01EEC18F0D8A073
:10114000A4EF08F0A6EF08F0DBEF08F0A4C001F070
:10115000A5C002F0A6C003F0A7C004F0A8C005F027
:10116000A9C006F0AAC007F0ABC008F01EEC18F04A
:10117000D8A0BDEF08F0BFEF08F0C9EF08F0A8C095
:1011800080F0A9C081F0AAC082F0ABC083F0D1EF9B
:1011900008F0A4C080F0A5C081F0A6C082F0A7C06E
:1011A00083F080C090F081C091F082C092F083C043
:1011B00093F00EEF09F0A0C001F0A1C002F0A2C0B0
:1011C00003F0A3C004F0A8C005F0A9C006F0AAC0AF
:1011D00007F0ABC008F01EEC18F0D8A0F2EF08F052
:1011E000F4EF08F0FEEF08F0A8C084F0A9C085F085
:1011F000AAC086F0ABC087F006EF09F0A0C084F06B
:10120000A1C085F0A2C086F0A3C087F084C090F092
:1012100085C091F086C092F087C093F0A4C001F021
:10122000A5C002F0A6C003F0A7C004F0A0C005F05E
:10123000A1C006F0A2C007F0A3C008F01EEC18F091
:10124000D8A025EF09F027EF09F05CEF09F0A8C05E
:1012500001F0A9C002F0AAC003F0ABC004F0A4C022
:1012600005F0A5C006F0A6C007F0A7C008F01EEC68
:1012700018F0D8A03EEF09F040EF09F04AEF09F06E
:10128000A8C088F0A9C089F0AAC08AF0ABC08BF0D2
:1012900052EF09F0A4C088F0A5C089F0A6C08AF07A
:1012A000A7C08BF088C098F089C099F08AC09AF0E6
:1012B0008BC09BF08FEF09F0A8C001F0A9C002F02D
:1012C000AAC003F0ABC004F0A0C005F0A1C006F0B6
:1012D000A2C007F0A3C008F01EEC18F0D8A073EF6E
:1012E00009F075EF09F07FEF09F0A8C08CF0A9C0F4
:1012F0008DF0AAC08EF0ABC08FF087EF09F0A0C0D0
:101300008CF0A1C08DF0A2C08EF0A3C08FF08CC075
:1013100098F08DC099F08EC09AF08FC09BF098C065
:1013200011F099C012F09AC013F09BC014F090C055
:1013300015F091C016F092C017F093C018F0B8ECF9
:101340001FF011C094F012C095F013C096F014C0B5
:1013500097F098C001F099C002F09AC003F09BC0CA
:1013600004F090C005F091C006F092C007F093C061
:1013700008F0EFEC1AF0D8A0C0EF09F0C2EF09F0C6
:10138000CDEF09F0000E00019C6F000E9D6F000E66
:101390009E6F000E9F6FD6EF0AF098C001F099C0C3
:1013A00002F09AC003F09BC004F0A0C005F0A1C0F9
:1013B00006F0A2C007F0A3C008F0EFEC1AF0D8A026
:1013C000E4EF09F0E6EF09F014EF0AF0A4C015F01D
:1013D000A5C016F0A6C017F0A7C018F0A8C011F05D
:1013E000A9C012F0AAC013F0ABC014F0B8EC1FF003
:1013F00011C01AF012C01BF013C01CF014C01DF075
:1014000094C01EF095C01FF096C020F097C021F048
:1014100096EC0FF01AC09CF01BC09DF01CC09EF013
:101420001DC09FF0D6EF0AF098C001F099C002F0FD
:101430009AC003F09BC004F0A4C005F0A5C006F05C
:10144000A6C007F0A7C008F0EFEC1AF0D8A02BEF69
:101450000AF02DEF0AF075EF0AF0A0C015F0A1C058
:1014600016F0A2C017F0A3C018F0A8C011F0A9C0D0
:1014700012F0AAC013F0ABC014F0B8EC1FF011C00A
:101480001AF012C01BF013C01CF014C01DF094C061
:101490001EF095C01FF096C020F097C021F096EC8A
:1014A0000FF01AC09CF01BC09DF01CC09EF01DC028
:1014B0009FF09CC001F09DC002F09EC003F09FC051
:1014C00004F0000E056E000E066E000E076E400E54
:1014D000086E21EC0BF001C09CF002C09DF003C02F
:1014E0009EF004C09FF0D6EF0AF098C001F099C0BA
:1014F00002F09AC003F09BC004F0A8C005F0A9C098
:1015000006F0AAC007F0ABC008F0EFEC1AF0D8A0C4
:101510008CEF0AF08EEF0AF0D6EF0AF0A4C015F0B7
:10152000A5C016F0A6C017F0A7C018F0A0C011F013
:10153000A1C012F0A2C013F0A3C014F0B8EC1FF0C9
:1015400011C01AF012C01BF013C01CF014C01DF023
:1015500094C01EF095C01FF096C020F097C021F0F7
:1015600096EC0FF01AC09CF01BC09DF01CC09EF0C2
:101570001DC09FF09CC001F09DC002F09EC003F012
:101580009FC004F0000E056E000E066E800E076E02
:10159000400E086E21EC0BF001C09CF002C09DF0E3
:1015A00003C09EF004C09FF0D6EF0AF09CC001F08B
:1015B0009DC002F09EC003F09FC004F0000E056EB7
:1015C000000E066E700E076E420E086E81EC0DF076
:1015D00001C09CF002C09DF003C09EF004C09FF0CB
:1015E00000019FBFF8EF0AF0F6EF0AF012EF0BF0E0
:1015F0009CC001F09DC002F09EC003F09FC004F0AB
:10160000000E056E000E066EB40E076E430E086ED9
:1016100021EC0BF001C09CF002C09DF003C09EF0D5
:1016200004C09FF09CC033F09DC034F09EC035F0E4
:101630009FC036F09BEC17F033C03DF034C03EF055
:1016400012000450800B0D6E045004240F6E03AE84
:101650002CEF0BF02EEF0BF02FEF0BF00F800F5055
:10166000D8B435EF0BF037EF0BF04CEF0BF00F2841
:10167000D8A43DEF0BF03FEF0BF047EF0BF0000E5F
:10168000016E000E026E000E036E000E046E038EDD
:10169000000E046E54EF0BF0000E016E000E026E91
:1016A000000E036E000E046E0850800B0E6E0D507F
:1016B0000E18D8B45EEF0BF060EF0BF061EF0BF09B
:1016C0000D8C085008240E6E07AE69EF0BF06BEF1F
:1016D0000BF06CEF0BF00E800E50D8B472EF0BF0E5
:1016E00074EF0BF089EF0BF00E28D8A47AEF0BF013
:1016F0007CEF0BF084EF0BF0000E056E000E066E13
:10170000000E076E000E086E078E000E086E91EF39
:101710000BF0000E056E000E066E000E076E000E3A
:10172000086E0F500E5CD8B098EF0BF09AEF0BF0EC
:10173000C1EF0BF00DAC9FEF0BF0A1EF0BF0A3EF9F
:101740000BF0800E0D1A0FC010F00EC00FF010C07D
:101750000EF001C010F005C001F010C005F002C08D
:1017600010F006C002F010C006F003C010F007C071
:1017700003F010C007F004C010F008C004F010C05F
:1017800008F0000E106E0F500EC009F00A6A095ED4
:10179000000E0A5A0ABED6EF0BF00A5009E11A0EE3
:1017A000095CD8A0D6EF0BF0D8EF0BF00FEF0CF0E0
:1017B0000150021003100410D8A4E1EF0BF0E4EF85
:1017C0000BF0010EE5EF0BF0000E106E000E016E37
:1017D000000E026E000E036E000E046E0EC00FF0BF
:1017E00018EF0CF010A0F7EF0BF0F9EF0BF0FFEF94
:1017F0000BF0D89010300109106E01EF0CF0D8906A
:10180000103201A006EF0CF008EF0CF009EF0CF01D
:10181000108E043404320332023201320F2A0E5089
:101820000F5CD8A016EF0CF018EF0CF0F2EF0BF0F5
:101830000DBC1DEF0CF01FEF0CF05FEF0CF00F5024
:10184000D8A425EF0CF027EF0CF031EF0CF0000ED0
:10185000016E000E026E000E036E000E046E80EF2D
:101860000DF00550012606500222075003220850B1
:10187000042204A03EEF0CF040EF0CF0ECEF0CF073
:1018800010A045EF0CF047EF0CF04DEF0CF0D890A6
:1018900010300109106E4FEF0CF0D890103201A0FB
:1018A00054EF0CF056EF0CF057EF0CF0108E0434A0
:1018B00004320332023201320F2AECEF0CF00550F1
:1018C000015C06500258075003580450800A096E04
:1018D0000850800A0958D8B070EF0CF072EF0CF085
:1018E0009DEF0CF00150055C096E025006580A6E1F
:1018F000035007580B6E045008580C6EFF0E092455
:10190000016EFF0E0A20026EFF0E0B20036EFF0E0B
:101910000C20046E800E0D1A106C1050D8A493EF9A
:101920000CF095EF0CF0A5EF0CF0010E0126000E67
:10193000022203220422A5EF0CF00550015E06509E
:10194000025A0750035A0850045A0150021003105B
:101950000410D8A4AEEF0CF0B0EF0CF0E5EF0CF0F3
:101960001050D8A4B6EF0CF0B8EF0CF0E5EF0CF087
:10197000000E016E000E026E000E036E000E046E6D
:1019800080EF0DF0D890013602360336043610AEE3
:10199000CCEF0CF0CEEF0CF0CFEF0CF0018010A0EC
:1019A000D4EF0CF0D6EF0CF0DAEF0CF0D880103654
:1019B000DCEF0CF0D89010360F50D8B4E2EF0CF0FA
:1019C000E4EF0CF0E5EF0CF00F0603AEEAEF0CF0DD
:1019D000ECEF0CF0C2EF0CF0000E0E6E10AEF3EF59
:1019E0000CF0F5EF0CF00DEF0DF010C009F07F0ECC
:1019F0000916D8B4FEEF0CF000EF0DF004EF0DF077
:101A0000010E0E6E0DEF0DF001A009EF0DF00BEFC2
:101A10000DF00DEF0DF000EF0DF00E50D8B413EFF8
:101A20000DF015EF0DF040EF0DF0010E0126000E48
:101A300002220322042204A020EF0DF022EF0DF079
:101A400040EF0DF001C009F002C00AF003C00BF036
:101A500004C00CF00C340C320B320A32093209C0CB
:101A600001F00AC002F00BC003F00CC004F00F2814
:101A7000D8B43DEF0DF03FEF0DF040EF0DF00F2A21
:101A80000F28D8B446EF0DF048EF0DF050EF0DF0F1
:101A90000F50D8A44EEF0DF050EF0DF062EF0DF0A7
:101AA000000E016E000E026E000E036E000E046E3C
:101AB0000F50D8A45EEF0DF060EF0DF062EF0DF067
:101AC000000E0D6E0FA067EF0DF069EF0DF06CEFDB
:101AD0000DF0038E6DEF0DF0039ED8900F30046E65
:101AE0000DAE75EF0DF077EF0DF078EF0DF0048E81
:101AF00001C001F002C002F003C003F004C004F012
:101B000012000450800B0D6E04500424136E03AEBB
:101B10008CEF0DF08EEF0DF08FEF0DF01380135062
:101B2000D8B495EF0DF097EF0DF0AAEF0DF0132854
:101B3000D8A49DEF0DF09FEF0DF0A7EF0DF0000E74
:101B4000016E000E026E000E036E000E046E038E18
:101B5000B2EF0DF0000E016E000E026E000E036E6D
:101B6000000E046E0850800B0D1A085008240E6EEB
:101B700007AEBDEF0DF0BFEF0DF0C0EF0DF00E8022
:101B80000E50D8B4C6EF0DF0C8EF0DF0DBEF0DF03E
:101B90000E28D8A4CEEF0DF0D0EF0DF0D8EF0DF059
:101BA000000E056E000E066E000E076E000E086E2B
:101BB000078EE3EF0DF0000E056E000E066E000EB0
:101BC000076E000E086E0E50D8B4E9EF0DF0EBEF83
:101BD0000DF0F3EF0DF01350D8A4F1EF0DF0F3EF8B
:101BE0000DF0FDEF0DF0000E016E000E026E000E06
:101BF000036E000E046E95EF0FF007500102F3CF55
:101C000018F0F4CF19F018500F6E106A116A126AAA
:101C10001950146E156A166A176A06500202F3CF3D
:101C200018F0F4CF19F018500F26000E10221122D0
:101C3000122219501426000E1522162217220550C2
:101C40000302F3CF18F0F4CF19F018500F26000E4E
:101C500010221122122219501426000E15221622CB
:101C6000172211C012F010C011F00FC010F00F6A4F
:101C700005500202F3CF18F0F4CF19F018500F26D8
:101C800019501022000E1122000E122206500102DD
:101C9000F3CF18F0F4CF19F018500F261950102276
:101CA000000E1122000E122211C012F010C011F00D
:101CB0000FC010F00F6A05500102F3CF18F0F4CFF7
:101CC00019F018500F2619501022000E1122000E84
:101CD000122207500202F3CF18F0F4CF19F0185077
:101CE000142619501522000E1622000E1722065037
:101CF0000302F3CF18F0F4CF19F01850142619503E
:101D00001522000E1622000E172207500302F3CFF1
:101D100018F0F4CF19F01850096E19500A6E0B6ABA
:101D20000C6A0BC00CF00AC00BF009C00AF0096A7B
:101D3000095014260A5015220B5016220C50172257
:101D40000FC009F010C00AF011C00BF012C00CF067
:101D5000190EB0EF0EF0D8900C320B320A32093265
:101D6000E82EABEF0EF0095014260A5015220B5046
:101D700016220C50172211C012F010C011F00FC023
:101D800010F00F6A0E5013C009F00A6A0926000EFF
:101D90000A22820E0924186EFF0E0A20196EE6EF41
:101DA0000EF0D890143615361636173612AEDBEF15
:101DB0000EF0DDEF0EF0DEEF0EF01480D8900F364F
:101DC0001036113612361806D8A0190616AEEBEFEB
:101DD0000EF0EDEF0EF0D1EF0EF0000E0E6E12AE23
:101DE000F4EF0EF0F6EF0EF01AEF0FF0FF0E0F14F7
:101DF000096EFF0E10140A6EFF0E11140B6E7F0E8B
:101E000012140C6E09500A100B100C10D8B40BEF02
:101E10000FF00DEF0FF011EF0FF0010E0E6E1AEF35
:101E20000FF014A016EF0FF018EF0FF01AEF0FF0ED
:101E30000DEF0FF00E50D8B420EF0FF022EF0FF09F
:101E400046EF0FF0010E1426000E1522162217225F
:101E500017A02DEF0FF02FEF0FF046EF0FF014C08B
:101E600009F015C00AF016C00BF017C00CF00C34C6
:101E70000C320B320A32093209C014F00AC015F0D4
:101E80000BC016F00CC017F0184A192A19BE51EFF2
:101E90000FF0195008E11828D8A051EF0FF053EFB8
:101EA0000FF05DEF0FF0000E146E000E156E800E39
:101EB000166E7F0E176E8BEF0FF019BE6AEF0FF0E4
:101EC000195006E11804D8B068EF0FF06AEF0FF070
:101ED00076EF0FF0000E146E000E156E000E166EEB
:101EE000000E176E000E0D6E8BEF0FF018C013F082
:101EF000FF0E1416FF0E15167F0E1616000E17167F
:101F000013A085EF0FF087EF0FF088EF0FF0168E1C
:101F1000D8901330176E0D50171214C001F015C071
:101F200002F016C003F017C004F012001D50800B21
:101F30002A6E1D501D24316E1CAEA1EF0FF0A3EFD1
:101F40000FF0A4EF0FF031803150D8B4AAEF0FF0AA
:101F5000ACEF0FF0C1EF0FF03128D8A4B2EF0FF0C3
:101F6000B4EF0FF0BCEF0FF0000E1A6E000E1B6EF8
:101F7000000E1C6E000E1D6E1C8E000E1D6EC9EF35
:101F80000FF0000E1A6E000E1B6E000E1C6E000E7F
:101F90001D6E2150800B2A1A21502124326E20AE52
:101FA000D4EF0FF0D6EF0FF0D7EF0FF032803250B2
:101FB000D8B4DDEF0FF0DFEF0FF0F4EF0FF03228C1
:101FC000D8A4E5EF0FF0E7EF0FF0EFEF0FF0000E02
:101FD0001E6E000E1F6E000E206E000E216E208EF3
:101FE000000E216EFCEF0FF0000E1E6E000E1F6E35
:101FF000000E206E000E216E1E501F1020102110AA
:10200000D8A405EF10F007EF10F01FEF10F0000E4E
:102010001A6E000E1B6E000E1C6E000E1D6E800EE2
:102020001C127F0E1D122A501D121AC01AF01BC05E
:102030001BF01CC01CF01DC01DF062EF11F03150F0
:10204000D8A425EF10F027EF10F031EF10F0000EBC
:102050001A6E000E1B6E000E1C6E000E1D6E62EFDF
:1020600011F0325031C022F0236A225E000E235A52
:102070007F0E22242B6E000E23202C6E1AC026F019
:102080001BC027F01CC028F01DC029F0000E1A6EDE
:10209000000E1B6E000E1C6E000E1D6E000E2D6ECF
:1020A000000E2E6E000E2F6E000E306E000E326E81
:1020B00092EF10F03250D8B460EF10F062EF10F0F1
:1020C00079EF10F0D8902636273628362936D89062
:1020D0001A361B361C361D3630AE71EF10F073EF1A
:1020E00010F074EF10F01A80D8902D362E362F365F
:1020F00030361E50265C1F5027582050285821503B
:102100002958D8A086EF10F088EF10F091EF10F06A
:10211000308C1E50265E1F50275A2050285A2150BE
:10212000295A322A190E326498EF10F09AEF10F003
:102130005AEF10F02650271028102910D8B4A3EF1A
:1021400010F0A5EF10F0BDEF10F02D80BDEF10F0F6
:10215000D8901A361B361C361D3630AEB2EF10F052
:10216000B4EF10F0B5EF10F01A80D8902D362E365F
:102170002F3630362B06D8A02C061CAEC2EF10F03E
:10218000C4EF10F0A8EF10F0000E326E30AECBEFBF
:1021900010F0CDEF10F0F1EF10F0FF0E2D14226EC5
:1021A000FF0E2E14236EFF0E2F14246E7F0E30149C
:1021B000256E2250231024102510D8B4E2EF10F021
:1021C000E4EF10F0E8EF10F0010E326EF1EF10F0D6
:1021D0001AA0EDEF10F0EFEF10F0F1EF10F0E4EFD8
:1021E00010F03250D8B4F7EF10F0F9EF10F01DEF07
:1021F00011F0010E1A26000E1B221C221D221DA00A
:1022000004EF11F006EF11F01DEF11F01AC022F0EB
:102210001BC023F01CC024F01DC025F0253425323E
:1022200024322332223222C01AF023C01BF024C0F1
:102230001CF025C01DF02B4A2C2A2CBE28EF11F0D3
:102240002C5008E12B28D8A028EF11F02AEF11F02C
:1022500035EF11F0000E2C6E2B68000E1A6E000E7A
:102260001B6E000E1C6E000E1D6E2CBE42EF11F098
:102270002C5006E12B04D8B040EF11F042EF11F0E2
:1022800050EF11F0000E2C6E000E2B6E000E1A6E29
:10229000000E1B6E000E1C6E000E1D6E000E2A6ED0
:1022A0002BC031F031A057EF11F059EF11F05CEF76
:1022B00011F01C8E5DEF11F01C9ED89031301D6E18
:1022C00013EF10F01200E9EC21F059EC20F0CBEC08
:1022D00021F0000E026E630E016EE2EC1BF0000EA8
:1022E0000001D86F010ED96F010EDA6F000EDC6F9E
:1022F000630EDB6FAA0EDD6F0F0EDE6FA60EDF6FB3
:102300000F0EE06F000ECF6F010ED06F010ED16F78
:10231000000ED36F630ED26F250ED46F0F0ED56FE4
:10232000210ED66F0F0ED76F7C9E849E87907F9074
:10233000859E7D9E8196799686860E01B497000EC5
:1023400001017F6F000E7E6F88968086190E000156
:10235000AD6F5A0EAC6FB10EE82EFED7AC2FFCD786
:10236000AD2FFAD700D080967E9486840E01B49566
:10237000E90E446EB0EC13F07F807D8E7986D80E26
:10238000136ECF0E146EEFEC1CF0D58E26EC1EF003
:1023900005C0E7F006C0E8F0E7C001F0E8C002F0D1
:1023A000036A046A000E99EC14F001C070F102C0D7
:1023B00071F103C072F104C073F1EFC001F0F0C01D
:1023C00002F0036A046A000E99EC14F001C074F183
:1023D00002C075F103C076F104C077F174C11EF03C
:1023E00075C11FF076C120F077C121F0000E056E97
:1023F000000E066EC80E076E420E086E70C101F028
:1024000071C102F072C103F073C104F081EC0DF0F0
:1024100001C01AF002C01BF003C01CF004C01DF084
:1024200096EC0FF01AC033F01BC034F01CC035F02E
:102430001DC036F09BEC17F033C07CF134C07DF149
:1024400001017D5109E1100E7C5DD8A02AEF12F048
:102450002CEF12F0BCEF11F0D80E136ECF0E146EED
:102460002AEC1CF0AAEC21F001C07AF102C07BF149
:10247000D59E7AC107F07BC108F07EC109F07FC10B
:102480000AF0460EA1EC1DF0D80E136ECF0E146E9E
:10249000EFEC1CF0090E0001AD6F1E0EAC6FE40EE8
:1024A000E82EFED7AC2FFCD7AD2FFAD70000D80E00
:1024B000136ECF0E146E2AEC1CF0110E0001AD6FDE
:1024C0003C0EAC6FCB0EE82EFED7AC2FFCD7AD2F59
:1024D000FAD701017D5109E1510E7C5DD8A073EF5F
:1024E00012F075EF12F089EF12F0000E456E080E33
:1024F000446EDAEC21F0D80E1F6ECF0E206E000E67
:10250000216E020E226E7EC123F07FC124F099EC71
:102510001AF0E10E416EA0EC18F041C078F142C013
:1025200079F178C146F079C147F07EC148F07FC1AA
:1025300049F09FEC12F0BCEF11F000EF00F04750B3
:1025400009E10B0E465CD8A0A8EF12F0AAEF12F03A
:10255000B5EF12F0630E465C010E4758D8A0B3EFFA
:1025600012F0B5EF12F0C5EF12F0D80E1C6ECF0EC0
:102570001D6E48C01EF049C01FF09AEC1EF0000E00
:102580004B6E010E4A6EA9EF13F0475009E1690E38
:10259000465CD8A0CEEF12F0D0EF12F0EBEF12F0C5
:1025A000475007E1830E465CD8B0D9EF12F0DBEF5D
:1025B00012F0EBEF12F0D80E1C6ECF0E1D6E48C05D
:1025C0001EF049C01FF02AEC1FF0000E4B6E020EE9
:1025D0004A6EA9EF13F0475009E1E60E465CD8A019
:1025E000F4EF12F0F6EF12F011EF13F0475007E19D
:1025F000F10E465CD8B0FFEF12F001EF13F011EFCF
:1026000013F0D80E1C6ECF0E1D6E48C01EF049C0D0
:102610001FF04EEC1FF0000E4B6E030E4A6EA9EF3A
:1026200013F0475009E1D80E465CD8A01AEF13F01A
:102630001CEF13F037EF13F0475007E1DE0E465C56
:10264000D8B025EF13F027EF13F037EF13F0D80EC3
:102650001C6ECF0E1D6E48C01EF049C01FF006EC68
:102660001FF0000E4B6E040E4A6EA9EF13F02E0EF3
:10267000465C010E4758D8A040EF13F042EF13F02C
:102680005DEF13F05B0E465C010E4758D8B04BEF80
:1026900013F04DEF13F05DEF13F0D80E1C6ECF0E5C
:1026A0001D6E48C01EF049C01FF076EC1EF0000EF3
:1026B0004B6E050E4A6EA9EF13F0475009E10F0E5D
:1026C000465CD8A066EF13F068EF13F083EF13F0C9
:1026D000475007E1240E465CD8B071EF13F073EF5A
:1026E00013F083EF13F0D80E1C6ECF0E1D6E48C092
:1026F0001EF049C01FF0E2EC1EF0000E4B6E060EFD
:102700004A6EA9EF13F0475009E1F40E465CD8A0D9
:102710008CEF13F08EEF13F0A9EF13F0475007E1A1
:10272000FC0E465CD8B097EF13F099EF13F0A9EFC9
:1027300013F0D80E1C6ECF0E1D6E48C01EF049C09F
:102740001FF0BEEC1EF0000E4B6E070E4A6EA9EF96
:1027500013F04AC044F04BC045F0DAEC21F012000F
:102760007F907D9E7996470E316E730E326EAC0E61
:10277000336E3350D8A40E0E346E73EC20F0470E37
:10278000026E3DEC21F08EB4C8EF13F0CAEF13F0E7
:10279000C3EF13F07F80290E466E960E456E7F0EB6
:1027A000E82EFED7452EFCD7462EFAD70000D6ECF1
:1027B0001DF04450D96EDA6A05C0DEFF06C0DDFFA9
:1027C0007F90470E316E220E326EAC0E336E335058
:1027D000D8A40E0E346E73EC20F0470E026E3DEC62
:1027E00021F08EB4F6EF13F0F8EF13F0F1EF13F0E1
:1027F0007D8E290E466E960E456E7F0EE82EFED714
:10280000452EFCD7462EFAD70000FEEC1DF04450B2
:10281000D96EDA6A020ED92605C0DEFF06C0DDFFDA
:102820007D9E470E316E3F0E326EAC0E336E3350CE
:10283000D8A40E0E346E73EC20F0470E026E3DEC01
:1028400021F08EB426EF14F028EF14F021EF14F0ED
:102850007986290E466E960E456E7F0EE82EFED7BF
:10286000452EFCD7462EFAD700004EEC1EF0445001
:10287000D96EDA6A040ED92605C0DEFF06C0DDFF78
:102880007996470E316E010E326EAC0E336E3350B8
:10289000D8A40E0E346E73EC20F0470E026E3DECA1
:1028A00021F08EB456EF14F058EF14F051EF14F0FD
:1028B0007F807D8E7986290E466E960E456E7F0E40
:1028C000E82EFED7452EFCD7462EFAD7000026EC80
:1028D0001EF04450D96EDA6A060ED92605C0DEFF16
:1028E00006C0DDFF7F907D9E7996470E316E5A0EB1
:1028F000326EAC0E336E3350D8A40E0E346E73ECC1
:1029000020F0470E026E3DEC21F08EB48AEF14F0F9
:102910008CEF14F085EF14F0290E466E960E456E7E
:102920007F0EE82EFED7452EFCD7462EFAD70000A4
:102930001200096E0950D8B4A0EF14F0A2EF14F001
:10294000C4EF14F004BEA9EF14F0A7EF14F0C4EF25
:1029500014F001C005F002C006F003C007F004C087
:1029600008F0051E061E071E081E052A000E062278
:102970000722082205C00BF006C00CF007C00DF0BE
:1029800008C00EF0CCEF14F001C00BF002C00CF048
:1029900003C00DF004C00EF001500210031004102B
:1029A000D8A4D5EF14F0D7EF14F0E1EF14F0000E37
:1029B000016E000E026E000E036E000E046E72EFCA
:1029C00015F0960E0A6EEBEF14F00A2AD8900E322C
:1029D0000D320C320B32000E0B14056E000E0C146F
:1029E000066E000E0D14076EFE0E0E14086E0550D6
:1029F000061007100810D8A400EF15F002EF15F02C
:102A0000E5EF14F010EF15F00A2A010E0B26000E68
:102A10000C220D220E22D8900E320D320C320B32C7
:102A2000000E0B14056E000E0C14066E000E0D1435
:102A3000076EFF0E0E14086E0550061007100810E2
:102A4000D8A425EF15F027EF15F004EF15F02FEFC0
:102A500015F00A06D8900B360C360D360E360DBE24
:102A600034EF15F036EF15F03EEF15F0020E0A6068
:102A70003CEF15F03EEF15F029EF15F00AB043EFEB
:102A800015F045EF15F046EF15F00D9ED8900A327F
:102A90000AC005F0066A076A086A05C008F0076AF6
:102AA000066A056A05500B1206500C1207500D12EB
:102AB00008500E120950D8B460EF15F062EF15F00F
:102AC0006AEF15F004BE69EF15F067EF15F06AEFD5
:102AD00015F00E8E0BC001F00CC002F00DC003F01B
:102AE0000EC004F012002350D96EDA6ADFCFF6FF71
:102AF0000E0EF76E000EF86E0800F550250AD8A4E9
:102B000084EF15F086EF15F022EF16F02350D96E02
:102B1000DA6ADF2A000E0001CB6F000ECA6FCAC04E
:102B20005BF0CC69CD69000E2B6EBDEF15F05B82BA
:102B30002350D96EDA6ADF2ABDEF15F0010E2B6E35
:102B4000BDEF15F02350D96EDA6ADFCFF6FF0E0E17
:102B5000F76E000EF86E0800F550256E266A2650B6
:102B6000000AD8B4B6EF15F09EEF15F02550300AE4
:102B7000D8B497EF15F09EEF15F02B50D8B4C3EFF3
:102B800015F0C5EF15F0A2EF15F023C007F024C033
:102B900008F042EC1AF007C0CAF008C0CBF0000100
:102BA000CBBFD7EF15F0D5EF15F0DCEF15F05B805C
:102BB000CA6DCB1FD8B0CB2B2350D96EDA6ADF5049
:102BC0002C6E2CC0F6FF0E0EF76E000EF86E08008D
:102BD000F550640AD8B4EFEF15F0F1EF15F001EFFE
:102BE00016F02CC0F6FF0E0EF76E000EF86E080001
:102BF000F550690AD8A4FFEF15F001EF16F01CEFAD
:102C000016F02450D96EDA6A020EDF26DF5CD96E28
:102C1000DA6ADECF27F0DECF28F02350D96EDA6AE9
:102C20002C28DF6E22C017F027C018F028C019F03A
:102C300036EC16F035EF16F02350D96EDA6ADF2A3B
:102C400035EF16F02350D96EDA6ADFCFF6FF0E0E9D
:102C5000F76E000EF86E0800F550016E026A22C091
:102C600003F044EC1BF01CEF16F01200010E1C6E7A
:102C700019BE3DEF16F040EF16F0010E41EF16F0D1
:102C8000000E1F6ECAC01DF0CBC01EF01F50D8B47E
:102C90004CEF16F04EEF16F065EF16F01D06D8A0BB
:102CA0001E061F50D8A457EF16F059EF16F05FEF2D
:102CB00016F0000E1B6E2B0E1A6E63EF16F0000E50
:102CC0001B6E2D0E1A6E1AC01FF0000E216E1F0E05
:102CD000206E000E01016F6F9DEF16F02006D8A048
:102CE0002106500E2024D96E010E2120DA6E18C064
:102CF00001F019C002F0000E046E0A0E036EEAEC39
:102D000019F001C007F002C008F08DEC20F0075068
:102D1000300FDF6E000E1C6E1D06D8A01E0618C0F8
:102D200001F019C002F0000E046E0A0E036E88EC6A
:102D300019F001C018F002C019F021BEA8EF16F07A
:102D4000215008E12004D8A0A8EF16F0AAEF16F051
:102D5000CFEF16F018501910D8A4B1EF16F0B3EF5A
:102D600016F06EEF16F01C50D8A4B9EF16F0BBEFBA
:102D700016F06EEF16F01EBEC6EF16F01E5008E1FC
:102D80001D04D8A0C6EF16F0C8EF16F0CFEF16F06E
:102D90005BB2CDEF16F0CFEF16F06EEF16F01F50CE
:102DA000D8B4D5EF16F0D7EF16F0E2EF16F0200604
:102DB000D8A02106500E2024D96E010E2120DA6EF3
:102DC0001FC0DFFF17C00FF0500E2024106E010E41
:102DD0002120116E1DC012F01EC013F099EC1BF0E3
:102DE00012000E50D96EDA6A020ED926DF50D8B41E
:102DF000FCEF16F0FEEF16F02EEF17F00E50D96E26
:102E0000DA6ADF500F6E0F50016E026A0E50D96EF3
:102E1000DA6A030ED926DECF03F0DDCF04F097EC9B
:102E200021F001C007F002C008F0000E0A6E640E27
:102E3000096E67EC1DF00E50D96EDA6A030ED926C2
:102E4000DF50106E0750105C116E0E50D96EDA6AAA
:102E5000030ED926DF50126E4FEF17F0000E116EE1
:102E60000E50D96EDA6ADF500F6E0F50016E026A93
:102E70000E50D96EDA6A030ED926DECF03F0DDCF0D
:102E800004F097EC21F001C007F002C008F0000E3A
:102E90000A6E640E096E67EC1DF00750126E0E503C
:102EA000D96EDA6A010ED926DF50D8B45AEF17F07E
:102EB0005CEF17F07CEF17F00E50D96EDA6A050E52
:102EC000D926DECF0FF0DDCF10F00FC0D9FF10C034
:102ED000DAFF11C0DFFF0E50D96EDA6A070ED9266D
:102EE000DECF0FF0DDCF10F00FC0D9FF10C0DAFF3A
:102EF00012C0DFFF9AEF17F00E50D96EDA6A050E96
:102F0000D926DECF0FF0DDCF10F00FC0D9FF10C0F3
:102F1000DAFF12C0DFFF0E50D96EDA6A070ED9262B
:102F2000DECF0FF0DDCF10F00FC0D9FF10C0DAFFF9
:102F300011C0DFFF1200353436343C6E3C50D8A44B
:102F4000A4EF17F0A6EF17F0B0EF17F0000E336EF6
:102F5000000E346E000E356E000E366E1DEF18F04A
:102F600033C037F034C038F035C039F036C03AF0ED
:102F7000200EC0EF17F0D8903A323932383237325B
:102F8000E82EBBEF17F037503B6E358EFF0E331631
:102F9000FF0E3416FF0E3516000E3616960E3C5EEA
:102FA0003CBED7EF17F0D5EF17F0EDEF17F03C5020
:102FB000800A970FD8B0DFEF17F0E1EF17F0E3EFDB
:102FC00017F0A6EF17F0D89036323532343233325C
:102FD0003C3EE3EF17F005EF18F01F0E3C64F3EFF3
:102FE00017F0F5EF17F0FDEF17F0A6EF17F0D890F8
:102FF00033363436353636363C063C50D8A403EFEB
:1030000018F005EF18F0F7EF17F03B50D8B40BEFBE
:1030100018F00DEF18F015EF18F0361E351E341E9F
:10302000336C000E34223522362233C033F034C0E4
:1030300034F035C035F036C036F01200000E011401
:10304000096E000E02140A6E800E03140B6E7F0EC2
:1030500004140C6E09500A100B100C10D8A433EF96
:1030600018F035EF18F03DEF18F0000E016E000E6D
:10307000026E000E036E000E046E000E0514096E43
:10308000000E06140A6E800E07140B6E7F0E0814D5
:103090000C6E09500A100B100C10D8A452EF18F047
:1030A00054EF18F05CEF18F0000E056E000E066E7F
:1030B000000E076E000E086E04AE61EF18F063EFAD
:1030C00018F06CEF18F0016C021ED8B0022A031E33
:1030D000D8B0032A800E045608AE71EF18F073EFD3
:1030E00018F07CEF18F0056C061ED8B0062A071EF3
:1030F000D8B0072A800E0856000E011A000E021AD8
:10310000000E031A800E041A000E051A000E061A8D
:10311000000E071A800E081A0550015C065002586E
:103120000750035808500458D8B099EF18F09BEF97
:1031300018F09EEF18F0D8909FEF18F0D88012008A
:103140007F807D9E7996290E446E960E436E7F0E8B
:10315000E82EFED7432EFCD7442EFAD70000D6EC3B
:103160001DF04150D96EDA6A05C0DEFF06C0DDFFF2
:103170007F907D8E7996290E446E960E436E7F0E5B
:10318000E82EFED7432EFCD7442EFAD70000FEECE3
:103190001DF04150D96EDA6A020ED92605C0DEFF55
:1031A00006C0DDFF7F907D9E7986290E446E960EC7
:1031B000436E7F0EE82EFED7432EFCD7442EFAD75F
:1031C00000004EEC1EF04150D96EDA6A040ED9268A
:1031D00005C0DEFF06C0DDFF7F807D8E7986290E6B
:1031E000446E960E436E7F0EE82EFED7432EFCD71C
:1031F000442EFAD7000026EC1EF04150D96EDA6A50
:10320000060ED92605C0DEFF06C0DDFFE90E3D6EC5
:10321000E10E3E6E58EC07F03DC045F03EC046F072
:1032200045C041F046C042F012001BBE23EF19F02A
:10323000E80E1A5C030E1B58D8B021EF19F023EFEB
:1032400019F035EF19F01BBE2FEF19F0210E1A5CA3
:10325000030E1B58D8A02FEF19F031EF19F035EFFE
:1032600019F00B0E1D6EB80E1C6E1BBE43EF19F04D
:10327000200E1A5C030E1B58D8B041EF19F043EF33
:1032800019F055EF19F01BBE4FEF19F0590E1A5CEB
:10329000020E1B58D8A04FEF19F051EF19F055EF5F
:1032A00019F0070E1D6ED00E1C6E1BBE63EF19F0D9
:1032B000580E1A5C020E1B58D8B061EF19F063EF7C
:1032C00019F075EF19F01BBE6FEF19F0910E1A5C33
:1032D000010E1B58D8A06FEF19F071EF19F075EFC0
:1032E00019F0030E1D6EE80E1C6E18C013F019C005
:1032F00014F0EFEC1CF01CC001F01DC002F03DEC1E
:1033000020F018C013F019C014F02AEC1CF01200C1
:10331000000E066E04BE91EF19F08FEF19F097EFD3
:1033200019F0036C041ED8B0042A010E066E02BE0A
:103330009EEF19F09CEF19F0A4EF19F0016C021E3A
:10334000D8B0022A010E061A000E086E000E076E93
:1033500003500410D8B4AFEF19F0B1EF19F0D9EF62
:1033600019F0010E056EB9EF19F0D8900336043646
:10337000052A04AEBEEF19F0C0EF19F0B5EF19F051
:10338000D890073608360350015C04500258D8A084
:10339000CCEF19F0CEEF19F0D3EF19F00350015E26
:1033A0000450025A0780D89004320332052EC0EF31
:1033B00019F00650D8B4DFEF19F0E1EF19F0E5EF9E
:1033C00019F0076C081ED8B0082A07C001F008C021
:1033D00002F01200000E066E02BEF3EF19F0F1EFDC
:1033E00019F0F9EF19F0016C021ED8B0022A010E93
:1033F000066E04BE00EF1AF0FEEF19F004EF1AF0AB
:10340000036C041ED8B0042A03500410D8B40BEF88
:103410001AF00DEF1AF031EF1AF0010E056E15EFEC
:103420001AF0D89003360436052A04AE1AEF1AF0C3
:103430001CEF1AF011EF1AF00350015C045002580F
:10344000D8A025EF1AF027EF1AF02BEF1AF003504F
:10345000015E0450025AD89004320332052E1CEF4C
:103460001AF00650D8B437EF1AF039EF1AF03DEFE2
:103470001AF0016C021ED8B0022A01C001F002C08D
:1034800002F01200000E0B6E000E0A6E0750D96E8D
:10349000DA6ADFCFF6FF0E0EF76E000EF86E080048
:1034A000F5502A0AD8A457EF1AF059EF1AF07FEF17
:1034B0001AF00750D96EDA6ADF2A0850D96EDA6A34
:1034C000020EDF26DF5CD96EDA6ADECF0AF0DECFCD
:1034D0000BF094EF1AF00AC001F00BC002F0000EDE
:1034E000046E0A0E036E97EC21F0095001240A6E57
:1034F000000E02200B6E0750D96EDA6ADF2A0750E1
:10350000D96EDA6ADFCFF6FF0E0EF76E000EF86E98
:103510000800F550D00F096E090E096492EF1AF0F9
:1035200094EF1AF06BEF1AF00AC007F00BC008F026
:10353000120023C02AF024C02BF02BBEA4EF1AF0F7
:10354000A2EF1AF0A6EF1AF0EEEF1AF0D8902A3494
:10355000D96E2B34DA6E2150D9262250DA22DECFF2
:1035600025F0DDCF26F025C0D9FF26C0DAFFDF50D9
:10357000296ED8902A34D96E2B34DA6E2150D92690
:103580002250DA2210EE01F0DE50E126DD50E22278
:10359000E6CF27F0E5CF28F0460E2918D8A4D3EFC0
:1035A0001AF0D5EF1AF0E1EF1AF01FC018F020C0A2
:1035B00019F027C01AF028C01BF015EC19F0E9EF3C
:1035C0001AF01FC01CF020C01DF029C01EF095ECA1
:1035D0001FF02A06D8A02B069DEF1AF01200000E4D
:1035E0000114096E000E02140A6E800E03140B6E95
:1035F0007F0E04140C6E09500A100B100C10D8A486
:1036000004EF1BF006EF1BF00EEF1BF0000E016E37
:10361000000E026E000E036E000E046E000E051406
:10362000096E000E06140A6E800E07140B6E7F0ED4
:1036300008140C6E09500A100B100C10D8A423EFBC
:103640001BF025EF1BF02DEF1BF0000E056E000E9A
:10365000066E000E076E000E086E055001180FE191
:10366000065002180CE10750031809E1085004182D
:10367000D8B43DEF1BF03FEF1BF042EF1BF0D890AA
:1036800043EF1BF0D88012000350D8B44AEF1BF070
:103690004CEF1BF054EF1BF00350D8A452EF1BF07B
:1036A00054EF1BF059EF1BF0015017EC22F098EF8C
:1036B0001BF00350D96EDA6A0A0ED926DE50DE10EE
:1036C000D8B465EF1BF067EF1BF080EF1BF00350E1
:1036D000D96EDA6A0A0ED9260350E16EE26A030E49
:1036E000E126DE50E65CE650800A086EDE50800A75
:1036F0000858D8B07EEF1BF080EF1BF098EF1BF05E
:103700000350D96EDA6A030ED926DF50046E0350D7
:10371000D96EDA6ADF500424D96EDA6A01C0DFFF9D
:103720000350D96EDA6A030ED926DE2A000EDD2296
:1037300012005BA09EEF1BF0A0EF1BF0A8EF1BF0A8
:1037400010C009F011C00AF00FC00BF01DEC20F002
:1037500013BEAFEF1BF0ADEF1BF0B3EF1BF0000E8D
:10376000136E000E126E000E166E000E156EC3EF75
:103770001BF0000E026E200E016E0FC003F044EC31
:103780001BF0154A162A1250155C1650800A146E4A
:103790001350800A1458D8A0D0EF1BF0D2EF1BF0C2
:1037A000B9EF1BF05BB0D7EF1BF0D9EF1BF0E1EFE7
:1037B0001BF010C009F011C00AF00FC00BF01DEC97
:1037C00020F012008594839E8598879C7D947B9E33
:1037D0007D987F9C050E0E01746F060E766F070EA6
:1037E000696F080E886FBD508F0B4009BD6EE00EEB
:1037F000BE16BF50F00B0109BF6E01C0BCFFBD8EED
:10380000000EAA6E000EA66E000E0F01256F000EB0
:10381000216FFC0EAD16F30EAD16CF0EAD163F0E9A
:10382000AD16AB88AB50F00B0C09AB6EAB8EA78816
:10383000A750F00B0C09A76EA78E26892651F00B16
:103840000C09266F268F22892251F00B0C09226F5A
:10385000228F12005AEF1CF01350D96EDA6ADF5033
:10386000D8B435EF1CF037EF1CF03BEF1CF01350D1
:10387000D96EDA6ADF061450D96EDA6ADF50D8B42E
:1038800044EF1CF046EF1CF04AEF1CF01450D96EC8
:10389000DA6ADF0613C00EF0F1EC16F014C00EF079
:1038A000F1EC16F00B0E156E620EE82EFED7152EFB
:1038B000FCD700D01350D96EDA6ADF50D8A463EF7A
:1038C0001CF065EF1CF02CEF1CF01450D96EDA6A76
:1038D000DF50D8A46EEF1CF070EF1CF02CEF1CF042
:1038E00012001350D96EDA6A010ED926010EDF6E6E
:1038F0001450D96EDA6A010ED926DF6A13C00EF0B1
:10390000F1EC16F014C00EF0F1EC16F0000E176E8C
:10391000000E166E1350D96EDA6ADF2A1450D96E73
:10392000DA6ADF2A13C00EF0F1EC16F014C00EF0C4
:10393000F1EC16F00B0E156E620EE82EFED7152E6A
:10394000FCD700D0164A172A175009E1320E165C30
:10395000D8A0ADEF1CF0AFEF1CF08AEF1CF0120006
:103960001350D96EDA6A010ED926DF6A1450D96E67
:10397000DA6A010ED926010EDF6E13C00EF0F1ECEB
:1039800016F014C00EF0F1EC16F0000E176E000EDB
:10399000166E1350D96EDA6ADF2A1450D96EDA6ABD
:1039A000DF2A13C00EF0F1EC16F014C00EF0F1ECAB
:1039B00016F00B0E156E620EE82EFED7152EFCD7F4
:1039C00000D0164A172A175009E1320E165CD8A00B
:1039D000ECEF1CF0EEEF1CF0C9EF1CF012001350DE
:1039E000D96EDA6A010ED926010EDF6E1450D96E37
:1039F000DA6A010ED926010EDF6E000E176E000E78
:103A0000166E1350D96EDA6A16C0DFFF1450D96EE5
:103A1000DA6A16C0DFFF13C00EF0F1EC16F014C026
:103A20000EF0F1EC16F00B0E156E620EE82EFED7BE
:103A3000152EFCD700D0164A172A17BE29EF1DF005
:103A4000175009E1330E165CD8A029EF1DF02BEFBB
:103A50001DF001EF1DF012001350D96EDA6A010E4D
:103A6000D926DF6A1450D96EDA6A010ED926DF6AC8
:103A7000000E176E000E166E1350D96EDA6A16C05D
:103A8000DFFF1450D96EDA6A16C0DFFF13C00EF0E4
:103A9000F1EC16F014C00EF0F1EC16F00B0E156EF2
:103AA000620EE82EFED7152EFCD700D0164A172A34
:103AB00017BE64EF1DF0175009E1330E165CD8A055
:103AC00064EF1DF066EF1DF03CEF1DF01200000EDC
:103AD0000D6E000E0C6E09500A10D8B472EF1DF076
:103AE00074EF1DF09CEF1DF0010E0B6E7CEF1DF0CE
:103AF000D89009360A360B2A0AAE81EF1DF083EF03
:103B00001DF078EF1DF0D8900C360D360950075C8B
:103B10000A500858D8A08FEF1DF091EF1DF096EFD6
:103B20001DF00950075E0A50085A0C80D8900A32DE
:103B300009320B2E83EF1DF00CC007F00DC008F00A
:103B400012000B6E0A5007E1320E095CD8B0ABEFE1
:103B50001DF0ADEF1DF0D5EF1DF009C001F00AC05A
:103B600002F0000E046E030E036E97EC21F0000EBF
:103B70000124D96E020E0220DA6E0BC0DFFF09C0ED
:103B800001F00AC002F0000E046E030E036E97EC03
:103B900021F0010E0124D96E020E0220DA6E07C058
:103BA000DEFF08C0DDFF094A0A2A12000DEC22F0F0
:103BB000520E02EC22F0B60E02EC22F012EC22F0D1
:103BC000530E02EC22F0010EFCEC1FF0076E0750C2
:103BD0000A6E0B6A000EFCEC1FF0076E0750096EB0
:103BE000086A0A5008100A6E0B5009100B6E08EC98
:103BF00022F00AC005F00BC006F012000DEC22F016
:103C0000520E02EC22F0B80E02EC22F012EC22F07E
:103C1000530E02EC22F0010EFCEC1FF0076E075071
:103C20000A6E0B6A000EFCEC1FF0076E0750096E5F
:103C3000086A0A5008100A6E0B5009100B6E08EC47
:103C400022F00AC005F00BC006F012000DEC22F0C5
:103C5000520E02EC22F0B40E02EC22F012EC22F032
:103C6000530E02EC22F0010EFCEC1FF0076E075021
:103C70000A6E0B6A000EFCEC1FF0076E0750096E0F
:103C8000086A0A5008100A6E0B5009100B6E08ECF7
:103C900022F00AC005F00BC006F012000DEC22F075
:103CA000520E02EC22F0BA0E02EC22F012EC22F0DC
:103CB000530E02EC22F0010EFCEC1FF0076E0750D1
:103CC0000A6E0B6A000EFCEC1FF0076E0750096EBF
:103CD000086A0A5008100A6E0B5009100B6E08ECA7
:103CE00022F00AC005F00BC006F012001CC018F04C
:103CF0001DC019F0C0EC20F0290E216E960E206E2A
:103D00007F0EE82EFED7202EFCD7212EFAD70000FA
:103D10001CC018F01DC019F0A7EC20F0000E086EB2
:103D2000000E076E1EC009F01FC00AF0520EA1EC73
:103D30001DF012001CC018F01DC019F056EC21F047
:103D4000290E216E960E206E7F0EE82EFED7202EB5
:103D5000FCD7212EFAD700001CC018F01DC019F0A6
:103D6000A7EC20F0000E086E000E076E1EC009F0D2
:103D70001FC00AF0520EA1EC1DF012001CC018F07A
:103D80001DC019F0C0EC20F0290E216E960E206E99
:103D90007F0EE82EFED7202EFCD7212EFAD700006A
:103DA0001CC018F01DC019F00BEC21F0000E086EBD
:103DB000000E076E1EC009F01FC00AF04C0EA1ECE9
:103DC0001DF012001CC018F01DC019F056EC21F0B7
:103DD000290E216E960E206E7F0EE82EFED7202E25
:103DE000FCD7212EFAD700001CC018F01DC019F016
:103DF000D9EC20F0000E086E000E076E1EC009F010
:103E00001FC00AF0520EA1EC1DF012001CC018F0E9
:103E10001DC019F056EC21F0290E216E960E206E71
:103E20007F0EE82EFED7202EFCD7212EFAD70000D9
:103E30001CC018F01DC019F0F2EC20F0000E086E46
:103E4000000E076E1EC009F01FC00AF04C0EA1EC58
:103E50001DF012001CC018F01DC019F056EC21F026
:103E6000290E216E960E206E7F0EE82EFED7202E94
:103E7000FCD7212EFAD700001CC018F01DC019F085
:103E80000BEC21F0000E086E000E076E1EC009F04C
:103E90001FC00AF04C0EA1EC1DF012001CC018F05F
:103EA0001DC019F056EC21F0290E216E960E206EE1
:103EB0007F0EE82EFED7202EFCD7212EFAD7000049
:103EC0001CC018F01DC019F024EC21F0000E086E83
:103ED000000E076E1EC009F01FC00AF0300EA1ECE4
:103EE0001DF01200300EF66E440EF76E000EF86EE6
:103EF0000900F5CFF1F002EE00F0960EEE6AE8064A
:103F0000FDE101EE00F0700EEE6AE806FDE100EE64
:103F1000AEF0430EEE6AE806FDE15F6A5E6A5D6A36
:103F20005C6A5B6A000163EF11F0520E1E18D8A4A0
:103F30009CEF1FF09EEF1FF0A6EF1FF01CC013F0C8
:103F40001DC014F0B0EC1CF0B7EF1FF04C0E1E18A3
:103F5000D8A4ADEF1FF0AFEF1FF0B7EF1FF01CC0FC
:103F600013F01DC014F071EC1CF0B7EF1FF012003D
:103F7000000E151A000E161A000E171A800E181AC7
:103F800011C001F012C002F013C003F014C004F01D
:103F900015C005F016C006F017C007F018C008F0ED
:103FA00021EC0BF001C011F002C012F003C013F0BD
:103FB00004C014F012002EC030F0E7EF1FF02DC047
:103FC00022F0300E236E2FC024F073EC15F030C0B9
:103FD000F6FF0E0EF76E000EF86E0800F5500009A1
:103FE000D8A4F5EF1FF0F7EF1FF0DFEF1FF0000E82
:103FF0002E6E000E2D6E1200036E83EC21F00E016A
:10400000DA8783EC21F0D5CE04F083EC21F0035065
:10401000D8B40DEF20F011EF20F0026A022A12EF5F
:1040200020F0026A023A02460E01DA510218DF0B52
:104030000218DA6FDA8904501200000E0E6E000EBC
:104040000D6E2CEF20F00CC001F0026A0BC003F0E3
:1040500044EC1BF00D4A0E2A0D500924D96E0E5067
:104060000A20DA6EDF500C6E0C50D8A43AEF20F024
:104070003CEF20F023EF20F01200000E056E000E42
:10408000046E4DEF20F0150E036EC60EE82EFED71F
:10409000032EFCD700D0044A052A0150045C0250CC
:1040A0000558D8A056EF20F058EF20F043EF20F04D
:1040B00012006EEC21F0010E036E000EBBEC21F03D
:1040C0003F0E056E550EE82EFED7052EFCD70000DC
:1040D000030E036E000EBBEC21F0D50E036E010E35
:1040E000BBEC21F01200330E376E31C038F0000EF9
:1040F0003C6E000E3B6E000E436E000E426E380E9C
:104100002D6E32C02EF0370E2F6EDBEC1FF03150CB
:104110003B24D96EDA6ADF6A120008BE92EF20F003
:1041200094EF20F09AEF20F007C007F008C008F0E5
:10413000A6EF20F007C009F008C00AF0091E0A1E09
:10414000094A0A2A09C007F00AC008F0120018C07C
:1041500013F019C014F071EC1CF0160E1B6E1B0E40
:104160001A6E880EE82EFED71A2EFCD71B2EFAD711
:1041700000D018C013F019C014F02AEC1CF0120083
:1041800018C013F019C014F02CEC1DF06A0E1B6E51
:10419000850E1A6EB40EE82EFED71A2EFCD71B2EF3
:1041A000FAD700D018C013F019C014F02AEC1CF094
:1041B000120018C013F019C014F071EC1CF0210E9D
:1041C0001B6E780E1A6E980EE82EFED71A2EFCD7AC
:1041D0001B2EFAD700D018C013F019C014F02AEC27
:1041E0001CF0120018C013F019C014F0B0EC1CF051
:1041F000210E1B6E780E1A6E980EE82EFED71A2E20
:10420000FCD71B2EFAD700D018C013F019C014F039
:104210002AEC1CF0120018C013F019C014F0B0EC16
:104220001CF0160E1B6E1B0E1A6E880EE82EFED7A3
:104230001A2EFCD71B2EFAD700D018C013F019C0C5
:1042400014F02AEC1CF0120018C013F019C014F07E
:10425000B0EC1CF02B0E1B6E360E1A6E130EE82EF1
:10426000FED71A2EFCD71B2EFAD7000018C013F069
:1042700019C014F02AEC1CF012004AEF21F0025091
:10428000D96EDA6ADF50F6EC21F0022A6A0EE82EC7
:10429000FED700D00250D96EDA6ADF50D8A453EFAF
:1042A00021F055EF21F03FEF21F0120018C013F07C
:1042B00019C014F02CEC1DF0190E1B6E5A0E1A6E5C
:1042C000B20EE82EFED71A2EFCD71B2EFAD718C036
:1042D00013F019C014F02AEC1CF012000E01D95191
:1042E000F00B0809D96FD98B9F0ED66F848A848C06
:1042F000A79BA79D1D0E1D6F1E0E1C6F1C0E6F6FC2
:104300001B0E706F12000E01D8B589EF21F08BEFF4
:1043100021F083EF21F0DACE01F01F0E0116D8A4B0
:1043200094EF21F096EF21F083EF21F0120001507D
:104330000302F3CF05F0F4CF06F001500402F3506E
:10434000062602500302F350062605C001F006C0FF
:1043500002F01200D450046E036AD350056E066A50
:1043600003500510076E04500610086E07C001F0D8
:1043700008C002F01200046E0DEC22F0520E02ECA6
:1043800022F00450800902EC22F0035002EC22F0EB
:1043900008EC22F01200120E0E01626F110E156F62
:1043A000E997E895330EE56F000EE66FE789E88B35
:1043B000E78F1200600E316EA00E326E44C033F0F3
:1043C00045C034F073EC20F0600E026E3DEC21F03D
:1043D0001200868C0E01B48D0F015899FC0E5817EF
:1043E0002E0E5F6F60946088608E1200016E0E0169
:1043F00037A5FDEF21F0FFEF21F0F7EF21F001C02D
:10440000E4FE1200026E83EC21F002C0D5FE120021
:1044100083EC21F00E01DA85120083EC21F00E010D
:10442000DA81120083EC21F00E01DA83120012000F
:01443000018A
:020000040030CA
:02000000AAFF55
:020004009FFF5C
:00000001FF
