:04000000D4EF0CF03D
:100E000000566F6C74616765203D2025642E253087
:100E100032642C202000436C6561723D25642C20D7
:100E2000200D0A00477265656E3D25642C20200068
:100E3000426C75653D25642C2020005265643D257B
:100E4000642C202000002350D96EDA6ADFCFF6FF31
:100E50000E0EF76E000EF86E0800F550250AD8A4A5
:100E600034EF07F036EF07F0D1EF07F02350D96EDB
:100E7000DA6ADF2A000E576E000E566E56C058F022
:100E8000010164696569000E2B6E6DEF07F05882F1
:100E90002350D96EDA6ADF2A6DEF07F0010E2B6E50
:100EA0006DEF07F02350D96EDA6ADFCFF6FF0E0E32
:100EB000F76E000EF86E0800F550256E266A265073
:100EC000000AD8B466EF07F04EEF07F02550300A5D
:100ED000D8B447EF07F04EEF07F02B50D8B473EFBC
:100EE00007F075EF07F052EF07F023C007F024C0BA
:100EF00008F05EEC0AF007C056F008C057F057BE85
:100F000086EF07F084EF07F08BEF07F05880566C00
:100F1000571ED8B0572A2350D96EDA6ADF502C6E8C
:100F20002CC0F6FF0E0EF76E000EF86E0800F5509E
:100F3000640AD8B49EEF07F0A0EF07F0B0EF07F017
:100F40002CC0F6FF0E0EF76E000EF86E0800F5507E
:100F5000690AD8A4AEEF07F0B0EF07F0CBEF07F0C7
:100F60002450D96EDA6A020EDF26DF5CD96EDA6AA7
:100F7000DECF27F0DECF28F02350D96EDA6A2C2896
:100F8000DF6E22C017F027C018F028C019F0E5EC7A
:100F900007F0E4EF07F02350D96EDA6ADF2AE4EFB6
:100FA00007F02350D96EDA6ADFCFF6FF0E0EF76E28
:100FB000000EF86E0800F550016E026A22C003F0C0
:100FC000A9EC09F0CBEF07F01200010E1C6E19BE60
:100FD000ECEF07F0EFEF07F0010EF0EF07F0000E77
:100FE0001F6E56C01DF057C01EF01F50D8B4FBEF47
:100FF00007F0FDEF07F014EF08F01D06D8A01E065D
:101000001F50D8A406EF08F008EF08F00EEF08F024
:10101000000E1B6E2B0E1A6E12EF08F0000E1B6EE8
:101020002D0E1A6E1AC01FF0000E216E1F0E206EBC
:10103000000E0101856F4CEF08F02006D8A02106B4
:10104000660E2024D96E010E2120DA6E18C001F040
:1010500019C002F0000E046E0A0E036E06EC0AF0D0
:1010600001C007F002C008F046EC0DF00750300F49
:10107000DF6E000E1C6E1D06D8A01E0618C001F003
:1010800019C002F0000E046E0A0E036E47EC09F060
:1010900001C018F002C019F021BE57EF08F021502E
:1010A00008E12004D8A057EF08F059EF08F07EEFD0
:1010B00008F018501910D8A460EF08F062EF08F09B
:1010C0001DEF08F01C50D8A468EF08F06AEF08F094
:1010D0001DEF08F01EBE75EF08F01E5008E11D045C
:1010E000D8A075EF08F077EF08F07EEF08F058B25F
:1010F0007CEF08F07EEF08F01DEF08F01F50D8B429
:1011000084EF08F086EF08F091EF08F02006D8A0F1
:101110002106660E2024D96E010E2120DA6E1FC032
:10112000DFFF17C00FF0660E2024106E010E212085
:10113000116E1DC012F01EC013F007EC0BF0120070
:10114000D3EC0DF02CEC0DF0C4EC0DF0000E026EA3
:10115000630E016E50EC0BF0000E0001F66F010EF5
:10116000F76F010EF86F000EFA6F630EF96FAA0E9B
:10117000FB6F0F0EFC6FA60EFD6F0F0EFE6F000EC5
:101180000101866F010E876F010E886F000E8A6F56
:10119000630E896F250E8B6F0F0E8C6F210E8D6F76
:1011A0000F0E8E6F7C9E849E60EC0DF001C04EF0A1
:1011B00002C04FF0D2EC0BF005C050F006C051F069
:1011C0004AEC0CF005C052F006C053F0FAEC0BF0FC
:1011D00005C054F006C055F022EC0CF005C0F3F148
:1011E00006C0F4F1600E456E4EC046F04FC047F0A9
:1011F000B5EC0AF0920E316E326A3B0E336E50C07F
:1012000034F051C035F0F2EC0CF0C40E316E326A9D
:10121000300E336E52C034F053C035F0F2EC0CF0A7
:101220008F0E316E010E326E240E336E54C034F0C8
:1012300055C035F0F2EC0CF0C10E316E010E326E7D
:10124000160E336EF3C134F0F4C135F0F2EC0CF04D
:10125000600E026E036A10EC0DF0920E026E036ACD
:1012600010EC0DF0C40E026E036A10EC0DF08F0E40
:10127000026E010E036E10EC0DF0C10E026E010E37
:10128000036E10EC0DF0D4EF08F000EF00F0000E4C
:10129000066E04BE50EF09F04EEF09F056EF09F06C
:1012A000036C041ED8B0042A010E066E02BE5DEF68
:1012B00009F05BEF09F063EF09F0016C021ED8B092
:1012C000022A010E061A000E086E000E076E035069
:1012D0000410D8B46EEF09F070EF09F098EF09F040
:1012E000010E056E78EF09F0D89003360436052A12
:1012F00004AE7DEF09F07FEF09F074EF09F0D890AC
:10130000073608360350015C04500258D8A08BEF12
:1013100009F08DEF09F092EF09F00350015E0450DF
:10132000025A0780D89004320332052E7FEF09F06D
:101330000650D8B49EEF09F0A0EF09F0A4EF09F031
:10134000076C081ED8B0082A07C001F008C002F0D8
:1013500012000350D8B4AFEF09F0B1EF09F0B9EFC4
:1013600009F00350D8A4B7EF09F0B9EF09F0BEEFC8
:1013700009F0015001EC0EF005EF0AF00350D96EB0
:10138000DA6A0A0ED926DE50DE10D8B4CAEF09F0A8
:10139000CCEF09F0E5EF09F00350D96EDA6A0A0ED6
:1013A000D9260350E16EE26A030EE126DE50E65CC8
:1013B000E650800A086EDE50800A0858D8B0E3EF85
:1013C00009F0E5EF09F005EF0AF00350D96EDA6A8B
:1013D000030ED926DECF04F0DDCF05F00350D96E21
:1013E000DA6ADECF06F0DDCF07F004500624D96EAE
:1013F00005500720DA6E01C0DFFF0350D96EDA6AAC
:10140000030ED926DE2A000EDD221200000E066E23
:1014100002BE0FEF0AF00DEF0AF015EF0AF0016CB3
:10142000021ED8B0022A010E066E04BE1CEF0AF09E
:101430001AEF0AF020EF0AF0036C041ED8B0042A59
:1014400003500410D8B427EF0AF029EF0AF04DEF4B
:101450000AF0010E056E31EF0AF0D890033604361B
:10146000052A04AE36EF0AF038EF0AF02DEF0AF045
:101470000350015C04500258D8A041EF0AF043EF3A
:101480000AF047EF0AF00350015E0450025AD89068
:1014900004320332052E38EF0AF00650D8B453EF69
:1014A0000AF055EF0AF059EF0AF0016C021ED8B0AD
:1014B000022A01C001F002C002F01200000E0B6E01
:1014C000000E0A6E0750D96EDA6ADFCFF6FF0E0EF5
:1014D000F76E000EF86E0800F5502A0AD8A473EFD4
:1014E0000AF075EF0AF09BEF0AF00750D96EDA6A3E
:1014F000DF2A0850D96EDA6A020EDF26DF5CD96E69
:10150000DA6ADECF0AF0DECF0BF0B0EF0AF00AC0E5
:1015100001F00BC002F0000E046E0A0E036EA1EC87
:101520000DF0095001240A6E000E02200B6E0750C8
:10153000D96EDA6ADF2A0750D96EDA6ADFCFF6FF92
:101540000E0EF76E000EF86E0800F550D00F096E03
:10155000090E0964AEEF0AF0B0EF0AF087EF0AF067
:101560000AC007F00BC008F0120046C007F047C0E1
:1015700008F0000E0A6E4D0E096E98EC0BF007C0D5
:101580004CF008C04DF046C001F047C002F0000E1C
:10159000046E640E036EA1EC0DF001C007F002C0F2
:1015A00008F0000E0A6E4D0E096E98EC0BF007C0A5
:1015B00048F008C049F04CC001F04DC002F0FF0EE9
:1015C000046E9C0E036EA1EC0DF0015048244A6E8F
:1015D000025049204B6E45C031F0326A010E336E25
:1015E0004CC034F04DC035F04AC036F04BC037F037
:1015F000F2EC0CF0520E496E2B0E486E000EE82EE7
:10160000FED7482EFCD7492EFAD700D0120058A09A
:101610000CEF0BF00EEF0BF016EF0BF010C009F013
:1016200011C00AF00FC00BF0B4EC0CF013BE1DEFAC
:101630000BF01BEF0BF021EF0BF0000E136E000E02
:10164000126E000E166E000E156E31EF0BF0000ECE
:10165000026E200E016E0FC003F0A9EC09F0154ACE
:10166000162A1250155C1650800A146E1350800A08
:101670001458D8A03EEF0BF040EF0BF027EF0BF023
:1016800058B045EF0BF047EF0BF04FEF0BF010C0E9
:1016900009F011C00AF00FC00BF0B4EC0CF012000E
:1016A0008594839E8598879C7D947B9E7D987F9C66
:1016B000050E0E01746F060E766F070E696F080E29
:1016C000886FBD508F0B4009BD6EE00EBE16BF5037
:1016D000F00B0109BF6E01C0BCFFBD8E000EAA6EEB
:1016E000000EA66E000E0F01256F000E216FFC0E7E
:1016F000AD16F30EAD16CF0EAD163F0EAD16AB8880
:10170000AB50F00B0C09AB6EAB8EA788A750F00B5B
:101710000C09A76EA78E26892651F00B0C09266F9F
:10172000268F22892251F00B0C09226F228F120082
:10173000000E0D6E000E0C6E09500A10D8B4A3EF07
:101740000BF0A5EF0BF0CDEF0BF0010E0B6EADEF34
:101750000BF0D89009360A360B2A0AAEB2EF0BF01E
:10176000B4EF0BF0A9EF0BF0D8900C360D36095002
:10177000075C0A500858D8A0C0EF0BF0C2EF0BF07E
:10178000C7EF0BF00950075E0A50085A0C80D8903A
:101790000A3209320B2EB4EF0BF00CC007F00DC06B
:1017A00008F01200FCEC0DF0520EECEC0DF0B60E51
:1017B000ECEC0DF0F2EC0DF0530EECEC0DF0010E34
:1017C00072EC0CF0076E07500A6E0B6A000E72EC9A
:1017D0000CF0076E0750096E086A0A5008100A6E6E
:1017E0000B5009100B6EF7EC0DF00AC005F00BC0A2
:1017F00006F01200FCEC0DF0520EECEC0DF0B80E01
:10180000ECEC0DF0F2EC0DF0530EECEC0DF0010EE3
:1018100072EC0CF0076E07500A6E0B6A000E72EC49
:101820000CF0076E0750096E086A0A5008100A6E1D
:101830000B5009100B6EF7EC0DF00AC005F00BC051
:1018400006F01200FCEC0DF0520EECEC0DF0B40EB4
:10185000ECEC0DF0F2EC0DF0530EECEC0DF0010E93
:1018600072EC0CF0076E07500A6E0B6A000E72ECF9
:101870000CF0076E0750096E086A0A5008100A6ECD
:101880000B5009100B6EF7EC0DF00AC005F00BC001
:1018900006F01200FCEC0DF0520EECEC0DF0BA0E5E
:1018A000ECEC0DF0F2EC0DF0530EECEC0DF0010E43
:1018B00072EC0CF0076E07500A6E0B6A000E72ECA9
:1018C0000CF0076E0750096E086A0A5008100A6E7D
:1018D0000B5009100B6EF7EC0DF00AC005F00BC0B1
:1018E00006F01200036E8DEC0DF00E01DA878DEC20
:1018F0000DF0D5CE04F08DEC0DF00350D8B483EF8D
:101900000CF087EF0CF0026A022A88EF0CF0026AF2
:10191000023A02460E01DA510218DF0B0218DA6FA2
:10192000DA89045012002EC030F09FEF0CF02DC069
:1019300022F0300E236E2FC024F023EC07F030C0CD
:10194000F6FF0E0EF76E000EF86E0800F550000957
:10195000D8A4ADEF0CF0AFEF0CF097EF0CF0000E49
:101960002E6E000E2D6E1200000E0E6E000E0D6E0D
:10197000C3EF0CF00CC001F0026A0BC003F0A9EC3D
:1019800009F00D4A0E2A0D500924D96E0E500A2076
:10199000DA6EDF500C6E0C50D8A4D1EF0CF0D3EF00
:1019A0000CF0BAEF0CF01200040EF66E1C0EF76E7F
:1019B000000EF86E0900F5CF5EF001EE00F08F0E1C
:1019C000EE6AE806FDE100EEF6F0090EEE6AE806C2
:1019D000FDE100EE56F0080EEE6AE806FDE10001BA
:1019E000A0EF08F0340E386E31C039F032C03AF052
:1019F000000E3D6E000E3C6E000E446E000E436EF7
:101A0000390E2D6E33C02EF0380E2F6E93EC0CF085
:101A10003C503124D96E3D503220DA6EDF6A12001C
:101A20001FEF0DF002C0D9FF03C0DAFFDF50E0EC7A
:101A30000DF0024A032A6A0EE82EFED700D002C03B
:101A4000D9FF03C0DAFFDF50D8A429EF0DF02BEF48
:101A50000DF012EF0DF0120078EC0DF0010E036E98
:101A6000000EB4EC0DF03F0E056E550EE82EFED7BD
:101A7000052EFCD70000030E036E000EB4EC0DF033
:101A8000D50E036E010EB4EC0DF0120008BE4BEF44
:101A90000DF04DEF0DF053EF0DF007C007F008C04B
:101AA00008F05FEF0DF007C009F008C00AF0091E4A
:101AB0000A1E094A0A2A09C007F00AC008F01200E3
:101AC000608060B066EF0DF068EF0DF061EF0DF033
:101AD00064CF03F0046A0350FF08036E0450D8A0DB
:101AE000E82A0008046E03C001F004C002F01200EE
:101AF0000E01D951F00B0809D96FD98B9F0ED66F03
:101B0000848A848CA79BA79D1D0E1D6F1E0E1C6FC3
:101B10001C0E6F6F1B0E706F12000E01D8B593EF85
:101B20000DF095EF0DF08DEF0DF0DACE01F01F0EF8
:101B30000116D8A49EEF0DF0A0EF0DF08DEF0DF083
:101B4000120001500302F3CF05F0F4CF06F001506C
:101B50000402F350062602500302F350062605C085
:101B600001F006C002F01200046EFCEC0DF0520E03
:101B7000ECEC0DF004508009ECEC0DF00350ECECB3
:101B80000DF0F7EC0DF01200120E0E01626F110E47
:101B9000156FE997E895330EE56F000EE66FE7895C
:101BA000E88BE78F1200868C0E01B48D0F015899D7
:101BB000FC0E58172E0E5F6F60946088608E1200C6
:101BC000016E0E0137A5E7EF0DF0E9EF0DF0E1EF43
:101BD0000DF001C0E4FE1200026E8DEC0DF002C0AB
:101BE000D5FE12008DEC0DF00E01DA8312008DECA3
:101BF0000DF00E01DA8512008DEC0DF00E01DA8188
:051C00001200120001BA
:020000040030CA
:02000000AAFF55
:020004009FFF5C
:00000001FF
