:040000001DEF00F000
:100018005E80E0CF01F00E0133AB15EF00F017EF73
:1000280000F019EF00F07F82339B01C0E0FF5E9083
:060038001000ACEF21F006
:100E00000043616C6962726174696F6E2073746112
:100E10007465203D20677265656E200A0D00436190
:100E20006C6962726174696F6E207374617465209D
:100E30003D2020616D6269656E740043616C69627A
:100E4000726174696F6E2073746174653D20626CA9
:100E50007565200A0D0043616C6962726174696F87
:100E60006E207374617465203D2020776869746515
:100E70000043414C4942524154494F4E20434F4D4B
:100E8000504C45544544200A0D0043616C69627220
:100E90006174696F6E207374617465203D207265A2
:100EA0006400566F6C74616765203D2025642E25B3
:100EB0003032642C2020006875653D253033642C69
:100EC0002020002E0000000E00019C6F000E9D6F80
:100ED000000E9E6F000E9F6F4D50D96EDA6ADECF06
:100EE0004EF0DDCF4FF04EC002F04FC003F0046A69
:100EF000056A000EF1EC15F002C060F003C061F06D
:100F000004C062F005C063F04C50D96EDA6ADECFDF
:100F10004EF0DDCF4FF04EC002F04FC003F0046A38
:100F2000056A000EF1EC15F002C064F003C065F034
:100F300004C066F005C067F04D50D96EDA6A020E43
:100F4000D926DECF4EF0DDCF4FF04EC002F04FC0BD
:100F500003F0046A056A000EF1EC15F002C068F0B7
:100F600003C069F004C06AF005C06BF04C50D96E44
:100F7000DA6A020ED926DECF4EF0DDCF4FF04EC03A
:100F800002F04FC003F0046A056A000EF1EC15F0A0
:100F900002C06CF003C06DF004C06EF005C06FF0CD
:100FA0004D50D96EDA6A040ED926DECF4EF0DDCF71
:100FB0004FF04EC002F04FC003F0046A056A000E05
:100FC000F1EC15F002C070F003C071F004C072F0D3
:100FD00005C073F04C50D96EDA6A040ED926DECF04
:100FE0004EF0DDCF4FF04EC002F04FC003F0046A68
:100FF000056A000EF1EC15F002C074F003C075F044
:1010000004C076F005C077F04D50D96EDA6A060E4E
:10101000D926DECF4EF0DDCF4FF04EC002F04FC0EC
:1010200003F0046A056A000EF1EC15F002C078F0D6
:1010300003C079F004C07AF005C07BF04C50D96E43
:10104000DA6A060ED926DECF4EF0DDCF4FF04EC065
:1010500002F04FC003F0046A056A000EF1EC15F0CF
:1010600002C07CF003C07DF004C07EF005C07FF0BC
:1010700078C029F079C02AF07AC02BF07BC02CF020
:101080007CC02DF07DC02EF07EC02FF07FC030F0F0
:10109000DBEC11F060C029F061C02AF062C02BF0D7
:1010A00063C02CF064C02DF065C02EF066C02FF038
:1010B00067C030F0DBEC11F029C0A0F02AC0A1F02D
:1010C0002BC0A2F02CC0A3F068C029F069C02AF0A0
:1010D0006AC02BF06BC02CF06CC02DF06DC02EF0F0
:1010E0006EC02FF06FC030F0DBEC11F029C0A4F01F
:1010F0002AC0A5F02BC0A6F02CC0A7F070C029F024
:1011000071C02AF072C02BF073C02CF074C02DF0A7
:1011100075C02EF076C02FF077C030F0DBEC11F008
:1011200029C0A8F02AC0A9F02BC0AAF02CC0ABF0AF
:10113000A0C002F0A1C003F0A2C004F0A3C005F05B
:10114000A4C006F0A5C007F0A6C008F0A7C009F02B
:1011500038EC1BF0D8A0AFEF08F0B1EF08F0E6EFE5
:1011600008F0A4C002F0A5C003F0A6C004F0A7C018
:1011700005F0A8C006F0A9C007F0AAC008F0ABC0EF
:1011800009F038EC1BF0D8A0C8EF08F0CAEF08F05F
:10119000D4EF08F0A8C080F0A9C081F0AAC082F006
:1011A000ABC083F0DCEF08F0A4C080F0A5C081F0F4
:1011B000A6C082F0A7C083F080C090F081C091F0FB
:1011C00082C092F083C093F019EF09F0A0C002F042
:1011D000A1C003F0A2C004F0A3C005F0A8C006F0AF
:1011E000A9C007F0AAC008F0ABC009F038EC1BF0AA
:1011F000D8A0FDEF08F0FFEF08F009EF09F0A8C054
:1012000084F0A9C085F0AAC086F0ABC087F011EFCA
:1012100009F0A0C084F0A1C085F0A2C086F0A3C0F0
:1012200087F084C090F085C091F086C092F087C0AE
:1012300093F0A4C002F0A5C003F0A6C004F0A7C0BC
:1012400005F0A0C006F0A1C007F0A2C008F0A3C03E
:1012500009F038EC1BF0D8A030EF09F032EF09F0BC
:1012600067EF09F0A8C002F0A9C003F0AAC004F01B
:10127000ABC005F0A4C006F0A5C007F0A6C008F0FA
:10128000A7C009F038EC1BF0D8A049EF09F04BEFEC
:1012900009F055EF09F0A8C088F0A9C089F0AAC0EC
:1012A0008AF0ABC08BF05DEF09F0A4C088F0A5C058
:1012B00089F0A6C08AF0A7C08BF088C098F089C0DA
:1012C00099F08AC09AF08BC09BF09AEF09F0A8C001
:1012D00002F0A9C003F0AAC004F0ABC005F0A0C0A2
:1012E00006F0A1C007F0A2C008F0A3C009F038ECD6
:1012F0001BF0D8A07EEF09F080EF09F08AEF09F02B
:10130000A8C08CF0A9C08DF0AAC08EF0ABC08FF041
:1013100092EF09F0A0C08CF0A1C08DF0A2C08EF0B9
:10132000A3C08FF08CC098F08DC099F08EC09AF059
:101330008FC09BF098C012F099C013F09AC014F0BF
:101340009BC015F090C016F091C017F092C018F035
:1013500093C019F067EC21F012C094F013C095F01F
:1013600014C096F015C097F098C002F099C003F031
:101370009AC004F09BC005F090C006F091C007F041
:1013800092C008F093C009F01BEC1EF0D8A0CBEF80
:1013900009F0CDEF09F0D8EF09F0000E00019C6FC5
:1013A000000E9D6F000E9E6F000E9F6FE1EF0AF022
:1013B00098C002F099C003F09AC004F09BC005F0F9
:1013C000A0C006F0A1C007F0A2C008F0A3C009F0B9
:1013D0001BEC1EF0D8A0EFEF09F0F1EF09F01FEFC2
:1013E0000AF0A4C016F0A5C017F0A6C018F0A7C058
:1013F00019F0A8C012F0A9C013F0AAC014F0ABC035
:1014000015F067EC21F012C029F013C02AF014C0C7
:101410002BF015C02CF094C02DF095C02EF096C086
:101420002FF097C030F0DBEC11F029C09CF02AC0FF
:101430009DF02BC09EF02CC09FF0E1EF0AF098C009
:1014400002F099C003F09AC004F09BC005F0A4C05C
:1014500006F0A5C007F0A6C008F0A7C009F01BEC75
:101460001EF0D8A036EF0AF038EF0AF080EF0AF04D
:10147000A0C016F0A1C017F0A2C018F0A3C019F0C8
:10148000A8C012F0A9C013F0AAC014F0ABC015F0A8
:1014900067EC21F012C029F013C02AF014C02BF021
:1014A00015C02CF094C02DF095C02EF096C02FF0F2
:1014B00097C030F0DBEC11F029C09CF02AC09DF001
:1014C0002BC09EF02CC09FF09CC002F09DC003F08A
:1014D0009EC004F09FC005F0000E066E000E076E61
:1014E000000E086E400E096E2CEC0BF002C09CF052
:1014F00003C09DF004C09EF005C09FF0E1EF0AF02C
:1015000098C002F099C003F09AC004F09BC005F0A7
:10151000A8C006F0A9C007F0AAC008F0ABC009F047
:101520001BEC1EF0D8A097EF0AF099EF0AF0E1EF5C
:101530000AF0A4C016F0A5C017F0A6C018F0A7C006
:1015400019F0A0C012F0A1C013F0A2C014F0A3C003
:1015500015F067EC21F012C029F013C02AF014C076
:101560002BF015C02CF094C02DF095C02EF096C035
:101570002FF097C030F0DBEC11F029C09CF02AC0AE
:101580009DF02BC09EF02CC09FF09CC002F09DC02F
:1015900003F09EC004F09FC005F0000E066E000E22
:1015A000076E800E086E400E096E2CEC0BF002C028
:1015B0009CF003C09DF004C09EF005C09FF0E1EFD9
:1015C0000AF09CC010F09DC011F09EC012F09FC0A8
:1015D00013F0000E146E000E156E700E166E420E95
:1015E000176EC6EC0FF010C09CF011C09DF012C039
:1015F0009EF013C09FF000019FBF03EF0BF001EFBF
:101600000BF01DEF0BF09CC002F09DC003F09EC0DC
:1016100004F09FC005F0000E066E000E076EB40EBB
:10162000086E430E096E2CEC0BF002C09CF003C058
:101630009DF004C09EF005C09FF09CC042F09DC08C
:1016400043F09EC044F09FC045F0B5EC1AF042C094
:101650004CF043C04DF012000550800B0E6E05504B
:101660000524106E04AE37EF0BF039EF0BF03AEFB4
:101670000BF010801050D8B440EF0BF042EF0BF09D
:1016800057EF0BF01028D8A448EF0BF04AEF0BF0FF
:1016900052EF0BF0000E026E000E036E000E046E91
:1016A000000E056E048E000E056E5FEF0BF0000E4F
:1016B000026E000E036E000E046E000E056E0950E1
:1016C000800B0F6E0E500F18D8B469EF0BF06BEF54
:1016D0000BF06CEF0BF00E8C095009240F6E08AE66
:1016E00074EF0BF076EF0BF077EF0BF00F800F50ED
:1016F000D8B47DEF0BF07FEF0BF094EF0BF00F28D9
:10170000D8A485EF0BF087EF0BF08FEF0BF0000EF6
:10171000066E000E076E000E086E000E096E088E33
:10172000000E096E9CEF0BF0000E066E000E076EA9
:10173000000E086E000E096E10500F5CD8B0A3EFBB
:101740000BF0A5EF0BF0CCEF0BF00EACAAEF0BF00B
:10175000ACEF0BF0AEEF0BF0800E0E1A10C011F0D4
:101760000FC010F011C00FF002C011F006C002F05F
:1017700011C006F003C011F007C003F011C007F05C
:1017800004C011F008C004F011C008F005C011F049
:1017900009C005F011C009F0000E116E10500FC005
:1017A0000AF00B6A0A5E000E0B5A0BBEE1EF0BF05B
:1017B0000B5009E11A0E0A5CD8A0E1EF0BF0E3EF41
:1017C0000BF01AEF0CF00250031004100510D8A40F
:1017D000ECEF0BF0EFEF0BF0010EF0EF0BF0000E63
:1017E000116E000E026E000E036E000E046E000EEF
:1017F000056E0FC010F023EF0CF011A002EF0CF0FB
:1018000004EF0CF00AEF0CF0D89011300109116EC2
:101810000CEF0CF0D890113202A011EF0CF013EF86
:101820000CF014EF0CF0118E053405320432033243
:101830000232102A0F50105CD8A021EF0CF023EFD9
:101840000CF0FDEF0BF00EBC28EF0CF02AEF0CF0C3
:101850006AEF0CF01050D8A430EF0CF032EF0CF01F
:101860003CEF0CF0000E026E000E036E000E046ED4
:10187000000E056E8BEF0DF0065002260750032276
:10188000085004220950052205A049EF0CF04BEF47
:101890000CF0F7EF0CF011A050EF0CF052EF0CF041
:1018A00058EF0CF0D89011300109116E5AEF0CF07E
:1018B000D890113202A05FEF0CF061EF0CF062EFF4
:1018C0000CF0118E05340532043203320232102A34
:1018D000F7EF0CF00650025C07500358085004580C
:1018E0000550800A0A6E0950800A0A58D8B07BEF6A
:1018F0000CF07DEF0CF0A8EF0CF00250065C0A6EC5
:10190000035007580B6E045008580C6E05500958C8
:101910000D6EFF0E0A24026EFF0E0B20036EFF0EEB
:101920000C20046EFF0E0D20056E800E0E1A116C39
:101930001150D8A49EEF0CF0A0EF0CF0B0EF0CF01B
:10194000010E0226000E032204220522B0EF0CF045
:101950000650025E0750035A0850045A0950055AAF
:101960000250031004100510D8A4B9EF0CF0BBEF1F
:101970000CF0F0EF0CF01150D8A4C1EF0CF0C3EF55
:101980000CF0F0EF0CF0000E026E000E036E000E75
:10199000046E000E056E8BEF0DF0D8900236033604
:1019A0000436053611AED7EF0CF0D9EF0CF0DAEFB4
:1019B0000CF0028011A0DFEF0CF0E1EF0CF0E5EF8E
:1019C0000CF0D8801136E7EF0CF0D890113610509B
:1019D000D8B4EDEF0CF0EFEF0CF0F0EF0CF01006D8
:1019E00004AEF5EF0CF0F7EF0CF0CDEF0CF0000EBD
:1019F0000F6E11AEFEEF0CF000EF0DF018EF0DF0D2
:101A000011C00AF07F0E0A16D8B409EF0DF00BEFE3
:101A10000DF00FEF0DF0010E0F6E18EF0DF002A09C
:101A200014EF0DF016EF0DF018EF0DF00BEF0DF0B9
:101A30000F50D8B41EEF0DF020EF0DF04BEF0DF06E
:101A4000010E0226000E03220422052205A02BEF20
:101A50000DF02DEF0DF04BEF0DF002C00AF003C0BA
:101A60000BF004C00CF005C00DF00D340D320C323B
:101A70000B320A320AC002F00BC003F00CC004F0B3
:101A80000DC005F01028D8B448EF0DF04AEF0DF066
:101A90004BEF0DF0102A1028D8B451EF0DF053EF92
:101AA0000DF05BEF0DF01050D8A459EF0DF05BEF87
:101AB0000DF06DEF0DF0000E026E000E036E000EC5
:101AC000046E000E056E1050D8A469EF0DF06BEF98
:101AD0000DF06DEF0DF0000E0E6E10A072EF0DF018
:101AE00074EF0DF077EF0DF0048E78EF0DF0049E9B
:101AF000D8901030056E0EAE80EF0DF082EF0DF035
:101B000083EF0DF0058E02C002F003C003F004C0A5
:101B100004F005C005F01200C7EC24F06AEC22F0D6
:101B2000A9EC24F045EC24F0000E036E630E026E67
:101B300010EC1FF0000E0001F46F010EF56F010EA6
:101B4000F66F000EF86F630EF76FAA0EF96F0F0EA7
:101B5000FA6FA60EFB6F0F0EFC6F000EEB6F010EFF
:101B6000EC6F010EED6F000EEF6F630EEE6F250E42
:101B7000F06F0F0EF16F210EF26F0F0EF36F7C9E60
:101B8000849E87907F90859E7D9E8196799686869D
:101B90000E01B49786847E94B49587927F9288963E
:101BA0008086190E5C6E5A0E5B6EB20EE82EFED762
:101BB0005B2EFCD75C2EFAD78096E10E476ECEECFA
:101BC00014F0000E0001B76F000EB66F7F807D8E9F
:101BD0007986F40E4C6EEB0E4D6EA5EC1CF0D58E96
:101BE00017EC21F006C0DDF007C0DEF0DDC002F02A
:101BF000DEC003F0046A056A000EF1EC15F002C0C5
:101C0000AEF003C0AFF004C0B0F005C0B1F0E7C063
:101C100002F0E8C003F0046A056A000EF1EC15F06A
:101C200002C0B2F003C0B3F004C0B4F005C0B5F018
:101C3000B2C02DF0B3C02EF0B4C02FF0B5C030F05C
:101C4000000E146E000E156EC80E166E420E176E44
:101C5000AEC010F0AFC011F0B0C012F0B1C013F0C0
:101C6000C6EC0FF010C029F011C02AF012C02BF002
:101C700013C02CF0DBEC11F029C042F02AC043F075
:101C80002BC044F02CC045F0B5EC1AF042C0B8F0BF
:101C900043C0B9F0B8C045F0B9C046F0B8EC24F084
:101CA000AEEF0EF017EC21F006C0DDF007C0DEF05D
:101CB000DDC002F0DEC003F0046A056A000EF1EC3C
:101CC00015F002C0AEF003C0AFF004C0B0F005C024
:101CD000B1F0E7C002F0E8C003F0046A056A000E44
:101CE000F1EC15F002C0B2F003C0B3F004C0B4F0E0
:101CF00005C0B5F0B2C02DF0B3C02EF0B4C02FF0C7
:101D0000B5C030F0000E146E000E156EC80E166EC3
:101D1000420E176EAEC010F0AFC011F0B0C012F09E
:101D2000B1C013F0C6EC0FF010C029F011C02AF0BA
:101D300012C02BF013C02CF0DBEC11F029C042F0E4
:101D40002AC043F02BC044F02CC045F0B5EC1AF08B
:101D500042C0B8F043C0B9F04AEF0EF00001B951EB
:101D600009E1080EB85DD8A0B8EF0EF0BAEF0EF09A
:101D700052EF0EF0D59EF40E146EEB0E156E58EC6D
:101D80001FF0B6C007F0B7C008F02FEC22F007C074
:101D9000B6F008C0B7F0110E5C6E3C0E5B6ECB0E59
:101DA000E82EFED75B2EFCD75C2EFAD70000F40E8F
:101DB0004C6EEB0E4D6EA5EC1CF0190E5C6E5A0EBF
:101DC0005B6EB20EE82EFED75B2EFCD75C2EFAD7E8
:101DD000F40E146EEB0E156E58EC1FF0190E5C6EBF
:101DE0005A0E5B6EB20EE82EFED75B2EFCD75C2E31
:101DF000FAD7D70E506E30EC1CF050C0ACF051C08A
:101E0000ADF0DDC002F0DEC003F0046A056A000E2A
:101E1000F1EC15F002C0AEF003C0AFF004C0B0F0BA
:101E200005C0B1F0E7C002F0E8C003F0046A056A3B
:101E3000000EF1EC15F002C0B2F003C0B3F004C024
:101E4000B4F005C0B5F0B2C02DF0B3C02EF0B4C0F0
:101E50002FF0B5C030F0000E146E000E156EC80ED7
:101E6000166E420E176EAEC010F0AFC011F0B0C0CB
:101E700012F0B1C013F0C6EC0FF010C029F011C081
:101E80002AF012C02BF013C02CF0DBEC11F029C0AB
:101E900042F02AC043F02BC044F02CC045F0B5EC12
:101EA0001AF042C0B8F043C0B9F00001B95109E1DD
:101EB000150EB85DD8A05FEF0FF061EF0FF079EF6E
:101EC0000FF0F40E4C6EEB0E4D6EA5EC1CF0090EEF
:101ED0005C6E1E0E5B6EE40EE82EFED75B2EFCD70A
:101EE0005C2EFAD700D0F40E146EEB0E156E58EC83
:101EF0001FF00001B95109E13D0EB85DD8A083EF94
:101F00000FF085EF0FF09BEF0FF02E0EAC5D010E82
:101F1000AD59D8A08EEF0FF090EF0FF0A2EF0FF0B9
:101F20005B0EAC5D010EAD59D8B099EF0FF09BEF91
:101F30000FF0A2EF0FF07FA2A0EF0FF0A2EF0FF0D3
:101F4000B4EF0FF0000E466E080E456EB8EC24F0AC
:101F5000F40E0001606FEB0E616FB6C062F0B7C0A7
:101F600063F0A4EC19F07F92ACC021F0ADC022F078
:101F7000B6C023F0B7C024F0A8EC13F021C0B6F02F
:101F800022C0B7F0E6EF0DF01DEF00F01350800B0C
:101F90001C6E13501324226E12AED1EF0FF0D3EF4C
:101FA0000FF0D4EF0FF022802250D8B4DAEF0FF008
:101FB000DCEF0FF0EFEF0FF02228D8A4E2EF0FF0E4
:101FC000E4EF0FF0ECEF0FF0000E106E000E116E4C
:101FD000000E126E000E136E128EF7EF0FF0000E51
:101FE000106E000E116E000E126E000E136E175062
:101FF000800B1C1A17501724216E16AE02EF10F03A
:1020000004EF10F005EF10F021802150D8B40BEF51
:1020100010F00DEF10F020EF10F02128D8A413EFEE
:1020200010F015EF10F01DEF10F0000E146E000E02
:10203000156E000E166E000E176E168E28EF10F03D
:10204000000E146E000E156E000E166E000E176E4A
:102050002150D8B42EEF10F030EF10F038EF10F020
:102060002250D8A436EF10F038EF10F042EF10F005
:10207000000E106E000E116E000E126E000E136E2A
:10208000DAEF11F016501002F3CF27F0F4CF28F05A
:1020900027501D6E1E6A1F6A206A2850236E246A0C
:1020A000256A266A15501102F3CF27F0F4CF28F0E5
:1020B00027501D26000E1E221F22202228502326D4
:1020C000000E24222522262214501202F3CF27F0DC
:1020D000F4CF28F027501D26000E1E221F2220229A
:1020E00028502326000E2422252226221FC020F05D
:1020F0001EC01FF01DC01EF01D6A14501102F3CF48
:1021000027F0F4CF28F027501D2628501E22000E5D
:102110001F22000E202215501002F3CF27F0F4CF1B
:1021200028F027501D2628501E22000E1F22000EC8
:1021300020221FC020F01EC01FF01DC01EF01D6A0F
:1021400014501002F3CF27F0F4CF28F027501D26AB
:1021500028501E22000E1F22000E202216501102AF
:10216000F3CF27F0F4CF28F027502326285024223D
:10217000000E2522000E262215501202F3CF27F062
:10218000F4CF28F02750232628502422000E2522A1
:10219000000E262216501202F3CF27F0F4CF28F0BB
:1021A0002750186E2850196E1A6A1B6A1AC01BF045
:1021B00019C01AF018C019F0186A185023261950BF
:1021C00024221A5025221B5026221DC018F01EC0A2
:1021D00019F01FC01AF020C01BF0190EF5EF10F017
:1021E000D8901B321A3219321832E82EF0EF10F064
:1021F00018502326195024221A5025221B5026221B
:102200001FC020F01EC01FF01DC01EF01D6A21500F
:1022100022C018F0196A1826000E1922820E1824FE
:10222000276EFF0E1920286E2BEF11F0D890233661
:1022300024362536263620AE20EF11F022EF11F09D
:1022400023EF11F02380D8901D361E361F3620361E
:102250002706D8A0280625AE30EF11F032EF11F096
:1022600016EF11F0000E216E20AE39EF11F03BEFAA
:1022700011F05FEF11F0FF0E1D14186EFF0E1E140B
:10228000196EFF0E1F141A6E7F0E20141B6E18504D
:1022900019101A101B10D8B450EF11F052EF11F0B2
:1022A00056EF11F0010E216E5FEF11F023A05BEFEE
:1022B00011F05DEF11F05FEF11F052EF11F02150CE
:1022C000D8B465EF11F067EF11F08BEF11F0010E4C
:1022D0002326000E24222522262226A072EF11F0AA
:1022E00074EF11F08BEF11F023C018F024C019F037
:1022F00025C01AF026C01BF01B341B321A321932CB
:10230000183218C023F019C024F01AC025F01BC0E1
:1023100026F0274A282A28BE96EF11F0285008E117
:102320002728D8A096EF11F098EF11F0A2EF11F046
:10233000000E236E000E246E800E256E7F0E266E1C
:10234000D0EF11F028BEAFEF11F0285006E12704BE
:10235000D8B0ADEF11F0AFEF11F0BBEF11F0000E00
:10236000236E000E246E000E256E000E266E000EEB
:102370001C6ED0EF11F027C022F0FF0E2316FF0EC7
:1023800024167F0E2516000E261622A0CAEF11F085
:10239000CCEF11F0CDEF11F0258ED8902230266EC3
:1023A0001C50261223C010F024C011F025C012F0DA
:1023B00026C013F012002C50800B396E2C502C24A8
:1023C000406E2BAEE6EF11F0E8EF11F0E9EF11F0FF
:1023D00040804050D8B4EFEF11F0F1EF11F006EF6C
:1023E00012F04028D8A4F7EF11F0F9EF11F001EF47
:1023F00012F0000E296E000E2A6E000E2B6E000EDB
:102400002C6E2B8E000E2C6E0EEF12F0000E296E2D
:10241000000E2A6E000E2B6E000E2C6E3050800BBC
:10242000391A30503024416E2FAE19EF12F01BEFE5
:1024300012F01CEF12F041804150D8B422EF12F09C
:1024400024EF12F039EF12F04128D8A42AEF12F04D
:102450002CEF12F034EF12F0000E2D6E000E2E6EE7
:10246000000E2F6E000E306E2F8E000E306E41EF7C
:1024700012F0000E2D6E000E2E6E000E2F6E000E4E
:10248000306E2D502E102F103010D8A44AEF12F0BD
:102490004CEF12F064EF12F0000E296E000E2A6E5F
:1024A000000E2B6E000E2C6E800E2B127F0E2C1247
:1024B00039502C1229C029F02AC02AF02BC02BF049
:1024C0002CC02CF0A7EF13F04050D8A46AEF12F004
:1024D0006CEF12F076EF12F0000E296E000E2A6EED
:1024E000000E2B6E000E2C6EA7EF13F0415040C073
:1024F00031F0326A315E000E325A7F0E31243A6E6C
:10250000000E32203B6E29C035F02AC036F02BC0B9
:1025100037F02CC038F0000E296E000E2A6E000E27
:102520002B6E000E2C6E000E3C6E000E3D6E000EEB
:102530003E6E000E3F6E000E416ED7EF12F041501E
:10254000D8B4A5EF12F0A7EF12F0BEEF12F0D890BA
:102550003536363637363836D89029362A362B3641
:102560002C363FAEB6EF12F0B8EF12F0B9EF12F022
:102570002980D8903C363D363E363F362D50355C6E
:102580002E5036582F50375830503858D8A0CBEFEF
:1025900012F0CDEF12F0D6EF12F03F8C2D50355ED9
:1025A0002E50365A2F50375A3050385A412A190E69
:1025B0004164DDEF12F0DFEF12F09FEF12F03550C3
:1025C000361037103810D8B4E8EF12F0EAEF12F0F6
:1025D00002EF13F03C8002EF13F0D89029362A3630
:1025E0002B362C363FAEF7EF12F0F9EF12F0FAEF80
:1025F00012F02980D8903C363D363E363F363A06BA
:10260000D8A03B062BAE07EF13F009EF13F0EDEF68
:1026100012F0000E416E3FAE10EF13F012EF13F008
:1026200036EF13F0FF0E3C14316EFF0E3D14326E88
:10263000FF0E3E14336E7F0E3F14346E3150321055
:1026400033103410D8B427EF13F029EF13F02DEF27
:1026500013F0010E416E36EF13F029A032EF13F0A4
:1026600034EF13F036EF13F029EF13F04150D8B4E4
:102670003CEF13F03EEF13F062EF13F0010E29264A
:10268000000E2A222B222C222CA049EF13F04BEF14
:1026900013F062EF13F029C031F02AC032F02BC0E2
:1026A00033F02CC034F034343432333232323132FD
:1026B00031C029F032C02AF033C02BF034C02CF0E6
:1026C0003A4A3B2A3BBE6DEF13F03B5008E13A28F3
:1026D000D8A06DEF13F06FEF13F07AEF13F0000E48
:1026E0003B6E3A68000E296E000E2A6E000E2B6EAD
:1026F000000E2C6E3BBE87EF13F03B5006E13A0410
:10270000D8B085EF13F087EF13F095EF13F0000EBC
:102710003B6E000E3A6E000E296E000E2A6E000E01
:102720002B6E000E2C6E000E396E3AC040F040A0A9
:102730009CEF13F09EEF13F0A1EF13F02B8EA2EF9E
:1027400013F02B9ED89040302C6E58EF12F01200F0
:10275000225009E10B0E215CD8A0B1EF13F0B3EFCA
:1027600013F0BEEF13F0630E215C010E2258D8A0C7
:10277000BCEF13F0BEEF13F0D3EF13F0F40E1D6EA9
:10278000EB0E1E6EEAEC22F0000E036E000E026EDF
:1027900023C004F024C005F0310E8AEC21F0234A56
:1027A000242AC9EF14F0225009E1690E215CD8A057
:1027B000DCEF13F0DEEF13F0FCEF13F0225007E133
:1027C000830E215CD8B0E7EF13F0E9EF13F0FCEFD4
:1027D00013F0F40E1D6EEB0E1E6E99EC23F0000E3E
:1027E000036E000E026E23C004F024C005F0320E0A
:1027F0008AEC21F0CFEF13F0225009E1E60E215CC4
:10280000D8A005EF14F007EF14F025EF14F02250D4
:1028100007E1F10E215CD8B010EF14F012EF14F0C4
:1028200025EF14F0F40E1D6EEB0E1E6EB2EC23F0CD
:10283000000E036E000E026E23C004F024C005F0EB
:10284000330E8AEC21F0CFEF13F0225009E1D80EBD
:10285000215CD8A02EEF14F030EF14F04EEF14F0FE
:10286000225007E1DE0E215CD8B039EF14F03BEFC7
:1028700014F04EEF14F0F40E1D6EEB0E1E6E67ECAE
:1028800023F0000E036E000E026E23C004F024C07D
:1028900005F0350E8AEC21F0CFEF13F02E0E215CFF
:1028A000010E2258D8A057EF14F059EF14F077EF2B
:1028B00014F05B0E215C010E2258D8B062EF14F0C8
:1028C00064EF14F077EF14F0F40E1D6EEB0E1E6E35
:1028D000D1EC22F0000E036E000E026E23C004F055
:1028E00024C005F0310E8AEC21F0CFEF13F0225016
:1028F00009E10F0E215CD8A080EF14F082EF14F0F4
:10290000A0EF14F0225007E1240E215CD8B08BEF29
:1029100014F08DEF14F0A0EF14F0F40E1D6EEB0E1A
:102920001E6E35EC23F0000E036E000E026E23C007
:1029300004F024C005F0340E8AEC21F0CFEF13F040
:10294000225009E1F40E215CD8A0A9EF14F0ABEFFE
:1029500014F0C9EF14F0225007E1FC0E215CD8B04E
:10296000B4EF14F0B6EF14F0C9EF14F0F40E1D6ECE
:10297000EB0E1E6E03EC23F0000E036E000E026ED3
:1029800023C004F024C005F0320E8AEC21F0CFEF12
:1029900013F023C021F024C022F012007F907D9E0E
:1029A0007996920E326E8A0E336EC30E346E3450A8
:1029B000D8A40E0E356E84EC22F0920E036EE4EC79
:1029C00023F08EB4E6EF14F0E8EF14F0E1EF14F02A
:1029D0007F80290E496E960E486E7F0EE82EFED738
:1029E000482EFCD7492EFAD70000C7EC20F04750FC
:1029F000D96EDA6A06C0DEFF07C0DDFF7F90920E57
:102A0000326E010E336EC30E346E3450D8A40E0EE7
:102A1000356E84EC22F0920E036EE4EC23F08EB45B
:102A200014EF15F016EF15F00FEF15F07D8E290E4F
:102A3000496E960E486E7F0EE82EFED7482EFCD7C4
:102A4000492EFAD70000EFEC20F04750D96EDA6A31
:102A5000020ED92606C0DEFF07C0DDFF7D9E920E66
:102A6000326E3B0E336EC30E346E3450D8A40E0E4D
:102A7000356E84EC22F0920E036EE4EC23F08EB4FB
:102A800044EF15F046EF15F03FEF15F07986290E6B
:102A9000496E960E486E7F0EE82EFED7482EFCD764
:102AA000492EFAD700003FEC21F04750D96EDA6A80
:102AB000040ED92606C0DEFF07C0DDFF7996920E10
:102AC000326E560E336EC30E346E3450D8A40E0ED2
:102AD000356E84EC22F0920E036EE4EC23F08EB49B
:102AE00074EF15F076EF15F06FEF15F07F807D8EA7
:102AF0007986290E496E960E486E7F0EE82EFED717
:102B0000482EFCD7492EFAD7000017EC21F0475089
:102B1000D96EDA6A060ED92606C0DEFF07C0DDFFD1
:102B20007F907D9E7996920E326E1E0E336EC30E8E
:102B3000346E3450D8A40E0E356E84EC22F0920E12
:102B4000036EE4EC23F08EB4A8EF15F0AAEF15F0B5
:102B5000A3EF15F07F807D8E7986290E496E960E43
:102B6000486E7F0EE82EFED7482EFCD7492EFAD7A6
:102B7000000017EC21F04750D96EDA6A080ED9260A
:102B800006C0DEFF07C0DDFF7F907D9E7996920E26
:102B9000326E710E336EC30E346E3450D8A40E0EE6
:102BA000356E84EC22F0920E036EE4EC23F0E9C063
:102BB00045F0EAC046F0B8EC24F08EB4E2EF15F030
:102BC000E4EF15F0DDEF15F0290E496E960E486E14
:102BD0007F0EE82EFED7482EFCD7492EFAD70000EC
:102BE00012000A6E0A50D8B4F8EF15F0FAEF15F09B
:102BF0001CEF16F005BE01EF16F0FFEF15F01CEF0D
:102C000016F002C006F003C007F004C008F005C0CB
:102C100009F0061E071E081E091E062A000E0722BE
:102C20000822092206C00CF007C00DF008C00EF003
:102C300009C00FF024EF16F002C00CF003C00DF035
:102C400004C00EF005C00FF0025003100410051070
:102C5000D8A42DEF16F02FEF16F039EF16F0000E76
:102C6000026E000E036E000E046E000E056ECAEFBB
:102C700016F0960E0B6E43EF16F00B2AD8900F321B
:102C80000E320D320C32000E0C14066E000E0D14B6
:102C9000076E000E0E14086EFE0E0F14096E06501D
:102CA000071008100910D8A458EF16F05AEF16F0C4
:102CB0003DEF16F068EF16F00B2A010E0C26000E01
:102CC0000D220E220F22D8900F320E320D320C320E
:102CD000000E0C14066E000E0D14076E000E0E147E
:102CE000086EFF0E0F14096E065007100810091029
:102CF000D8A47DEF16F07FEF16F05CEF16F087EFAB
:102D000016F00B06D8900C360D360E360F360EBE6A
:102D10008CEF16F08EEF16F096EF16F0020E0B60A9
:102D200094EF16F096EF16F081EF16F00BB09BEFD4
:102D300016F09DEF16F09EEF16F00E9ED8900B3217
:102D40000BC006F0076A086A096A06C009F0086A3B
:102D5000076A066A06500C1207500D1208500E1230
:102D600009500F120A50D8B4B8EF16F0BAEF16F0A7
:102D7000C2EF16F005BEC1EF16F0BFEF16F0C2EFBE
:102D800016F00F8E0CC002F00DC003F00EC004F060
:102D90000FC005F012002450D96EDA6ADFCFF6FFBB
:102DA0000E0EF76E000EF86E0800F550250AD8A436
:102DB000DCEF16F0DEEF16F07BEF17F02450D96E43
:102DC000DA6ADF2A000E0001CF6F000ECE6FCEC090
:102DD000D2F0D069D169000E2C6E16EF17F0000109
:102DE000D2832450D96EDA6ADF2A16EF17F0010E6B
:102DF0002C6E16EF17F02450D96EDA6ADFCFF6FF8B
:102E00000E0EF76E000EF86E0800F550266E276A5B
:102E10002750000AD8B40FEF17F0F7EF16F026503E
:102E2000300AD8B4EFEF16F0F7EF16F02C50D8B404
:102E30001CEF17F01EEF17F0FBEF16F024C008F0A0
:102E400025C009F0C4EC1DF008C0CEF009C0CFF0D9
:102E50000001CFBF30EF17F02EEF17F035EF17F06E
:102E6000D281CE6DCF1FD8B0CF2B2450D96EDA6A65
:102E7000DF502D6E2DC0F6FF0E0EF76E000EF86EB1
:102E80000800F550640AD8B448EF17F04AEF17F07D
:102E90005AEF17F02DC0F6FF0E0EF76E000EF86E0B
:102EA0000800F550690AD8A458EF17F05AEF17F048
:102EB00075EF17F02550D96EDA6A020EDF26DF5C57
:102EC000D96EDA6ADECF28F0DECF29F02450D96E31
:102ED000DA6A2D28DF6E23C018F028C019F029C047
:102EE0001AF08FEC17F08EEF17F02450D96EDA6AD3
:102EF000DF2A8EEF17F02450D96EDA6ADFCFF6FFA3
:102F00000E0EF76E000EF86E0800F550026E036AA2
:102F100023C004F070EC1EF075EF17F01200010EE4
:102F20001D6E1ABE96EF17F099EF17F0010E9AEF8B
:102F300017F0000E206ECEC01EF0CFC01FF0205044
:102F4000D8B4A5EF17F0A7EF17F0BEEF17F01E06E5
:102F5000D8A01F062050D8A4B0EF17F0B2EF17F09A
:102F6000B8EF17F0000E1C6E2B0E1B6EBCEF17F0A7
:102F7000000E1C6E2D0E1B6E1BC020F0000E226E6C
:102F80001F0E216E000E0101A16FF6EF17F0210652
:102F9000D8A02206820E2124D96E010E2220DA6EDC
:102FA00019C002F01AC003F0000E056E0A0E046E7E
:102FB0006CEC1DF002C008F003C009F09EEC22F09A
:102FC0000850300FDF6E000E1D6E1E06D8A01F06C3
:102FD00019C002F01AC003F0000E056E0A0E046E4E
:102FE0000AEC1DF002C019F003C01AF022BE01EF76
:102FF00018F0225008E12104D8A001EF18F003EFE7
:1030000018F029EF18F019501A10D8A40AEF18F088
:103010000CEF18F0C7EF17F01D50D8A412EF18F0FE
:1030200014EF18F0C7EF17F01FBE1FEF18F01F5076
:1030300008E11E04D8A01FEF18F021EF18F029EFC7
:1030400018F00001D2B327EF18F029EF18F0C7EFFE
:1030500017F02050D8B42FEF18F031EF18F03CEFF4
:1030600018F02106D8A02206820E2124D96E010E66
:103070002220DA6E20C0DFFF18C010F0820E21245B
:10308000116E010E2220126E1EC013F01FC014F02C
:10309000C5EC1EF012001F04D8A451EF18F053EF36
:1030A00018F06DEF18F01DC019F01EC01AF02DECCD
:1030B00024F0290E216E960E206E7F0EE82EFED78C
:1030C000202EFCD7212EFAD700001DC019F01EC0FB
:1030D0001AF015EC24F0F9EF18F0020E1F18D8A41E
:1030E00074EF18F076EF18F090EF18F01DC019F09B
:1030F0001EC01AF02DEC24F0290E216E960E206EC3
:103100007F0EE82EFED7202EFCD7212EFAD7000006
:103110001DC019F01EC01AF0FDEC23F0F9EF18F0F5
:10312000030E1F18D8A497EF18F099EF18F0B3EF1B
:1031300018F01DC019F01EC01AF02DEC24F0290E55
:10314000216E960E206E7F0EE82EFED7202EFCD725
:10315000212EFAD700001DC019F01EC01AF0CBECCA
:1031600023F0F9EF18F0040E1F18D8A4BAEF18F0E6
:10317000BCEF18F0D6EF18F01DC019F01EC01AF001
:103180002DEC24F0290E216E960E206E7F0EE82E77
:10319000FED7202EFCD7212EFAD700001DC019F033
:1031A0001EC01AF080EC23F0F9EF18F0050E1F187E
:1031B000D8A4DDEF18F0DFEF18F0F9EF18F01DC01C
:1031C00019F01EC01AF02DEC24F0290E216E960E77
:1031D000206E7F0EE82EFED7202EFCD7212EFAD7A8
:1031E00000001DC019F01EC01AF04EEC23F0F9EFDC
:1031F00018F012000F50D96EDA6A020ED926DF508D
:10320000D8B405EF19F007EF19F037EF19F00F50A8
:10321000D96EDA6ADF50106E1050026E036A0F50DA
:10322000D96EDA6A030ED926DECF04F0DDCF05F0C1
:1032300086EC24F002C008F003C009F0000E0B6E0B
:10324000640E0A6E58EC20F00F50D96EDA6A030E45
:10325000D926DF50116E0850115C126E0F50D96ED6
:10326000DA6A030ED926DF50136E58EF19F0000EFC
:10327000126E0F50D96EDA6ADF50106E1050026E67
:10328000036A0F50D96EDA6A030ED926DECF04F036
:10329000DDCF05F086EC24F002C008F003C009F091
:1032A000000E0B6E640E0A6E58EC20F00850136E80
:1032B0000F50D96EDA6A010ED926DF50D8B463EF09
:1032C00019F065EF19F085EF19F00F50D96EDA6A31
:1032D000050ED926DECF10F0DDCF11F010C0D9FFDA
:1032E00011C0DAFF12C0DFFF0F50D96EDA6A070E85
:1032F000D926DECF10F0DDCF11F010C0D9FF11C0FC
:10330000DAFF13C0DFFFA3EF19F00F50D96EDA6AAE
:10331000050ED926DECF10F0DDCF11F010C0D9FF99
:1033200011C0DAFF13C0DFFF0F50D96EDA6A070E43
:10333000D926DECF10F0DDCF11F010C0D9FF11C0BB
:10334000DAFF12C0DFFF12007F907D9E7996F40EA7
:103350001D6EEB0E1E6EB8EC22F00001625163117F
:10336000D8B4B5EF19F0B7EF19F02DEF1AF0FF0E42
:103370006225696FFF0E63216A6FD8906935D96E37
:103380006A35DA6E000ED926020EDA22DECF02F09E
:10339000DDCF03F0000E03BEFF0E046E056E000EBF
:1033A000066E800E076EFF0E086E7F0E096E92ECA1
:1033B00020F002C00EF003C00FF004C010F005C0F2
:1033C00011F0000E126E900E136ED00E146E030EDE
:1033D000156E2FEC1AF00EC064F00FC065F010C02F
:1033E00066F011C067F03C0E00016925D96E010E30
:1033F0006A21DA6EDF50686F6851D8A402EF1AF0C4
:1034000004EF1AF014EF1AF060C051F061C052F0EE
:1034100064C053F065C054F066C055F067C056F004
:10342000BAEC1BF01CEF1AF060C01DF061C01EF07A
:1034300068C01FF04BEC18F0000169516A11D8A464
:1034400024EF1AF026EF1AF028EF1AF02DEF1AF0F9
:103450006907D8A06A07BDEF19F003001200000E3B
:10346000176E15BE38EF1AF036EF1AF042EF1AF069
:10347000151E141E131E126C000E13221422152288
:10348000010E176E11BE49EF1AF047EF1AF053EF15
:103490001AF0111E101E0F1E0E6C000E0F221022AD
:1034A0001122010E171A000E186E000E196E000E72
:1034B0001A6E000E1B6E1250131014101510D8B493
:1034C00064EF1AF066EF1AF09CEF1AF0010E166E18
:1034D00070EF1AF0D8901236133614361536162AB5
:1034E00015AE75EF1AF077EF1AF06AEF1AF0D89070
:1034F000183619361A361B3612500E5C13500F58F8
:103500001450105815501158D8A089EF1AF08BEFAD
:103510001AF094EF1AF012500E5E13500F5A145016
:10352000105A1550115A1880D8901532143213328F
:103530001232162E77EF1AF01750D8B4A2EF1AF005
:10354000A4EF1AF0ACEF1AF01B1E1A1E191E186C0D
:10355000000E19221A221B2218C00EF019C00FF0FB
:103560001AC010F01BC011F01200443445344B6EE9
:103570004B50D8A4BEEF1AF0C0EF1AF0CAEF1AF001
:10358000000E426E000E436E000E446E000E456E3D
:1035900037EF1BF042C046F043C047F044C048F04C
:1035A00045C049F0200EDAEF1AF0D890493248327F
:1035B00047324632E82ED5EF1AF046504A6E448E16
:1035C000FF0E4216FF0E4316FF0E4416000E451660
:1035D000960E4B5E4BBEF1EF1AF0EFEF1AF007EFCD
:1035E0001BF04B50800A970FD8B0F9EF1AF0FBEFA1
:1035F0001AF0FDEF1AF0C0EF1AF0D89045324432BD
:10360000433242324B3EFDEF1AF01FEF1BF01F0E0C
:103610004B640DEF1BF00FEF1BF017EF1BF0C0EF2B
:103620001AF0D89042364336443645364B064B5056
:10363000D8A41DEF1BF01FEF1BF011EF1BF04A5039
:10364000D8B425EF1BF027EF1BF02FEF1BF0451E22
:10365000441E431E426C000E43224422452242C0B7
:1036600042F043C043F044C044F045C045F012006E
:10367000000E02140A6E000E03140B6E800E04146A
:103680000C6E7F0E05140D6E0A500B100C100D10F1
:10369000D8A44DEF1BF04FEF1BF057EF1BF0000EBF
:1036A000026E000E036E000E046E000E056E000E1C
:1036B00006140A6E000E07140B6E800E08140C6EB2
:1036C0007F0E09140D6E0A500B100C100D10D8A4AB
:1036D0006CEF1BF06EEF1BF076EF1BF0000E066E2A
:1036E000000E076E000E086E000E096E05AE7BEF31
:1036F0001BF07DEF1BF086EF1BF0026C031ED8B0B1
:10370000032A041ED8B0042A800E055609AE8BEF9A
:103710001BF08DEF1BF096EF1BF0066C071ED8B068
:10372000072A081ED8B0082A800E0956000E021A71
:10373000000E031A000E041A800E051A000E061A57
:10374000000E071A000E081A800E091A0650025CB5
:10375000075003580850045809500558D8B0B3EF23
:103760001BF0B5EF1BF0B8EF1BF0D890B9EF1BF0D2
:10377000D8801200030E5A6EE80E596E56BECDEF79
:103780001BF0565055100BE17D0E535C150E54582E
:10379000D8A0CDEF1BF0CFEF1BF0D5EF1BF00B0E39
:1037A0005A6EB80E596E12EF1CF056BEE4EF1BF0C5
:1037B000565055100BE1B90E535C0B0E5458D8A05F
:1037C000E4EF1BF0E6EF1BF0FDEF1BF056BEF5EF4C
:1037D0001BF0565055100BE1050E535C100E54585B
:1037E000D8A0F5EF1BF0F7EF1BF0FDEF1BF0070E75
:1037F0005A6ED00E596E12EF1CF056BE0EEF1CF032
:103800005650551009E1B80E535C0B0E5458D8B001
:103810000CEF1CF00EEF1CF012EF1CF0030E5A6EB2
:10382000E80E596EF40E4C6EEB0E4D6EA5EC1CF0CE
:1038300059C002F05AC003F04EEC22F0F40E146EA0
:10384000EB0E156E58EC1FF0190E586E5A0E576E8F
:10385000B20EE82EFED7572EFCD7582EFAD71200FC
:103860007F807D9E7996290E536E960E526E7F0E46
:10387000E82EFED7522EFCD7532EFAD70000C7EC05
:1038800020F05050D96EDA6A06C0DEFF07C0DDFFB7
:103890007F907D8E7996290E536E960E526E7F0E16
:1038A000E82EFED7522EFCD7532EFAD70000EFECAD
:1038B00020F05050D96EDA6A020ED92606C0DEFF1B
:1038C00007C0DDFF7F907D9E7986290E536E960E90
:1038D000526E7F0EE82EFED7522EFCD7532EFAD70B
:1038E00000003FEC21F05050D96EDA6A040ED92660
:1038F00006C0DEFF07C0DDFF7F807D8E7986290E42
:10390000536E960E526E7F0EE82EFED7522EFCD7C7
:10391000532EFAD7000017EC21F05050D96EDA6A16
:10392000060ED92606C0DEFF07C0DDFFE10E4C6E95
:10393000D70E4D6E63EC07F04CC054F04DC055F0FF
:1039400054C050F055C051F012004C50D96EDA6A94
:10395000010ED926010EDF6E4D50D96EDA6A010EC6
:10396000D926010EDF6E000E506E000E4F6E4C50C9
:10397000D96EDA6A4FC0DFFF4D50D96EDA6A660E33
:10398000146E660E156E860E166E3F0E176E4FC0C5
:1039900002F050C003F0000E03BEFF0E046E056E71
:1039A000010EF1EC15F002C010F003C011F004C0DC
:1039B00012F005C013F0C6EC0FF010C042F011C0B9
:1039C00043F012C044F013C045F0B5EC1AF0425079
:1039D000DF6E4CC00FF0FAEC18F04DC00FF0FAECAF
:1039E00018F00B0E4E6E620EE82EFED74E2EFCD750
:1039F00000D04F4A502A50BE07EF1DF0505009E149
:103A0000330E4F5CD8A007EF1DF009EF1DF0B7EFA4
:103A10001CF01200000E076E05BE13EF1DF011EF33
:103A20001DF019EF1DF0046C051ED8B0052A010E1B
:103A3000076E03BE20EF1DF01EEF1DF026EF1DF0F8
:103A4000026C031ED8B0032A010E071A000E096E7D
:103A5000000E086E04500510D8B431EF1DF033EF9E
:103A60001DF05BEF1DF0010E066E3BEF1DF0D890D0
:103A700004360536062A05AE40EF1DF042EF1DF074
:103A800037EF1DF0D890083609360450025C055017
:103A90000358D8A04EEF1DF050EF1DF055EF1DF06C
:103AA0000450025E0550035A0880D8900532043253
:103AB000062E42EF1DF00750D8B461EF1DF063EF02
:103AC0001DF067EF1DF0086C091ED8B0092A08C068
:103AD00002F009C003F01200000E076E03BE75EF7E
:103AE0001DF073EF1DF07BEF1DF0026C031ED8B0CC
:103AF000032A010E076E05BE82EF1DF080EF1DF058
:103B000086EF1DF0046C051ED8B0052A0450051080
:103B1000D8B48DEF1DF08FEF1DF0B3EF1DF0010E47
:103B2000066E97EF1DF0D89004360536062A05AECE
:103B30009CEF1DF09EEF1DF093EF1DF00450025C12
:103B400005500358D8A0A7EF1DF0A9EF1DF0ADEF69
:103B50001DF00450025E0550035AD890053204321D
:103B6000062E9EEF1DF00750D8B4B9EF1DF0BBEF45
:103B70001DF0BFEF1DF0026C031ED8B0032A02C077
:103B800002F003C003F01200000E0C6E000E0B6E6C
:103B90000850D96EDA6ADFCFF6FF0E0EF76E000E10
:103BA000F86E0800F5502A0AD8A4D9EF1DF0DBEF13
:103BB0001DF001EF1EF00850D96EDA6ADF2A0950B5
:103BC000D96EDA6A020EDF26DF5CD96EDA6ADECFE2
:103BD0000BF0DECF0CF016EF1EF00BC002F00CC0A5
:103BE00003F0000E056E0A0E046E86EC24F00A50F7
:103BF00002240B6E000E03200C6E0850D96EDA6A98
:103C0000DF2A0850D96EDA6ADFCFF6FF0E0EF76EA4
:103C1000000EF86E0800F550D00F0A6E090E0A6407
:103C200014EF1EF016EF1EF0EDEF1DF00BC008F0C4
:103C30000CC009F01200000E02140A6E000E0314EC
:103C40000B6E800E04140C6E7F0E05140D6E0A5060
:103C50000B100C100D10D8A430EF1EF032EF1EF038
:103C60003AEF1EF0000E026E000E036E000E046EA0
:103C7000000E056E000E06140A6E000E07140B6E81
:103C8000800E08140C6E7F0E09140D6E0A500B1076
:103C90000C100D10D8A44FEF1EF051EF1EF059EF8D
:103CA0001EF0000E066E000E076E000E086E000E6F
:103CB000096E065002180FE1075003180CE1085076
:103CC000041809E109500518D8B469EF1EF06BEF2C
:103CD0001EF06EEF1EF0D8906FEF1EF0D88012002D
:103CE0000450D8B476EF1EF078EF1EF080EF1EF08F
:103CF0000450D8A47EEF1EF080EF1EF085EF1EF07A
:103D00000250F5EC24F0C4EF1EF00450D96EDA6ACC
:103D10000A0ED926DE50DE10D8B491EF1EF093EFD4
:103D20001EF0ACEF1EF00450D96EDA6A0A0ED926E6
:103D30000450E16EE26A030EE126DE50E65CE650D6
:103D4000800A096EDE50800A0958D8B0AAEF1EF02A
:103D5000ACEF1EF0C4EF1EF00450D96EDA6A030E09
:103D6000D926DF50056E0450D96EDA6ADF5005247B
:103D7000D96EDA6A02C0DFFF0450D96EDA6A030E28
:103D8000D926DE2A000EDD2212000001D2A1CBEFDF
:103D90001EF0CDEF1EF0D5EF1EF011C00AF012C0DC
:103DA0000BF010C00CF00FEC22F014BEDCEF1EF094
:103DB000DAEF1EF0E0EF1EF0000E146E000E136E30
:103DC000000E176E000E166EF0EF1EF0000E036E62
:103DD000200E026E10C004F070EC1EF0164A172A76
:103DE0001350165C1750800A156E1450800A15582F
:103DF000D8A0FDEF1EF0FFEF1EF0E6EF1EF0000171
:103E0000D2B105EF1FF007EF1FF00FEF1FF011C049
:103E10000AF012C00BF010C00CF00FEC22F01200F0
:103E20008594839E8598879C7D947B9E7D987F9CBE
:103E3000050E0E01746F060E766F070E696F080E81
:103E4000886FBD508F0B4009BD6EE00EBE16BF508F
:103E5000F00B0109BF6E02C0BCFFBD8E000EAA6E42
:103E6000000EA66E000E0F01256F000E216FFC0ED6
:103E7000AD16F30EAD16CF0EAD163F0EAD16AB88D8
:103E8000AB50F00B0C09AB6EAB8EA788A750F00BB4
:103E90000C09A76EA78E26892651F00B0C09266FF8
:103EA000268F22892251F00B0C09226F228F1200DB
:103EB00088EF1FF01450D96EDA6ADF50D8B463EF80
:103EC0001FF065EF1FF069EF1FF01450D96EDA6A2A
:103ED000DF061550D96EDA6ADF50D8B472EF1FF0E2
:103EE00074EF1FF078EF1FF01550D96EDA6ADF0615
:103EF00014C00FF0FAEC18F015C00FF0FAEC18F03F
:103F00000B0E166E620EE82EFED7162EFCD700D0D2
:103F10001450D96EDA6ADF50D8A491EF1FF093EFF6
:103F20001FF05AEF1FF01550D96EDA6ADF50D8A48F
:103F30009CEF1FF09EEF1FF05AEF1FF0120014507D
:103F4000D96EDA6A010ED926010EDF6E1550D96ED0
:103F5000DA6A010ED926DF6A14C00FF0FAEC18F005
:103F600015C00FF0FAEC18F0000E186E000E176E68
:103F70001450D96EDA6ADF2A1550D96EDA6ADF2A50
:103F800014C00FF0FAEC18F015C00FF0FAEC18F0AE
:103F90000B0E166E620EE82EFED7162EFCD700D042
:103FA000174A182A185009E1320E175CD8A0DBEF27
:103FB0001FF0DDEF1FF0B8EF1FF012001450D96EA4
:103FC000DA6A010ED926DF6A1550D96EDA6A010E57
:103FD000D926010EDF6E14C00FF0FAEC18F015C0F0
:103FE0000FF0FAEC18F0000E186E000E176E145059
:103FF000D96EDA6ADF2A1550D96EDA6ADF2A14C060
:104000000FF0FAEC18F015C00FF0FAEC18F00B0EE8
:10401000166E620EE82EFED7162EFCD700D0174A79
:10402000182A185009E1320E175CD8A01AEF20F0B8
:104030001CEF20F0F7EF1FF012001450D96EDA6A6F
:10404000010ED926DF6A1550D96EDA6A010ED9261B
:10405000DF6A000E186E000E176E1450D96EDA6A01
:1040600017C0DFFF1550D96EDA6A17C0DFFF14C022
:104070000FF0FAEC18F015C00FF0FAEC18F00B0E78
:10408000166E620EE82EFED7162EFCD700D0174A09
:10409000182A18BE55EF20F0185009E1330E175CAE
:1040A000D8A055EF20F057EF20F02DEF20F01200B0
:1040B000000E0D6E000E0C6E0A500B10D8B463EF9C
:1040C00020F065EF20F08DEF20F0010E0E6E6DEF09
:1040D00020F0D8900A360B360E2A0BAE72EF20F085
:1040E00074EF20F069EF20F0D8900C360D360A50AE
:1040F000085C0B500958D8A080EF20F082EF20F028
:1041000087EF20F00A50085E0B50095A0C80D890B7
:104110000B320A320E2E74EF20F00CC008F00DC0E6
:1041200009F01200000E0A6E000E0B6E000E0C6EEF
:10413000000E0D6E02A09FEF20F0A1EF20F0A9EF7E
:1041400020F006500A2607500B2208500C22095076
:104150000D22D8900636073608360936D890053233
:104160000432033202320250031004100510D8A4A6
:10417000BCEF20F0BEEF20F09AEF20F00AC002F072
:104180000BC003F00CC004F00DC005F01200EBEC06
:1041900024F0520EE0EC24F0B60EE0EC24F0F0EC4B
:1041A00024F0530EE0EC24F0010EEEEC21F0086E4A
:1041B00008500B6E0C6A000EEEEC21F0086E0850F1
:1041C0000A6E096A0B5009100B6E0C500A100C6E27
:1041D000E6EC24F00BC006F00CC007F01200EBEC8C
:1041E00024F0520EE0EC24F0B80EE0EC24F0F0ECF9
:1041F00024F0530EE0EC24F0010EEEEC21F0086EFA
:1042000008500B6E0C6A000EEEEC21F0086E0850A0
:104210000A6E096A0B5009100B6E0C500A100C6ED6
:10422000E6EC24F00BC006F00CC007F01200EBEC3B
:1042300024F0520EE0EC24F0B40EE0EC24F0F0ECAC
:1042400024F0530EE0EC24F0010EEEEC21F0086EA9
:1042500008500B6E0C6A000EEEEC21F0086E085050
:104260000A6E096A0B5009100B6E0C500A100C6E86
:10427000E6EC24F00BC006F00CC007F01200EBECEB
:1042800024F0520EE0EC24F0BA0EE0EC24F0F0EC56
:1042900024F0530EE0EC24F0010EEEEC21F0086E59
:1042A00008500B6E0C6A000EEEEC21F0086E085000
:1042B0000A6E096A0B5009100B6E0C500A100C6E36
:1042C000E6EC24F00BC006F00CC007F01200000E64
:1042D000161A000E171A000E181A800E191A12C09C
:1042E00002F013C003F014C004F015C005F016C0AE
:1042F00006F017C007F018C008F019C009F02CEC40
:104300000BF002C012F003C013F004C014F005C09B
:1043100015F01200066E055007E1320E045CD8B0AD
:1043200094EF21F096EF21F0ABEF21F03C0E042446
:10433000D96E010E0520DA6E06C0DFFFD890043476
:10434000D96E0534DA6E000ED926020EDA2202C0CA
:10435000DEFF03C0DDFF1200EC0EF66E490EF76EB5
:10436000000EF86E0900F5CFFDF002EE00F0640ECD
:10437000EE6AE806FDE101EE00F0A20EEE6AE80644
:10438000FDE100EEBAF0430EEE6AE806FDE15D6A7B
:104390005E905E9200018CEF0DF02FC031F0D9EFEE
:1043A00021F02EC023F0310E246E30C025F0CBEC6E
:1043B00016F031C0F6FF0E0EF76E000EF86E080014
:1043C000F5500009D8A4E7EF21F0E9EF21F0D1EF93
:1043D00021F0000E2F6E000E2E6E1200046E72EC95
:1043E00024F00E01DA8772EC24F0D5CE05F072ECE1
:1043F00024F00450D8B4FFEF21F003EF22F0036A59
:10440000032A04EF22F0036A033A03460E01DA514D
:104410000318DF0B0318DA6FDA8905501200000E5B
:104420000F6E000E0E6E1EEF22F00DC002F0036A3A
:104430000CC004F070EC1EF00E4A0F2A0E500A2435
:10444000D96E0F500B20DA6EDF500D6E0D50D8A4D0
:104450002CEF22F02EEF22F015EF22F01200D450B4
:104460000A6E096AD3500B6E0C6A09500B100D6E60
:104470000A500C100E6ED59E0DC002F00EC003F057
:1044800007C004F008C005F0300E8AEC21F0074A9E
:10449000082A07C007F008C008F01200000E066ED8
:1044A000000E056E5EEF22F0150E046EC60EE82EAD
:1044B000FED7042EFCD700D0054A062A0250055C20
:1044C00003500658D8A067EF22F069EF22F054EFAE
:1044D00022F012005DEC24F0010E046E000E99EC47
:1044E00024F03F0E066E550EE82EFED7062EFCD7A2
:1044F0000000030E046E000E99EC24F0D50E046E3D
:10450000010E99EC24F01200340E386E32C039F0EE
:10451000000E3D6E000E3C6E000E446E000E436EAB
:10452000390E2E6E33C02FF0380E306ECDEC21F0E8
:1045300032503C24D96EDA6ADF6A120009BEA3EF5A
:1045400022F0A5EF22F0ABEF22F008C008F009C07E
:1045500009F0B7EF22F008C00AF009C00BF00A1EFC
:104560000B1E0A4A0B2A0AC008F00BC009F0120001
:104570001DC019F01EC01AF02DEC24F0290E206E7B
:10458000960E1F6E7F0EE82EFED71F2EFCD7202E14
:10459000FAD700001DC019F01EC01AF0CBEC23F0B2
:1045A00012001DC019F01EC01AF01CEC23F0290ED9
:1045B000206E960E1F6E7F0EE82EFED71F2EFCD7A4
:1045C000202EFAD700001DC019F01EC01AF0FDEC15
:1045D00023F012001DC019F01EC01AF02DEC24F0BB
:1045E000290E206E960E1F6E7F0EE82EFED71F2E10
:1045F000FCD7202EFAD700001DC019F01EC01AF0FB
:10460000FDEC23F012001DC019F01EC01AF01CECC6
:1046100023F0290E206E960E1F6E7F0EE82EFED719
:104620001F2EFCD7202EFAD700001DC019F01EC087
:104630001AF015EC24F0120019C014F01AC015F08D
:104640001DEC20F06A0E1C6E850E1B6EB40EE82E5B
:10465000FED71B2EFCD71C2EFAD700D019C014F0A1
:104660001AC015F058EC1FF012001DC019F01EC042
:104670001AF02DEC24F0290E206E960E1F6E7F0E80
:10468000E82EFED71F2EFCD7202EFAD700001DC023
:1046900019F01EC01AF04EEC23F0120019C014F0ED
:1046A0001AC015F09FEC1FF0210E1C6E780E1B6EC9
:1046B000980EE82EFED71B2EFCD71C2EFAD700D062
:1046C00019C014F01AC015F058EC1FF012001DC0EC
:1046D00019F01EC01AF02DEC24F0290E206E960E53
:1046E0001F6E7F0EE82EFED71F2EFCD7202EFAD786
:1046F00000001DC019F01EC01AF080EC23F012005B
:1047000019C014F01AC015F0DEEC1FF0210E1C6E5B
:10471000780E1B6E980EE82EFED71B2EFCD71C2E93
:10472000FAD700D019C014F01AC015F058EC1FF0D9
:1047300012001DC019F01EC01AF02DEC24F0290E35
:10474000206E960E1F6E7F0EE82EFED71F2EFCD712
:10475000202EFAD700001DC019F01EC01AF015EC6B
:1047600024F012001DC019F01EC01AF02DEC24F028
:10477000290E206E960E1F6E7F0EE82EFED71F2E7E
:10478000FCD7202EFAD700001DC019F01EC01AF069
:10479000CBEC23F0120019C014F01AC015F0DEECB7
:1047A0001FF0300E1C6E140E1B6ED10EE82EFED7BD
:1047B0001B2EFCD71C2EFAD7000019C014F01AC00B
:1047C00015F058EC1FF01200F1EF23F00350D96EF2
:1047D000DA6ADF50D4EC24F0032A6A0EE82EFED702
:1047E00000D00350D96EDA6ADF50D8A4FAEF23F074
:1047F000FCEF23F0E6EF23F0120019C014F01AC00A
:1048000015F09FEC1FF0180E1C6E8A0E1B6EE80E42
:10481000E82EFED71B2EFCD71C2EFAD719C014F099
:104820001AC015F058EC1FF0120019C014F01AC08D
:1048300015F0DEEC1FF0180E1C6E8A0E1B6EE80ED3
:10484000E82EFED71B2EFCD71C2EFAD719C014F069
:104850001AC015F058EC1FF0120019C014F01AC05D
:1048600015F01DEC20F0190E1C6E5A0E1B6EB20EC8
:10487000E82EFED71B2EFCD71C2EFAD719C014F039
:104880001AC015F058EC1FF01200D6501F0B40094B
:10489000D66ED688D650F00B0D09D66ED5880E018F
:1048A000298B339B1F9BF28AF28CF28E87827F9238
:1048B000000ED36E000ED46E12000E01D951F00B13
:1048C0000809D96FD98B9F0ED66F848A848CA79BD9
:1048D000A79D1D0E1D6F1E0E1C6F1C0E6F6F1B0EF5
:1048E000706F12000E01D8B578EF24F07AEF24F043
:1048F00072EF24F0DACE02F01F0E0216D8A483EF76
:1049000024F085EF24F072EF24F01200025004022C
:10491000F3CF06F0F4CF07F002500502F35007265C
:1049200003500402F350072606C002F007C003F04C
:104930001200056EEBEC24F0520EE0EC24F0055072
:104940008009E0EC24F00450E0EC24F0E6EC24F0E4
:104950001200120E0E01626F110E156FE997E895A5
:10496000330EE56F000EE66FE789E88BE78F1200E4
:10497000600E326EB70E336E45C034F046C035F06F
:1049800084EC22F0600E036EE4EC23F01200868CBF
:104990000E01B48D0F015899FC0E58172E0E5F6F43
:1049A00060946088608E1200026E0E0137A5DBEF06
:1049B00024F0DDEF24F0D5EF24F002C0E4FE120075
:1049C000036E72EC24F003C0D5FE120072EC24F0EA
:1049D0000E01DA85120072EC24F00E01DA81120069
:0D49E00072EC24F00E01DA831200120001C7
:020000040030CA
:02000000AAFF55
:020004009FFF5C
:00000001FF
