:04000000A7EF07F06F
:100E000000008AEC07F01FEC07F07C9E849E39EC12
:100E100007F001C006F002C007F010EF07F07C8E6B
:100E2000075009E18C0E065CD8A019EF07F01BEF04
:100E300007F00FEF07F01BEF07F000EF00F051ECA9
:100E400007F0010E036E000E7AEC07F03F0E056E00
:100E5000550EE82EFED7052EFCD70000030E036EBC
:100E6000000E7AEC07F0D50E036E010E7AEC07F057
:100E70001200608060B03FEF07F041EF07F03AEFFB
:100E800007F064CF03F0046A0350FF08036E0450B8
:100E9000D8A0E82A0008046E03C001F004C002F0E4
:100EA00012000E01D951F00B0809D96FD98B9F0E92
:100EB000D66F848A848CA79BA79D1D0E1D6F1E0E66
:100EC0001C6F1C0E6F6F1B0E706F12000E01D8B5D9
:100ED0006CEF07F06EEF07F066EF07F0DACE01F087
:100EE0001F0E0116D8A477EF07F079EF07F066EF31
:100EF00007F01200046EA2EC07F0520E97EC07F018
:100F00000450800997EC07F0035097EC07F09DEC34
:100F100007F01200868C0E01B48D0F015899FC0E5B
:100F200058172E0E5F6F60946088608E1200026EFC
:100F300066EC07F002C0D5FE120066EC07F00E0169
:100F4000DA85120066EC07F00E01DA81120000016A
:040F500001EF07F0B6
:020000040030CA
:02000000AAFF55
:020004009FFF5C
:00000001FF
