:040000001DEF00F000
:100018005280E0CF01F00E0133AB15EF00F017EF7F
:1000280000F019EF00F07F82339B01C0E0FF52908F
:060038001000A4EF1FF010
:100E00000043616C6962726174696F6E2073746112
:100E10007465203D20677265656E200A0D00436190
:100E20006C6962726174696F6E2073746174653D80
:100E300020626C7565200A0D0043616C6962726105
:100E400074696F6E207374617465203D202077682B
:100E50006974650043414C4942524154494F4E2008
:100E6000434F4D504C45544544200A0D0043616C9E
:100E70006962726174696F6E207374617465203D7C
:100E80002072656400566F6C74616765203D202593
:100E9000642E253032642C2020006875653D253095
:090EA00033642C2020002E000018
:100EAA00000E00019C6F000E9D6F000E9E6F000EDB
:100EBA009F6F3F50D96EDA6ADECF40F0DDCF41F046
:100ECA0040C002F041C003F0046A056A000EBDEC9E
:100EDA0014F002C060F003C061F004C062F005C003
:100EEA0063F03E50D96EDA6ADECF40F0DDCF41F0D2
:100EFA0040C002F041C003F0046A056A000EBDEC6E
:100F0A0014F002C064F003C065F004C066F005C0C6
:100F1A0067F03F50D96EDA6A020ED926DECF40F06A
:100F2A00DDCF41F040C002F041C003F0046A056A17
:100F3A00000EBDEC14F002C068F003C069F004C0F2
:100F4A006AF005C06BF03E50D96EDA6A020ED926F5
:100F5A00DECF40F0DDCF41F040C002F041C003F0E7
:100F6A00046A056A000EBDEC14F002C06CF003C0FE
:100F7A006DF004C06EF005C06FF03F50D96EDA6AAA
:100F8A00040ED926DECF40F0DDCF41F040C002F09A
:100F9A0041C003F0046A056A000EBDEC14F002C0F9
:100FAA0070F003C071F004C072F005C073F03E50D7
:100FBA00D96EDA6A040ED926DECF40F0DDCF41F0D1
:100FCA0040C002F041C003F0046A056A000EBDEC9D
:100FDA0014F002C074F003C075F004C076F005C0C6
:100FEA0077F03F50D96EDA6A060ED926DECF40F086
:100FFA00DDCF41F040C002F041C003F0046A056A47
:10100A00000EBDEC14F002C078F003C079F004C001
:10101A007AF005C07BF03E50D96EDA6A060ED92600
:10102A00DECF40F0DDCF41F040C002F041C003F016
:10103A00046A056A000EBDEC14F002C07CF003C01D
:10104A007DF004C07EF005C07FF078C01BF079C047
:10105A001CF07AC01DF07BC01EF07CC01FF07DC062
:10106A0020F07EC021F07FC022F093EC0FF060C028
:10107A001BF061C01CF062C01DF063C01EF064C0AA
:10108A001FF065C020F066C021F067C022F093EC23
:10109A000FF01BC0A0F01CC0A1F01DC0A2F01EC022
:1010AA00A3F068C01BF069C01CF06AC01DF06BC0D9
:1010BA001EF06CC01FF06DC020F06EC021F06FC032
:1010CA0022F093EC0FF01BC0A4F01CC0A5F01DC0C9
:1010DA00A6F01EC0A7F070C01BF071C01CF072C051
:1010EA001DF073C01EF074C01FF075C020F076C0EA
:1010FA0021F077C022F093EC0FF01BC0A8F01CC0BF
:10110A00A9F01DC0AAF01EC0ABF0A0C002F0A1C099
:10111A0003F0A2C004F0A3C005F0A4C006F0A5C065
:10112A0007F0A6C008F0A7C009F044EC18F0D8A050
:10113A00A1EF08F0A3EF08F0D8EF08F0A4C002F07E
:10114A00A5C003F0A6C004F0A7C005F0A8C006F029
:10115A00A9C007F0AAC008F0ABC009F044EC18F027
:10116A00D8A0BAEF08F0BCEF08F0C6EF08F0A8C0A4
:10117A0080F0A9C081F0AAC082F0ABC083F0CEEFA4
:10118A0008F0A4C080F0A5C081F0A6C082F0A7C074
:10119A0083F080C090F081C091F082C092F083C049
:1011AA0093F00BEF09F0A0C002F0A1C003F0A2C0B7
:1011BA0004F0A3C005F0A8C006F0A9C007F0AAC0B1
:1011CA0008F0ABC009F044EC18F0D8A0EFEF08F033
:1011DA00F1EF08F0FBEF08F0A8C084F0A9C085F091
:1011EA00AAC086F0ABC087F003EF09F0A0C084F074
:1011FA00A1C085F0A2C086F0A3C087F084C090F099
:10120A0085C091F086C092F087C093F0A4C002F026
:10121A00A5C003F0A6C004F0A7C005F0A0C006F060
:10122A00A1C007F0A2C008F0A3C009F044EC18F06E
:10123A00D8A022EF09F024EF09F059EF09F0A8C06D
:10124A0002F0A9C003F0AAC004F0ABC005F0A4C024
:10125A0006F0A5C007F0A6C008F0A7C009F044EC44
:10126A0018F0D8A03BEF09F03DEF09F047EF09F07D
:10127A00A8C088F0A9C089F0AAC08AF0ABC08BF0D8
:10128A004FEF09F0A4C088F0A5C089F0A6C08AF083
:10129A00A7C08BF088C098F089C099F08AC09AF0EC
:1012AA008BC09BF08CEF09F0A8C002F0A9C003F034
:1012BA00AAC004F0ABC005F0A0C006F0A1C007F0B8
:1012CA00A2C008F0A3C009F044EC18F0D8A070EF4F
:1012DA0009F072EF09F07CEF09F0A8C08CF0A9C000
:1012EA008DF0AAC08EF0ABC08FF084EF09F0A0C0D9
:1012FA008CF0A1C08DF0A2C08EF0A3C08FF08CC07C
:10130A0098F08DC099F08EC09AF08FC09BF098C06B
:10131A0012F099C013F09AC014F09BC015F090C057
:10132A0016F091C017F092C018F093C019F0EAECC9
:10133A001FF012C094F013C095F014C096F015C0B7
:10134A0097F098C002F099C003F09AC004F09BC0CD
:10135A0005F090C006F091C007F092C008F093C063
:10136A0009F01FEC1BF0D8A0BDEF09F0BFEF09F0A0
:10137A00CAEF09F0000E00019C6F000E9D6F000E6F
:10138A009E6F000E9F6FD3EF0AF098C002F099C0CB
:10139A0003F09AC004F09BC005F0A0C006F0A1C0FB
:1013AA0007F0A2C008F0A3C009F01FEC1BF0D8A0F8
:1013BA00E1EF09F0E3EF09F011EF0AF0A4C016F02B
:1013CA00A5C017F0A6C018F0A7C019F0A8C012F05F
:1013DA00A9C013F0AAC014F0ABC015F0EAEC1FF0D4
:1013EA0012C01BF013C01CF014C01DF015C01EF073
:1013FA0094C01FF095C020F096C021F097C022F04B
:10140A0093EC0FF01BC09CF01CC09DF01DC09EF019
:10141A001EC09FF0D3EF0AF098C002F099C003F003
:10142A009AC004F09BC005F0A4C006F0A5C007F05E
:10143A00A6C008F0A7C009F01FEC1BF0D8A028EF3F
:10144A000AF02AEF0AF072EF0AF0A0C016F0A1C063
:10145A0017F0A2C018F0A3C019F0A8C012F0A9C0D2
:10146A0013F0AAC014F0ABC015F0EAEC1FF012C0DA
:10147A001BF013C01CF014C01DF015C01EF094C060
:10148A001FF095C020F096C021F097C022F093EC8F
:10149A000FF01BC09CF01CC09DF01DC09EF01EC02A
:1014AA009FF09CC002F09DC003F09EC004F09FC054
:1014BA0005F0000E066E000E076E000E086E400E56
:1014CA00096E1EEC0BF002C09CF003C09DF004C034
:1014DA009EF005C09FF0D3EF0AF098C002F099C0C1
:1014EA0003F09AC004F09BC005F0A8C006F0A9C09A
:1014FA0007F0AAC008F0ABC009F01FEC1BF0D8A097
:10150A0089EF0AF08BEF0AF0D3EF0AF0A4C016F0C5
:10151A00A5C017F0A6C018F0A7C019F0A0C012F015
:10152A00A1C013F0A2C014F0A3C015F0EAEC1FF09A
:10153A0012C01BF013C01CF014C01DF015C01EF021
:10154A0094C01FF095C020F096C021F097C022F0F9
:10155A0093EC0FF01BC09CF01CC09DF01DC09EF0C8
:10156A001EC09FF09CC002F09DC003F09EC004F014
:10157A009FC005F0000E066E000E076E800E086E04
:10158A00400E096E1EEC0BF002C09CF003C09DF0E9
:10159A0004C09EF005C09FF0D3EF0AF09CC002F091
:1015AA009DC003F09EC004F09FC005F0000E066EB9
:1015BA00000E076E700E086E420E096E7EEC0DF07C
:1015CA0002C09CF003C09DF004C09EF005C09FF0CD
:1015DA0000019FBFF5EF0AF0F3EF0AF00FEF0BF0EF
:1015EA009CC002F09DC003F09EC004F09FC005F0AD
:1015FA00000E066E000E076EB40E086E430E096EDC
:10160A001EEC0BF002C09CF003C09DF004C09EF0DB
:10161A0005C09FF09CC034F09DC035F09EC036F0E6
:10162A009FC037F0C1EC17F034C03EF035C03FF030
:10163A0012000550800B0E6E05500524106E04AE84
:10164A0029EF0BF02BEF0BF02CEF0BF01080105062
:10165A00D8B432EF0BF034EF0BF049EF0BF010284F
:10166A00D8A43AEF0BF03CEF0BF044EF0BF0000E6E
:10167A00026E000E036E000E046E000E056E048EDE
:10168A00000E056E51EF0BF0000E026E000E036E97
:10169A00000E046E000E056E0950800B0F6E0E5080
:1016AA000F18D8B45BEF0BF05DEF0BF05EEF0BF0A9
:1016BA000E8C095009240F6E08AE66EF0BF068EF26
:1016CA000BF069EF0BF00F800F50D8B46FEF0BF0EF
:1016DA0071EF0BF086EF0BF00F28D8A477EF0BF021
:1016EA0079EF0BF081EF0BF0000E066E000E076E1D
:1016FA00000E086E000E096E088E000E096E8EEF3F
:10170A000BF0000E066E000E076E000E086E000E3D
:10171A00096E10500F5CD8B095EF0BF097EF0BF0F5
:10172A00BEEF0BF00EAC9CEF0BF09EEF0BF0A0EFB0
:10173A000BF0800E0E1A10C011F00FC010F011C07D
:10174A000FF002C011F006C002F011C006F003C08B
:10175A0011F007C003F011C007F004C011F008C06F
:10176A0004F011C008F005C011F009C005F011C05D
:10177A0009F0000E116E10500FC00AF00B6A0A5ED3
:10178A00000E0B5A0BBED3EF0BF00B5009E11A0EE9
:10179A000A5CD8A0D3EF0BF0D5EF0BF00CEF0CF0EE
:1017AA000250031004100510D8A4DEEF0BF0E1EF8D
:1017BA000BF0010EE2EF0BF0000E116E000E026E3E
:1017CA00000E036E000E046E000E056E0FC010F0C0
:1017DA0015EF0CF011A0F4EF0BF0F6EF0BF0FCEFA5
:1017EA000BF0D89011300109116EFEEF0BF0D89072
:1017FA00113202A003EF0CF005EF0CF006EF0CF02B
:10180A00118E05340532043203320232102A0F5087
:10181A00105CD8A013EF0CF015EF0CF0EFEF0BF003
:10182A000EBC1AEF0CF01CEF0CF05CEF0CF0105031
:10183A00D8A422EF0CF024EF0CF02EEF0CF0000EDF
:10184A00026E000E036E000E046E000E056E7DEF32
:10185A000DF00650022607500322085004220950B0
:10186A00052205A03BEF0CF03DEF0CF0E9EF0CF080
:10187A0011A042EF0CF044EF0CF04AEF0CF0D890B4
:10188A0011300109116E4CEF0CF0D890113202A000
:10189A0051EF0CF053EF0CF054EF0CF0118E0534AD
:1018AA000532043203320232102AE9EF0CF00650F4
:1018BA00025C07500358085004580550800A0A6E03
:1018CA000950800A0A58D8B06DEF0CF06FEF0CF08F
:1018DA009AEF0CF00250065C0A6E035007580B6E22
:1018EA00045008580C6E055009580D6EFF0E0A2454
:1018FA00026EFF0E0B20036EFF0E0C20046EFF0E0D
:10190A000D20056E800E0E1A116C1150D8A490EF9E
:10191A000CF092EF0CF0A2EF0CF0010E0226000E72
:10192A00032204220522A2EF0CF00650025E0750A1
:10193A00035A0850045A0950055A02500310041059
:10194A000510D8A4ABEF0CF0ADEF0CF0E2EF0CF001
:10195A001150D8A4B3EF0CF0B5EF0CF0E2EF0CF095
:10196A00000E026E000E036E000E046E000E056E6F
:10197A007DEF0DF0D890023603360436053611AEE7
:10198A00C9EF0CF0CBEF0CF0CCEF0CF0028011A0F9
:10199A00D1EF0CF0D3EF0CF0D7EF0CF0D880113662
:1019AA00D9EF0CF0D89011361050D8B4DFEF0CF004
:1019BA00E1EF0CF0E2EF0CF0100604AEE7EF0CF0EA
:1019CA00E9EF0CF0BFEF0CF0000E0F6E11AEF0EF66
:1019DA000CF0F2EF0CF00AEF0DF011C00AF07F0ED6
:1019EA000A16D8B4FBEF0CF0FDEF0CF001EF0DF086
:1019FA00010E0F6E0AEF0DF002A006EF0DF008EFD0
:101A0A000DF00AEF0DF0FDEF0CF00F50D8B410EF07
:101A1A000DF012EF0DF03DEF0DF0010E0226000E53
:101A2A0003220422052205A01DEF0DF01FEF0DF081
:101A3A003DEF0DF002C00AF003C00BF004C00CF039
:101A4A0005C00DF00D340D320C320B320A320AC0C9
:101A5A0002F00BC003F00CC004F00DC005F0102812
:101A6A00D8B43AEF0DF03CEF0DF03DEF0DF0102A2F
:101A7A001028D8B443EF0DF045EF0DF04DEF0DF0FF
:101A8A001050D8A44BEF0DF04DEF0DF05FEF0DF0B5
:101A9A00000E026E000E036E000E046E000E056E3E
:101AAA001050D8A45BEF0DF05DEF0DF05FEF0DF075
:101ABA00000E0E6E10A064EF0DF066EF0DF069EFE8
:101ACA000DF0048E6AEF0DF0049ED8901030056E6A
:101ADA000EAE72EF0DF074EF0DF075EF0DF0058E8E
:101AEA0002C002F003C003F004C004F005C005F010
:101AFA0012000550800B0E6E05500524146E04AEBC
:101B0A0089EF0DF08BEF0DF08CEF0DF0148014506F
:101B1A00D8B492EF0DF094EF0DF0A7EF0DF0142862
:101B2A00D8A49AEF0DF09CEF0DF0A4EF0DF0000E83
:101B3A00026E000E036E000E046E000E056E048E19
:101B4A00AFEF0DF0000E026E000E036E000E046E73
:101B5A00000E056E0950800B0E1A09500924136EE7
:101B6A0008AEBAEF0DF0BCEF0DF0BDEF0DF013802B
:101B7A001350D8B4C3EF0DF0C5EF0DF0D8EF0DF048
:101B8A001328D8A4CBEF0DF0CDEF0DF0D5EF0DF063
:101B9A00000E066E000E076E000E086E000E096E2D
:101BAA00088EE0EF0DF0000E066E000E076E000EB6
:101BBA00086E000E096E1350D8B4E6EF0DF0E8EF88
:101BCA000DF0F0EF0DF01450D8A4EEEF0DF0F0EF99
:101BDA000DF0FAEF0DF0000E026E000E036E000E0D
:101BEA00046E000E056E92EF0FF008500202F3CF5A
:101BFA0019F0F4CF1AF019500F6E106A116A126AAE
:101C0A001A50156E166A176A186A07500302F3CF3C
:101C1A0019F0F4CF1AF019500F26000E10221122D3
:101C2A0012221A501526000E1622172218220650C2
:101C3A000402F3CF19F0F4CF1AF019500F26000E50
:101C4A001022112212221A501526000E16221722CD
:101C5A00182211C012F010C011F00FC010F00F6A54
:101C6A0006500302F3CF19F0F4CF1AF019500F26D9
:101C7A001A501022000E1122000E122207500202E0
:101C8A00F3CF19F0F4CF1AF019500F261A50102278
:101C9A00000E1122000E122211C012F010C011F013
:101CAA000FC010F00F6A06500202F3CF19F0F4CFFA
:101CBA001AF019500F261A501022000E1122000E87
:101CCA00122208500302F3CF19F0F4CF1AF0195078
:101CDA0015261A501622000E1722000E1822075037
:101CEA000402F3CF19F0F4CF1AF0195015261A503E
:101CFA001622000E1722000E182208500402F3CFF3
:101D0A0019F0F4CF1AF019500A6E1A500B6E0C6AB9
:101D1A000D6A0CC00DF00BC00CF00AC00BF00A6A79
:101D2A000A5015260B5016220C5017220D50182255
:101D3A000FC00AF010C00BF011C00CF012C00DF069
:101D4A00190EADEF0EF0D8900D320C320B320A326A
:101D5A00E82EA8EF0EF00A5015260B5016220C504A
:101D6A0017220D50182211C012F010C011F00FC026
:101D7A0010F00F6A135014C00AF00B6A0A26000EFC
:101D8A000B22820E0A24196EFF0E0B201A6EE3EF45
:101D9A000EF0D890153616361736183612AED8EF1A
:101DAA000EF0DAEF0EF0DBEF0EF01580D8900F365A
:101DBA001036113612361906D8A01A0617AEE8EFF1
:101DCA000EF0EAEF0EF0CEEF0EF0000E136E12AE2A
:101DDA00F1EF0EF0F3EF0EF017EF0FF0FF0E0F1406
:101DEA000A6EFF0E10140B6EFF0E11140C6E7F0E8E
:101DFA0012140D6E0A500B100C100D10D8B408EF07
:101E0A000FF00AEF0FF00EEF0FF0010E136E17EF3F
:101E1A000FF015A013EF0FF015EF0FF017EF0FF0FB
:101E2A000AEF0FF01350D8B41DEF0FF01FEF0FF0A9
:101E3A0043EF0FF0010E1526000E16221722182264
:101E4A0018A02AEF0FF02CEF0FF043EF0FF015C098
:101E5A000AF016C00BF017C00CF018C00DF00D34C4
:101E6A000D320C320B320A320AC015F00BC016F0D2
:101E7A000CC017F00DC018F0194A1A2A1ABE4EEFF4
:101E8A000FF01A5008E11928D8A04EEF0FF050EFC2
:101E9A000FF05AEF0FF0000E156E000E166E800E40
:101EAA00176E7F0E186E88EF0FF01ABE67EF0FF0ED
:101EBA001A5006E11904D8B065EF0FF067EF0FF07A
:101ECA0073EF0FF0000E156E000E166E000E176EF1
:101EDA00000E186E000E0E6E88EF0FF019C014F087
:101EEA00FF0E1516FF0E16167F0E1716000E181681
:101EFA0014A082EF0FF084EF0FF085EF0FF0178E2A
:101F0A00D8901430186E0E50181215C002F016C070
:101F1A0003F017C004F018C005F012001E50800B21
:101F2A002B6E1E501E24326E1DAE9EEF0FF0A0EFD8
:101F3A000FF0A1EF0FF032803250D8B4A7EF0FF0B4
:101F4A00A9EF0FF0BEEF0FF03228D8A4AFEF0FF0D1
:101F5A00B1EF0FF0B9EF0FF0000E1B6E000E1C6E02
:101F6A00000E1D6E000E1E6E1D8E000E1E6EC6EF3A
:101F7A000FF0000E1B6E000E1C6E000E1D6E000E82
:101F8A001E6E2250800B2B1A22502224336E21AE51
:101F9A00D1EF0FF0D3EF0FF0D4EF0FF033803350BF
:101FAA00D8B4DAEF0FF0DCEF0FF0F1EF0FF03328CF
:101FBA00D8A4E2EF0FF0E4EF0FF0ECEF0FF0000E11
:101FCA001F6E000E206E000E216E000E226E218EF4
:101FDA00000E226EF9EF0FF0000E1F6E000E206E3B
:101FEA00000E216E000E226E1F50201021102210AA
:101FFA00D8A402EF10F004EF10F01CEF10F0000E5E
:10200A001B6E000E1C6E000E1D6E000E1E6E800EE4
:10201A001D127F0E1E122B501E121BC01BF01CC05D
:10202A001CF01DC01DF01EC01EF05FEF11F03250F3
:10203A00D8A422EF10F024EF10F02EEF10F0000ECB
:10204A001B6E000E1C6E000E1D6E000E1E6E5FEFE4
:10205A0011F0335032C023F0246A235E000E245A52
:10206A007F0E23242C6E000E24202D6E1BC027F019
:10207A001CC028F01DC029F01EC02AF0000E1B6EDD
:10208A00000E1C6E000E1D6E000E1E6E000E2E6ED1
:10209A00000E2F6E000E306E000E316E000E336E83
:1020AA008FEF10F03350D8B45DEF10F05FEF10F0FF
:1020BA0076EF10F0D8902736283629362A36D89067
:1020CA001B361C361D361E3631AE6EEF10F070EF21
:1020DA0010F071EF10F01B80D8902E362F36303664
:1020EA0031361F50275C2050285821502958225039
:1020FA002A58D8A083EF10F085EF10F08EEF10F079
:10210A00318C1F50275E2050285A2150295A2250BC
:10211A002A5A332A190E336495EF10F097EF10F00C
:10212A0057EF10F02750281029102A10D8B4A0EF22
:10213A0010F0A2EF10F0BAEF10F02E80BAEF10F004
:10214A00D8901B361C361D361E3631AEAFEF10F056
:10215A00B1EF10F0B2EF10F01B80D8902E362F3668
:10216A00303631362C06D8A02D061DAEBFEF10F042
:10217A00C1EF10F0A5EF10F0000E336E31AEC8EFCC
:10218A0010F0CAEF10F0EEEF10F0FF0E2E14236ECF
:10219A00FF0E2F14246EFF0E3014256E7F0E31149D
:1021AA00266E2350241025102610D8B4DFEF10F025
:1021BA00E1EF10F0E5EF10F0010E336EEEEF10F0E4
:1021CA001BA0EAEF10F0ECEF10F0EEEF10F0E1EFE9
:1021DA0010F03350D8B4F4EF10F0F6EF10F01AEF15
:1021EA0011F0010E1B26000E1C221D221E221EA00B
:1021FA0001EF11F003EF11F01AEF11F01BC023F0F9
:10220A001CC024F01DC025F01EC026F0263426323C
:10221A0025322432233223C01BF024C01CF025C0EF
:10222A001DF026C01EF02C4A2D2A2DBE25EF11F0D6
:10223A002D5008E12C28D8A025EF11F027EF11F036
:10224A0032EF11F0000E2D6E2C68000E1B6E000E80
:10225A001C6E000E1D6E000E1E6E2DBE3FEF11F09D
:10226A002D5006E12C04D8B03DEF11F03FEF11F0EC
:10227A004DEF11F0000E2D6E000E2C6E000E1B6E2F
:10228A00000E1C6E000E1D6E000E1E6E000E2B6ED2
:10229A002CC032F032A054EF11F056EF11F059EF82
:1022AA0011F01D8E5AEF11F01D9ED89032301E6E1D
:1022BA0010EF10F0120032EC22F08BEC20F014EC4C
:1022CA0022F0000E036E630E026E14EC1CF0000E78
:1022DA000001D46F010ED56F010ED66F000ED86FB4
:1022EA00630ED76FAA0ED96F0F0EDA6FA60EDB6FC9
:1022FA000F0EDC6F000ECB6F010ECC6F010ECD6F8F
:10230A00000ECF6F630ECE6F250ED06F0F0ED16FFA
:10231A00210ED26F0F0ED36F7C9E849E87907F9082
:10232A00859E7D9E8196799686860E01B4978684CF
:10233A007E94B49587927F92000E0001BB6F000EC7
:10234A00BA6F88968086190E4E6E5A0E4D6EB20E70
:10235A00E82EFED74D2EFCD74E2EFAD78096E50EE4
:10236A00456ED4EC13F0EBC002F0ECC003F0046A43
:10237A00056A000EBDEC14F002C0ACF003C0ADF06B
:10238A0004C0AEF005C0AFF07F807D8E7986D40E92
:10239A00146ECB0E156E21EC1DF0D58E58EC1EF086
:1023AA0006C0E3F007C0E4F0E3C002F0E4C003F0C3
:1023BA00046A056A000EBDEC14F002C0B0F003C056
:1023CA00B1F004C0B2F005C0B3F0ACC01FF0ADC0AC
:1023DA0020F0AEC021F0AFC022F0000E066E000E53
:1023EA00076EC80E086E420E096EB0C002F0B1C088
:1023FA0003F0B2C004F0B3C005F07EEC0DF002C0E9
:10240A001BF003C01CF004C01DF005C01EF093ECC5
:10241A000FF01BC034F01CC035F01DC036F01EC0D2
:10242A0037F0C1EC17F034C0B6F035C0B7F0000190
:10243A00B75109E1090EB65DD8A026EF12F028EFD0
:10244A0012F0C9EF11F0D40E146ECB0E156E5CECBF
:10245A001CF0F3EC21F002C0B4F003C0B5F0D59E35
:10246A00B4C008F0B5C009F0BAC00AF0BBC00BF09E
:10247A00460ED3EC1DF0110E4E6E3C0E4D6ECB0E79
:10248A00E82EFED74D2EFCD74E2EFAD70000D40EDA
:10249A00146ECB0E156E21EC1DF0090E4E6E1E0E3B
:1024AA004D6EE40EE82EFED74D2EFCD74E2EFAD7EF
:1024BA0000D0D40E146ECB0E156E5CEC1CF0190E07
:1024CA004E6E5A0E4D6EB20EE82EFED74D2EFCD72A
:1024DA004E2EFAD70001B75109E1330EB65DD8A0E6
:1024EA0079EF12F07BEF12F091EF12F02E0EB85D39
:1024FA00010EB959D8A084EF12F086EF12F098EFC6
:10250A0012F05B0EB85D010EB959D8B08FEF12F018
:10251A0091EF12F098EF12F07FA296EF12F098EF77
:10252A0012F0ADEF12F0000E466E080E456E23EC67
:10253A0022F0D40E216ECB0E226E000E236E020EF6
:10254A00246EBAC025F0BBC026F010EC1AF07F92B8
:10255A00DD0E426EC6EC18F042C0B8F043C0B9F0C6
:10256A00B8C047F0B9C048F0BAC049F0BBC04AF099
:10257A00C3EC12F0C9EF11F01DEF00F0485009E169
:10258A000B0E475CD8A0CCEF12F0CEEF12F0D9EFC9
:10259A0012F0630E475C010E4858D8A0D7EF12F02C
:1025AA00D9EF12F0E9EF12F0D40E1D6ECB0E1E6EAB
:1025BA0049C01FF04AC020F0CCEC1EF0000E4C6E51
:1025CA00010E4B6ECDEF13F0485009E1690E475CDE
:1025DA00D8A0F2EF12F0F4EF12F00FEF13F0485018
:1025EA0007E1830E475CD8B0FDEF12F0FFEF12F05F
:1025FA000FEF13F0D40E1D6ECB0E1E6E49C01FF0E6
:10260A004AC020F05CEC1FF0000E4C6E020E4B6EBE
:10261A00CDEF13F0485009E1E60E475CD8A018EF59
:10262A0013F01AEF13F035EF13F0485007E1F10EEB
:10263A00475CD8B023EF13F025EF13F035EF13F012
:10264A00D40E1D6ECB0E1E6E49C01FF04AC020F07C
:10265A0080EC1FF0000E4C6E030E4B6ECDEF13F0A4
:10266A00485009E1D80E475CD8A03EEF13F040EF7E
:10267A0013F05BEF13F0485007E1DE0E475CD8B069
:10268A0049EF13F04BEF13F05BEF13F0D40E1D6E0E
:10269A00CB0E1E6E49C01FF04AC020F038EC1FF066
:1026AA00000E4C6E040E4B6ECDEF13F02E0E475CEF
:1026BA00010E4858D8A064EF13F066EF13F081EFCB
:1026CA0013F05B0E475C010E4858D8B06FEF13F059
:1026DA0071EF13F081EF13F0D40E1D6ECB0E1E6E48
:1026EA0049C01FF04AC020F0A8EC1EF0000E4C6E44
:1026FA00050E4B6ECDEF13F0485009E10F0E475C03
:10270A00D8A08AEF13F08CEF13F0A7EF13F048501C
:10271A0007E1240E475CD8B095EF13F097EF13F05A
:10272A00A7EF13F0D40E1D6ECB0E1E6E49C01FF01C
:10273A004AC020F014EC1FF0000E4C6E060E4B6ED1
:10274A00CDEF13F0485009E1F40E475CD8A0B0EF82
:10275A0013F0B2EF13F0CDEF13F0485007E1FC0E7F
:10276A00475CD8B0BBEF13F0BDEF13F0CDEF13F019
:10277A00D40E1D6ECB0E1E6E49C01FF04AC020F04B
:10278A00F0EC1EF0000E4C6E070E4B6ECDEF13F000
:10279A004BC045F04CC046F023EC22F012007F906B
:1027AA007D9E7996600E326E6D0E336EA60E346E75
:1027BA003450D8A40E0E356EA5EC20F0600E036ED0
:1027CA0056EC21F08EB4ECEF13F0EEEF13F0E7EFD6
:1027DA0013F07F80290E476E960E466E7F0EE82E06
:1027EA00FED7462EFCD7472EFAD7000008EC1EF07B
:1027FA004550D96EDA6A06C0DEFF07C0DDFF7F905A
:10280A00600E326E010E336EA60E346E3450D8A4AA
:10281A000E0E356EA5EC20F0600E036E56EC21F01C
:10282A008EB41AEF14F01CEF14F015EF14F07D8E2D
:10283A00290E476E960E466E7F0EE82EFED7462E5E
:10284A00FCD7472EFAD7000030EC1EF04550D96E5F
:10285A00DA6A020ED92606C0DEFF07C0DDFF7D9EBA
:10286A00600E326E1E0E336EA60E346E3450D8A42D
:10287A000E0E356EA5EC20F0600E036E56EC21F0BC
:10288A008EB44AEF14F04CEF14F045EF14F0798649
:10289A00290E476E960E466E7F0EE82EFED7462EFE
:1028AA00FCD7472EFAD7000080EC1EF04550D96EAF
:1028BA00DA6A040ED92606C0DEFF07C0DDFF799664
:1028CA00600E326E390E336EA60E346E3450D8A4B2
:1028DA000E0E356EA5EC20F0600E036E56EC21F05C
:1028EA008EB47AEF14F07CEF14F075EF14F07F8059
:1028FA007D8E7986290E476E960E466E7F0EE82EDD
:10290A00FED7462EFCD7472EFAD7000058EC1EF009
:10291A004550D96EDA6A060ED92606C0DEFF07C010
:10292A00DDFF7F907D9E7996600E326E540E336E77
:10293A00A60E346E3450D8A40E0E356EA5EC20F0D7
:10294A00600E036E56EC21F08EB4AEEF14F0B0EFC9
:10295A0014F0A9EF14F0290E476E960E466E7F0EFC
:10296A00E82EFED7462EFCD7472EFAD700001200D3
:10297A000A6E0A50D8B4C4EF14F0C6EF14F0E8EFA8
:10298A0014F005BECDEF14F0CBEF14F0E8EF14F01D
:10299A0002C006F003C007F004C008F005C009F041
:1029AA00061E071E081E091E062A000E07220822F6
:1029BA00092206C00CF007C00DF008C00EF009C0CD
:1029CA000FF0F0EF14F002C00CF003C00DF004C0D9
:1029DA000EF005C00FF00250031004100510D8A421
:1029EA00F9EF14F0FBEF14F005EF15F0000E026E8C
:1029FA00000E036E000E046E000E056E96EF15F0C3
:102A0A00960E0B6E0FEF15F00B2AD8900F320E327E
:102A1A000D320C32000E0C14066E000E0D14076EE9
:102A2A00000E0E14086EFE0E0F14096E06500710E3
:102A3A0008100910D8A424EF15F026EF15F009EFB5
:102A4A0015F034EF15F00B2A010E0C26000E0D229C
:102A5A000E220F22D8900F320E320D320C32000E97
:102A6A000C14066E000E0D14076E000E0E14086E7E
:102A7A00FF0E0F14096E0650071008100910D8A48B
:102A8A0049EF15F04BEF15F028EF15F053EF15F05D
:102A9A000B06D8900C360D360E360F360EBE58EF92
:102AAA0015F05AEF15F062EF15F0020E0B6060EFA9
:102ABA0015F062EF15F04DEF15F00BB067EF15F05A
:102ACA0069EF15F06AEF15F00E9ED8900B320BC025
:102ADA0006F0076A086A096A06C009F0086A076AFE
:102AEA00066A06500C1207500D1208500E120950B1
:102AFA000F120A50D8B484EF15F086EF15F08EEF56
:102B0A0015F005BE8DEF15F08BEF15F08EEF15F071
:102B1A000F8E0CC002F00DC003F00EC004F00FC0FF
:102B2A0005F012002450D96EDA6ADFCFF6FF0E0ED6
:102B3A00F76E000EF86E0800F550250AD8A4A8EF23
:102B4A0015F0AAEF15F047EF16F02450D96EDA6A9D
:102B5A00DF2A000E0001C56F000EC46FC4C0C8F0A2
:102B6A00C669C769000E2C6EE2EF15F00001C88332
:102B7A002450D96EDA6ADF2AE2EF15F0010E2C6EC4
:102B8A00E2EF15F02450D96EDA6ADFCFF6FF0E0EA7
:102B9A00F76E000EF86E0800F550266E276A275069
:102BAA00000AD8B4DBEF15F0C3EF15F02650300A4F
:102BBA00D8B4BBEF15F0C3EF15F02C50D8B4E8EF3A
:102BCA0015F0EAEF15F0C7EF15F024C008F025C09C
:102BDA0009F0C8EC1AF008C0C4F009C0C5F0000139
:102BEA00C5BFFCEF15F0FAEF15F001EF16F0C8813A
:102BFA00C46DC51FD8B0C52B2450D96EDA6ADF5010
:102C0A002D6E2DC0F6FF0E0EF76E000EF86E080040
:102C1A00F550640AD8B414EF16F016EF16F026EF42
:102C2A0016F02DC0F6FF0E0EF76E000EF86E0800B5
:102C3A00F550690AD8A424EF16F026EF16F041EFF2
:102C4A0016F02550D96EDA6A020EDF26DF5CD96EDD
:102C5A00DA6ADECF28F0DECF29F02450D96EDA6A9C
:102C6A002D28DF6E23C018F028C019F029C01AF0E9
:102C7A005BEC16F05AEF16F02450D96EDA6ADF2AA6
:102C8A005AEF16F02450D96EDA6ADFCFF6FF0E0E2D
:102C9A00F76E000EF86E0800F550026E036A23C044
:102CAA0004F074EC1BF041EF16F01200010E1D6ED9
:102CBA001ABE62EF16F065EF16F0010E66EF16F017
:102CCA00000E206EC4C01EF0C5C01FF02050D8B43C
:102CDA0071EF16F073EF16F08AEF16F01E06D8A001
:102CEA001F062050D8A47CEF16F07EEF16F084EF72
:102CFA0016F0000E1C6E2B0E1B6E88EF16F0000EDF
:102D0A001C6E2D0E1B6E1BC020F0000E226E1F0EB5
:102D1A00216E000E0101836FC2EF16F02106D8A0C2
:102D2A002206640E2124D96E010E2220DA6E19C001
:102D3A0002F01AC003F0000E056E0A0E046E70EC63
:102D4A001AF002C008F003C009F0BFEC20F00850E6
:102D5A00300FDF6E000E1D6E1E06D8A01F0619C0AA
:102D6A0002F01AC003F0000E056E0A0E046EAEECF5
:102D7A0019F002C019F003C01AF022BECDEF16F006
:102D8A00225008E12104D8A0CDEF16F0CFEF16F0BB
:102D9A00F5EF16F019501A10D8A4D6EF16F0D8EF9E
:102DAA0016F093EF16F01D50D8A4DEEF16F0E0EF00
:102DBA0016F093EF16F01FBEEBEF16F01F5008E166
:102DCA001E04D8A0EBEF16F0EDEF16F0F5EF16F0B3
:102DDA000001C8B3F3EF16F0F5EF16F093EF16F013
:102DEA002050D8B4FBEF16F0FDEF16F008EF17F0FD
:102DFA002106D8A02206640E2124D96E010E2220B3
:102E0A00DA6E20C0DFFF18C010F0640E2124116EA4
:102E1A00010E2220126E1EC013F01FC014F0C9EC5E
:102E2A001BF012000F50D96EDA6A020ED926DF5053
:102E3A00D8B422EF17F024EF17F054EF17F00F5021
:102E4A00D96EDA6ADF50106E1050026E036A0F50A4
:102E5A00D96EDA6A030ED926DECF04F0DDCF05F08B
:102E6A00E0EC21F002C008F003C009F0000E0B6E7E
:102E7A00640E0A6E99EC1DF00F50D96EDA6A030ED1
:102E8A00D926DF50116E0850115C126E0F50D96EA0
:102E9A00DA6A030ED926DF50136E75EF17F0000EAB
:102EAA00126E0F50D96EDA6ADF50106E1050026E31
:102EBA00036A0F50D96EDA6A030ED926DECF04F000
:102ECA00DDCF05F0E0EC21F002C008F003C009F004
:102EDA00000E0B6E640E0A6E99EC1DF00850136E0C
:102EEA000F50D96EDA6A010ED926DF50D8B480EFB6
:102EFA0017F082EF17F0A2EF17F00F50D96EDA6AC7
:102F0A00050ED926DECF10F0DDCF11F010C0D9FFA3
:102F1A0011C0DAFF12C0DFFF0F50D96EDA6A070E4E
:102F2A00D926DECF10F0DDCF11F010C0D9FF11C0C5
:102F3A00DAFF13C0DFFFC0EF17F00F50D96EDA6A5D
:102F4A00050ED926DECF10F0DDCF11F010C0D9FF63
:102F5A0011C0DAFF13C0DFFF0F50D96EDA6A070E0D
:102F6A00D926DECF10F0DDCF11F010C0D9FF11C085
:102F7A00DAFF12C0DFFF1200363437343D6E3D509F
:102F8A00D8A4CAEF17F0CCEF17F0D6EF17F0000E5F
:102F9A00346E000E356E000E366E000E376E43EF3D
:102FAA0018F034C038F035C039F036C03AF037C0BE
:102FBA003BF0200EE6EF17F0D8903B323A32393226
:102FCA003832E82EE1EF17F038503C6E368EFF0E9D
:102FDA003416FF0E3516FF0E3616000E3716960EED
:102FEA003D5E3DBEFDEF17F0FBEF17F013EF18F053
:102FFA003D50800A970FD8B005EF18F007EF18F088
:10300A0009EF18F0CCEF17F0D89037323632353254
:10301A0034323D3E09EF18F02BEF18F01F0E3D64D5
:10302A0019EF18F01BEF18F023EF18F0CCEF17F098
:10303A00D89034363536363637363D063D50D8A424
:10304A0029EF18F02BEF18F01DEF18F03C50D8B408
:10305A0031EF18F033EF18F03BEF18F0371E361E39
:10306A00351E346C000E35223622372234C034F035
:10307A0035C035F036C036F037C037F01200000ED2
:10308A0002140A6E000E03140B6E800E04140C6EEA
:10309A007F0E05140D6E0A500B100C100D10D8A4DB
:1030AA0059EF18F05BEF18F063EF18F0000E026E9C
:1030BA00000E036E000E046E000E056E000E06145E
:1030CA000A6E000E07140B6E800E08140C6E7F0E2B
:1030DA0009140D6E0A500B100C100D10D8A478EFBD
:1030EA0018F07AEF18F082EF18F0000E066E000E54
:1030FA00076E000E086E000E096E05AE87EF18F017
:10310A0089EF18F092EF18F0026C031ED8B0032A68
:10311A00041ED8B0042A800E055609AE97EF18F09F
:10312A0099EF18F0A2EF18F0066C071ED8B0072A1C
:10313A00081ED8B0082A800E0956000E021A000E80
:10314A00031A000E041A800E051A000E061A000E43
:10315A00071A000E081A800E091A0650025C075058
:10316A0003580850045809500558D8B0BFEF18F052
:10317A00C1EF18F0C4EF18F0D890C5EF18F0D88056
:10318A0012007F807D9E7996290E456E960E446EBA
:10319A007F0EE82EFED7442EFCD7452EFAD7000024
:1031AA0008EC1EF04250D96EDA6A06C0DEFF07C08C
:1031BA00DDFF7F907D8E7996290E456E960E446EC0
:1031CA007F0EE82EFED7442EFCD7452EFAD70000F4
:1031DA0030EC1EF04250D96EDA6A020ED92606C0C9
:1031EA00DEFF07C0DDFF7F907D9E7986290E456E42
:1031FA00960E446E7F0EE82EFED7442EFCD7452E3F
:10320A00FAD7000080EC1EF04250D96EDA6A040E3A
:10321A00D92606C0DEFF07C0DDFF7F807D8E798656
:10322A00290E456E960E446E7F0EE82EFED7442E6A
:10323A00FCD7452EFAD7000058EC1EF04250D96E42
:10324A00DA6A060ED92606C0DEFF07C0DDFFE50EE4
:10325A003E6EDD0E3F6E55EC07F03EC046F03FC0B5
:10326A0047F046C042F047C043F012001CBE49EF87
:10327A0019F07C0E1B5C150E1C58D8B047EF19F0DC
:10328A0049EF19F05BEF19F01CBE55EF19F0D50E96
:10329A001B5C170E1C58D8A055EF19F057EF19F000
:1032AA005BEF19F00B0E1E6EB80E1D6E1CBE69EF99
:1032BA0019F0740E1B5C0E0E1C58D8B067EF19F08B
:1032CA0069EF19F07BEF19F01CBE75EF19F0050EC6
:1032DA001B5C100E1C58D8A075EF19F077EF19F087
:1032EA007BEF19F0070E1E6ED00E1D6E1CBE89EF05
:1032FA0019F0A40E1B5C060E1C58D8B087EF19F003
:10330A0089EF19F09BEF19F01CBE95EF19F0350EF5
:10331A001B5C080E1C58D8A095EF19F097EF19F00E
:10332A009BEF19F0030E1E6EE80E1D6E19C014F005
:10333A001AC015F021EC1DF01DC002F01EC003F0EA
:10334A006FEC20F019C014F01AC015F05CEC1CF0F8
:10335A001200000E076E05BEB7EF19F0B5EF19F0AF
:10336A00BDEF19F0046C051ED8B0052A010E076ED0
:10337A0003BEC4EF19F0C2EF19F0CAEF19F0026CDC
:10338A00031ED8B0032A010E071A000E096E000E9A
:10339A00086E04500510D8B4D5EF19F0D7EF19F01C
:1033AA00FFEF19F0010E066EDFEF19F0D890043620
:1033BA000536062A05AEE4EF19F0E6EF19F0DBEF61
:1033CA0019F0D890083609360450025C05500358A3
:1033DA00D8A0F2EF19F0F4EF19F0F9EF19F0045050
:1033EA00025E0550035A0880D89005320432062E30
:1033FA00E6EF19F00750D8B405EF1AF007EF1AF004
:10340A000BEF1AF0086C091ED8B0092A08C002F09E
:10341A0009C003F012007F907D9E7996D40E1D6E2E
:10342A00CB0E1E6ED9EC20F025C02CF026C02DF054
:10343A002DBE24EF1AF022EF1AF026EF1AF06EEFE3
:10344A001AF0D8902C34D96E2D34DA6E2350D9263E
:10345A002450DA22DECF27F0DDCF28F027C0D9FFAB
:10346A0028C0DAFFDF502B6ED8902C34D96E2D3459
:10347A00DA6E2350D9262450DA2210EE01F0DE50FB
:10348A00E126DD50E222E6CF29F0E5CF2AF0460E0A
:10349A002B18D8A453EF1AF055EF1AF061EF1AF06F
:1034AA0021C019F022C01AF029C01BF02AC01CF052
:1034BA003BEC19F069EF1AF021C01DF022C01EF092
:1034CA002BC01FF0C7EC1FF02C06D8A02D061DEF4D
:1034DA001AF003001200000E076E03BE79EF1AF00D
:1034EA0077EF1AF07FEF1AF0026C031ED8B0032AA6
:1034FA00010E076E05BE86EF1AF084EF1AF08AEF06
:10350A001AF0046C051ED8B0052A04500510D8B468
:10351A0091EF1AF093EF1AF0B7EF1AF0010E066E58
:10352A009BEF1AF0D89004360536062A05AEA0EFAE
:10353A001AF0A2EF1AF097EF1AF00450025C055045
:10354A000358D8A0ABEF1AF0ADEF1AF0B1EF1AF0AA
:10355A000450025E0550035AD89005320432062EF2
:10356A00A2EF1AF00750D8B4BDEF1AF0BFEF1AF065
:10357A00C3EF1AF0026C031ED8B0032A02C002F08D
:10358A0003C003F01200000E0C6E000E0B6E085002
:10359A00D96EDA6ADFCFF6FF0E0EF76E000EF86EFE
:1035AA000800F5502A0AD8A4DDEF1AF0DFEF1AF066
:1035BA0005EF1BF00850D96EDA6ADF2A0950D96E76
:1035CA00DA6A020EDF26DF5CD96EDA6ADECF0BF02A
:1035DA00DECF0CF01AEF1BF00BC002F00CC003F0A8
:1035EA00000E056E0A0E046EE0EC21F00A50022469
:1035FA000B6E000E03200C6E0850D96EDA6ADF2AB1
:10360A000850D96EDA6ADFCFF6FF0E0EF76E000E9B
:10361A00F86E0800F550D00F0A6E090E0A6418EF0A
:10362A001BF01AEF1BF0F1EF1AF00BC008F00CC0F8
:10363A0009F01200000E02140A6E000E03140B6E3B
:10364A00800E04140C6E7F0E05140D6E0A500B10BA
:10365A000C100D10D8A434EF1BF036EF1BF03EEF20
:10366A001BF0000E026E000E036E000E046E000EBA
:10367A00056E000E06140A6E000E07140B6E800EFD
:10368A0008140C6E7F0E09140D6E0A500B100C10E4
:10369A000D10D8A453EF1BF055EF1BF05DEF1BF094
:1036AA00000E066E000E076E000E086E000E096E02
:1036BA00065002180FE1075003180CE108500418CD
:1036CA0009E109500518D8B46DEF1BF06FEF1BF034
:1036DA0072EF1BF0D89073EF1BF0D88012000450E1
:1036EA00D8B47AEF1BF07CEF1BF084EF1BF0045088
:1036FA00D8A482EF1BF084EF1BF089EF1BF0025075
:10370A0060EC22F0C8EF1BF00450D96EDA6A0A0E98
:10371A00D926DE50DE10D8B495EF1BF097EF1BF0D8
:10372A00B0EF1BF00450D96EDA6A0A0ED92604509B
:10373A00E16EE26A030EE126DE50E65CE650800A9C
:10374A00096EDE50800A0958D8B0AEEF1BF0B0EF10
:10375A001BF0C8EF1BF00450D96EDA6A030ED926A3
:10376A00DF50056E0450D96EDA6ADF500524D96E2F
:10377A00DA6A02C0DFFF0450D96EDA6A030ED9266C
:10378A00DE2A000EDD2212000001C8A1CFEF1BF0D5
:10379A00D1EF1BF0D9EF1BF011C00AF012C00BF0E9
:1037AA0010C00CF04FEC20F014BEE0EF1BF0DEEF7F
:1037BA001BF0E4EF1BF0000E146E000E136E000EE9
:1037CA00176E000E166EF4EF1BF0000E036E200E3D
:1037DA00026E10C004F074EC1BF0164A172A13503C
:1037EA00165C1750800A156E1450800A1558D8A016
:1037FA0001EF1CF003EF1CF0EAEF1BF00001C8B167
:10380A0009EF1CF00BEF1CF013EF1CF011C00AF0CB
:10381A0012C00BF010C00CF04FEC20F0120085948F
:10382A00839E8598879C7D947B9E7D987F9C050EC0
:10383A000E01746F060E766F070E696F080E886F99
:10384A00BD508F0B4009BD6EE00EBE16BF50F00B87
:10385A000109BF6E02C0BCFFBD8E000EAA6E000E2B
:10386A00A66E000E0F01256F000E216FFC0EAD161D
:10387A00F30EAD16CF0EAD163F0EAD16AB88AB509C
:10388A00F00B0C09AB6EAB8EA788A750F00B0C0996
:10389A00A76EA78E26892651F00B0C09266F268F54
:1038AA0022892251F00B0C09226F228F12008CEF11
:1038BA001CF01450D96EDA6ADF50D8B467EF1CF0E6
:1038CA0069EF1CF06DEF1CF01450D96EDA6ADF064E
:1038DA001550D96EDA6ADF50D8B476EF1CF078EF5B
:1038EA001CF07CEF1CF01550D96EDA6ADF0614C0A2
:1038FA000FF017EC17F015C00FF017EC17F00B0EBE
:10390A00166E620EE82EFED7162EFCD700D0145083
:10391A00D96EDA6ADF50D8A495EF1CF097EF1CF045
:10392A005EEF1CF01550D96EDA6ADF50D8A4A0EF0A
:10393A001CF0A2EF1CF05EEF1CF012001450D96EBE
:10394A00DA6A010ED926010EDF6E1550D96EDA6ACF
:10395A00010ED926DF6A14C00FF017EC17F015C054
:10396A000FF017EC17F0000E186E000E176E1450B9
:10397A00D96EDA6ADF2A1550D96EDA6ADF2A14C0DC
:10398A000FF017EC17F015C00FF017EC17F00B0E2D
:10399A00166E620EE82EFED7162EFCD700D0174AF6
:1039AA00182A185009E1320E175CD8A0DFEF1CF074
:1039BA00E1EF1CF0BCEF1CF012001450D96EDA6A69
:1039CA00010ED926DF6A1550D96EDA6A010ED92698
:1039DA00010EDF6E14C00FF017EC17F015C00FF0D0
:1039EA0017EC17F0000E186E000E176E1450D96EF1
:1039FA00DA6ADF2A1550D96EDA6ADF2A14C00FF0A4
:103A0A0017EC17F015C00FF017EC17F00B0E166E27
:103A1A00620EE82EFED7162EFCD700D0174A182AB7
:103A2A00185009E1320E175CD8A01EEF1DF020EFE6
:103A3A001DF0FBEF1CF012001450D96EDA6A010E69
:103A4A00D926010EDF6E1550D96EDA6A010ED92613
:103A5A00010EDF6E000E186E000E176E1450D96E2E
:103A6A00DA6A17C0DFFF1550D96EDA6A17C0DFFFAE
:103A7A0014C00FF017EC17F015C00FF017EC17F081
:103A8A000B0E166E620EE82EFED7162EFCD700D04D
:103A9A00174A182A18BE5BEF1DF0185009E1330EB9
:103AAA00175CD8A05BEF1DF05DEF1DF033EF1DF042
:103ABA0012001450D96EDA6A010ED926DF6A15503F
:103ACA00D96EDA6A010ED926DF6A000E186E000E68
:103ADA00176E1450D96EDA6A17C0DFFF1550D96E07
:103AEA00DA6A17C0DFFF14C00FF017EC17F015C021
:103AFA000FF017EC17F00B0E166E620EE82EFED7BB
:103B0A00162EFCD700D0174A182A18BE96EF1DF0B9
:103B1A00185009E1330E175CD8A096EF1DF098EF04
:103B2A001DF06EEF1DF01200000E0D6E000E0C6EF1
:103B3A000A500B10D8B4A4EF1DF0A6EF1DF0CEEF7B
:103B4A001DF0010E0E6EAEEF1DF0D8900A360B3640
:103B5A000E2A0BAEB3EF1DF0B5EF1DF0AAEF1DF064
:103B6A00D8900C360D360A50085C0B500958D8A06C
:103B7A00C1EF1DF0C3EF1DF0C8EF1DF00A50085E3B
:103B8A000B50095A0C80D8900B320A320E2EB5EF20
:103B9A001DF00CC008F00DC009F012000C6E0B509D
:103BAA0007E1320E0A5CD8B0DDEF1DF0DFEF1DF041
:103BBA0007EF1EF00AC002F00BC003F0000E056EFC
:103BCA00050E046EE0EC21F0000E0224D96E020EFE
:103BDA000320DA6E0CC0DFFF0AC002F00BC003F04C
:103BEA00000E056E050E046EE0EC21F0010E0224B3
:103BFA00D96E020E0320DA6E08C0DEFF09C0DDFFAF
:103C0A000A4A0B2A120056EC22F0520E4BEC22F012
:103C1A00B60E4BEC22F05BEC22F0530E4BEC22F08A
:103C2A00010E2EEC20F0086E08500B6E0C6A000E86
:103C3A002EEC20F0086E08500A6E096A0B50091023
:103C4A000B6E0C500A100C6E51EC22F00BC006F0F1
:103C5A000CC007F0120056EC22F0520E4BEC22F088
:103C6A00B80E4BEC22F05BEC22F0530E4BEC22F038
:103C7A00010E2EEC20F0086E08500B6E0C6A000E36
:103C8A002EEC20F0086E08500A6E096A0B500910D3
:103C9A000B6E0C500A100C6E51EC22F00BC006F0A1
:103CAA000CC007F0120056EC22F0520E4BEC22F038
:103CBA00B40E4BEC22F05BEC22F0530E4BEC22F0EC
:103CCA00010E2EEC20F0086E08500B6E0C6A000EE6
:103CDA002EEC20F0086E08500A6E096A0B50091083
:103CEA000B6E0C500A100C6E51EC22F00BC006F051
:103CFA000CC007F0120056EC22F0520E4BEC22F0E8
:103D0A00BA0E4BEC22F05BEC22F0530E4BEC22F095
:103D1A00010E2EEC20F0086E08500B6E0C6A000E95
:103D2A002EEC20F0086E08500A6E096A0B50091032
:103D3A000B6E0C500A100C6E51EC22F00BC006F000
:103D4A000CC007F012001DC019F01EC01AF0F2ECE8
:103D5A0020F0290E226E960E216E7F0EE82EFED7D7
:103D6A00212EFCD7222EFAD700001DC019F01EC042
:103D7A001AF06FEC21F0000E096E000E086E1FC0DB
:103D8A000AF020C00BF0520ED3EC1DF012001DC039
:103D9A0019F01EC01AF09FEC21F0290E226E960E21
:103DAA00216E7F0EE82EFED7212EFCD7222EFAD7BF
:103DBA0000001DC019F01EC01AF06FEC21F0000EB1
:103DCA00096E000E086E1FC00AF020C00BF0520EDA
:103DDA00D3EC1DF012001DC019F01EC01AF0F2EC4F
:103DEA0020F0290E226E960E216E7F0EE82EFED747
:103DFA00212EFCD7222EFAD700001DC019F01EC0B2
:103E0A001AF087EC21F0000E096E000E086E1FC032
:103E1A000AF020C00BF04C0ED3EC1DF012001DC0AE
:103E2A0019F01EC01AF09FEC21F0290E226E960E90
:103E3A00216E7F0EE82EFED7212EFCD7222EFAD72E
:103E4A0000001DC019F01EC01AF00BEC21F0000E84
:103E5A00096E000E086E1FC00AF020C00BF0520E49
:103E6A00D3EC1DF012001DC019F01EC01AF09FEC11
:103E7A0021F0290E226E960E216E7F0EE82EFED7B5
:103E8A00212EFCD7222EFAD700001DC019F01EC021
:103E9A001AF024EC21F0000E096E000E086E1FC005
:103EAA000AF020C00BF04C0ED3EC1DF012001DC01E
:103EBA0019F01EC01AF09FEC21F0290E226E960E00
:103ECA00216E7F0EE82EFED7212EFCD7222EFAD79E
:103EDA0000001DC019F01EC01AF087EC21F0000E78
:103EEA00096E000E086E1FC00AF020C00BF04C0EBF
:103EFA00D3EC1DF012001DC019F01EC01AF09FEC81
:103F0A0021F0290E226E960E216E7F0EE82EFED724
:103F1A00212EFCD7222EFAD700001DC019F01EC090
:103F2A001AF03DEC21F0000E096E000E086E1FC05B
:103F3A000AF020C00BF0300ED3EC1DF01200C20EB6
:103F4A00F66E440EF76E000EF86E0900F5CFEDF02E
:103F5A0002EE00F0FA0EEE6AE806FDE101EE00F06C
:103F6A00840EEE6AE806FDE100EEBCF0310EEE6A60
:103F7A00E806FDE1516A506A4F6A52905292000176
:103F8A0060EF11F0520E1F18D8A4CEEF1FF0D0EF39
:103F9A001FF0D8EF1FF01DC014F01EC015F0E2ECA0
:103FAA001CF0E9EF1FF04C0E1F18D8A4DFEF1FF02A
:103FBA00E1EF1FF0E9EF1FF01DC014F01EC015F06D
:103FCA00A3EC1CF0E9EF1FF01200000E161A000E07
:103FDA00171A000E181A800E191A12C002F013C00E
:103FEA0003F014C004F015C005F016C006F017C09F
:103FFA0007F018C008F019C009F01EEC0BF002C057
:10400A0012F003C013F004C014F005C015F012003A
:10401A002FC031F019EF20F02EC023F0310E246E9C
:10402A0030C025F097EC15F031C0F6FF0E0EF76E92
:10403A00000EF86E0800F5500009D8A427EF20F00A
:10404A0029EF20F011EF20F0000E2F6E000E2E6ED9
:10405A001200046ECCEC21F00E01DA87CCEC21F0D0
:10406A00D5CE05F0CCEC21F00450D8B43FEF20F0C7
:10407A0043EF20F0036A032A44EF20F0036A033A6D
:10408A0003460E01DA510318DF0B0318DA6FDA89D7
:10409A0005501200000E0F6E000E0E6E5EEF20F03D
:1040AA000DC002F0036A0CC004F074EC1BF00E4A57
:1040BA000F2A0E500A24D96E0F500B20DA6EDF50E9
:1040CA000D6E0D50D8A46CEF20F06EEF20F055EF76
:1040DA0020F01200000E066E000E056E7FEF20F033
:1040EA00150E046EC60EE82EFED7042EFCD700D09D
:1040FA00054A062A0250055C03500658D8A088EFE4
:10410A0020F08AEF20F075EF20F01200B7EC21F0D2
:10411A00010E046E000E04EC22F03F0E066E550EE0
:10412A00E82EFED7062EFCD70000030E046E000E02
:10413A0004EC22F0D50E046E010E04EC22F01200FB
:10414A00340E386E32C039F0000E3D6E000E3C6EF1
:10415A00000E446E000E436E390E2E6E33C02FF0E1
:10416A00380E306E0DEC20F032503C24D96EDA6AEB
:10417A00DF6A120009BEC4EF20F0C6EF20F0CCEFD0
:10418A0020F008C008F009C009F0D8EF20F008C0F4
:10419A000AF009C00BF00A1E0B1E0A4A0B2A0AC0B3
:1041AA0008F00BC009F012001DC019F01EC01AF069
:1041BA009FEC21F0290E206E960E1F6E7F0EE82EC0
:1041CA00FED71F2EFCD7202EFAD700001DC019F0EB
:1041DA001EC01AF03DEC21F0120019C014F01AC0EA
:1041EA0015F05EEC1DF06A0E1C6E850E1B6EB40E89
:1041FA00E82EFED71B2EFCD71C2EFAD700D019C0EA
:10420A0014F01AC015F05CEC1CF0120019C014F07E
:10421A001AC015F0A3EC1CF0210E1C6E780E1B6E52
:10422A00980EE82EFED71B2EFCD71C2EFAD700D0EC
:10423A0019C014F01AC015F05CEC1CF0120019C079
:10424A0014F01AC015F0E2EC1CF0210E1C6E780E68
:10425A001B6E980EE82EFED71B2EFCD71C2EFAD703
:10426A0000D019C014F01AC015F05CEC1CF0120052
:10427A0019C014F01AC015F0E2EC1CF0300E1C6ED6
:10428A00140E1B6ED10EE82EFED71B2EFCD71C2E49
:10429A00FAD7000019C014F01AC015F05CEC1CF033
:1042AA00120063EF21F00350D96EDA6ADF503FEC57
:1042BA0022F0032A6A0EE82EFED700D00350D96EE8
:1042CA00DA6ADF50D8A46CEF21F06EEF21F058EFD4
:1042DA0021F0120019C014F01AC015F0A3EC1CF05A
:1042EA00180E1C6E8A0E1B6EE80EE82EFED71B2EC9
:1042FA00FCD71C2EFAD719C014F01AC015F05CECC2
:10430A001CF0120019C014F01AC015F0E2EC1CF0EF
:10431A00180E1C6E8A0E1B6EE80EE82EFED71B2E98
:10432A00FCD71C2EFAD719C014F01AC015F05CEC91
:10433A001CF0120019C014F01AC015F05EEC1DF042
:10434A00190E1C6E5A0E1B6EB20EE82EFED71B2ECD
:10435A00FCD71C2EFAD719C014F01AC015F05CEC61
:10436A001CF012000E01D951F00B0809D96FD98B34
:10437A009F0ED66F848A848CA79BA79D1D0E1D6FE6
:10438A001E0E1C6F1C0E6F6F1B0E706F12000E013B
:10439A00D8B5D2EF21F0D4EF21F0CCEF21F0DACE6C
:1043AA0002F01F0E0216D8A4DDEF21F0DFEF21F094
:1043BA00CCEF21F0120002500402F3CF06F0F4CF42
:1043CA0007F002500502F350072603500402F35087
:1043DA00072606C002F007C003F01200D450056E8B
:1043EA00046AD350066E076A04500610086E055018
:1043FA000710096E08C002F009C003F01200056E2A
:10440A0056EC22F0520E4BEC22F0055080094BEC90
:10441A0022F004504BEC22F051EC22F01200120E62
:10442A000E01626F110E156FE997E895330EE56F6D
:10443A00000EE66FE789E88BE78F1200600E326E96
:10444A009A0E336E45C034F046C035F0A5EC20F024
:10445A00600E036E56EC21F01200868C0E01B48DAC
:10446A000F015899FC0E58172E0E5F6F60946088E2
:10447A00608E1200026E0E0137A546EF22F048EF59
:10448A0022F040EF22F002C0E4FE1200036ECCECF0
:10449A0021F003C0D5FE1200CCEC21F00E01DA8522
:1044AA001200CCEC21F00E01DA811200CCEC21F0E2
:0944BA000E01DA83120012000168
:020000040030CA
:02000000AAFF55
:020004009FFF5C
:00000001FF
