:0400000059EF1FF0A5
:100E00000043616C6962726174696F6E2073746112
:100E10007465203D20207768697465206C69676877
:100E2000740043616C6962726174696F6E207374DF
:100E3000617465203D20677265656E200A0D004370
:100E4000616C6962726174696F6E2073746174653C
:100E50003D20626C7565200A0D0043414C494252A9
:100E60004154494F4E20434F4D504C45544544202A
:100E70000A0D0043616C6962726174696F6E207360
:100E800074617465203D2072656400566F6C7461F6
:100E90006765203D2025642E253032642C202000FB
:100EA0006875653D253033642C202000636C6561D6
:100EB000723D25303364002E0000000E0001B46F37
:100EC000000EB56F000EB66F000EB76F4550D96EAD
:100ED000DA6ADECF46F0DDCF47F046C001F047C00A
:100EE00002F0036A046A000E7AEC14F001C074F098
:100EF00002C075F003C076F004C077F04450D96E9C
:100F0000DA6ADECF46F0DDCF47F046C001F047C0D9
:100F100002F0036A046A000E7AEC14F001C078F063
:100F200002C079F003C07AF004C07BF04550D96E5E
:100F3000DA6A020ED926DECF46F0DDCF47F046C092
:100F400001F047C002F0036A046A000E7AEC14F064
:100F500001C07CF002C07DF003C07EF004C07FF0D1
:100F60004450D96EDA6A020ED926DECF46F0DDCFC4
:100F700047F046C001F047C002F0036A046A000E61
:100F80007AEC14F001C080F002C081F003C082F05E
:100F900004C083F04550D96EDA6A040ED926DECF3C
:100FA00046F0DDCF47F046C001F047C002F0036ACB
:100FB000046A000E7AEC14F001C084F002C085F0DF
:100FC00003C086F004C087F04450D96EDA6A040E7C
:100FD000D926DECF46F0DDCF47F046C001F047C04E
:100FE00002F0036A046A000E7AEC14F001C088F083
:100FF00002C089F003C08AF004C08BF04550D96E5E
:10100000DA6A060ED926DECF46F0DDCF47F046C0BD
:1010100001F047C002F0036A046A000E7AEC14F093
:1010200001C08CF002C08DF003C08EF004C08FF0C0
:101030004450D96EDA6A060ED926DECF46F0DDCFEF
:1010400047F046C001F047C002F0036A046A000E90
:101050007AEC14F001C090F002C091F003C092F05D
:1010600004C093F08CC019F08DC01AF08EC01BF034
:101070008FC01CF090C01DF091C01EF092C01FF0F8
:1010800093C020F0B5EC0FF019C094F01AC095F0A1
:101090001BC096F01CC097F0600E316EAC0E326E25
:1010A00094C033F095C034F096C035F097C036F058
:1010B0005AEC20F0600E026E24EC21F074C019F09E
:1010C00075C01AF076C01BF077C01CF078C01DF018
:1010D00079C01EF07AC01FF07BC020F0B5EC0FF095
:1010E00019C0B8F01AC0B9F01BC0BAF01CC0BBF0F0
:1010F0007CC019F07DC01AF07EC01BF07FC01CF0D0
:1011000080C01DF081C01EF082C01FF083C020F09F
:10111000B5EC0FF019C0BCF01AC0BDF01BC0BEF09A
:101120001CC0BFF084C019F085C01AF086C01BF047
:1011300087C01CF088C01DF089C01EF08AC01FF057
:101140008BC020F0B5EC0FF019C0C0F01AC0C1F090
:101150001BC0C2F01CC0C3F0B8C001F0B9C002F09F
:10116000BAC003F0BBC004F0BCC005F0BDC006F0BF
:10117000BEC007F0BFC008F0FFEC17F0D8A0C3EF67
:1011800008F0C5EF08F0FAEF08F0BCC001F0BDC0F0
:1011900002F0BEC003F0BFC004F0C0C005F0C1C083
:1011A00006F0C2C007F0C3C008F0FFEC17F0D8A0EB
:1011B000DCEF08F0DEEF08F0E8EF08F0C0C098F0D0
:1011C000C1C099F0C2C09AF0C3C09BF0F0EF08F024
:1011D000BCC098F0BDC099F0BEC09AF0BFC09BF0F3
:1011E00098C0A8F099C0A9F09AC0AAF09BC0ABF033
:1011F0002DEF09F0B8C001F0B9C002F0BAC003F099
:10120000BBC004F0C0C005F0C1C006F0C2C007F00A
:10121000C3C008F0FFEC17F0D8A011EF09F013EFEE
:1012200009F01DEF09F0C0C09CF0C1C09DF0C2C024
:101230009EF0C3C09FF025EF09F0B8C09CF0B9C084
:101240009DF0BAC09EF0BBC09FF09CC0A8F09DC0AE
:10125000A9F09EC0AAF09FC0ABF0BCC001F0BDC019
:1012600002F0BEC003F0BFC004F0B8C005F0B9C0C2
:1012700006F0BAC007F0BBC008F0FFEC17F0D8A02A
:1012800044EF09F046EF09F07BEF09F0C0C001F030
:10129000C1C002F0C2C003F0C3C004F0BCC005F07E
:1012A000BDC006F0BEC007F0BFC008F0FFEC17F0ED
:1012B000D8A05DEF09F05FEF09F069EF09F0C0C059
:1012C000A0F0C1C0A1F0C2C0A2F0C3C0A3F071EFF2
:1012D00009F0BCC0A0F0BDC0A1F0BEC0A2F0BFC06C
:1012E000A3F0A0C0B0F0A1C0B1F0A2C0B2F0A3C002
:1012F000B3F0AEEF09F0C0C001F0C1C002F0C2C04F
:1013000003F0C3C004F0B8C005F0B9C006F0BAC01D
:1013100007F0BBC008F0FFEC17F0D8A092EF09F07F
:1013200094EF09F09EEF09F0C0C0A4F0C1C0A5F091
:10133000C2C0A6F0C3C0A7F0A6EF09F0B8C0A4F0E1
:10134000B9C0A5F0BAC0A6F0BBC0A7F0A4C0B0F069
:10135000A5C0B1F0A6C0B2F0A7C0B3F0B0C011F004
:10136000B1C012F0B2C013F0B3C014F0A8C015F0B1
:10137000A9C016F0AAC017F0ABC018F09FEC1FF080
:1013800011C0ACF012C0ADF013C0AEF014C0AFF09D
:10139000B0C001F0B1C002F0B2C003F0B3C004F0BD
:1013A000A8C005F0A9C006F0AAC007F0ABC008F0BD
:1013B000D6EC1AF0D8A0DFEF09F0E1EF09F0ECEF7E
:1013C00009F0000E0001B46F000EB56F000EB66F8D
:1013D000000EB76FF5EF0AF0B0C001F0B1C002F037
:1013E000B2C003F0B3C004F0B8C005F0B9C006F055
:1013F000BAC007F0BBC008F0D6EC1AF0D8A003EFD3
:101400000AF005EF0AF033EF0AF0BCC015F0BDC0DA
:1014100016F0BEC017F0BFC018F0C0C011F0C1C0B8
:1014200012F0C2C013F0C3C014F09FEC1FF011C043
:1014300019F012C01AF013C01BF014C01CF0ACC09D
:101440001DF0ADC01EF0AEC01FF0AFC020F0B5EC77
:101450000FF019C0B4F01AC0B5F01BC0B6F01CC034
:10146000B7F0F5EF0AF0B0C001F0B1C002F0B2C0C1
:1014700003F0B3C004F0BCC005F0BDC006F0BEC0B0
:1014800007F0BFC008F0D6EC1AF0D8A04AEF0AF077
:101490004CEF0AF094EF0AF0B8C015F0B9C016F09E
:1014A000BAC017F0BBC018F0C0C011F0C1C012F034
:1014B000C2C013F0C3C014F09FEC1FF011C019F0AC
:1014C00012C01AF013C01BF014C01CF0ACC01DF009
:1014D000ADC01EF0AEC01FF0AFC020F0B5EC0FF0F5
:1014E00019C0B4F01AC0B5F01BC0B6F01CC0B7F0FC
:1014F000B4C001F0B5C002F0B6C003F0B7C004F04C
:10150000000E056E000E066E000E076E400E086E91
:1015100040EC0BF001C0B4F002C0B5F003C0B6F06F
:1015200004C0B7F0F5EF0AF0B0C001F0B1C002F0AE
:10153000B2C003F0B3C004F0C0C005F0C1C006F0F3
:10154000C2C007F0C3C008F0D6EC1AF0D8A0ABEFC9
:101550000AF0ADEF0AF0F5EF0AF0BCC015F0BDC01F
:1015600016F0BEC017F0BFC018F0B8C011F0B9C077
:1015700012F0BAC013F0BBC014F09FEC1FF011C002
:1015800019F012C01AF013C01BF014C01CF0ACC04C
:101590001DF0ADC01EF0AEC01FF0AFC020F0B5EC26
:1015A0000FF019C0B4F01AC0B5F01BC0B6F01CC0E3
:1015B000B7F0B4C001F0B5C002F0B6C003F0B7C0D8
:1015C00004F0000E056E000E066E800E076E400ED3
:1015D000086E40EC0BF001C0B4F002C0B5F003C0DF
:1015E000B6F004C0B7F0F5EF0AF0B4C001F0B5C032
:1015F00002F0B6C003F0B7C004F0000E056E000E96
:10160000066E700E076E420E086EA0EC0DF001C063
:10161000B4F002C0B5F003C0B6F004C0B7F00001EA
:10162000B7BF17EF0BF015EF0BF031EF0BF0B4C0B5
:1016300001F0B5C002F0B6C003F0B7C004F0000E70
:10164000056E000E066EB40E076E430E086E40EC7B
:101650000BF001C0B4F002C0B5F003C0B6F004C096
:10166000B7F0B4C001F0B5C002F0B6C003F0B7C027
:1016700004F07CEC17F001C044F002C045F0120009
:101680000450800B0D6E045004240F6E03AE4BEF1C
:101690000BF04DEF0BF04EEF0BF00F800F50D8B466
:1016A00054EF0BF056EF0BF06BEF0BF00F28D8A4B4
:1016B0005CEF0BF05EEF0BF066EF0BF0000E016ECF
:1016C000000E026E000E036E000E046E038E000EFE
:1016D000046E73EF0BF0000E016E000E026E000E32
:1016E000036E000E046E0850800B0E6E0D500E1827
:1016F000D8B47DEF0BF07FEF0BF080EF0BF00D8C8B
:10170000085008240E6E07AE88EF0BF08AEF0BF03E
:101710008BEF0BF00E800E50D8B491EF0BF093EFDF
:101720000BF0A8EF0BF00E28D8A499EF0BF09BEF6D
:101730000BF0A3EF0BF0000E056E000E066E000E10
:10174000076E000E086E078E000E086EB0EF0BF0ED
:10175000000E056E000E066E000E076E000E086E7F
:101760000F500E5CD8B0B7EF0BF0B9EF0BF0E0EF15
:101770000BF00DACBEEF0BF0C0EF0BF0C2EF0BF0B7
:10178000800E0D1A0FC010F00EC00FF010C00EF03A
:1017900001C010F005C001F010C005F002C010F04B
:1017A00006C002F010C006F003C010F007C003F03E
:1017B00010C007F004C010F008C004F010C008F01A
:1017C000000E106E0F500EC009F00A6A095E000E7E
:1017D0000A5A0ABEF5EF0BF00A5009E11A0E095C2D
:1017E000D8A0F5EF0BF0F7EF0BF02EEF0CF0015057
:1017F000021003100410D8A400EF0CF003EF0CF05B
:10180000010E04EF0CF0000E106E000E016E000EC3
:10181000026E000E036E000E046E0EC00FF037EF66
:101820000CF010A016EF0CF018EF0CF01EEF0CF0FF
:10183000D89010300109106E20EF0CF0D8901032C3
:1018400001A025EF0CF027EF0CF028EF0CF0108E24
:10185000043404320332023201320F2A0E500F5C7C
:10186000D8A035EF0CF037EF0CF011EF0CF00DBCF9
:101870003CEF0CF03EEF0CF07EEF0CF00F50D8A4D4
:1018800044EF0CF046EF0CF050EF0CF0000E016E40
:10189000000E026E000E036E000E046E9FEF0DF040
:1018A0000550012606500222075003220850042248
:1018B00004A05DEF0CF05FEF0CF00BEF0DF010A04B
:1018C00064EF0CF066EF0CF06CEF0CF0D890103079
:1018D0000109106E6EEF0CF0D890103201A073EF7A
:1018E0000CF075EF0CF076EF0CF0108E043404322F
:1018F0000332023201320F2A0BEF0DF00550015C6A
:1019000006500258075003580450800A096E0850C8
:10191000800A0958D8B08FEF0CF091EF0CF0BCEFB3
:101920000CF00150055C096E025006580A6E035017
:1019300007580B6E045008580C6EFF0E0924016EF8
:10194000FF0E0A20026EFF0E0B20036EFF0E0C200E
:10195000046E800E0D1A106C1050D8A4B2EF0CF06B
:10196000B4EF0CF0C4EF0CF0010E0126000E0222C1
:1019700003220422C4EF0CF00550015E0650025A07
:101980000750035A0850045A015002100310041063
:10199000D8A4CDEF0CF0CFEF0CF004EF0DF0105009
:1019A000D8A4D5EF0CF0D7EF0CF004EF0DF0000E3B
:1019B000016E000E026E000E036E000E046E9FEFAD
:1019C0000DF0D890013602360336043610AEEBEF38
:1019D0000CF0EDEF0CF0EEEF0CF0018010A0F3EF47
:1019E0000CF0F5EF0CF0F9EF0CF0D8801036FBEFAF
:1019F0000CF0D89010360F50D8B401EF0DF003EF73
:101A00000DF004EF0DF00F0603AE09EF0DF00BEF34
:101A10000DF0E1EF0CF0000E0E6E10AE12EF0DF0B7
:101A200014EF0DF02CEF0DF010C009F07F0E091629
:101A3000D8B41DEF0DF01FEF0DF023EF0DF0010EE8
:101A40000E6E2CEF0DF001A028EF0DF02AEF0DF037
:101A50002CEF0DF01FEF0DF00E50D8B432EF0DF05B
:101A600034EF0DF05FEF0DF0010E0126000E0222A3
:101A70000322042204A03FEF0DF041EF0DF05FEFD1
:101A80000DF001C009F002C00AF003C00BF004C061
:101A90000CF00C340C320B320A32093209C001F05E
:101AA0000AC002F00BC003F00CC004F00F28D8B439
:101AB0005CEF0DF05EEF0DF05FEF0DF00F2A0F28D9
:101AC000D8B465EF0DF067EF0DF06FEF0DF00F502C
:101AD000D8A46DEF0DF06FEF0DF081EF0DF0000E5B
:101AE000016E000E026E000E036E000E046E0F50AB
:101AF000D8A47DEF0DF07FEF0DF081EF0DF0000E1B
:101B00000D6E0FA086EF0DF088EF0DF08BEF0DF04E
:101B1000038E8CEF0DF0039ED8900F30046E0DAE47
:101B200094EF0DF096EF0DF097EF0DF0048E01C0DD
:101B300001F002C002F003C003F004C004F0120080
:101B40000450800B0D6E04500424136E03AEABEFF3
:101B50000DF0ADEF0DF0AEEF0DF013801350D8B4D3
:101B6000B4EF0DF0B6EF0DF0C9EF0DF01328D8A4C7
:101B7000BCEF0DF0BEEF0DF0C6EF0DF0000E016EE4
:101B8000000E026E000E036E000E046E038ED1EF87
:101B90000DF0000E016E000E026E000E036E000EC0
:101BA000046E0850800B0D1A08500824126E07AE00
:101BB000DCEF0DF0DEEF0DF0DFEF0DF012801250D4
:101BC000D8B4E5EF0DF0E7EF0DF0FAEF0DF01228C5
:101BD000D8A4EDEF0DF0EFEF0DF0F7EF0DF0000EE4
:101BE000056E000E066E000E076E000E086E078E64
:101BF00002EF0EF0000E056E000E066E000E076E70
:101C0000000E086E1250D8B408EF0EF00AEF0EF076
:101C100012EF0EF01350D8A410EF0EF012EF0EF0EA
:101C20001CEF0EF0000E016E000E026E000E036E31
:101C3000000E046EB4EF0FF007500102F3CF18F05E
:101C4000F4CF19F018500E6E0F6A106A116A19500D
:101C5000146E156A166A176A06500202F3CF18F05E
:101C6000F4CF19F018500E26000E0F221022112268
:101C700019501426000E15221622172205500302B1
:101C8000F3CF18F0F4CF19F018500E26000E0F22E3
:101C90001022112219501426000E15221622172286
:101CA00010C011F00FC010F00EC00FF00E6A0550FA
:101CB0000202F3CF18F0F4CF19F018500E26195085
:101CC0000F22000E1022000E112206500102F3CF47
:101CD00018F0F4CF19F018500E2619500F22000EEC
:101CE0001022000E112210C011F00FC010F00EC013
:101CF0000FF00E6A05500102F3CF18F0F4CF19F07F
:101D000018500E2619500F22000E1022000E11221C
:101D100007500202F3CF18F0F4CF19F01850142630
:101D200019501522000E1622000E1722065003022B
:101D3000F3CF18F0F4CF19F01850142619501522CB
:101D4000000E1622000E172207500302F3CF18F0E0
:101D5000F4CF19F01850096E19500A6E0B6A0C6A0C
:101D60000BC00CF00AC00BF009C00AF0096A095058
:101D700014260A5015220B5016220C5017220EC0A2
:101D800009F00FC00AF010C00BF011C00CF0190ED2
:101D9000CFEF0EF0D8900C320B320A320932E82E17
:101DA000CAEF0EF0095014260A5015220B501622C5
:101DB0000C50172210C011F00FC010F00EC00FF021
:101DC0000E6A125013C009F00A6A0926000E0A2290
:101DD000820E0924186EFF0E0A20196E05EF0FF00F
:101DE000D890143615361636173611AEFAEF0EF0B7
:101DF000FCEF0EF0FDEF0EF01480D8900E360F368B
:101E0000103611361806D8A0190616AE0AEF0FF0D4
:101E10000CEF0FF0F0EF0EF0000E126E11AE13EF9C
:101E20000FF015EF0FF039EF0FF0FF0E0E14096EE3
:101E3000FF0E0F140A6EFF0E10140B6E7F0E11149E
:101E40000C6E09500A100B100C10D8B42AEF0FF0CA
:101E50002CEF0FF030EF0FF0010E126E39EF0FF094
:101E600014A035EF0FF037EF0FF039EF0FF02CEF34
:101E70000FF01250D8B43FEF0FF041EF0FF065EFC5
:101E80000FF0010E1426000E15221622172217A09D
:101E90004CEF0FF04EEF0FF065EF0FF014C009F0AC
:101EA00015C00AF016C00BF017C00CF00C340C3241
:101EB0000B320A32093209C014F00AC015F00BC007
:101EC00016F00CC017F0184A192A19BE70EF0FF05F
:101ED000195008E11828D8A070EF0FF072EF0FF03A
:101EE0007CEF0FF0000E146E000E156E800E166E55
:101EF0007F0E176EAAEF0FF019BE89EF0FF0195081
:101F000006E11804D8B087EF0FF089EF0FF095EFD6
:101F10000FF0000E146E000E156E000E166E000E01
:101F2000176E000E0D6EAAEF0FF018C013F0FF0E23
:101F30001416FF0E15167F0E1616000E171613A098
:101F4000A4EF0FF0A6EF0FF0A7EF0FF0168ED890CA
:101F50001330176E0D50171214C001F015C002F0A7
:101F600016C003F017C004F012001C50800B296E3D
:101F70001C501C24306E1BAEC0EF0FF0C2EF0FF0F0
:101F8000C3EF0FF030803050D8B4C9EF0FF0CBEF73
:101F90000FF0E0EF0FF03028D8A4D1EF0FF0D3EF1F
:101FA0000FF0DBEF0FF0000E196E000E1A6E000E30
:101FB0001B6E000E1C6E1B8E000E1C6EE8EF0FF0E9
:101FC000000E196E000E1A6E000E1B6E000E1C6EB7
:101FD0002050800B291A20502024316E1FAEF3EFC1
:101FE0000FF0F5EF0FF0F6EF0FF031803150D8B46D
:101FF000FCEF0FF0FEEF0FF013EF10F03128D8A434
:1020000004EF10F006EF10F00EEF10F0000E1D6E52
:10201000000E1E6E000E1F6E000E206E1F8E000E34
:10202000206E1BEF10F0000E1D6E000E1E6E000ED7
:102030001F6E000E206E1D501E101F102010D8A401
:1020400024EF10F026EF10F03EEF10F0000E196EA6
:10205000000E1A6E000E1B6E000E1C6E800E1B1200
:102060007F0E1C1229501C1219C019F01AC01AF048
:102070001BC01BF01CC01CF081EF11F03050D8A425
:1020800044EF10F046EF10F050EF10F0000E196E14
:10209000000E1A6E000E1B6E000E1C6E81EF11F00A
:1020A000315030C021F0226A215E000E225A7F0E8C
:1020B00021242A6E000E22202B6E19C025F01AC092
:1020C00026F01BC027F01CC028F0000E196E000E71
:1020D0001A6E000E1B6E000E1C6E000E2C6E000E93
:1020E0002D6E000E2E6E000E2F6E000E316EB1EFB3
:1020F00010F03150D8B47FEF10F081EF10F098EF6E
:1021000010F0D8902536263627362836D89019363E
:102110001A361B361C362FAE90EF10F092EF10F0EF
:1021200093EF10F01980D8902C362D362E362F369E
:102130001D50255C1E5026581F50275820502858E7
:10214000D8A0A5EF10F0A7EF10F0B0EF10F02F8C93
:102150001D50255E1E50265A1F50275A2050285ABF
:10216000312A190E3164B7EF10F0B9EF10F079EFA2
:1021700010F02550261027102810D8B4C2EF10F008
:10218000C4EF10F0DCEF10F02C80DCEF10F0D890F2
:1021900019361A361B361C362FAED1EF10F0D3EF9E
:1021A00010F0D4EF10F01980D8902C362D362E3642
:1021B0002F362A06D8A02B061BAEE1EF10F0E3EF76
:1021C00010F0C7EF10F0000E316E2FAEEAEF10F0F6
:1021D000ECEF10F010EF11F0FF0E2C14216EFF0E3B
:1021E0002D14226EFF0E2E14236E7F0E2F14246EDC
:1021F0002150221023102410D8B401EF11F003EF66
:1022000011F007EF11F0010E316E10EF11F019A06F
:102210000CEF11F00EEF11F010EF11F003EF11F0D1
:102220003150D8B416EF11F018EF11F03CEF11F067
:10223000010E1926000E1A221B221C221CA023EFBD
:1022400011F025EF11F03CEF11F019C021F01AC088
:1022500022F01BC023F01CC024F02434243223328B
:102260002232213221C019F022C01AF023C01BF003
:1022700024C01CF02A4A2B2A2BBE47EF11F02B500A
:1022800008E12A28D8A047EF11F049EF11F054EFE8
:1022900011F0000E2B6E2A68000E196E000E1A6ED9
:1022A000000E1B6E000E1C6E2BBE61EF11F02B504A
:1022B00006E12A04D8B05FEF11F061EF11F06FEF83
:1022C00011F0000E2B6E000E2A6E000E196E000E1D
:1022D0001A6E000E1B6E000E1C6E000E296E2AC0B8
:1022E00030F030A076EF11F078EF11F07BEF11F0C5
:1022F0001B8E7CEF11F01B9ED89030301C6E32EF9D
:1023000010F01200D0EC21F040EC20F0C1EC21F0F4
:10231000000E026E630E016EC9EC1BF0000E000190
:10232000E66F010EE76F010EE86F000EEA6F630EB5
:10233000E96FAA0EEB6F0F0EEC6FA60EED6F0F0E8E
:10234000EE6F000EDD6F010EDE6F010EDF6F000E0F
:10235000E16F630EE06F250EE26F0F0EE36F210E4B
:10236000E46F0F0EE56F7C9E849E87907F90859E24
:102370007D9E8196799686860E01B497000E0001A7
:10238000D76F000ED66F88968086190E0001C56F34
:102390005A0EC46FB10EE82EFED7C42FFCD7C52F3E
:1023A000FAD700D080967E9486840E01B495F70EFD
:1023B000446EADEC12F07F807D8E7986E60E136E52
:1023C000DD0E146ED6EC1CF0D58E0DEC1EF005C0A3
:1023D000F5F006C0F6F0F5C001F0F6C002F0036AB1
:1023E000046A000E7AEC14F001C0C6F002C0C7F017
:1023F00003C0C8F004C0C9F0FDC001F0FEC002F087
:10240000036A046A000E7AEC14F001C0CAF002C03C
:10241000CBF003C0CCF004C0CDF0C6C019F0C7C0EB
:102420001AF0C8C01BF0C9C01CF0CAC01DF0CBC058
:102430001EF0CCC01FF0CDC020F0B5EC0FF019C0DD
:10244000D2F01AC0D3F01BC0D4F01CC0D5F09A0E45
:10245000016E990E026E190E036E3E0E046ED2C00E
:1024600005F0D3C006F0D4C007F0D5C008F0FFECEB
:1024700017F0D8B03EEF12F040EF12F0DBEF11F0A2
:10248000E60E136EDD0E146E11EC1CF091EC21F0D3
:1024900001C0D0F002C0D1F0D59ED0C007F0D1C0AD
:1024A00008F0D6C009F0D7C00AF0460E88EC1DF03F
:1024B000E60E136EDD0E146ED6EC1CF0110E00014C
:1024C000C56F3C0EC46FCB0EE82EFED7C42FFCD7D1
:1024D000C52FFAD7E60E136EDD0E146E11EC1CF04C
:1024E000000E016E000E026E400E036E3F0E046E73
:1024F000D2C005F0D3C006F0D4C007F0D5C008F0B4
:10250000FFEC17F0D8B087EF12F089EF12F097EFD9
:1025100012F0E60E1F6EDD0E206E000E216E020E12
:10252000226ED6C023F0D7C024F080EC1AF0EF0E54
:10253000486E81EC18F048C0CEF049C0CFF0CEC054
:1025400022F0CFC023F0D6C024F0D7C025F096ECFF
:1025500013F0DBEF11F000EF00F07F907D9E799695
:10256000470E316E730E326EB70E336E3350D8A4F1
:102570000E0E346E5AEC20F0470E026E24EC21F061
:102580008EB4C5EF12F0C7EF12F0C0EF12F07F80EB
:10259000290E466E960E456E7F0EE82EFED7452E0E
:1025A000FCD7462EFAD70000BDEC1DF04450D96E82
:1025B000DA6A05C0DEFF06C0DDFF7F90470E316E90
:1025C000220E326EB70E336E3350D8A40E0E346E18
:1025D0005AEC20F0470E026E24EC21F08EB4F3EF9B
:1025E00012F0F5EF12F0EEEF12F07D8E290E466E2E
:1025F000960E456E7F0EE82EFED7452EFCD7462E52
:10260000FAD70000E5EC1DF04450D96EDA6A020EEC
:10261000D92605C0DEFF06C0DDFF7D9E470E316E68
:102620003F0E326EB70E336E3350D8A40E0E346E9A
:102630005AEC20F0470E026E24EC21F08EB423EF0A
:1026400013F025EF13F01EEF13F07986290E466E76
:10265000960E456E7F0EE82EFED7452EFCD7462EF1
:10266000FAD7000035EC1EF04450D96EDA6A040E39
:10267000D92605C0DEFF06C0DDFF7996470E316E14
:10268000010E326EB70E336E3350D8A40E0E346E78
:102690005AEC20F0470E026E24EC21F08EB453EF7A
:1026A00013F055EF13F04EEF13F07F807D8E798697
:1026B000290E466E960E456E7F0EE82EFED7452EED
:1026C000FCD7462EFAD700000DEC1EF04450D96E10
:1026D000DA6A060ED92605C0DEFF06C0DDFF7F9050
:1026E0007D9E7996470E316E5A0E326EB70E336E5E
:1026F0003350D8A40E0E346E5AEC20F0470E026E02
:1027000024EC21F08EB487EF13F089EF13F082EF01
:1027100013F0290E466E960E456E7F0EE82EFED7FC
:10272000452EFCD7462EFAD700001200235007E1B1
:102730000B0E225CD8B09FEF13F0A1EF13F0ADEFBA
:1027400013F0E60E1C6EDD0E1D6E24C01EF025C0BB
:102750001FF081EC1EF079EF14F0235009E1690EAF
:10276000225CD8A0B6EF13F0B8EF13F0CFEF13F060
:10277000235007E1830E225CD8B0C1EF13F0C3EF02
:1027800013F0CFEF13F0E60E1C6EDD0E1D6E24C0AD
:102790001EF025C01FF011EC1FF079EF14F023504C
:1027A00009E1E60E225CD8A0D8EF13F0DAEF13F0BF
:1027B000F1EF13F0235007E1F10E225CD8B0E3EF04
:1027C00013F0E5EF13F0F1EF13F0E60E1C6EDD0EE3
:1027D0001D6E24C01EF025C01FF035EC1FF079EFF0
:1027E00014F0235009E1D80E225CD8A0FAEF13F0C0
:1027F000FCEF13F013EF14F0235007E1DE0E225C20
:10280000D8B005EF14F007EF14F013EF14F0E60E54
:102810001C6EDD0E1D6E24C01EF025C01FF0EDECF9
:102820001EF079EF14F02E0E225C010E2358D8A072
:102830001CEF14F01EEF14F035EF14F05B0E225C69
:10284000010E2358D8B027EF14F029EF14F035EF1C
:1028500014F0E60E1C6EDD0E1D6E24C01EF025C0A9
:102860001FF05DEC1EF079EF14F0235009E10F0E1C
:10287000225CD8A03EEF14F040EF14F057EF14F0B4
:10288000235007E1240E225CD8B049EF14F04BEF3F
:1028900014F057EF14F0E60E1C6EDD0E1D6E24C012
:1028A0001EF025C01FF0C9EC1EF079EF14F0235084
:1028B00009E1F40E225CD8A060EF14F062EF14F08E
:1028C00079EF14F0235007E1FC0E225CD8B06BEFD7
:1028D00014F06DEF14F079EF14F0E60E1C6EDD0EBF
:1028E0001D6E24C01EF025C01FF0A5EC1EF079EF70
:1028F00014F01200096E0950D8B481EF14F083EF80
:1029000014F0A5EF14F004BE8AEF14F088EF14F071
:10291000A5EF14F001C005F002C006F003C007F0F7
:1029200004C008F0051E061E071E081E052A000E1C
:1029300006220722082205C00BF006C00CF007C0D3
:102940000DF008C00EF0ADEF14F001C00BF002C0A6
:102950000CF003C00DF004C00EF001500210031083
:102960000410D8A4B6EF14F0B8EF14F0C2EF14F0CE
:10297000000E016E000E026E000E036E000E046E5D
:1029800053EF15F0960E0A6ECCEF14F00A2AD89089
:102990000E320D320C320B32000E0B14056E000E8F
:1029A0000C14066E000E0D14076EFE0E0E14086E4B
:1029B0000550061007100810D8A4E1EF14F0E3EF5B
:1029C00014F0C6EF14F0F1EF14F00A2A010E0B26F2
:1029D000000E0C220D220E22D8900E320D320C3237
:1029E0000B32000E0B14056E000E0C14066E000E5A
:1029F0000D14076EFF0E0E14086E0550061007101A
:102A00000810D8A406EF15F008EF15F0E5EF14F064
:102A100010EF15F00A06D8900B360C360D360E3630
:102A20000DBE15EF15F017EF15F01FEF15F0020EA4
:102A30000A601DEF15F01FEF15F00AEF15F00AB050
:102A400024EF15F026EF15F027EF15F00D9ED89026
:102A50000A320AC005F0066A076A086A05C008F06B
:102A6000076A066A056A05500B1206500C120750D9
:102A70000D1208500E120950D8B441EF15F043EF73
:102A800015F04BEF15F004BE4AEF15F048EF15F0C6
:102A90004BEF15F00E8E0BC001F00CC002F00DC014
:102AA00003F00EC004F012002350D96EDA6ADFCFB3
:102AB000F6FF0E0EF76E000EF86E0800F550250AB0
:102AC000D8A465EF15F067EF15F003EF16F023506B
:102AD000D96EDA6ADF2A000E0001D96F000ED86FB6
:102AE000D8C05BF0DA69DB69000E2B6E9EEF15F043
:102AF0005B822350D96EDA6ADF2A9EEF15F0010E51
:102B00002B6E9EEF15F02350D96EDA6ADFCFF6FFF9
:102B10000E0EF76E000EF86E0800F550256E266A50
:102B20002650000AD8B497EF15F07FEF15F0255026
:102B3000300AD8B478EF15F07FEF15F02B50D8B4E9
:102B4000A4EF15F0A6EF15F083EF15F023C007F002
:102B500024C008F029EC1AF007C0D8F008C0D9F05A
:102B60000001D9BFB8EF15F0B6EF15F0BDEF15F0C5
:102B70005B80D86DD91FD8B0D92B2350D96EDA6AB3
:102B8000DF502C6E2CC0F6FF0E0EF76E000EF86EA6
:102B90000800F550640AD8B4D0EF15F0D2EF15F064
:102BA000E2EF15F02CC0F6FF0E0EF76E000EF86E79
:102BB0000800F550690AD8A4E0EF15F0E2EF15F02F
:102BC000FDEF15F02450D96EDA6A020EDF26DF5CC5
:102BD000D96EDA6ADECF27F0DECF28F02350D96E27
:102BE000DA6A2C28DF6E22C017F027C018F028C040
:102BF00019F017EC16F016EF16F02350D96EDA6ABA
:102C0000DF2A16EF16F02350D96EDA6ADFCFF6FF0F
:102C10000E0EF76E000EF86E0800F550016E026A97
:102C200022C003F02BEC1BF0FDEF15F01200010E9B
:102C30001C6E19BE1EEF16F021EF16F0010E22EFEA
:102C400016F0000E1F6ED8C01DF0D9C01EF01F5028
:102C5000D8B42DEF16F02FEF16F046EF16F01D0644
:102C6000D8A01E061F50D8A438EF16F03AEF16F081
:102C700040EF16F0000E1B6E2B0E1A6E44EF16F08E
:102C8000000E1B6E2D0E1A6E1AC01FF0000E216E64
:102C90001F0E206E000E01018B6F7EEF16F02006D6
:102CA000D8A021066C0E2024D96E010E2120DA6EE8
:102CB00018C001F019C002F0000E046E0A0E036E77
:102CC000D1EC19F001C007F002C008F074EC20F05C
:102CD0000750300FDF6E000E1C6E1D06D8A01E06BA
:102CE00018C001F019C002F0000E046E0A0E036E47
:102CF0006FEC19F001C018F002C019F021BE89EF85
:102D000016F0215008E12004D8A089EF16F08BEFCF
:102D100016F0B0EF16F018501910D8A492EF16F074
:102D200094EF16F04FEF16F01C50D8A49AEF16F05F
:102D30009CEF16F04FEF16F01EBEA7EF16F01E50D8
:102D400008E11D04D8A0A7EF16F0A9EF16F0B0EF28
:102D500016F05BB2AEEF16F0B0EF16F04FEF16F0D4
:102D60001F50D8B4B6EF16F0B8EF16F0C3EF16F058
:102D70002006D8A021066C0E2024D96E010E212039
:102D8000DA6E1FC0DFFF17C00FF06C0E2024106E2C
:102D9000010E2120116E1DC012F01EC013F080EC38
:102DA0001BF012000E50D96EDA6A020ED926DF50DF
:102DB000D8B4DDEF16F0DFEF16F00FEF17F00E507E
:102DC000D96EDA6ADF500F6E0F50016E026A0E5034
:102DD000D96EDA6A030ED926DECF03F0DDCF04F018
:102DE0007EEC21F001C007F002C008F0000E0A6E70
:102DF000640E096E4EEC1DF00E50D96EDA6A030EA9
:102E0000D926DF50106E0750105C116E0E50D96E2F
:102E1000DA6A030ED926DF50126E30EF17F0000E7B
:102E2000116E0E50D96EDA6ADF500F6E0F50016EC0
:102E3000026A0E50D96EDA6A030ED926DECF03F08D
:102E4000DDCF04F07EEC21F001C007F002C008F0F5
:102E5000000E0A6E640E096E4EEC1DF00750126EE5
:102E60000E50D96EDA6A010ED926DF50D8B43BEF86
:102E700017F03DEF17F05DEF17F00E50D96EDA6ADC
:102E8000050ED926DECF0FF0DDCF10F00FC0D9FF31
:102E900010C0DAFF11C0DFFF0E50D96EDA6A070EDC
:102EA000D926DECF0FF0DDCF10F00FC0D9FF10C054
:102EB000DAFF12C0DFFF7BEF17F00E50D96EDA6A2F
:102EC000050ED926DECF0FF0DDCF10F00FC0D9FFF1
:102ED00010C0DAFF12C0DFFF0E50D96EDA6A070E9B
:102EE000D926DECF0FF0DDCF10F00FC0D9FF10C014
:102EF000DAFF11C0DFFF1200033404340A6E0A50F7
:102F0000D8A485EF17F087EF17F091EF17F0000EB8
:102F1000016E000E026E000E036E000E046EFEEFD8
:102F200017F001C005F002C006F003C007F004C0AE
:102F300008F0200EA1EF17F0D890083207320632C1
:102F40000532E82E9CEF17F00550096E038EFF0E38
:102F50000116FF0E0216FF0E0316000E0416960E43
:102F60000A5E0ABEB8EF17F0B6EF17F0CEEF17F013
:102F70000A50800A970FD8B0C0EF17F0C2EF17F0D1
:102F8000C4EF17F087EF17F0D89004320332023203
:102F900001320A3EC4EF17F0E6EF17F01F0E0A6485
:102FA000D4EF17F0D6EF17F0DEEF17F087EF17F03A
:102FB000D89001360236033604360A060A50D8A4E1
:102FC000E4EF17F0E6EF17F0D8EF17F00950D8B498
:102FD000ECEF17F0EEEF17F0F6EF17F0041E031EFC
:102FE000021E016C000E02220322042201C001F025
:102FF00002C002F003C003F004C004F01200000E8F
:103000000114096E000E02140A6E800E03140B6E7A
:103010007F0E04140C6E09500A100B100C10D8A46B
:1030200014EF18F016EF18F01EEF18F0000E016EF6
:10303000000E026E000E036E000E046E000E0514EC
:10304000096E000E06140A6E800E07140B6E7F0EBA
:1030500008140C6E09500A100B100C10D8A433EF92
:1030600018F035EF18F03DEF18F0000E056E000E69
:10307000066E000E076E000E086E04AE42EF18F0EA
:1030800044EF18F04DEF18F0016C021ED8B0022A80
:10309000031ED8B0032A800E045608AE52EF18F073
:1030A00054EF18F05DEF18F0056C061ED8B0062A34
:1030B000071ED8B0072A800E0856000E011A000E0F
:1030C000021A000E031A800E041A000E051A000ED2
:1030D000061A000E071A800E081A0550015C0650E9
:1030E00002580750035808500458D8B07AEF18F027
:1030F0007CEF18F07FEF18F0D89080EF18F0D880B0
:1031000012007F807D9E7996290E4B6E960E4A6E38
:103110007F0EE82EFED74A2EFCD74B2EFAD70000A2
:10312000BDEC1DF04850D96EDA6A05C0DEFF06C05E
:10313000DDFF7F907D8E7996290E4B6E960E4A6E3E
:103140007F0EE82EFED74A2EFCD74B2EFAD7000072
:10315000E5EC1DF04850D96EDA6A020ED92605C09A
:10316000DEFF06C0DDFF7F907D9E7986290E4B6EC7
:10317000960E4A6E7F0EE82EFED74A2EFCD74B2EB7
:10318000FAD7000035EC1EF04850D96EDA6A040E0A
:10319000D92605C0DEFF06C0DDFF7F807D8E7986E3
:1031A000290E4B6E960E4A6E7F0EE82EFED74A2EE3
:1031B000FCD74B2EFAD700000DEC1EF04850D96E0C
:1031C000DA6A060ED92605C0DEFF06C0DDFFF70E5F
:1031D000446EEF0E456E5DEC07F044C04CF045C008
:1031E0004DF04CC044F04DC045F0B2EC21F04CC065
:1031F00048F04DC049F012001BBE0AEF19F0E80E6E
:103200001A5C030E1B58D8B008EF19F00AEF19F03A
:103210001CEF19F01BBE16EF19F0210E1A5C030EFD
:103220001B58D8A016EF19F018EF19F01CEF19F081
:103230000B0E1D6EB80E1C6E1BBE2AEF19F0200E71
:103240001A5C030E1B58D8B028EF19F02AEF19F0BA
:103250003CEF19F01BBE36EF19F0590E1A5C020E46
:103260001B58D8A036EF19F038EF19F03CEF19F0E1
:10327000070E1D6ED00E1C6E1BBE4AEF19F0580EC5
:103280001A5C020E1B58D8B048EF19F04AEF19F03B
:103290005CEF19F01BBE56EF19F0910E1A5C010E8F
:1032A0001B58D8A056EF19F058EF19F05CEF19F041
:1032B000030E1D6EE80E1C6E18C013F019C014F03A
:1032C000D6EC1CF01CC001F01DC002F024EC20F074
:1032D00018C013F019C014F011EC1CF01200000E0D
:1032E000066E04BE78EF19F076EF19F07EEF19F054
:1032F000036C041ED8B0042A010E066E02BE85EFD0
:1033000019F083EF19F08BEF19F0016C021ED8B0A1
:10331000022A010E061A000E086E000E076E0350F8
:103320000410D8B496EF19F098EF19F0C0EF19F027
:10333000010E056EA0EF19F0D89003360436052A69
:1033400004AEA5EF19F0A7EF19F09CEF19F0D89093
:10335000073608360350015C04500258D8A0B3EF7A
:1033600019F0B5EF19F0BAEF19F00350015E0450EF
:10337000025A0780D89004320332052EA7EF19F0C5
:103380000650D8B4C6EF19F0C8EF19F0CCEF19F019
:10339000076C081ED8B0082A07C001F008C002F068
:1033A0001200000E066E02BEDAEF19F0D8EF19F027
:1033B000E0EF19F0016C021ED8B0022A010E066E71
:1033C00004BEE7EF19F0E5EF19F0EBEF19F0036C2D
:1033D000041ED8B0042A03500410D8B4F2EF19F038
:1033E000F4EF19F018EF1AF0010E056EFCEF19F06A
:1033F000D89003360436052A04AE01EF1AF003EF25
:103400001AF0F8EF19F00350015C04500258D8A0EC
:103410000CEF1AF00EEF1AF012EF1AF00350015EE3
:103420000450025AD89004320332052E03EF1AF0EA
:103430000650D8B41EEF1AF020EF1AF024EF1AF05D
:10344000016C021ED8B0022A01C001F002C002F0D5
:103450001200000E0B6E000E0A6E0750D96EDA6A6B
:10346000DFCFF6FF0E0EF76E000EF86E0800F55077
:103470002A0AD8A43EEF1AF040EF1AF066EF1AF0CD
:103480000750D96EDA6ADF2A0850D96EDA6A020E5E
:10349000DF26DF5CD96EDA6ADECF0AF0DECF0BF012
:1034A0007BEF1AF00AC001F00BC002F0000E046EB0
:1034B0000A0E036E7EEC21F0095001240A6E000E04
:1034C00002200B6E0750D96EDA6ADF2A0750D96ED8
:1034D000DA6ADFCFF6FF0E0EF76E000EF86E080008
:1034E000F550D00F096E090E096479EF1AF07BEFE1
:1034F0001AF052EF1AF00AC007F00BC008F01200E1
:1035000023C02AF024C02BF02BBE8BEF1AF089EFDA
:103510001AF08DEF1AF0D5EF1AF0D8902A34D96E40
:103520002B34DA6E2150D9262250DA22DECF25F054
:10353000DDCF26F025C0D9FF26C0DAFFDF50296E87
:10354000D8902A34D96E2B34DA6E2150D9262250E5
:10355000DA2210EE01F0DE50E126DD50E222E6CF65
:1035600027F0E5CF28F0460E2918D8A4BAEF1AF0B4
:10357000BCEF1AF0C8EF1AF01FC018F020C019F005
:1035800027C01AF028C01BF0FCEC18F0D0EF1AF09E
:103590001FC01CF020C01DF029C01EF07CEC1FF0E5
:1035A0002A06D8A02B0684EF1AF01200000E011490
:1035B000096E000E02140A6E800E03140B6E7F0E4D
:1035C00004140C6E09500A100B100C10D8A4EBEF69
:1035D0001AF0EDEF1AF0F5EF1AF0000E016E000E82
:1035E000026E000E036E000E046E000E0514096ECE
:1035F000000E06140A6E800E07140B6E7F0E081460
:103600000C6E09500A100B100C10D8A40AEF1BF016
:103610000CEF1BF014EF1BF0000E056E000E066E93
:10362000000E076E000E086E055001180FE10650DF
:1036300002180CE10750031809E108500418D8B427
:1036400024EF1BF026EF1BF029EF1BF0D8902AEF98
:103650001BF0D88012000350D8B431EF1BF033EFC9
:103660001BF03BEF1BF00350D8A439EF1BF03BEFEE
:103670001BF040EF1BF00150FEEC21F07FEF1BF040
:103680000350D96EDA6A0A0ED926DE50DE10D8B49D
:103690004CEF1BF04EEF1BF067EF1BF00350D96EA1
:1036A000DA6A0A0ED9260350E16EE26A030EE126B9
:1036B000DE50E65CE650800A086EDE50800A08584C
:1036C000D8B065EF1BF067EF1BF07FEF1BF00350E6
:1036D000D96EDA6A030ED926DF50046E0350D96E14
:1036E000DA6ADF500424D96EDA6A01C0DFFF0350C2
:1036F000D96EDA6A030ED926DE2A000EDD22120008
:103700005BA085EF1BF087EF1BF08FEF1BF010C065
:1037100009F011C00AF00FC00BF004EC20F013BE4A
:1037200096EF1BF094EF1BF09AEF1BF0000E136E58
:10373000000E126E000E166E000E156EAAEF1BF034
:10374000000E026E200E016E0FC003F02BEC1BF07A
:10375000154A162A1250155C1650800A146E135022
:10376000800A1458D8A0B7EF1BF0B9EF1BF0A0EFF8
:103770001BF05BB0BEEF1BF0C0EF1BF0C8EF1BF0FF
:1037800010C009F011C00AF00FC00BF004EC20F0DB
:1037900012008594839E8598879C7D947B9E7D985E
:1037A0007F9C050E0E01746F060E766F070E696F13
:1037B000080E886FBD508F0B4009BD6EE00EBE161F
:1037C000BF50F00B0109BF6E01C0BCFFBD8E000EE3
:1037D000AA6E000EA66E000E0F01256F000E216F5F
:1037E000FC0EAD16F30EAD16CF0EAD163F0EAD1698
:1037F000AB88AB50F00B0C09AB6EAB8EA788A75013
:10380000F00B0C09A76EA78E26892651F00B0C0928
:10381000266F268F22892251F00B0C09226F228FEE
:10382000120041EF1CF01350D96EDA6ADF50D8B4A1
:103830001CEF1CF01EEF1CF022EF1CF01350D96E91
:10384000DA6ADF061450D96EDA6ADF50D8B42BEF8B
:103850001CF02DEF1CF031EF1CF01450D96EDA6A19
:10386000DF0613C00EF0D2EC16F014C00EF0D2EC4E
:1038700016F00B0E156E620EE82EFED7152EFCD735
:1038800000D01350D96EDA6ADF50D8A44AEF1CF08A
:103890004CEF1CF013EF1CF01450D96EDA6ADF50B5
:1038A000D8A455EF1CF057EF1CF013EF1CF01200DA
:1038B0001350D96EDA6A010ED926010EDF6E14504C
:1038C000D96EDA6A010ED926DF6A13C00EF0D2EC87
:1038D00016F014C00EF0D2EC16F0000E176E000EAB
:1038E000166E1350D96EDA6ADF2A1450D96EDA6A6E
:1038F000DF2A13C00EF0D2EC16F014C00EF0D2EC9A
:1039000016F00B0E156E620EE82EFED7152EFCD7A4
:1039100000D0164A172A175009E1320E165CD8A0BB
:1039200094EF1CF096EF1CF071EF1CF01200135096
:10393000D96EDA6A010ED926DF6A1450D96EDA6AB6
:10394000010ED926010EDF6E13C00EF0D2EC16F078
:1039500014C00EF0D2EC16F0000E176E000E166EAC
:103960001350D96EDA6ADF2A1450D96EDA6ADF2A68
:1039700013C00EF0D2EC16F014C00EF0D2EC16F01C
:103980000B0E156E620EE82EFED7152EFCD700D05A
:10399000164A172A175009E1320E165CD8A0D3EF49
:1039A0001CF0D5EF1CF0B0EF1CF012001350D96ED4
:1039B000DA6A010ED926010EDF6E1450D96EDA6A6A
:1039C000010ED926010EDF6E000E176E000E166E68
:1039D0001350D96EDA6A16C0DFFF1450D96EDA6A56
:1039E00016C0DFFF13C00EF0D2EC16F014C00EF0BC
:1039F000D2EC16F00B0E156E620EE82EFED7152EC9
:103A0000FCD700D0164A172A17BE10EF1DF017502A
:103A100009E1330E165CD8A010EF1DF012EF1DF077
:103A2000E8EF1CF012001350D96EDA6A010ED926A5
:103A3000DF6A1450D96EDA6A010ED926DF6A000EE9
:103A4000176E000E166E1350D96EDA6A16C0DFFFBD
:103A50001450D96EDA6A16C0DFFF13C00EF0D2EC34
:103A600016F014C00EF0D2EC16F00B0E156E620EAE
:103A7000E82EFED7152EFCD700D0164A172A17BEFF
:103A80004BEF1DF0175009E1330E165CD8A04BEF39
:103A90001DF04DEF1DF023EF1DF01200000E0C6E17
:103AA000000E0B6E09500A10D8B459EF1DF05BEFF1
:103AB0001DF083EF1DF0010E0D6E63EF1DF0D89029
:103AC00009360A360D2A0AAE68EF1DF06AEF1DF0BE
:103AD0005FEF1DF0D8900B360C360950075C0A508A
:103AE0000858D8A076EF1DF078EF1DF07DEF1DF09F
:103AF0000950075E0A50085A0B80D8900A320932E2
:103B00000D2E6AEF1DF00BC007F00CC008F012007C
:103B10000B6E0A5007E1320E095CD8B092EF1DF02F
:103B200094EF1DF0BCEF1DF009C001F00AC002F0D7
:103B3000000E046E030E036E7EEC21F0000E0124D5
:103B4000D96E020E0220DA6E0BC0DFFF09C001F051
:103B50000AC002F0000E046E030E036E7EEC21F02C
:103B6000010E0124D96E020E0220DA6E07C0DEFFBC
:103B700008C0DDFF094A0A2A1200F4EC21F0520EB7
:103B8000E9EC21F0B60EE9EC21F0F9EC21F0530E4E
:103B9000E9EC21F0010EE3EC1FF0076E07500A6E0E
:103BA0000B6A000EE3EC1FF0076E0750096E086AFF
:103BB0000A5008100A6E0B5009100B6EEFEC21F042
:103BC0000AC005F00BC006F01200F4EC21F0520E12
:103BD000E9EC21F0B80EE9EC21F0F9EC21F0530EFC
:103BE000E9EC21F0010EE3EC1FF0076E07500A6EBE
:103BF0000B6A000EE3EC1FF0076E0750096E086AAF
:103C00000A5008100A6E0B5009100B6EEFEC21F0F1
:103C10000AC005F00BC006F01200F4EC21F0520EC1
:103C2000E9EC21F0B40EE9EC21F0F9EC21F0530EAF
:103C3000E9EC21F0010EE3EC1FF0076E07500A6E6D
:103C40000B6A000EE3EC1FF0076E0750096E086A5E
:103C50000A5008100A6E0B5009100B6EEFEC21F0A1
:103C60000AC005F00BC006F01200F4EC21F0520E71
:103C7000E9EC21F0BA0EE9EC21F0F9EC21F0530E59
:103C8000E9EC21F0010EE3EC1FF0076E07500A6E1D
:103C90000B6A000EE3EC1FF0076E0750096E086A0E
:103CA0000A5008100A6E0B5009100B6EEFEC21F051
:103CB0000AC005F00BC006F012001CC018F01DC0B1
:103CC00019F0A7EC20F0290E216E960E206E7F0EC3
:103CD000E82EFED7202EFCD7212EFAD700001CC0DC
:103CE00018F01DC019F08EEC20F0000E086E000ECA
:103CF000076E1EC009F01FC00AF0520E88EC1DF0BE
:103D000012001CC018F01DC019F03DEC21F0290E66
:103D1000216E960E206E7F0EE82EFED7202EFCD749
:103D2000212EFAD700001CC018F01DC019F08EEC2F
:103D300020F0000E086E000E076E1EC009F01FC0B6
:103D40000AF0520E88EC1DF012001CC018F01DC0C5
:103D500019F0A7EC20F0290E216E960E206E7F0E32
:103D6000E82EFED7202EFCD7212EFAD700001CC04B
:103D700018F01DC019F0F2EC20F0000E086E000ED5
:103D8000076E1EC009F01FC00AF04C0E88EC1DF033
:103D900012001CC018F01DC019F03DEC21F0290ED6
:103DA000216E960E206E7F0EE82EFED7202EFCD7B9
:103DB000212EFAD700001CC018F01DC019F0C0EC6D
:103DC00020F0000E086E000E076E1EC009F01FC026
:103DD0000AF0520E88EC1DF012001CC018F01DC035
:103DE00019F03DEC21F0290E216E960E206E7F0E0B
:103DF000E82EFED7202EFCD7212EFAD700001CC0BB
:103E000018F01DC019F0D9EC20F0000E086E000E5D
:103E1000076E1EC009F01FC00AF04C0E88EC1DF0A2
:103E200012001CC018F01DC019F03DEC21F0290E45
:103E3000216E960E206E7F0EE82EFED7202EFCD728
:103E4000212EFAD700001CC018F01DC019F0F2ECAA
:103E500020F0000E086E000E076E1EC009F01FC095
:103E60000AF04C0E88EC1DF012001CC018F01DC0AA
:103E700019F03DEC21F0290E216E960E206E7F0E7A
:103E8000E82EFED7202EFCD7212EFAD700001CC02A
:103E900018F01DC019F00BEC21F0000E086E000E9A
:103EA000076E1EC009F01FC00AF0300E88EC1DF02E
:103EB0001200FE0EF66E430EF76E000EF86E09004D
:103EC000F5CFFFF002EE00F0960EEE6AE806FDE197
:103ED00001EE00F08C0EEE6AE806FDE100EED8F08F
:103EE000270EEE6AE806FDE15F6A5E6A5D6A5C6A5B
:103EF0005B6A000182EF11F0520E1E18D8A483EF06
:103F00001FF085EF1FF08DEF1FF01CC013F01DC0D8
:103F100014F097EC1CF09EEF1FF04C0E1E18D8A466
:103F200094EF1FF096EF1FF09EEF1FF01CC013F0F0
:103F30001DC014F058EC1CF09EEF1FF01200000E94
:103F4000151A000E161A000E171A800E181A11C034
:103F500001F012C002F013C003F014C004F015C049
:103F600005F016C006F017C007F018C008F040ECC6
:103F70000BF001C011F002C012F003C013F004C036
:103F800014F012002EC030F0CEEF1FF02DC022F042
:103F9000300E236E2FC024F054EC15F030C0F6FF25
:103FA0000E0EF76E000EF86E0800F5500009D8A44A
:103FB000DCEF1FF0DEEF1FF0C6EF1FF0000E2E6EDD
:103FC000000E2D6E1200036E6AEC21F00E01DA87EE
:103FD0006AEC21F0D5CE04F06AEC21F00350D8B49D
:103FE000F4EF1FF0F8EF1FF0026A022AF9EF1FF05A
:103FF000026A023A02460E01DA510218DF0B021879
:10400000DA6FDA8904501200000E0E6E000E0D6E8B
:1040100013EF20F00CC001F0026A0BC003F02BEC90
:104020001BF00D4A0E2A0D500924D96E0E500A209D
:10403000DA6EDF500C6E0C50D8A421EF20F023EF85
:1040400020F00AEF20F01200000E056E000E046E44
:1040500034EF20F0150E036EC60EE82EFED7032EA9
:10406000FCD700D0044A052A0150045C02500558D0
:10407000D8A03DEF20F03FEF20F02AEF20F0120013
:1040800055EC21F0010E036E000EA2EC21F03F0E64
:10409000056E550EE82EFED7052EFCD70000030E48
:1040A000036E000EA2EC21F0D50E036E010EA2EC01
:1040B00021F01200330E376E31C038F0000E3C6E26
:1040C000000E3B6E000E436E000E426E380E2D6EDB
:1040D00032C02EF0370E2F6EC2EC1FF031503B2451
:1040E000D96EDA6ADF6A120008BE79EF20F07BEF42
:1040F00020F081EF20F007C007F008C008F08DEF36
:1041000020F007C009F008C00AF0091E0A1E094A7B
:104110000A2A09C007F00AC008F0120018C013F0FC
:1041200019C014F058EC1CF0160E1B6E1B0E1A6E04
:10413000880EE82EFED71A2EFCD71B2EFAD700D0F9
:1041400018C013F019C014F011EC1CF0120018C0C4
:1041500013F019C014F013EC1DF06A0E1B6E850EDF
:104160001A6EB40EE82EFED71A2EFCD71B2EFAD7E5
:1041700000D018C013F019C014F011EC1CF012009C
:1041800018C013F019C014F058EC1CF0210E1B6E6F
:10419000780E1A6E980EE82EFED71A2EFCD71B2E1C
:1041A000FAD700D018C013F019C014F011EC1CF0AD
:1041B000120018C013F019C014F097EC1CF0210E77
:1041C0001B6E780E1A6E980EE82EFED71A2EFCD7AC
:1041D0001B2EFAD700D018C013F019C014F011EC40
:1041E0001CF0120018C013F019C014F097EC1CF06A
:1041F000160E1B6E1B0E1A6E880EE82EFED71A2E98
:10420000FCD71B2EFAD700D018C013F019C014F039
:1042100011EC1CF0120018C013F019C014F097EC48
:104220001CF02B0E1B6E360E1A6E130EE82EFED7E8
:104230001A2EFCD71B2EFAD7000018C013F019C095
:1042400014F011EC1CF0120031EF21F00250D96E85
:10425000DA6ADF50DDEC21F0022A6A0EE82EFED782
:1042600000D00250D96EDA6ADF50D8A43AEF21F0BC
:104270003CEF21F026EF21F0120018C013F019C016
:1042800014F013EC1DF0190E1B6E5A0E1A6EB20EBE
:10429000E82EFED71A2EFCD71B2EFAD718C013F023
:1042A00019C014F011EC1CF012000E01D951F00BE2
:1042B0000809D96FD98B9F0ED66F848A848CA79BEF
:1042C000A79D1D0E1D6F1E0E1C6F1C0E6F6F1B0E0B
:1042D000706F12000E01D8B570EF21F072EF21F06F
:1042E0006AEF21F0DACE01F01F0E0116D8A47BEFA1
:1042F00021F07DEF21F06AEF21F01200015003025E
:10430000F3CF05F0F4CF06F001500402F350062677
:1043100002500302F350062605C001F006C002F069
:104320001200D450046E036AD350056E066A03501F
:104330000510076E04500610086E07C001F008C093
:1043400002F01200046EF4EC21F0520EE9EC21F0C0
:1043500004508009E9EC21F00350E9EC21F0EFEC86
:1043600021F01200600E316EA00E326E44C033F0A8
:1043700045C034F05AEC20F0600E026E24EC21F0BF
:104380001200120E0E01626F110E156FE997E8957B
:10439000330EE56F000EE66FE789E88BE78F1200BA
:1043A000868C0E01B48D0F015899FC0E58172E0EF5
:1043B0005F6F60946088608E1200016E0E0137A5F9
:1043C000E4EF21F0E6EF21F0DEEF21F001C0E4FEA2
:1043D0001200026E6AEC21F002C0D5FE12006AECF7
:1043E00021F00E01DA8512006AEC21F00E01DA816B
:0F43F00012006AEC21F00E01DA831200120001B4
:020000040030CA
:02000000AAFF55
:020004009FFF5C
:00000001FF
