:04000000E5EF09F02F
:100E000000566F6C74616765203D2025642E253087
:100E100032642C202000477265656E5F6C696768DC
:100E2000743D25642C200A0D00436C6561723D25DC
:100E30003035642C20200A0A0D005265645F6C690D
:100E40006768743D25642C200A0D00416C6C5F6C52
:100E500069676874733D2564200A0D00426C7565EE
:100E60005F6C696768743D2564200A0D00477265F0
:100E7000656E3D253035642C202000426C75653D43
:100E8000253035642C2020005265643D25303564C2
:050E90002C20200000F1
:100E96003950D96EDA6A020ED926DF50D8B456EF29
:100EA60007F058EF07F088EF07F03950D96EDA6A85
:100EB600DF503A6E3A502C6E2D6A3950D96EDA6A86
:100EC600030ED926DECF2EF0DDCF2FF08FEC0AF001
:100ED6002CC032F02DC033F0000E356E640E346E29
:100EE600ABEC09F03950D96EDA6A030ED926DF5019
:100EF6003B6E32503B5C3C6E3950D96EDA6A030E5B
:100F0600D926DF503D6EA9EF07F0000E3C6E395032
:100F1600D96EDA6ADF503A6E3A502C6E2D6A395025
:100F2600D96EDA6A030ED926DECF2EF0DDCF2FF08A
:100F36008FEC0AF02CC032F02DC033F0000E356E67
:100F4600640E346EABEC09F032503D6E3950D96EFA
:100F5600DA6A010ED926DF50D8B4B4EF07F0B6EF3F
:100F660007F0D6EF07F03950D96EDA6A050ED926A2
:100F7600DECF3AF0DDCF3BF03AC0D9FF3BC0DAFF17
:100F86003CC0DFFF3950D96EDA6A070ED926DECFAC
:100F96003AF0DDCF3BF03AC0D9FF3BC0DAFF3DC0A7
:100FA600DFFFF4EF07F03950D96EDA6A050ED9265D
:100FB600DECF3AF0DDCF3BF03AC0D9FF3BC0DAFFD7
:100FC6003DC0DFFF3950D96EDA6A070ED926DECF6B
:100FD6003AF0DDCF3BF03AC0D9FF3BC0DAFF3CC068
:100FE600DFFF1200C1EC0AF001EC0AF0B2EC0AF0E5
:100FF600000E2D6E630E2C6E65EC08F0000E236E4F
:10100600010E246E010E256E000E276E630E266EEF
:10101600AA0E286E0F0E296EA60E2A6E0F0E2B6EC6
:10102600000E1A6E010E1B6E010E1C6E000E1E6E59
:10103600630E1D6E250E1F6E0F0E206E210E216E85
:101046000F0E226E7C9E849E87907F90859E7D9E4D
:101056008196799686860E01B4978EB635EF08F09E
:1010660037EF08F030EF08F0290E4C6E960E4B6EF7
:101076007F0EE82EFED74B2EFCD74C2EFAD700005B
:10108600230E3E6E1A0E3F6E33EC09F0110E4C6EB7
:101096003C0E4B6ECB0EE82EFED74B2EFCD74C2EBD
:1010A600FAD70000230E3E6E1A0E3F6EADEC08F026
:1010B600230E476E1A0E486E1BEC0AF030EF08F04E
:1010C60000EF00F08594839E8598879C7D947B9E97
:1010D6007D987F9C050E0E01746F060E766F070EC7
:1010E600696F080E886FBD508F0B4009BD6EE00E0C
:1010F600BE16BF50F00B0109BF6E2CC0BCFFBD8EE3
:10110600000EAA6E000EA66E000E0F01256F000ED1
:10111600216FFC0EAD16F30EAD16CF0EAD163F0EBB
:10112600AD16AB88AB50F00B0C09AB6EAB8EA78837
:10113600A750F00B0C09A76EA78E26892651F00B37
:101146000C09266F268F22892251F00B0C09226F7B
:10115600228F1200DDEF08F03E50D96EDA6ADF50BA
:10116600D8B4B8EF08F0BAEF08F0BEEF08F03E507A
:10117600D96EDA6ADF063F50D96EDA6ADF50D8B424
:10118600C7EF08F0C9EF08F0CDEF08F03F50D96E71
:10119600DA6ADF063EC039F04BEC07F03FC039F0A3
:1011A6004BEC07F00B0E406E620EE82EFED7402E7B
:1011B600FCD700D03E50D96EDA6ADF50D8A4E6EFED
:1011C60008F0E8EF08F0AFEF08F03F50D96EDA6AA2
:1011D600DF50D8A4F1EF08F0F3EF08F0AFEF08F016
:1011E60012003E50D96EDA6A010ED926DF6A3F50E8
:1011F600D96EDA6A010ED926010EDF6E3EC039F0CD
:101206004BEC07F03FC039F04BEC07F0000E426E96
:10121600000E416E3E50D96EDA6ADF2A3F50D96E13
:10122600DA6ADF2A3EC039F04BEC07F03FC039F0EE
:101236004BEC07F00B0E406E620EE82EFED7402EEA
:10124600FCD700D0414A422A425009E1320E415CA5
:10125600D8A030EF09F032EF09F00DEF09F01200D7
:101266003E50D96EDA6A010ED926010EDF6E3F5066
:10127600D96EDA6A010ED926010EDF6E000E426EB5
:10128600000E416E3E50D96EDA6A41C0DFFF3F5014
:10129600D96EDA6A41C0DFFF3EC039F04BEC07F089
:1012A6003FC039F04BEC07F00B0E406E620EE82E95
:1012B600FED7402EFCD700D0414A422A42BE6DEFEF
:1012C60009F0425009E1330E415CD8A06DEF09F0F8
:1012D6006FEF09F045EF09F012003E50D96EDA6A59
:1012E600010ED926DF6A3F50D96EDA6A010ED92679
:1012F600DF6A000E426E000E416E3E50D96EDA6A0B
:1013060041C0DFFF3F50D96EDA6A41C0DFFF3EC001
:1013160039F04BEC07F03FC039F04BEC07F00B0E01
:10132600406E620EE82EFED7402EFCD700D0414A12
:10133600422A42BEA8EF09F0425009E1330E415C51
:10134600D8A0A8EF09F0AAEF09F080EF09F0120083
:10135600000E376E000E366E34503510D8B4B6EF28
:1013660009F0B8EF09F0E0EF09F0010E386EC0EFB2
:1013760009F0D89034363536382A35AEC5EF09F03F
:10138600C7EF09F0BCEF09F0D8903636373634503F
:10139600325C35503358D8A0D3EF09F0D5EF09F0B9
:1013A600DAEF09F03450325E3550335A3680D89031
:1013B60035323432382EC7EF09F036C032F037C036
:1013C60033F01200BC0EF66E150EF76E000EF86EB8
:1013D6000900F5CF4DF000EE60F0500EEE6AE8061B
:1013E600FDE100EE01F02B0EEE6AE806FDE1000ECF
:1013F600F86E0E0EF76E0001F5EF07F066EC0AF0D8
:10140600010E2E6E000EA2EC0AF03F0E306E550E47
:10141600E82EFED7302EFCD70000030E2E6E000EEF
:10142600A2EC0AF0D50E2E6E010EA2EC0AF0120006
:1014360047C043F048C044F04DEC0AF0290E4A6E0E
:10144600960E496E7F0EE82EFED7492EFCD74A2E01
:10145600FAD7000047C043F048C044F034EC0AF025
:10146600120043C03EF044C03FF0F4EC08F0160E04
:10147600466E1B0E456E880EE82EFED7452EFCD70F
:10148600462EFAD700D043C03EF044C03FF0ADEC44
:1014960008F0120043C03EF044C03FF070EC09F083
:1014A6006A0E466E850E456EB40EE82EFED7452EA4
:1014B600FCD7462EFAD700D043C03EF044C03FF0DA
:1014C600ADEC08F012000E01D951F00B0809D96FE6
:1014D600D98B9F0ED66F848A848CA79BA79D1D0EE1
:1014E6001D6F1E0E1C6F1C0E6F6F1B0E706F120091
:1014F6000E01D8B581EF0AF083EF0AF07BEF0AF010
:10150600DACE2CF01F0E2C16D8A48CEF0AF08EEF34
:101516000AF07BEF0AF012002C502E02F3CF30F0C7
:10152600F4CF31F02C502F02F35031262D502E02DD
:10153600F350312630C02CF031C02DF012002F6E42
:10154600D9EC0AF0520ECEEC0AF02F508009CEEC00
:101556000AF02E50CEEC0AF0D4EC0AF01200120E6D
:101566000E01626F110E156FE997E895330EE56F60
:10157600000EE66FE789E88BE78F1200868C0E0176
:10158600B48D0F015899FC0E58172E0E5F6F60949C
:101596006088608E12002D6E7BEC0AF02DC0D5FEA1
:1015A60012007BEC0AF00E01DA8512007BEC0AF0E1
:0715B6000E01DA81120001B1
:020000040030CA
:02000000AAFF55
:020004009FFF5C
:00000001FF
