:04000000EAEF10F023
:100E00000043616C6962726174696F6E2073746112
:100E100074653D677265650043616C6962726174F7
:100E2000696F6E2073746174653D72656400566FFE
:100E30006C74616765203D2025642E253032642C5A
:100E400020200054455354494E4720434F4D504CA9
:100E500045544544200A0D00477265656E5F6C6914
:100E60006768743D25642C200A0D0043616C69623B
:100E7000726174696F6E2073746174653D005265B0
:100E8000645F6C696768743D25642C200A0D00411D
:100E90006C6C5F6C69676874733D2564200A0D0093
:100EA000426C75655F6C696768743D2564200A0D46
:100EB000006875653D253035642C202000616D6229
:100EC00069656E74200A0D00677265656E200A0DF3
:100ED00000626C7565200A0D002E000010C0D9FF5D
:100EE00011C0DAFFDECF01F0DDCF02F020EE04F01A
:100EF0000E50D9260F50DA22DECF03F0DDCF04F0FA
:100F0000B0EC11F001C016F002C017F020EE02F0B4
:100F10001050D9261150DA22DECF01F0DDCF02F0D9
:100F200020EE04F00E50D9260F50DA22DECF03F067
:100F3000DDCF04F0B0EC11F001C018F002C019F0E0
:100F400020EE04F01050D9261150DA22DECF01F045
:100F5000DDCF02F00EC0D9FF0FC0DAFFDECF03F005
:100F6000DDCF04F0B0EC11F001C01AF002C01BF0AC
:100F700010C0D9FF11C0DAFFDECF01F0DDCF02F0E3
:100F800020EE04F00E50D9260F50DA22DECF03F007
:100F9000DDCF04F0B0EC11F001C01CF002C01DF078
:100FA00016C001F017C002F020EE02F00E50D92654
:100FB0000F50DA22DECF03F0DDCF04F0B0EC11F0F9
:100FC00001C007F002C008F01CC001F01DC002F013
:100FD00020EE02F00E50D9260F50DA22DECF03F0B9
:100FE000DDCF04F0B0EC11F001C012F002C013F03C
:100FF0001AC001F01BC002F020EE02F00E50D926FC
:101000000F50DA22DECF03F0DDCF04F0B0EC11F0A8
:1010100001501224146E02501320156E18C001F0F6
:1010200019C002F00EC0D9FF0FC0DAFFDECF03F007
:10103000DDCF04F0B0EC11F001501424096E025021
:1010400015200A6E7FEC0FF007C022F008C023F0D5
:1010500020EE02F01050D9261150DA22DECF01F036
:10106000DDCF02F020EE04F00E50D9260F50DA2228
:10107000DECF03F0DDCF04F0B0EC11F001C016F0CC
:1010800002C017F020EE02F01050D9261150DA22DB
:10109000DECF01F0DDCF02F020EE04F00E50D926B5
:1010A0000F50DA22DECF03F0DDCF04F0B0EC11F008
:1010B00001C018F002C019F020EE04F01050D9263B
:1010C0001150DA22DECF01F0DDCF02F00EC0D9FFE1
:1010D0000FC0DAFFDECF03F0DDCF04F0B0EC11F08B
:1010E00001C01AF002C01BF010C0D9FF11C0DAFF16
:1010F000DECF01F0DDCF02F020EE04F00E50D92655
:101100000F50DA22DECF03F0DDCF04F0B0EC11F0A7
:1011100001C01CF002C01DF016C001F017C002F0A3
:101120000EC0D9FF0FC0DAFFDECF03F0DDCF04F031
:10113000B0EC11F001C007F002C008F01CC001F0D3
:101140001DC002F020EE02F00E50D9260F50DA2218
:10115000DECF03F0DDCF04F0B0EC11F001C012F0EF
:1011600002C013F01AC001F01BC002F020EE02F022
:101170000E50D9260F50DA22DECF03F0DDCF04F077
:10118000B0EC11F001501224146E02501320156EB1
:1011900018C001F019C002F00EC0D9FF0FC0DAFF6D
:1011A000DECF03F0DDCF04F0B0EC11F001501424D9
:1011B000096E025015200A6E7FEC0FF007C024F074
:1011C00008C025F022C012F023C013F0121E131E17
:1011D000124A132A2450125E2550135A010E12246B
:1011E000206E000E1320216E2250245C23502558BF
:1011F000D8B0FDEF08F0FFEF08F033EF09F0225010
:10120000205C23502158D8B008EF09F00AEF09F00C
:1012100033EF09F02050245C21502558D8B013EF4B
:1012200009F015EF09F025EF09F02050245C076E56
:1012300021502558086E2450225C096E25502358F1
:101240000A6E7FEC0FF033EF09F02050245C076E3C
:1012500021502558086E2050225C096E21502358D9
:101260000A6E7FEC0FF02450225C25502358D8B032
:101270003CEF09F03EEF09F072EF09F02450205CDA
:1012800025502158D8B047EF09F049EF09F072EF27
:1012900009F02250205C23502158D8B052EF09F0B9
:1012A00054EF09F064EF09F02250205C076E2350E0
:1012B0002158086E2050245C096E215025580A6E72
:1012C0007FEC0FF072EF09F02250205C076E235084
:1012D0002158086E2250245C096E235025580A6E4E
:1012E0007FEC0FF02050225C21502358D8B07BEFC8
:1012F00009F07DEF09F0C1EF09F02050245C215086
:101300002558D8B086EF09F088EF09F0C1EF09F051
:101310002250245C23502558D8B091EF09F093EF68
:1013200009F0A9EF09F02450225C076E25502358DC
:10133000086E2450205C096E255021580A6E7FECFF
:101340000FF0040E07241E6E000E08201F6EBDEF66
:1013500009F02450225C076E25502358086E225055
:10136000205C096E235021580A6E7FEC0FF0040EAA
:1013700007241E6E000E08201F6E1EC00EF01FC038
:101380000FF012007F907D9E7996480E316E180EF8
:10139000326ED90E336E3350D8A40E0E346E3AEC42
:1013A00011F0480E026E6EEC11F08EB4DAEF09F017
:1013B000DCEF09F0D5EF09F07F80290E476E960E1D
:1013C000466E7F0EE82EFED7462EFCD7472EFAD764
:1013D0000000E8EC0FF044C0D9FF45C0DAFF05C0BB
:1013E000DEFF06C0DDFF7F90480E316E010E326ECB
:1013F000C80E336E3350D8A40E0E346E3AEC11F092
:10140000480E026E6EEC11F08EB409EF0AF00BEF8D
:101410000AF004EF0AF07D8E290E476E960E466E96
:101420007F0EE82EFED7462EFCD7472EFAD70000B7
:1014300010EC10F020EE02F04450D9264550DA228C
:1014400005C0DEFF06C0DDFF7D9E480E316E6B0ECF
:10145000326ED10E336E3350D8A40E0E346E3AEC89
:1014600011F0480E026E6EEC11F08EB43AEF0AF0F5
:101470003CEF0AF035EF0AF07986290E476E960E9A
:10148000466E7F0EE82EFED7462EFCD7472EFAD7A3
:10149000000060EC10F020EE04F04450D9264550D6
:1014A000DA2205C0DEFF06C0DDFF7996480E316EF8
:1014B0006B0E326EBD0E336E3350D8A40E0E346EEA
:1014C0003AEC11F0480E026E6EEC11F08EB46BEF38
:1014D0000AF06DEF0AF066EF0AF07F807D8E798664
:1014E000290E476E960E466E7F0EE82EFED7462ECC
:1014F000FCD7472EFAD7000038EC10F020EE06F0AB
:101500004450D9264550DA2205C0DEFF06C0DDFF73
:101510007F907D9E7996480E316E6B0E326E430E33
:10152000336E3350D8A40E0E346E3AEC11F0480EE0
:10153000026E6EEC11F012002350D96EDA6ADFCF22
:10154000F6FF0E0EF76E000EF86E0800F550250A35
:10155000D8A4ADEF0AF0AFEF0AF04DEF0BF0235037
:10156000D96EDA6ADF2A000E0001FB6F000EFA6FF7
:10157000FAC0FCF0010164696569000E2B6EE8EFAA
:101580000AF00001FC832350D96EDA6ADF2AE8EF03
:101590000AF0010E2B6EE8EF0AF02350D96EDA6ADA
:1015A000DFCFF6FF0E0EF76E000EF86E0800F55056
:1015B000256E266A2650000AD8B4E1EF0AF0C9EF7A
:1015C0000AF02550300AD8B4C1EF0AF0C9EF0AF08A
:1015D0002B50D8B4EEEF0AF0F0EF0AF0CDEF0AF09E
:1015E00023C007F024C008F0EFEC0DF007C0FAF0BC
:1015F00008C0FBF00001FBBF02EF0BF000EF0BF0A7
:1016000007EF0BF0FC81FA6DFB1FD8B0FB2B2350CA
:10161000D96EDA6ADF502C6E2CC0F6FF0E0EF76E14
:10162000000EF86E0800F550640AD8B41AEF0BF0FB
:101630001CEF0BF02CEF0BF02CC0F6FF0E0EF76E2C
:10164000000EF86E0800F550690AD8A42AEF0BF0D6
:101650002CEF0BF047EF0BF02450D96EDA6A020E34
:10166000DF26DF5CD96EDA6ADECF27F0DECF28F026
:101670002350D96EDA6A2C28DF6E22C017F027C0FB
:1016800018F028C019F061EC0BF060EF0BF023505C
:10169000D96EDA6ADF2A60EF0BF02350D96EDA6A6E
:1016A000DFCFF6FF0E0EF76E000EF86E0800F55055
:1016B000016E026A22C003F046EC0EF047EF0BF019
:1016C0001200010E1C6E19BE68EF0BF06BEF0BF0F1
:1016D000010E6CEF0BF0000E1F6EFAC01DF0FBC088
:1016E0001EF01F50D8B477EF0BF079EF0BF090EFAE
:1016F0000BF01D06D8A01E061F50D8A482EF0BF0D9
:1017000084EF0BF08AEF0BF0000E1B6E2B0E1A6E9F
:101710008EEF0BF0000E1B6E2D0E1A6E1AC01FF00E
:10172000000E216E1F0E206E000E0101856FC8EFA6
:101730000BF02006D8A02106660E2024D96E010EDB
:101740002120DA6E18C001F019C002F0000E046EFC
:101750000A0E036E97EC0DF001C007F002C008F00E
:1017600054EC11F00750300FDF6E000E1C6E1D069A
:10177000D8A01E0618C001F019C002F0000E046EB9
:101780000A0E036E35EC0DF001C018F002C019F01E
:1017900021BED3EF0BF0215008E12004D8A0D3EFF5
:1017A0000BF0D5EF0BF0FBEF0BF018501910D8A48D
:1017B000DCEF0BF0DEEF0BF099EF0BF01C50D8A430
:1017C000E4EF0BF0E6EF0BF099EF0BF01EBEF1EF3C
:1017D0000BF01E5008E11D04D8A0F1EF0BF0F3EF61
:1017E0000BF0FBEF0BF00001FCB3F9EF0BF0FBEF9C
:1017F0000BF099EF0BF01F50D8B401EF0CF003EF92
:101800000CF00EEF0CF02006D8A02106660E202466
:10181000D96E010E2120DA6E1FC0DFFF17C00FF056
:10182000660E2024106E010E2120116E1DC012F0D4
:101830001EC013F0ECEC0EF01200000E0001F96F68
:10184000000EF86FF851F911D8A429EF0CF02BEF26
:101850000CF041EF0CF07F807D9E7996C40E316EC6
:101860007E0E326E7FB037EF0CF03BEF0CF0536A18
:10187000532A3CEF0CF0536A5350336E346A3AECFF
:1018800011F00001F805F911D8A449EF0CF04BEF65
:101890000CF061EF0CF07F907D8E7996C40E316E66
:1018A000580E326E7DBE57EF0CF05BEF0CF0536AB2
:1018B000532A5CEF0CF0536A5350336E346A3AEC9F
:1018C00011F0020E0001F819F911D8A46AEF0CF01A
:1018D0006CEF0CF082EF0CF07F907D9E7986C40E49
:1018E000316EA00E326E79B678EF0CF07CEF0CF012
:1018F000536A532A7DEF0CF0536A5350336E346AA7
:101900003AEC11F0030E0001F819F911D8A48BEF8D
:101910000CF08DEF0CF09AEF0CF07F807D8E7986C5
:10192000C40E316E8F0E326E000E346E010E336EA9
:101930003AEC11F0C40E026E6EEC11F0980E0C6EC3
:10194000010E0D6EB9EC0FF0A00E0E6E010E0F6EB3
:10195000980E106E010E116E6EEC07F00EC0F6F0D0
:101960000FC0F7F051C04DF052C04EF0F6C04FF02E
:10197000F7C050F005EC11F00001F84BF92BF951CC
:1019800009E1040EF85DD8A0C8EF0CF0CAEF0CF026
:1019900022EF0CF01200E2EC11F020EC11F0D3EC8D
:1019A00011F0000E026E630E016E37EC0FF0000EA8
:1019B00001018F6F010E906F010E916F000E936FFA
:1019C000630E926FAA0E946F0F0E956FA60E966F10
:1019D0000F0E976F000E866F010E876F010E886FD6
:1019E000000E8A6F630E896F250E8B6F0F0E8C6F42
:1019F000210E8D6F0F0E8E6F7C9E849E87907F9040
:101A0000859E7D9E8196799688968086190E010125
:101A1000A96F5A0EA86FB10EE82EFED7A82FFCD7DB
:101A2000A92FFAD700D080967E9486840E01B495B3
:101A3000A00E446E010E456EC2EC09F0520E01017B
:101A4000A96F2B0EA86F000EE82EFED7A82FFCD78B
:101A5000A92FFAD70000AAC151F0ABC152F01DEC7A
:101A60000CF01EEF0DF000EF00F0000E066E04BE4D
:101A70003EEF0DF03CEF0DF044EF0DF0036C041E53
:101A8000D8B0042A010E066E02BE4BEF0DF049EFEE
:101A90000DF051EF0DF0016C021ED8B0022A010EBC
:101AA000061A000E086E000E076E03500410D8B41C
:101AB0005CEF0DF05EEF0DF086EF0DF0010E056EA0
:101AC00066EF0DF0D89003360436052A04AE6BEFAE
:101AD0000DF06DEF0DF062EF0DF0D890073608367F
:101AE0000350015C04500258D8A079EF0DF07BEF51
:101AF0000DF080EF0DF00350015E0450025A078094
:101B0000D89004320332052E6DEF0DF00650D8B494
:101B10008CEF0DF08EEF0DF092EF0DF0076C081EBC
:101B2000D8B0082A07C001F008C002F01200000E69
:101B3000066E02BEA0EF0DF09EEF0DF0A6EF0DF0C9
:101B4000016C021ED8B0022A010E066E04BEADEF73
:101B50000DF0ABEF0DF0B1EF0DF0036C041ED8B03B
:101B6000042A03500410D8B4B8EF0DF0BAEF0DF00A
:101B7000DEEF0DF0010E056EC2EF0DF0D8900336CA
:101B80000436052A04AEC7EF0DF0C9EF0DF0BEEF25
:101B90000DF00350015C04500258D8A0D2EF0DF0B4
:101BA000D4EF0DF0D8EF0DF00350015E0450025A4F
:101BB000D89004320332052EC9EF0DF00650D8B488
:101BC000E4EF0DF0E6EF0DF0EAEF0DF0016C021E10
:101BD000D8B0022A01C001F002C002F01200000ECB
:101BE0000B6E000E0A6E0750D96EDA6ADFCFF6FF71
:101BF0000E0EF76E000EF86E0800F5502A0AD8A4F3
:101C000004EF0EF006EF0EF02CEF0EF00750D96E39
:101C1000DA6ADF2A0850D96EDA6A020EDF26DF5C44
:101C2000D96EDA6ADECF0AF0DECF0BF041EF0EF0AC
:101C30000AC001F00BC002F0000E046E0A0E036E23
:101C4000B0EC11F0095001240A6E000E02200B6E58
:101C50000750D96EDA6ADF2A0750D96EDA6ADFCF09
:101C6000F6FF0E0EF76E000EF86E0800F550D00F5E
:101C7000096E090E09643FEF0EF041EF0EF018EF08
:101C80000EF00AC007F00BC008F012000350D8B4E1
:101C90004CEF0EF04EEF0EF056EF0EF00350D8A4BE
:101CA00054EF0EF056EF0EF05BEF0EF0015010EC1B
:101CB00012F09AEF0EF00350D96EDA6A0A0ED926A6
:101CC000DE50DE10D8B467EF0EF069EF0EF082EF51
:101CD0000EF00350D96EDA6A0A0ED9260350E16E6F
:101CE000E26A030EE126DE50E65CE650800A086EEA
:101CF000DE50800A0858D8B080EF0EF082EF0EF068
:101D00009AEF0EF00350D96EDA6A030ED926DF502F
:101D1000046E0350D96EDA6ADF500424D96EDA6A91
:101D200001C0DFFF0350D96EDA6A030ED926DE2A1E
:101D3000000EDD22120045C007F046C008F0000E7C
:101D40000A6E4D0E096E7FEC0FF007C04BF008C015
:101D50004CF045C001F046C002F0000E046E640E67
:101D6000036EB0EC11F001C007F002C008F0000EE5
:101D70000A6E4D0E096E7FEC0FF007C047F008C0E9
:101D800048F04BC001F04CC002F0FF0E046E9C0EF8
:101D9000036EB0EC11F001504724496E0250482008
:101DA0004A6E44C031F02E0E326E4BC033F04CC040
:101DB00034F049C035F04AC036F03AEC11F0520E1A
:101DC000486E2B0E476E000EE82EFED7472EFCD72E
:101DD000482EFAD700D012000001FCA1F2EF0EF05D
:101DE000F4EF0EF0FCEF0EF010C009F011C00AF095
:101DF0000FC00BF0CAEC10F013BE03EF0FF001EFB1
:101E00000FF007EF0FF0000E136E000E126E000EB3
:101E1000166E000E156E17EF0FF0000E026E200EFC
:101E2000016E0FC003F046EC0EF0154A162A125050
:101E3000155C1650800A146E1350800A1458D8A0EE
:101E400024EF0FF026EF0FF00DEF0FF00001FCB1C3
:101E50002CEF0FF02EEF0FF036EF0FF010C009F05F
:101E600011C00AF00FC00BF0CAEC10F012008594FC
:101E7000839E8598879C7D947B9E7D987F9C050E94
:101E80000E01746F060E766F070E696F080E886F6D
:101E9000BD508F0B4009BD6EE00EBE16BF50F00B5B
:101EA0000109BF6E01C0BCFFBD8E000EAA6E000E00
:101EB000A66E000E0F01256F000E216FFC0EAD16F1
:101EC000F30EAD16CF0EAD163F0EAD16AB88AB5070
:101ED000F00B0C09AB6EAB8EA788A750F00B0C096A
:101EE000A76EA78E26892651F00B0C09266F268F28
:101EF00022892251F00B0C09226F228F1200000E52
:101F00000D6E000E0C6E09500A10D8B48AEF0FF057
:101F10008CEF0FF0B4EF0FF0010E0B6E94EF0FF09B
:101F2000D89009360A360B2A0AAE99EF0FF09BEFCC
:101F30000FF090EF0FF0D8900C360D360950075C7B
:101F40000A500858D8A0A7EF0FF0A9EF0FF0AEEF96
:101F50000FF00950075E0A50085A0C80D8900A32D8
:101F600009320B2E9BEF0FF00CC007F00DC008F0EC
:101F70001200E8EC0FF00CC0D9FF0DC0DAFF05C06D
:101F8000DEFF06C0DDFF60EC10F020EE04F00C5028
:101F9000D9260D50DA2205C0DEFF06C0DDFF10ECA9
:101FA00010F020EE02F00C50D9260D50DA2205C0B8
:101FB000DEFF06C0DDFF38EC10F020EE06F00C501E
:101FC000D9260D50DA2205C0DEFF06C0DDFF120063
:101FD00006EC12F0520EFBEC11F0B60EFBEC11F019
:101FE0000BEC12F0530EFBEC11F0010EA9EC10F00B
:101FF000076E07500A6E0B6A000EA9EC10F0076E10
:102000000750096E086A0A5008100A6E0B50091032
:102010000B6E01EC12F00AC005F00BC006F01200C6
:1020200006EC12F0520EFBEC11F0B80EFBEC11F0C6
:102030000BEC12F0530EFBEC11F0010EA9EC10F0BA
:10204000076E07500A6E0B6A000EA9EC10F0076EBF
:102050000750096E086A0A5008100A6E0B500910E2
:102060000B6E01EC12F00AC005F00BC006F0120076
:1020700006EC12F0520EFBEC11F0B40EFBEC11F07A
:102080000BEC12F0530EFBEC11F0010EA9EC10F06A
:10209000076E07500A6E0B6A000EA9EC10F0076E6F
:1020A0000750096E086A0A5008100A6E0B50091092
:1020B0000B6E01EC12F00AC005F00BC006F0120026
:1020C00006EC12F0520EFBEC11F0BA0EFBEC11F024
:1020D0000BEC12F0530EFBEC11F0010EA9EC10F01A
:1020E000076E07500A6E0B6A000EA9EC10F0076E1F
:1020F0000750096E086A0A5008100A6E0B50091042
:102100000B6E01EC12F00AC005F00BC006F01200D5
:102110002EC030F094EF10F02DC022F0300E236E60
:102120002FC024F09CEC0AF030C0F6FF0E0EF76EC4
:10213000000EF86E0800F5500009D8A4A2EF10F0C8
:10214000A4EF10F08CEF10F0000E2E6E000E2D6E2E
:102150001200036E9CEC11F00E01DA879CEC11F07A
:10216000D5CE04F09CEC11F00350D8B4BAEF10F0C7
:10217000BEEF10F0026A022ABFEF10F0026A023AC4
:1021800002460E01DA510218DF0B0218DA6FDA8903
:1021900004501200000E0E6E000E0D6ED9EF10F0FE
:1021A0000CC001F0026A0BC003F046EC0EF00D4AC1
:1021B0000E2A0D500924D96E0E500A20DA6EDF5017
:1021C0000C6E0C50D8A4E7EF10F0E9EF10F0D0EF50
:1021D00010F01200220EF66E240EF76E000EF86E4E
:1021E0000900F5CFFFF001EE00F0A80EEE6AE80658
:1021F000FDE10001FE6BFD6BFC6BFB6BFA6B5E6A35
:102200005D6A5C6A0001CBEF0CF0600E446E4DC05D
:1022100045F04EC046F09BEC0EF0920E316EB10EC2
:10222000326E4FC033F050C034F03AEC11F0600E13
:10223000026E6EEC11F0920E026E6EEC11F0120056
:1022400087EC11F0010E036E000EC3EC11F03F0E8F
:10225000056E550EE82EFED7052EFCD70000030EA6
:10226000036E000EC3EC11F0D50E036E010EC3EC2D
:1022700011F01200330E376E31C038F0000E3C6E94
:10228000000E3B6E000E436E000E426E380E2D6E39
:1022900032C02EF0370E2F6E88EC10F031503B24F8
:1022A000D96EDA6ADF6A120008BE59EF11F05BEFEF
:1022B00011F061EF11F007C007F008C008F06DEFF2
:1022C00011F007C009F008C00AF0091E0A1E094AE9
:1022D0000A2A09C007F00AC008F012007BEF11F0CB
:1022E0000250D96EDA6ADF50EFEC11F0022A6A0E62
:1022F000E82EFED700D00250D96EDA6ADF50D8A49B
:1023000084EF11F086EF11F070EF11F012000E0162
:10231000D951F00B0809D96FD98B9F0ED66F848ADB
:10232000848CA79BA79D1D0E1D6F1E0E1C6F1C0E7F
:102330006F6F1B0E706F12000E01D8B5A2EF11F077
:10234000A4EF11F09CEF11F0DACE01F01F0E011690
:10235000D8A4ADEF11F0AFEF11F09CEF11F0120027
:1023600001500302F3CF05F0F4CF06F00150040250
:10237000F350062602500302F350062605C001F072
:1023800006C002F01200046E06EC12F0520EFBECD6
:1023900011F004508009FBEC11F00350FBEC11F03C
:1023A00001EC12F01200120E0E01626F110E156F89
:1023B000E997E895330EE56F000EE66FE789E88B45
:1023C000E78F1200868C0E01B48D0F015899FC0E18
:1023D00058172E0E5F6F60946088608E1200016E39
:1023E0000E0137A5F6EF11F0F8EF11F0F0EF11F054
:1023F00001C0E4FE1200026E9CEC11F002C0D5FE9A
:1024000012009CEC11F00E01DA8512009CEC11F028
:102410000E01DA8112009CEC11F00E01DA83120039
:03242000120001A6
:020000040030CA
:02000000AAFF55
:020004009FFF5C
:00000001FF
