:040000000BEF96F07C
:10FEE2000043616C6962726174696F6E2073746140
:10FEF2007465203D20616D6269656E74206C69676E
:10FF020068740043616C6962726174696F6E207318
:10FF120074617465203D20677265656E200A0D006C
:10FF220043616C6962726174696F6E20737461748B
:10FF3200653D20626C7565200A0D0043414C4942C3
:10FF4200524154494F4E20434F4D504C4554454425
:10FF5200200A0D0043616C6962726174696F6E20E0
:10FF62007374617465203D2072656400566F6C7411
:10FF7200616765203D2025642E253032642C2020C7
:10FF820000477265656E5F6C696768743D25642C15
:10FF9200200A0D005265645F6C696768743D2564D0
:10FFA2002C200A0D00416C6C5F6C69676874733DAC
:10FFB2002564200A0D00426C75655F6C6967687480
:10FFC2003D2564200A0D00677265656E3D2530335C
:10FFD200642C202000626C75653D253033642C2032
:10FFE20020006875653D253033642C202000726541
:0DFFF200643D253033642C2020002E0000DB
:020000040001F9
:10000000000E0001D06F000ED16F000ED26F000EF7
:10001000D36F4BC0D9FF4CC0DAFFDECF4DF0DDCF40
:100020004EF04DC001F04EC002F0036A046A000EAB
:10003000CDEC8BF001C0B8F002C0B9F003C0BAF04B
:1000400004C0BBF049C0D9FF4AC0DAFFDECF4DF093
:10005000DDCF4EF04DC001F04EC002F0036A046ADD
:10006000000ECDEC8BF001C09CF002C09DF003C0EF
:100070009EF004C09FF020EE02F04B50D9264C5069
:10008000DA22DECF4DF0DDCF4EF04DC001F04EC094
:1000900002F0036A046A000ECDEC8BF001C0BCF0E4
:1000A00002C0BDF003C0BEF004C0BFF020EE02F0FD
:1000B0004950D9264A50DA22DECF4DF0DDCF4EF03E
:1000C0004DC001F04EC002F0036A046A000ECDEC90
:1000D0008BF001C0A0F002C0A1F003C0A2F004C0E8
:1000E000A3F020EE04F04B50D9264C50DA22DECF9C
:1000F0004DF0DDCF4EF04DC001F04EC002F0036A6E
:10010000046A000ECDEC8BF001C0C0F002C0C1F05B
:1001100003C0C2F004C0C3F020EE04F04950D92659
:100120004A50DA22DECF4DF0DDCF4EF04DC001F067
:100130004EC002F0036A046A000ECDEC8BF001C0E1
:10014000A4F002C0A5F003C0A6F004C0A7F0600EA2
:10015000346E356AF00E366EFF0E376EB8C038F06A
:10016000B9C039F0BAC03AF0BBC03BF017EC95F01B
:10017000740E346E356AC90E366EFF0E376EC0C00F
:1001800038F0C1C039F0C2C03AF0C3C03BF017EC40
:1001900095F0880E346E356AD70E366EFF0E376EC8
:1001A000BCC038F0BDC039F0BEC03AF0BFC03BF0B3
:1001B00017EC95F0600E026E036A57EC95F0740E22
:1001C000026E036A57EC95F0880E026E036A57ECD4
:1001D00095F0B8C019F0B9C01AF0BAC01BF0BBC096
:1001E0001CF09CC01DF09DC01EF09EC01FF09FC063
:1001F00020F040EC88F019C0D4F01AC0D5F01BC034
:10020000D6F01CC0D7F0BCC019F0BDC01AF0BEC0FB
:100210001BF0BFC01CF0A0C01DF0A1C01EF0A2C00A
:100220001FF0A3C020F040EC88F019C0D8F01AC02D
:10023000D9F01BC0DAF01CC0DBF0C0C019F0C1C09F
:100240001AF0C2C01BF0C3C01CF0A4C01DF0A5C0B2
:100250001EF0A6C01FF0A7C020F040EC88F019C027
:10026000DCF01AC0DDF01BC0DEF01CC0DFF0D4C033
:1002700001F0D5C002F0D6C003F0D7C004F0D8C05A
:1002800005F0D9C006F0DAC007F0DBC008F064EC76
:100290008FF0D8A04EEF81F050EF81F085EF81F024
:1002A000D8C001F0D9C002F0DAC003F0DBC004F01E
:1002B000DCC005F0DDC006F0DEC007F0DFC008F0EE
:1002C00064EC8FF0D8A067EF81F069EF81F073EFF5
:1002D00081F0DCC0A8F0DDC0A9F0DEC0AAF0DFC06C
:1002E000ABF07BEF81F0D8C0A8F0D9C0A9F0DAC09C
:1002F000AAF0DBC0ABF0A8C0C4F0A9C0C5F0AAC08A
:10030000C6F0ABC0C7F0B8EF81F0D4C001F0D5C0E3
:1003100002F0D6C003F0D7C004F0DCC005F0DDC0A9
:1003200006F0DEC007F0DFC008F064EC8FF0D8A064
:100330009CEF81F09EEF81F0A8EF81F0DCC0ACF083
:10034000DDC0ADF0DEC0AEF0DFC0AFF0B0EF81F0E9
:10035000D4C0ACF0D5C0ADF0D6C0AEF0D7C0AFF0D1
:10036000ACC0C4F0ADC0C5F0AEC0C6F0AFC0C7F001
:10037000D8C001F0D9C002F0DAC003F0DBC004F04D
:10038000D4C005F0D5C006F0D6C007F0D7C008F03D
:1003900064EC8FF0D8A0CFEF81F0D1EF81F006EFC1
:1003A00082F0DCC001F0DDC002F0DEC003F0DFC08F
:1003B00004F0D8C005F0D9C006F0DAC007F0DBC001
:1003C00008F064EC8FF0D8A0E8EF81F0EAEF81F05C
:1003D000F4EF81F0DCC0B0F0DDC0B1F0DEC0B2F00F
:1003E000DFC0B3F0FCEF81F0D8C0B0F0D9C0B1F0FD
:1003F000DAC0B2F0DBC0B3F0B0C0CCF0B1C0CDF029
:10040000B2C0CEF0B3C0CFF039EF82F0DCC001F063
:10041000DDC002F0DEC003F0DFC004F0D4C005F0A0
:10042000D5C006F0D6C007F0D7C008F064EC8FF056
:10043000D8A01DEF82F01FEF82F029EF82F0DCC020
:10044000B4F0DDC0B5F0DEC0B6F0DFC0B7F031EF1C
:1004500082F0D4C0B4F0D5C0B5F0D6C0B6F0D7C0E5
:10046000B7F0B4C0CCF0B5C0CDF0B6C0CEF0B7C0D8
:10047000CFF0CCC011F0CDC012F0CEC013F0CFC081
:1004800014F0C4C015F0C5C016F0C6C017F0C7C040
:1004900018F0B0EC94F011C0C8F012C0C9F013C04D
:1004A000CAF014C0CBF0CCC001F0CDC002F0CEC079
:1004B00003F0CFC004F0C4C005F0C5C006F0C6C04C
:1004C00007F0C7C008F0C0EC91F0D8A06AEF82F046
:1004D0006CEF82F077EF82F0000E0001D06F000E1B
:1004E000D16F000ED26F000ED36F80EF83F0CCC0BF
:1004F00001F0CDC002F0CEC003F0CFC004F0D4C0F4
:1005000005F0D5C006F0D6C007F0D7C008F0C0ECA3
:1005100091F0D8A08EEF82F090EF82F0BEEF82F0E3
:10052000D8C015F0D9C016F0DAC017F0DBC018F04B
:10053000DCC011F0DDC012F0DEC013F0DFC014F03B
:10054000B0EC94F011C019F012C01AF013C01BF0F7
:1005500014C01CF0C8C01DF0C9C01EF0CAC01FF0F6
:10056000CBC020F040EC88F019C0D0F01AC0D1F018
:100570001BC0D2F01CC0D3F080EF83F0CCC001F0E0
:10058000CDC002F0CEC003F0CFC004F0D8C005F05B
:10059000D9C006F0DAC007F0DBC008F0C0EC91F07B
:1005A000D8A0D5EF82F0D7EF82F01FEF83F0D4C050
:1005B00015F0D5C016F0D6C017F0D7C018F0DCC0C3
:1005C00011F0DDC012F0DEC013F0DFC014F0B0ECAB
:1005D00094F011C019F012C01AF013C01BF014C02F
:1005E0001CF0C8C01DF0C9C01EF0CAC01FF0CBC0AF
:1005F00020F040EC88F019C0D0F01AC0D1F01BC038
:10060000D2F01CC0D3F0D0C001F0D1C002F0D2C0F3
:1006100003F0D3C004F0000E056E000E066E000E4F
:10062000076E400E086ECBEC83F001C0D0F002C024
:10063000D1F003C0D2F004C0D3F080EF83F0CCC07F
:1006400001F0CDC002F0CEC003F0CFC004F0DCC09A
:1006500005F0DDC006F0DEC007F0DFC008F0C0EC3A
:1006600091F0D8A036EF83F038EF83F080EF83F07D
:10067000D8C015F0D9C016F0DAC017F0DBC018F0FA
:10068000D4C011F0D5C012F0D6C013F0D7C014F00A
:10069000B0EC94F011C019F012C01AF013C01BF0A6
:1006A00014C01CF0C8C01DF0C9C01EF0CAC01FF0A5
:1006B000CBC020F040EC88F019C0D0F01AC0D1F0C7
:1006C0001BC0D2F01CC0D3F0D0C001F0D1C002F0EA
:1006D000D2C003F0D3C004F0000E056E000E066E0B
:1006E000800E076E400E086ECBEC83F001C0D0F098
:1006F00002C0D1F003C0D2F004C0D3F080EF83F089
:10070000D0C001F0D1C002F0D2C003F0D3C004F0D9
:10071000000E056E000E066E700E076E420E086E1D
:100720002BEC86F001C0D0F002C0D1F003C0D2F0B3
:1007300004C0D3F00001D3BFA2EF83F0A0EF83F099
:10074000BCEF83F0D0C001F0D1C002F0D2C003F002
:10075000D3C004F0000E056E000E066EB40E076ED8
:10076000430E086ECBEC83F001C0D0F002C0D1F094
:1007700003C0D2F004C0D3F0D0C001F0D1C002F069
:10078000D2C003F0D3C004F0E1EC8EF001C049F018
:1007900002C04AF012000450800B0D6E0450042475
:1007A0000F6E03AED6EF83F0D8EF83F0D9EF83F06E
:1007B0000F800F50D8B4DFEF83F0E1EF83F0F6EF56
:1007C00083F00F28D8A4E7EF83F0E9EF83F0F1EF8F
:1007D00083F0000E016E000E026E000E036E000E1E
:1007E000046E038E000E046EFEEF83F0000E016EA9
:1007F000000E026E000E036E000E046E0850800B99
:100800000E6E0D500E18D8B408EF84F00AEF84F085
:100810000BEF84F00D8C085008240E6E07AE13EF1A
:1008200084F015EF84F016EF84F00E800E50D8B4EB
:100830001CEF84F01EEF84F033EF84F00E28D8A470
:1008400024EF84F026EF84F02EEF84F0000E056E86
:10085000000E066E000E076E000E086E078E000E6C
:10086000086E3BEF84F0000E056E000E066E000E63
:10087000076E000E086E0F500E5CD8B042EF84F089
:1008800044EF84F06BEF84F00DAC49EF84F04BEF54
:1008900084F04DEF84F0800E0D1A0FC010F00EC0E2
:1008A0000FF010C00EF001C010F005C001F010C034
:1008B00005F002C010F006C002F010C006F003C040
:1008C00010F007C003F010C007F004C010F008C01B
:1008D00004F010C008F0000E106E0F500EC009F0AA
:1008E0000A6A095E000E0A5A0ABE80EF84F00A50B6
:1008F00009E11A0E095CD8A080EF84F082EF84F041
:10090000B9EF84F00150021003100410D8A48BEF4B
:1009100084F08EEF84F0010E8FEF84F0000E106EE5
:10092000000E016E000E026E000E036E000E046ECD
:100930000EC00FF0C2EF84F010A0A1EF84F0A3EF7F
:1009400084F0A9EF84F0D89010300109106EABEF5D
:1009500084F0D890103201A0B0EF84F0B2EF84F0B0
:10096000B3EF84F0108E04340432033202320132C9
:100970000F2A0E500F5CD8A0C0EF84F0C2EF84F0B5
:100980009CEF84F00DBCC7EF84F0C9EF84F009EF51
:1009900085F00F50D8A4CFEF84F0D1EF84F0DBEFD7
:1009A00084F0000E016E000E026E000E036E000E4B
:1009B000046E2AEF86F005500126065002220750E9
:1009C00003220850042204A0E8EF84F0EAEF84F048
:1009D00096EF85F010A0EFEF84F0F1EF84F0F7EFE1
:1009E00084F0D89010300109106EF9EF84F0D8909F
:1009F000103201A0FEEF84F000EF85F001EF85F0EA
:100A0000108E043404320332023201320F2A96EF80
:100A100085F00550015C06500258075003580450F9
:100A2000800A096E0850800A0958D8B01AEF85F07C
:100A30001CEF85F047EF85F00150055C096E025010
:100A400006580A6E035007580B6E045008580C6E77
:100A5000FF0E0924016EFF0E0A20026EFF0E0B200E
:100A6000036EFF0E0C20046E800E0D1A106C1050D9
:100A7000D8A43DEF85F03FEF85F04FEF85F0010EF4
:100A80000126000E0222032204224FEF85F00550BA
:100A9000015E0650025A0750035A0850045A01508A
:100AA000021003100410D8A458EF85F05AEF85F017
:100AB0008FEF85F01050D8A460EF85F062EF85F0DD
:100AC0008FEF85F0000E016E000E026E000E036EB9
:100AD000000E046E2AEF86F0D890013602360336F7
:100AE000043610AE76EF85F078EF85F079EF85F07B
:100AF000018010A07EEF85F080EF85F084EF85F017
:100B0000D880103686EF85F0D89010360F50D8B4C4
:100B10008CEF85F08EEF85F08FEF85F00F0603AE3A
:100B200094EF85F096EF85F06CEF85F0000E0E6E79
:100B300010AE9DEF85F09FEF85F0B7EF85F010C008
:100B400009F07F0E0916D8B4A8EF85F0AAEF85F05A
:100B5000AEEF85F0010E0E6EB7EF85F001A0B3EF9A
:100B600085F0B5EF85F0B7EF85F0AAEF85F00E5070
:100B7000D8B4BDEF85F0BFEF85F0EAEF85F0010E48
:100B80000126000E02220322042204A0CAEF85F0EF
:100B9000CCEF85F0EAEF85F001C009F002C00AF061
:100BA00003C00BF004C00CF00C340C320B320A32D0
:100BB000093209C001F00AC002F00BC003F00CC0FA
:100BC00004F00F28D8B4E7EF85F0E9EF85F0EAEFFD
:100BD00085F00F2A0F28D8B4F0EF85F0F2EF85F0FA
:100BE000FAEF85F00F50D8A4F8EF85F0FAEF85F012
:100BF0000CEF86F0000E016E000E026E000E036E0A
:100C0000000E046E0F50D8A408EF86F00AEF86F0AD
:100C10000CEF86F0000E0D6E0FA011EF86F013EFB3
:100C200086F016EF86F0038E17EF86F0039ED890BD
:100C30000F30046E0DAE1FEF86F021EF86F022EF2D
:100C400086F0048E01C001F002C002F003C003F080
:100C500004C004F012000450800B0D6E04500424F4
:100C6000136E03AE36EF86F038EF86F039EF86F07C
:100C700013801350D8B43FEF86F041EF86F054EF65
:100C800086F01328D8A447EF86F049EF86F051EF9D
:100C900086F0000E016E000E026E000E036E000E56
:100CA000046E038E5CEF86F0000E016E000E026E85
:100CB000000E036E000E046E0850800B0D1A0850D3
:100CC00008240E6E07AE67EF86F069EF86F06AEFD4
:100CD00086F00E800E50D8B470EF86F072EF86F07A
:100CE00085EF86F00E28D8A478EF86F07AEF86F0AC
:100CF00082EF86F0000E056E000E066E000E076E87
:100D0000000E086E078E8DEF86F0000E056E000E49
:100D1000066E000E076E000E086E0E50D8B493EFEC
:100D200086F095EF86F09DEF86F01350D8A49BEFE8
:100D300086F09DEF86F0A7EF86F0000E016E000EA4
:100D4000026E000E036E000E046E3FEF88F0075037
:100D50000102F3CF18F0F4CF19F018500F6E106A9B
:100D6000116A126A1950146E156A166A176A0650CB
:100D70000202F3CF18F0F4CF19F018500F26000E2E
:100D800010221122122219501426000E15221622AA
:100D9000172205500302F3CF18F0F4CF19F01850C2
:100DA0000F26000E10221122122219501426000EB6
:100DB00015221622172211C012F010C011F00FC018
:100DC00010F00F6A05500202F3CF18F0F4CF19F0BB
:100DD00018500F2619501022000E1122000E122258
:100DE00006500102F3CF18F0F4CF19F018500F2677
:100DF00019501022000E1122000E122211C012F002
:100E000010C011F00FC010F00F6A05500102F3CFAF
:100E100018F0F4CF19F018500F2619501022000EB8
:100E20001122000E122207500202F3CF18F0F4CF65
:100E300019F01850142619501522000E1622000E13
:100E4000172206500302F3CF18F0F4CF19F0185010
:100E5000142619501522000E1622000E17220750D4
:100E60000302F3CF18F0F4CF19F01850096E19509F
:100E70000A6E0B6A0C6A0BC00CF00AC00BF009C0BA
:100E80000AF0096A095014260A5015220B5016223E
:100E90000C5017220FC009F010C00AF011C00BF05F
:100EA00012C00CF0190E5AEF87F0D8900C320B32AA
:100EB0000A320932E82E55EF87F0095014260A50FD
:100EC00015220B5016220C50172211C012F010C020
:100ED00011F00FC010F00F6A0E5013C009F00A6A2B
:100EE0000926000E0A22820E0924186EFF0E0A201F
:100EF000196E90EF87F0D8901436153616361736DF
:100F000012AE85EF87F087EF87F088EF87F01480C7
:100F1000D8900F361036113612361806D8A019069A
:100F200016AE95EF87F097EF87F07BEF87F0000E16
:100F30000E6E12AE9EEF87F0A0EF87F0C4EF87F041
:100F4000FF0E0F14096EFF0E10140A6EFF0E11141F
:100F50000B6E7F0E12140C6E09500A100B100C1041
:100F6000D8B4B5EF87F0B7EF87F0BBEF87F0010E8D
:100F70000E6EC4EF87F014A0C0EF87F0C2EF87F0C9
:100F8000C4EF87F0B7EF87F00E50D8B4CAEF87F000
:100F9000CCEF87F0F0EF87F0010E1426000E15223B
:100FA0001622172217A0D7EF87F0D9EF87F0F0EFBE
:100FB00087F014C009F015C00AF016C00BF017C076
:100FC0000CF00C340C320B320A32093209C014F026
:100FD0000AC015F00BC016F00CC017F0184A192AF9
:100FE00019BEFBEF87F0195008E11828D8A0FBEFD5
:100FF00087F0FDEF87F007EF88F0000E146E000E0B
:10100000156E800E166E7F0E176E35EF88F019BEC6
:1010100014EF88F0195006E11804D8B012EF88F0E8
:1010200014EF88F020EF88F0000E146E000E156E9D
:10103000000E166E000E176E000E0D6E35EF88F066
:1010400018C013F0FF0E1416FF0E15167F0E16169D
:10105000000E171613A02FEF88F031EF88F032EF53
:1010600088F0168ED8901330176E0D50171214C0DA
:1010700001F015C002F016C003F017C004F0120012
:101080001C50800B296E1C501C24306E1BAE4BEF85
:1010900088F04DEF88F04EEF88F030803050D8B4B3
:1010A00054EF88F056EF88F06BEF88F03028D8A422
:1010B0005CEF88F05EEF88F066EF88F0000E196E46
:1010C000000E1A6E000E1B6E000E1C6E1B8E000EA4
:1010D0001C6E73EF88F0000E196E000E1A6E000E73
:1010E0001B6E000E1C6E2050800B291A20502024ED
:1010F000316E1FAE7EEF88F080EF88F081EF88F0D0
:1011000031803150D8B487EF88F089EF88F09EEFB6
:1011100088F03128D8A48FEF88F091EF88F099EF0C
:1011200088F0000E1D6E000E1E6E000E1F6E000E6B
:10113000206E1F8E000E206EA6EF88F0000E1D6E32
:10114000000E1E6E000E1F6E000E206E1D501E1033
:101150001F102010D8A4AFEF88F0B1EF88F0C9EFCE
:1011600088F0000E196E000E1A6E000E1B6E000E37
:101170001C6E800E1B127F0E1C1229501C1219C0EF
:1011800019F01AC01AF01BC01BF01CC01CF00CEFA9
:101190008AF03050D8A4CFEF88F0D1EF88F0DBEFA1
:1011A00088F0000E196E000E1A6E000E1B6E000EF7
:1011B0001C6E0CEF8AF0315030C021F0226A215EA3
:1011C000000E225A7F0E21242A6E000E22202B6E42
:1011D00019C025F01AC026F01BC027F01CC028F04B
:1011E000000E196E000E1A6E000E1B6E000E1C6EA5
:1011F000000E2C6E000E2D6E000E2E6E000E2F6E49
:10120000000E316E3CEF89F03150D8B40AEF89F00E
:101210000CEF89F023EF89F0D89025362636273653
:101220002836D89019361A361B361C362FAE1BEFCF
:1012300089F01DEF89F01EEF89F01980D8902C36C7
:101240002D362E362F361D50255C1E5026581F5029
:10125000275820502858D8A030EF89F032EF89F075
:101260003BEF89F02F8C1D50255E1E50265A1F50D3
:10127000275A2050285A312A190E316442EF89F03A
:1012800044EF89F004EF89F025502610271028102C
:10129000D8B44DEF89F04FEF89F067EF89F02C80DB
:1012A00067EF89F0D89019361A361B361C362FAEE8
:1012B0005CEF89F05EEF89F05FEF89F01980D890DC
:1012C0002C362D362E362F362A06D8A02B061BAEEE
:1012D0006CEF89F06EEF89F052EF89F0000E316EFD
:1012E0002FAE75EF89F077EF89F09BEF89F0FF0E55
:1012F0002C14216EFF0E2D14226EFF0E2E14236E61
:101300007F0E2F14246E2150221023102410D8B4E5
:101310008CEF89F08EEF89F092EF89F0010E316E3B
:101320009BEF89F019A097EF89F099EF89F09BEF77
:1013300089F08EEF89F03150D8B4A1EF89F0A3EF96
:1013400089F0C7EF89F0010E1926000E1A221B2220
:101350001C221CA0AEEF89F0B0EF89F0C7EF89F036
:1013600019C021F01AC022F01BC023F01CC024F0C9
:101370002434243223322232213221C019F022C0F7
:101380001AF023C01BF024C01CF02A4A2B2A2BBEC3
:10139000D2EF89F02B5008E12A28D8A0D2EF89F0AB
:1013A000D4EF89F0DFEF89F0000E2B6E2A68000E73
:1013B000196E000E1A6E000E1B6E000E1C6E2BBEF8
:1013C000ECEF89F02B5006E12A04D8B0EAEF89F05F
:1013D000ECEF89F0FAEF89F0000E2B6E000E2A6E0A
:1013E000000E196E000E1A6E000E1B6E000E1C6EA3
:1013F000000E296E2AC030F030A001EF8AF003EF12
:101400008AF006EF8AF01B8E07EF8AF01B9ED890B9
:1014100030301C6EBDEF88F012007F907D9E799673
:10142000600E346E356A560E366EFF0E376EFC0E49
:10143000386EFF0E396E17EC95F0600E026E036A7F
:1014400057EC95F08EB427EF8AF029EF8AF022EF5F
:101450008AF07F80290E4C6E960E4B6E7F0EE82E22
:10146000FED74B2EFCD74C2EFAD7000010EC94F090
:1014700049C0D9FF4AC0DAFF05C0DEFF06C0DDFF64
:101480007F90600E346E356A050E366EFF0E376E35
:10149000FC0E386EFF0E396E17EC95F0600E026E82
:1014A000036A57EC95F08EB458EF8AF05AEF8AF041
:1014B00053EF8AF07D8E290E4C6E960E4B6E7F0E8A
:1014C000E82EFED74B2EFCD74C2EFAD7000038EC76
:1014D00094F020EE02F04950D9264A50DA2205C095
:1014E000DEFF06C0DDFF7D9E600E346E356A220E83
:1014F000366EFF0E376EFC0E386EFF0E396E17EC2F
:1015000095F0600E026E036A57EC95F08EB48BEF87
:101510008AF08DEF8AF086EF8AF07986290E4C6E7C
:10152000960E4B6E7F0EE82EFED74B2EFCD74C2E20
:10153000FAD7000088EC94F020EE04F04950D92648
:101540004A50DA2205C0DEFF06C0DDFF7996600E44
:10155000346E356AE30E366EFE0E376EFC0E386E54
:10156000FF0E396E17EC95F0600E026E036A57ECB1
:1015700095F08EB4BEEF8AF0C0EF8AF0B9EF8AF032
:101580007F807D8E7986290E4C6E960E4B6E7F0E77
:10159000E82EFED74B2EFCD74C2EFAD7000060EC7D
:1015A00094F020EE06F04950D9264A50DA2205C0C0
:1015B000DEFF06C0DDFF7F907D9E7996600E346E63
:1015C000356A3D0E366EFF0E376EFC0E386EFF0E1E
:1015D000396E17EC95F0600E026E036A57EC95F0C9
:1015E00012007F807D9E7996290E526E960E516E66
:1015F0007F0EE82EFED7512EFCD7522EFAD70000D0
:101600009C0E346E010E356E960E366EFF0E376EE2
:101610007FB00DEF8BF011EF8BF0516A512A12EF72
:101620008BF0516A5150386E396A17EC95F010EC16
:1016300094F04FC0D9FF50C0DAFF05C0DEFF06C0EE
:10164000DDFF7F907D8E7996090E526E1E0E516ED3
:10165000E40EE82EFED7512EFCD7522EFAD700D03A
:101660009C0E346E010E356E830E366EFF0E376E95
:101670007DBE3DEF8BF041EF8BF0516A512A42EF76
:101680008BF0516A5150386E396A17EC95F038EC8E
:1016900094F020EE02F04F50D9265050DA2205C0C7
:1016A000DEFF06C0DDFF7F907D9E7986520E526E72
:1016B0002B0E516E000EE82EFED7512EFCD7522E67
:1016C000FAD700D09C0E346E010E356EB80E366E11
:1016D000FF0E376E79B66FEF8BF073EF8BF0516AB8
:1016E000512A74EF8BF0516A5150386E396A17ECF9
:1016F00095F088EC94F020EE04F04F50D92650502D
:10170000DA2205C0DEFF06C0DDFF7F807D8E798690
:10171000520E526E2B0E516E000EE82EFED7512E39
:10172000FCD7522EFAD700D09C0E346E010E356EC7
:10173000A70E366EFF0E376E000E396E010E386E34
:1017400017EC95F060EC94F020EE06F04F50D9269F
:101750005050DA2205C0DEFF06C0DDFF9C0E026E8F
:10176000010E036E57EC95F0940E496E010E4A6E11
:101770008C0E4B6E010E4C6E00EC80F049C0CEF129
:101780004AC0CFF1CEC149F0CFC14AF064EC96F027
:10179000CEC14FF0CFC150F01200096E0950D8B43D
:1017A000D4EF8BF0D6EF8BF0F8EF8BF004BEDDEFCB
:1017B0008BF0DBEF8BF0F8EF8BF001C005F002C08F
:1017C00006F003C007F004C008F0051E061E071E41
:1017D000081E052A000E06220722082205C00BF06B
:1017E00006C00CF007C00DF008C00EF000EF8CF042
:1017F00001C00BF002C00CF003C00DF004C00EF0ED
:101800000150021003100410D8A409EF8CF00BEF64
:101810008CF015EF8CF0000E016E000E026E000EC3
:10182000036E000E046EA6EF8CF0960E0A6E1FEF8C
:101830008CF00A2AD8900E320D320C320B32000E88
:101840000B14056E000E0C14066E000E0D14076EC0
:10185000FE0E0E14086E0550061007100810D8A4CE
:1018600034EF8CF036EF8CF019EF8CF044EF8CF005
:101870000A2A010E0B26000E0C220D220E22D890F1
:101880000E320D320C320B32000E0B14056E000EB0
:101890000C14066E000E0D14076EFF0E0E14086E6B
:1018A0000550061007100810D8A459EF8CF05BEF14
:1018B0008CF038EF8CF063EF8CF00A06D8900B3682
:1018C0000C360D360E360DBE68EF8CF06AEF8CF0DC
:1018D00072EF8CF0020E0A6070EF8CF072EF8CF0F9
:1018E0005DEF8CF00AB077EF8CF079EF8CF07AEF47
:1018F0008CF00D9ED8900A320AC005F0066A076A7D
:10190000086A05C008F0076A066A056A05500B12E6
:1019100006500C1207500D1208500E120950D8B480
:1019200094EF8CF096EF8CF09EEF8CF004BE9DEF60
:101930008CF09BEF8CF09EEF8CF00E8E0BC001F0C4
:101940000CC002F00DC003F00EC004F012002350D2
:10195000D96EDA6ADECFF6FFDDCFF7FF000EF86E44
:101960000800F550250AD8A4B8EF8CF0BAEF8CF037
:1019700067EF8DF02350D96EDA6ADE2A000EDD2281
:10198000000E0001E16F000EE06FE0C0E4F0E269DC
:10199000E369000E2B6EF6EF8CF00001E483235018
:1019A000D96EDA6ADE2A000EDD22F6EF8CF0010E27
:1019B0002B6EF6EF8CF02350D96EDA6ADECFF6FF8D
:1019C000DDCFF7FF000EF86E0800F550256E266A91
:1019D0002650000AD8B4EFEF8CF0D7EF8CF02550EA
:1019E000300AD8B4CDEF8CF0D7EF8CF02B50D8B4B0
:1019F000FCEF8CF0FEEF8CF0DBEF8CF023C007F0F7
:101A000024C008F00DEC91F007C0E0F008C0E1F050
:101A10000001E1BF10EF8DF00EEF8DF015EF8DF0AE
:101A2000E481E06DE11FD8B0E12B2350D96EDA6A72
:101A3000DECF2CF0DDCF2DF02CC0F6FF2DC0F7FF50
:101A4000000EF86E0800F550640AD8B42AEF8DF045
:101A50002CEF8DF03CEF8DF02CC0F6FF2DC0F7FF82
:101A6000000EF86E0800F550690AD8A43AEF8DF020
:101A70003CEF8DF05FEF8DF02450D96EDA6A020EE4
:101A8000DF26DF5CD96EDA6ADECF27F0DECF28F002
:101A9000010E2C24256E000E2D20266E2350D96EAB
:101AA000DA6A25C0DEFF26C0DDFF22C017F027C09E
:101AB00018F028C019F07BEC8DF07AEF8DF02350F0
:101AC000D96EDA6ADE2A000EDD227AEF8DF023501D
:101AD000D96EDA6ADECFF6FFDDCFF7FF000EF86EC3
:101AE0000800F550016E026A22C003F0B0EC90F0DD
:101AF0005FEF8DF01200010E1C6E19BE82EF8DF0AB
:101B000085EF8DF0010E86EF8DF0000E1F6EE0C0A8
:101B10001DF0E1C01EF01F50D8B491EF8DF093EF8F
:101B20008DF0AAEF8DF01D06D8A01E061F50D8A478
:101B30009CEF8DF09EEF8DF0A4EF8DF0000E1B6EEC
:101B40002B0E1A6EA8EF8DF0000E1B6E2D0E1A6E66
:101B50001AC01FF0000E216E1F0E206E000E010134
:101B60008B6FE2EF8DF02006D8A021066C0E2024AA
:101B7000D96E010E2120DA6E18C001F019C002F0F2
:101B8000000E046E0A0E036E68EC91F001C007F0BF
:101B900002C008F08DEC95F00750300FDF6E000E9C
:101BA0001C6E1D06D8A01E0618C001F019C002F058
:101BB000000E046E0A0E036E4EEC90F001C018F099
:101BC00002C019F021BEEDEF8DF0215008E1200494
:101BD000D8A0EDEF8DF0EFEF8DF015EF8EF01850EF
:101BE0001910D8A4F6EF8DF0F8EF8DF0B3EF8DF06B
:101BF0001C50D8A4FEEF8DF000EF8EF0B3EF8DF007
:101C00001EBE0BEF8EF01E5008E11D04D8A00BEF96
:101C10008EF00DEF8EF015EF8EF00001E4B313EFB0
:101C20008EF015EF8EF0B3EF8DF01F50D8B41BEF90
:101C30008EF01DEF8EF028EF8EF02006D8A0210642
:101C40006C0E2024D96E010E2120DA6E1FC0DFFF3A
:101C500017C00FF06C0E2024106E010E2120116EA3
:101C60001DC012F01EC013F015EC92F012000E50C1
:101C7000D96EDA6A020ED926DF50D8B442EF8EF060
:101C800044EF8EF074EF8EF00E50D96EDA6ADF50AA
:101C90000F6E0F50016E026A0E50D96EDA6A030E93
:101CA000D926DECF03F0DDCF04F077EC96F001C04B
:101CB00007F002C008F0000E0A6E640E096EA8EC70
:101CC00093F00E50D96EDA6A030ED926DF50106EEB
:101CD0000750105C116E0E50D96EDA6A030ED926C9
:101CE000DF50126E95EF8EF0000E116E0E50D96E11
:101CF000DA6ADF500F6E0F50016E026A0E50D96E15
:101D0000DA6A030ED926DECF03F0DDCF04F077ECDC
:101D100096F001C007F002C008F0000E0A6E640ED3
:101D2000096EA8EC93F00750126E0E50D96EDA6A65
:101D3000010ED926DF50D8B4A0EF8EF0A2EF8EF0BE
:101D4000C2EF8EF00E50D96EDA6A050ED926DECFBC
:101D50000FF0DDCF10F00FC0D9FF10C0DAFF11C0B7
:101D6000DFFF0E50D96EDA6A070ED926DECF0FF0EC
:101D7000DDCF10F00FC0D9FF10C0DAFF12C0DFFFB7
:101D8000E0EF8EF00E50D96EDA6A050ED926DECF5E
:101D90000FF0DDCF10F00FC0D9FF10C0DAFF12C076
:101DA000DFFF0E50D96EDA6A070ED926DECF0FF0AC
:101DB000DDCF10F00FC0D9FF10C0DAFF11C0DFFF78
:101DC0001200033404340A6E0A50D8A4EAEF8EF0ED
:101DD000ECEF8EF0F6EF8EF0000E016E000E026E4C
:101DE000000E036E000E046E63EF8FF001C005F06D
:101DF00002C006F003C007F004C008F0200E06EF92
:101E00008FF0D8900832073206320532E82E01EF03
:101E10008FF00550096E038EFF0E0116FF0E02169D
:101E2000FF0E0316000E0416960E0A5E0ABE1DEF84
:101E30008FF01BEF8FF033EF8FF00A50800A970F6F
:101E4000D8B025EF8FF027EF8FF029EF8FF0ECEF70
:101E50008EF0D89004320332023201320A3E29EF6A
:101E60008FF04BEF8FF01F0E0A6439EF8FF03BEFCE
:101E70008FF043EF8FF0ECEF8EF0D8900136023602
:101E8000033604360A060A50D8A449EF8FF04BEF08
:101E90008FF03DEF8FF00950D8B451EF8FF053EF32
:101EA0008FF05BEF8FF0041E031E021E016C000E0C
:101EB00002220322042201C001F002C002F003C08A
:101EC00003F004C004F01200000E0114096E000EAD
:101ED00002140A6E800E03140B6E7F0E04140C6E37
:101EE00009500A100B100C10D8A479EF8FF07BEF7B
:101EF0008FF083EF8FF0000E016E000E026E000E69
:101F0000036E000E046E000E0514096E000E06141A
:101F10000A6E800E07140B6E7F0E08140C6E0950AB
:101F20000A100B100C10D8A498EF8FF09AEF8FF0D6
:101F3000A2EF8FF0000E056E000E066E000E076E0B
:101F4000000E086E04AEA7EF8FF0A9EF8FF0B2EF8E
:101F50008FF0016C021ED8B0022A031ED8B0032AEB
:101F6000800E045608AEB7EF8FF0B9EF8FF0C2EFD6
:101F70008FF0056C061ED8B0062A071ED8B0072AB7
:101F8000800E0856000E011A000E021A000E031AE7
:101F9000800E041A000E051A000E061A000E071A0B
:101FA000800E081A0550015C06500258075003586D
:101FB00008500458D8B0DFEF8FF0E1EF8FF0E4EF76
:101FC0008FF0D890E5EF8FF0D8801200A9EC96F052
:101FD00073EC95F09AEC96F0000E026E630E016EB3
:101FE00060EC92F0000E0001F36F010EF46F010E31
:101FF000F56F000EF76F630EF66FAA0EF86F0F0EF7
:10200000F96FA60EFA6F0F0EFB6F000EEA6F010E4E
:10201000EB6F010EEC6F000EEE6F630EED6F250E91
:10202000EF6F0F0EF06F210EF16F0F0EF26F7C9EAF
:10203000849E87907F90859E7D9E819679968686E8
:102040000E01B49788968086190E546E5A0E536E00
:10205000B20EE82EFED7532EFCD7542EFAD7809618
:102060007E9486840E01B495940E496E010E4A6EDC
:102070000DEC8AF08C0E4F6E010E506EF1EC8AF072
:102080004FC055F050C056F055C020F056C021F05A
:10209000E2EC93F03AEF90F000EF00F0000E066EE5
:1020A00004BE57EF90F055EF90F05DEF90F0036CA9
:1020B000041ED8B0042A010E066E02BE64EF90F032
:1020C00062EF90F06AEF90F0016C021ED8B0022A25
:1020D000010E061A000E086E000E076E0350041063
:1020E000D8B475EF90F077EF90F09FEF90F0010E7D
:1020F000056E7FEF90F0D89003360436052A04AEC3
:1021000084EF90F086EF90F07BEF90F0D890073658
:1021100008360350015C04500258D8A092EF90F0AA
:1021200094EF90F099EF90F00350015E0450025A42
:102130000780D89004320332052E86EF90F00650C7
:10214000D8B4A5EF90F0A7EF90F0ABEF90F0076C4C
:10215000081ED8B0082A07C001F008C002F012001B
:102160000350D8B4B6EF90F0B8EF90F0C0EF90F015
:102170000350D8A4BEEF90F0C0EF90F0C5EF90F000
:102180000150D7EC96F00CEF91F00350D96EDA6A5B
:102190000A0ED926DE50DE10D8B4D1EF90F0D3EF7E
:1021A00090F0ECEF90F00350D96EDA6A0A0ED9265F
:1021B0000350E16EE26A030EE126DE50E65CE65073
:1021C000800A086EDE50800A0858D8B0EAEF90F016
:1021D000ECEF90F00CEF91F00350D96EDA6A030E39
:1021E000D926DECF04F0DDCF05F00350D96EDA6AD0
:1021F000DECF06F0DDCF07F004500624D96E05507F
:102200000720DA6E01C0DFFF0350D96EDA6A030ED1
:10221000D926DE2A000EDD221200000E0B6E000E03
:102220000A6E0750D96EDA6ADECFF6FFDDCFF7FF10
:10223000000EF86E0800F5502A0AD8A422EF91F09B
:1022400024EF91F04EEF91F00750D96EDA6ADE2A52
:10225000000EDD220850D96EDA6A020EDF26DF5C3E
:10226000D96EDA6ADECF0AF0DECF0BF063EF91F0C1
:102270000AC001F00BC002F0000E046E0A0E036EDD
:1022800077EC96F0095001240A6E000E02200B6EC6
:102290000750D96EDA6ADE2A000EDD220750D96EA9
:1022A000DA6ADECFF6FFDDCFF7FF000EF86E08002A
:1022B000F550D00F096E090E096461EF91F063EFDC
:1022C00091F038EF91F00AC007F00BC008F012004F
:1022D000000E066E02BE71EF91F06FEF91F077EF96
:1022E00091F0016C021ED8B0022A010E066E04BEE7
:1022F0007EEF91F07CEF91F082EF91F0036C041E81
:10230000D8B0042A03500410D8B489EF91F08BEFB1
:1023100091F0AFEF91F0010E056E93EF91F0D89030
:1023200003360436052A04AE98EF91F09AEF91F047
:102330008FEF91F00350015C04500258D8A0A3EF36
:1023400091F0A5EF91F0A9EF91F00350015E0450D8
:10235000025AD89004320332052E9AEF91F00650BB
:10236000D8B4B5EF91F0B7EF91F0BBEF91F0016CFD
:10237000021ED8B0022A01C001F002C002F0120011
:10238000000E0114096E000E02140A6E800E031472
:102390000B6E7F0E04140C6E09500A100B100C10FB
:1023A000D8A4D5EF91F0D7EF91F0DFEF91F0000EC8
:1023B000016E000E026E000E036E000E046E000E23
:1023C0000514096E000E06140A6E800E07140B6EBB
:1023D0007F0E08140C6E09500A100B100C10D8A4B4
:1023E000F4EF91F0F6EF91F0FEEF91F0000E056E34
:1023F000000E066E000E076E000E086E05500118E6
:102400000FE1065002180CE10750031809E10850CB
:102410000418D8B40EEF92F010EF92F013EF92F090
:10242000D89014EF92F0D88012000001E4A11BEFC5
:1024300092F01DEF92F025EF92F010C009F011C05C
:102440000AF00FC00BF037EC95F013BE2CEF92F0B2
:102450002AEF92F030EF92F0000E136E000E126E23
:10246000000E166E000E156E40EF92F0000E026E1A
:10247000200E016E0FC003F0B0EC90F0154A162A42
:102480001250155C1650800A146E1350800A1458AE
:10249000D8A04DEF92F04FEF92F036EF92F000019E
:1024A000E4B155EF92F057EF92F05FEF92F010C069
:1024B00009F011C00AF00FC00BF037EC95F01200D4
:1024C0008594839E8598879C7D947B9E7D987F9C38
:1024D000050E0E01746F060E766F070E696F080EFB
:1024E000886FBD508F0B4009BD6EE00EBE16BF5009
:1024F000F00B0109BF6E01C0BCFFBD8E000EAA6EBD
:10250000000EA66E000E0F01256F000E216FFC0E4F
:10251000AD16F30EAD16CF0EAD163F0EAD16AB8851
:10252000AB50F00B0C09AB6EAB8EA788A750F00B2D
:102530000C09A76EA78E26892651F00B0C09266F71
:10254000268F22892251F00B0C09226F228F120054
:10255000D8EF92F01350D96EDA6ADF50D8B4B3EFE7
:1025600092F0B5EF92F0B9EF92F01350D96EDA6AAB
:10257000DF061450D96EDA6ADF50D8B4C2EF92F099
:10258000C4EF92F0C8EF92F01450D96EDA6ADF0609
:1025900013C00EF037EC8EF014C00EF037EC8EF056
:1025A0000B0E156E620EE82EFED7152EFCD700D04E
:1025B0001350D96EDA6ADF50D8A4E1EF92F0E3EF5E
:1025C00092F0AAEF92F01450D96EDA6ADF50D8A4D4
:1025D000ECEF92F0EEEF92F0AAEF92F012001350AF
:1025E000D96EDA6A010ED926010EDF6E1450D96E4B
:1025F000DA6A010ED926DF6A13C00EF037EC8EF0CE
:1026000014C00EF037EC8EF0000E176E000E166E32
:102610001350D96EDA6ADF2A1450D96EDA6ADF2ACB
:1026200013C00EF037EC8EF014C00EF037EC8EF0C5
:102630000B0E156E620EE82EFED7152EFCD700D0BD
:10264000164A172A175009E1320E165CD8A02BEF54
:1026500093F02DEF93F008EF93F012001350D96E22
:10266000DA6A010ED926DF6A1450D96EDA6A010ED1
:10267000D926010EDF6E13C00EF037EC8EF014C0B9
:102680000EF037EC8EF0000E176E000E166E135023
:10269000D96EDA6ADF2A1450D96EDA6ADF2A13C0DB
:1026A0000EF037EC8EF014C00EF037EC8EF00B0EFF
:1026B000156E620EE82EFED7152EFCD700D0164AF6
:1026C000172A175009E1320E165CD8A06AEF93F072
:1026D0006CEF93F047EF93F012001350D96EDA6A63
:1026E000010ED926DF6A1450D96EDA6A010ED92696
:1026F000DF6A000E176E000E166E1350D96EDA6A7E
:1027000016C0DFFF1450D96EDA6A16C0DFFF13C09F
:102710000EF037EC8EF014C00EF037EC8EF00B0E8E
:10272000156E620EE82EFED7152EFCD700D0164A85
:10273000172A17BEA5EF93F0175009E1330E165C68
:10274000D8A0A5EF93F0A7EF93F07DEF93F01200E0
:10275000000E0D6E000E0C6E09500A10D8B4B3EFC7
:1027600093F0B5EF93F0DDEF93F0010E0B6EBDEF3C
:1027700093F0D89009360A360B2A0AAEC2EF93F0CE
:10278000C4EF93F0B9EF93F0D8900C360D360950A2
:10279000075C0A500858D8A0D0EF93F0D2EF93F01E
:1027A000D7EF93F00950075E0A50085A0C80D89072
:1027B0000A3209320B2EC4EF93F00CC007F00DC0A3
:1027C00008F01200215007E1150E205CD8B0EBEFA5
:1027D00093F0EDEF93F0F3EF93F0F30E1C6EEA0E2F
:1027E0001D6EA7EC95F0215009E1690E205CD8A080
:1027F000FCEF93F0FEEF93F00FEF94F0215007E120
:10280000830E205CD8B007EF94F009EF94F00FEF3F
:1028100094F0F30E1C6EEA0E1D6ED9EC95F01200CA
:10282000CDEC96F0520EC2EC96F0B60EC2EC96F0DD
:10283000D2EC96F0530EC2EC96F0010EF6EC94F04A
:10284000076E07500A6E0B6A000EF6EC94F0076EE6
:102850000750096E086A0A5008100A6E0B500910DA
:102860000B6EC8EC96F00AC005F00BC006F0120023
:10287000CDEC96F0520EC2EC96F0B80EC2EC96F08B
:10288000D2EC96F0530EC2EC96F0010EF6EC94F0FA
:10289000076E07500A6E0B6A000EF6EC94F0076E96
:1028A0000750096E086A0A5008100A6E0B5009108A
:1028B0000B6EC8EC96F00AC005F00BC006F01200D3
:1028C000CDEC96F0520EC2EC96F0B40EC2EC96F03F
:1028D000D2EC96F0530EC2EC96F0010EF6EC94F0AA
:1028E000076E07500A6E0B6A000EF6EC94F0076E46
:1028F0000750096E086A0A5008100A6E0B5009103A
:102900000B6EC8EC96F00AC005F00BC006F0120082
:10291000CDEC96F0520EC2EC96F0BA0EC2EC96F0E8
:10292000D2EC96F0530EC2EC96F0010EF6EC94F059
:10293000076E07500A6E0B6A000EF6EC94F0076EF5
:102940000750096E086A0A5008100A6E0B500910E9
:102950000B6EC8EC96F00AC005F00BC006F0120032
:10296000000E151A000E161A000E171A800E181AED
:1029700011C001F012C002F013C003F014C004F043
:1029800015C005F016C006F017C007F018C008F013
:10299000CBEC83F001C011F002C012F003C013F0C1
:1029A00004C014F012002FC032F030C033F0E1EF59
:1029B00094F02EC022F0320E236E31C024F0A7EC2A
:1029C0008CF032C0F6FF33C0F7FF000EF86E08003F
:1029D000F5500009D8A4EFEF94F0F1EF94F0D9EF9F
:1029E00094F0000E2F6E000E2E6E1200036E50EC4F
:1029F00096F00E01DA8750EC96F0D5CE04F050EC4C
:102A000096F00350D8B407EF95F00BEF95F0026AFB
:102A1000022A0CEF95F0026A023A02460E01DA51E0
:102A20000218DF0B0218DA6FDA8904501200380E30
:102A30003C6E34C03DF035C03EF0000E416E000EDD
:102A4000406E000E486E000E476E3D0E2E6E36C074
:102A50002FF037C030F03C0E316ED3EC94F0405084
:102A60003424D96E41503520DA6EDF6A1200000E30
:102A70000E6E000E0D6E46EF95F00CC001F0026A6E
:102A80000BC003F0B0EC90F00D4A0E2A0D50092453
:102A9000D96E0E500A20DA6EDF500C6E0C50D8A49E
:102AA00054EF95F056EF95F03DEF95F0120066EF7C
:102AB00095F002C0D9FF03C0DAFFDF50B6EC96F004
:102AC000024A032A6A0EE82EFED700D002C0D9FFC0
:102AD00003C0DAFFDF50D8A470EF95F072EF95F0E5
:102AE00059EF95F012003BEC96F0010E036E000ECC
:102AF0008AEC96F03F0E056E550EE82EFED7052E99
:102B0000FCD70000030E036E000E8AEC96F0D50E83
:102B1000036E010E8AEC96F0120008BE92EF95F05B
:102B200094EF95F09AEF95F007C007F008C008F011
:102B3000A6EF95F007C009F008C00AF0091E0A1EAA
:102B4000094A0A2A09C007F00AC008F012001CC08E
:102B500018F01DC019F023EC96F0290E1F6E960E8A
:102B60001E6E7F0EE82EFED71E2EFCD71F2EFAD724
:102B700000001CC018F01DC019F0C0EC95F0120048
:102B800018C013F019C014F0EFEC92F0160E1B6E83
:102B90001B0E1A6E880EE82EFED71A2EFCD71B2E9F
:102BA000FAD700D018C013F019C014F0A8EC92F0B6
:102BB00012001CC018F01DC019F023EC96F0290E6D
:102BC0001F6E960E1E6E7F0EE82EFED71E2EFCD7B1
:102BD0001F2EFAD700001CC018F01DC019F0F2EC2F
:102BE00095F0120018C013F019C014F02EEC93F0F9
:102BF000160E1B6E1B0E1A6E880EE82EFED71A2EAE
:102C0000FCD71B2EFAD700D018C013F019C014F04F
:102C1000A8EC92F01200B00EF66E2D0EF76E010EBB
:102C2000F86E0900F5CFFCF001EE00F09C0EEE6AA4
:102C3000E806FDE100EEE0F01C0EEE6AE806FDE1BC
:102C40000001E6EF8FF018C013F019C014F06DEC1E
:102C500093F0190E1B6E5A0E1A6EB20EE82EFED7A6
:102C60001A2EFCD71B2EFAD718C013F019C014F077
:102C7000A8EC92F012000E01D951F00B0809D96F9F
:102C8000D98B9F0ED66F848A848CA79BA79D1D0E1F
:102C90001D6F1E0E1C6F1C0E6F6F1B0E706F1200CF
:102CA0000E01D8B556EF96F058EF96F050EF96F02B
:102CB000DACE01F01F0E0116D8A461EF96F063EF93
:102CC00096F050EF96F01200600E346E356AE40E06
:102CD000366EFF0E376E49C038F04AC039F017EC37
:102CE00095F0600E026E036A57EC95F012000150E9
:102CF0000302F3CF05F0F4CF06F001500402F350C5
:102D0000062602500302F350062605C001F006C055
:102D100002F01200046ECDEC96F0520EC2EC96F06A
:102D200004508009C2EC96F00350C2EC96F0C8EC57
:102D300096F01200120E0E01626F110E156FE997D8
:102D4000E895330EE56F000EE66FE789E88BE78FB5
:102D50001200868C0E01B48D0F015899FC0E581785
:102D60002E0E5F6F60946088608E1200016E0E01FF
:102D700037A5BDEF96F0BFEF96F0B7EF96F001C024
:102D8000E4FE1200026E50EC96F002C0D5FE120076
:102D900050EC96F00E01DA85120050EC96F00E0120
:102DA000DA81120050EC96F00E01DA831200120064
:012DB0000121
:020000040030CA
:02000000AAFF55
:020004009FFF5C
:00000001FF
