:04000000D3EF1CF02E
:100E00000043616C6962726174696F6E2073746112
:100E10007465203D20207768697465206C69676877
:100E2000740043616C6962726174696F6E207374DF
:100E3000617465203D20677265656E200A0D004370
:100E4000616C6962726174696F6E2073746174653C
:100E50003D20626C7565200A0D0043414C494252A9
:100E60004154494F4E20434F4D504C45544544202A
:100E70000A0D0043616C6962726174696F6E207360
:100E800074617465203D2072656400566F6C7461F6
:100E90006765203D2025642E253032642C202000FB
:100EA0006875653D253033642C202000636C6561D6
:100EB000723D25303364002E0000000E0001B46F37
:100EC000000EB56F000EB66F000EB76F4550D96EAD
:100ED000DA6ADECF46F0DDCF47F046C001F047C00A
:100EE00002F0036A046A000E6BEC12F001C074F0A9
:100EF00002C075F003C076F004C077F04450D96E9C
:100F0000DA6ADECF46F0DDCF47F046C001F047C0D9
:100F100002F0036A046A000E6BEC12F001C078F074
:100F200002C079F003C07AF004C07BF04550D96E5E
:100F3000DA6A020ED926DECF46F0DDCF47F046C092
:100F400001F047C002F0036A046A000E6BEC12F075
:100F500001C07CF002C07DF003C07EF004C07FF0D1
:100F60004450D96EDA6A020ED926DECF46F0DDCFC4
:100F700047F046C001F047C002F0036A046A000E61
:100F80006BEC12F001C080F002C081F003C082F06F
:100F900004C083F04550D96EDA6A040ED926DECF3C
:100FA00046F0DDCF47F046C001F047C002F0036ACB
:100FB000046A000E6BEC12F001C084F002C085F0F0
:100FC00003C086F004C087F04450D96EDA6A040E7C
:100FD000D926DECF46F0DDCF47F046C001F047C04E
:100FE00002F0036A046A000E6BEC12F001C088F094
:100FF00002C089F003C08AF004C08BF04550D96E5E
:10100000DA6A060ED926DECF46F0DDCF47F046C0BD
:1010100001F047C002F0036A046A000E6BEC12F0A4
:1010200001C08CF002C08DF003C08EF004C08FF0C0
:101030004450D96EDA6A060ED926DECF46F0DDCFEF
:1010400047F046C001F047C002F0036A046A000E90
:101050006BEC12F001C090F002C091F003C092F06E
:1010600004C093F08CC019F08DC01AF08EC01BF034
:101070008FC01CF090C01DF091C01EF092C01FF0F8
:1010800093C020F0B5EC0FF019C094F01AC095F0A1
:101090001BC096F01CC097F0600E316EAC0E326E25
:1010A00094C033F095C034F096C035F097C036F058
:1010B0000AEC1DF0600E026EA2EC1DF074C019F077
:1010C00075C01AF076C01BF077C01CF078C01DF018
:1010D00079C01EF07AC01FF07BC020F0B5EC0FF095
:1010E00019C0B8F01AC0B9F01BC0BAF01CC0BBF0F0
:1010F0007CC019F07DC01AF07EC01BF07FC01CF0D0
:1011000080C01DF081C01EF082C01FF083C020F09F
:10111000B5EC0FF019C0BCF01AC0BDF01BC0BEF09A
:101120001CC0BFF084C019F085C01AF086C01BF047
:1011300087C01CF088C01DF089C01EF08AC01FF057
:101140008BC020F0B5EC0FF019C0C0F01AC0C1F090
:101150001BC0C2F01CC0C3F0B8C001F0B9C002F09F
:10116000BAC003F0BBC004F0BCC005F0BDC006F0BF
:10117000BEC007F0BFC008F0C0EC16F0D8A0C3EFA7
:1011800008F0C5EF08F0FAEF08F0BCC001F0BDC0F0
:1011900002F0BEC003F0BFC004F0C0C005F0C1C083
:1011A00006F0C2C007F0C3C008F0C0EC16F0D8A02B
:1011B000DCEF08F0DEEF08F0E8EF08F0C0C098F0D0
:1011C000C1C099F0C2C09AF0C3C09BF0F0EF08F024
:1011D000BCC098F0BDC099F0BEC09AF0BFC09BF0F3
:1011E00098C0A8F099C0A9F09AC0AAF09BC0ABF033
:1011F0002DEF09F0B8C001F0B9C002F0BAC003F099
:10120000BBC004F0C0C005F0C1C006F0C2C007F00A
:10121000C3C008F0C0EC16F0D8A011EF09F013EF2E
:1012200009F01DEF09F0C0C09CF0C1C09DF0C2C024
:101230009EF0C3C09FF025EF09F0B8C09CF0B9C084
:101240009DF0BAC09EF0BBC09FF09CC0A8F09DC0AE
:10125000A9F09EC0AAF09FC0ABF0BCC001F0BDC019
:1012600002F0BEC003F0BFC004F0B8C005F0B9C0C2
:1012700006F0BAC007F0BBC008F0C0EC16F0D8A06A
:1012800044EF09F046EF09F07BEF09F0C0C001F030
:10129000C1C002F0C2C003F0C3C004F0BCC005F07E
:1012A000BDC006F0BEC007F0BFC008F0C0EC16F02D
:1012B000D8A05DEF09F05FEF09F069EF09F0C0C059
:1012C000A0F0C1C0A1F0C2C0A2F0C3C0A3F071EFF2
:1012D00009F0BCC0A0F0BDC0A1F0BEC0A2F0BFC06C
:1012E000A3F0A0C0B0F0A1C0B1F0A2C0B2F0A3C002
:1012F000B3F0AEEF09F0C0C001F0C1C002F0C2C04F
:1013000003F0C3C004F0B8C005F0B9C006F0BAC01D
:1013100007F0BBC008F0C0EC16F0D8A092EF09F0BF
:1013200094EF09F09EEF09F0C0C0A4F0C1C0A5F091
:10133000C2C0A6F0C3C0A7F0A6EF09F0B8C0A4F0E1
:10134000B9C0A5F0BAC0A6F0BBC0A7F0A4C0B0F069
:10135000A5C0B1F0A6C0B2F0A7C0B3F0B0C011F004
:10136000B1C012F0B2C013F0B3C014F0A8C015F0B1
:10137000A9C016F0AAC017F0ABC018F04EEC1CF0D4
:1013800011C0ACF012C0ADF013C0AEF014C0AFF09D
:10139000B0C001F0B1C002F0B2C003F0B3C004F0BD
:1013A000A8C005F0A9C006F0AAC007F0ABC008F0BD
:1013B000CEEC18F0D8A0DFEF09F0E1EF09F0ECEF88
:1013C00009F0000E0001B46F000EB56F000EB66F8D
:1013D000000EB76FF5EF0AF0B0C001F0B1C002F037
:1013E000B2C003F0B3C004F0B8C005F0B9C006F055
:1013F000BAC007F0BBC008F0CEEC18F0D8A003EFDD
:101400000AF005EF0AF033EF0AF0BCC015F0BDC0DA
:1014100016F0BEC017F0BFC018F0C0C011F0C1C0B8
:1014200012F0C2C013F0C3C014F04EEC1CF011C097
:1014300019F012C01AF013C01BF014C01CF0ACC09D
:101440001DF0ADC01EF0AEC01FF0AFC020F0B5EC77
:101450000FF019C0B4F01AC0B5F01BC0B6F01CC034
:10146000B7F0F5EF0AF0B0C001F0B1C002F0B2C0C1
:1014700003F0B3C004F0BCC005F0BDC006F0BEC0B0
:1014800007F0BFC008F0CEEC18F0D8A04AEF0AF081
:101490004CEF0AF094EF0AF0B8C015F0B9C016F09E
:1014A000BAC017F0BBC018F0C0C011F0C1C012F034
:1014B000C2C013F0C3C014F04EEC1CF011C019F000
:1014C00012C01AF013C01BF014C01CF0ACC01DF009
:1014D000ADC01EF0AEC01FF0AFC020F0B5EC0FF0F5
:1014E00019C0B4F01AC0B5F01BC0B6F01CC0B7F0FC
:1014F000B4C001F0B5C002F0B6C003F0B7C004F04C
:10150000000E056E000E066E000E076E400E086E91
:1015100040EC0BF001C0B4F002C0B5F003C0B6F06F
:1015200004C0B7F0F5EF0AF0B0C001F0B1C002F0AE
:10153000B2C003F0B3C004F0C0C005F0C1C006F0F3
:10154000C2C007F0C3C008F0CEEC18F0D8A0ABEFD3
:101550000AF0ADEF0AF0F5EF0AF0BCC015F0BDC01F
:1015600016F0BEC017F0BFC018F0B8C011F0B9C077
:1015700012F0BAC013F0BBC014F04EEC1CF011C056
:1015800019F012C01AF013C01BF014C01CF0ACC04C
:101590001DF0ADC01EF0AEC01FF0AFC020F0B5EC26
:1015A0000FF019C0B4F01AC0B5F01BC0B6F01CC0E3
:1015B000B7F0B4C001F0B5C002F0B6C003F0B7C0D8
:1015C00004F0000E056E000E066E800E076E400ED3
:1015D000086E40EC0BF001C0B4F002C0B5F003C0DF
:1015E000B6F004C0B7F0F5EF0AF0B4C001F0B5C032
:1015F00002F0B6C003F0B7C004F0000E056E000E96
:10160000066E700E076E420E086EA0EC0DF001C063
:10161000B4F002C0B5F003C0B6F004C0B7F00001EA
:10162000B7BF17EF0BF015EF0BF031EF0BF0B4C0B5
:1016300001F0B5C002F0B6C003F0B7C004F0000E70
:10164000056E000E066EB40E076E430E086E40EC7B
:101650000BF001C0B4F002C0B5F003C0B6F004C096
:10166000B7F0B4C001F0B5C002F0B6C003F0B7C027
:1016700004F03DEC16F001C044F002C045F0120049
:101680000450800B0D6E045004240F6E03AE4BEF1C
:101690000BF04DEF0BF04EEF0BF00F800F50D8B466
:1016A00054EF0BF056EF0BF06BEF0BF00F28D8A4B4
:1016B0005CEF0BF05EEF0BF066EF0BF0000E016ECF
:1016C000000E026E000E036E000E046E038E000EFE
:1016D000046E73EF0BF0000E016E000E026E000E32
:1016E000036E000E046E0850800B0E6E0D500E1827
:1016F000D8B47DEF0BF07FEF0BF080EF0BF00D8C8B
:10170000085008240E6E07AE88EF0BF08AEF0BF03E
:101710008BEF0BF00E800E50D8B491EF0BF093EFDF
:101720000BF0A8EF0BF00E28D8A499EF0BF09BEF6D
:101730000BF0A3EF0BF0000E056E000E066E000E10
:10174000076E000E086E078E000E086EB0EF0BF0ED
:10175000000E056E000E066E000E076E000E086E7F
:101760000F500E5CD8B0B7EF0BF0B9EF0BF0E0EF15
:101770000BF00DACBEEF0BF0C0EF0BF0C2EF0BF0B7
:10178000800E0D1A0FC010F00EC00FF010C00EF03A
:1017900001C010F005C001F010C005F002C010F04B
:1017A00006C002F010C006F003C010F007C003F03E
:1017B00010C007F004C010F008C004F010C008F01A
:1017C000000E106E0F500EC009F00A6A095E000E7E
:1017D0000A5A0ABEF5EF0BF00A5009E11A0E095C2D
:1017E000D8A0F5EF0BF0F7EF0BF02EEF0CF0015057
:1017F000021003100410D8A400EF0CF003EF0CF05B
:10180000010E04EF0CF0000E106E000E016E000EC3
:10181000026E000E036E000E046E0EC00FF037EF66
:101820000CF010A016EF0CF018EF0CF01EEF0CF0FF
:10183000D89010300109106E20EF0CF0D8901032C3
:1018400001A025EF0CF027EF0CF028EF0CF0108E24
:10185000043404320332023201320F2A0E500F5C7C
:10186000D8A035EF0CF037EF0CF011EF0CF00DBCF9
:101870003CEF0CF03EEF0CF07EEF0CF00F50D8A4D4
:1018800044EF0CF046EF0CF050EF0CF0000E016E40
:10189000000E026E000E036E000E046E9FEF0DF040
:1018A0000550012606500222075003220850042248
:1018B00004A05DEF0CF05FEF0CF00BEF0DF010A04B
:1018C00064EF0CF066EF0CF06CEF0CF0D890103079
:1018D0000109106E6EEF0CF0D890103201A073EF7A
:1018E0000CF075EF0CF076EF0CF0108E043404322F
:1018F0000332023201320F2A0BEF0DF00550015C6A
:1019000006500258075003580450800A096E0850C8
:10191000800A0958D8B08FEF0CF091EF0CF0BCEFB3
:101920000CF00150055C096E025006580A6E035017
:1019300007580B6E045008580C6EFF0E0924016EF8
:10194000FF0E0A20026EFF0E0B20036EFF0E0C200E
:10195000046E800E0D1A106C1050D8A4B2EF0CF06B
:10196000B4EF0CF0C4EF0CF0010E0126000E0222C1
:1019700003220422C4EF0CF00550015E0650025A07
:101980000750035A0850045A015002100310041063
:10199000D8A4CDEF0CF0CFEF0CF004EF0DF0105009
:1019A000D8A4D5EF0CF0D7EF0CF004EF0DF0000E3B
:1019B000016E000E026E000E036E000E046E9FEFAD
:1019C0000DF0D890013602360336043610AEEBEF38
:1019D0000CF0EDEF0CF0EEEF0CF0018010A0F3EF47
:1019E0000CF0F5EF0CF0F9EF0CF0D8801036FBEFAF
:1019F0000CF0D89010360F50D8B401EF0DF003EF73
:101A00000DF004EF0DF00F0603AE09EF0DF00BEF34
:101A10000DF0E1EF0CF0000E0E6E10AE12EF0DF0B7
:101A200014EF0DF02CEF0DF010C009F07F0E091629
:101A3000D8B41DEF0DF01FEF0DF023EF0DF0010EE8
:101A40000E6E2CEF0DF001A028EF0DF02AEF0DF037
:101A50002CEF0DF01FEF0DF00E50D8B432EF0DF05B
:101A600034EF0DF05FEF0DF0010E0126000E0222A3
:101A70000322042204A03FEF0DF041EF0DF05FEFD1
:101A80000DF001C009F002C00AF003C00BF004C061
:101A90000CF00C340C320B320A32093209C001F05E
:101AA0000AC002F00BC003F00CC004F00F28D8B439
:101AB0005CEF0DF05EEF0DF05FEF0DF00F2A0F28D9
:101AC000D8B465EF0DF067EF0DF06FEF0DF00F502C
:101AD000D8A46DEF0DF06FEF0DF081EF0DF0000E5B
:101AE000016E000E026E000E036E000E046E0F50AB
:101AF000D8A47DEF0DF07FEF0DF081EF0DF0000E1B
:101B00000D6E0FA086EF0DF088EF0DF08BEF0DF04E
:101B1000038E8CEF0DF0039ED8900F30046E0DAE47
:101B200094EF0DF096EF0DF097EF0DF0048E01C0DD
:101B300001F002C002F003C003F004C004F0120080
:101B40000450800B0D6E04500424136E03AEABEFF3
:101B50000DF0ADEF0DF0AEEF0DF013801350D8B4D3
:101B6000B4EF0DF0B6EF0DF0C9EF0DF01328D8A4C7
:101B7000BCEF0DF0BEEF0DF0C6EF0DF0000E016EE4
:101B8000000E026E000E036E000E046E038ED1EF87
:101B90000DF0000E016E000E026E000E036E000EC0
:101BA000046E0850800B0D1A08500824126E07AE00
:101BB000DCEF0DF0DEEF0DF0DFEF0DF012801250D4
:101BC000D8B4E5EF0DF0E7EF0DF0FAEF0DF01228C5
:101BD000D8A4EDEF0DF0EFEF0DF0F7EF0DF0000EE4
:101BE000056E000E066E000E076E000E086E078E64
:101BF00002EF0EF0000E056E000E066E000E076E70
:101C0000000E086E1250D8B408EF0EF00AEF0EF076
:101C100012EF0EF01350D8A410EF0EF012EF0EF0EA
:101C20001CEF0EF0000E016E000E026E000E036E31
:101C3000000E046EB4EF0FF007500102F3CF18F05E
:101C4000F4CF19F018500E6E0F6A106A116A19500D
:101C5000146E156A166A176A06500202F3CF18F05E
:101C6000F4CF19F018500E26000E0F221022112268
:101C700019501426000E15221622172205500302B1
:101C8000F3CF18F0F4CF19F018500E26000E0F22E3
:101C90001022112219501426000E15221622172286
:101CA00010C011F00FC010F00EC00FF00E6A0550FA
:101CB0000202F3CF18F0F4CF19F018500E26195085
:101CC0000F22000E1022000E112206500102F3CF47
:101CD00018F0F4CF19F018500E2619500F22000EEC
:101CE0001022000E112210C011F00FC010F00EC013
:101CF0000FF00E6A05500102F3CF18F0F4CF19F07F
:101D000018500E2619500F22000E1022000E11221C
:101D100007500202F3CF18F0F4CF19F01850142630
:101D200019501522000E1622000E1722065003022B
:101D3000F3CF18F0F4CF19F01850142619501522CB
:101D4000000E1622000E172207500302F3CF18F0E0
:101D5000F4CF19F01850096E19500A6E0B6A0C6A0C
:101D60000BC00CF00AC00BF009C00AF0096A095058
:101D700014260A5015220B5016220C5017220EC0A2
:101D800009F00FC00AF010C00BF011C00CF0190ED2
:101D9000CFEF0EF0D8900C320B320A320932E82E17
:101DA000CAEF0EF0095014260A5015220B501622C5
:101DB0000C50172210C011F00FC010F00EC00FF021
:101DC0000E6A125013C009F00A6A0926000E0A2290
:101DD000820E0924186EFF0E0A20196E05EF0FF00F
:101DE000D890143615361636173611AEFAEF0EF0B7
:101DF000FCEF0EF0FDEF0EF01480D8900E360F368B
:101E0000103611361806D8A0190616AE0AEF0FF0D4
:101E10000CEF0FF0F0EF0EF0000E126E11AE13EF9C
:101E20000FF015EF0FF039EF0FF0FF0E0E14096EE3
:101E3000FF0E0F140A6EFF0E10140B6E7F0E11149E
:101E40000C6E09500A100B100C10D8B42AEF0FF0CA
:101E50002CEF0FF030EF0FF0010E126E39EF0FF094
:101E600014A035EF0FF037EF0FF039EF0FF02CEF34
:101E70000FF01250D8B43FEF0FF041EF0FF065EFC5
:101E80000FF0010E1426000E15221622172217A09D
:101E90004CEF0FF04EEF0FF065EF0FF014C009F0AC
:101EA00015C00AF016C00BF017C00CF00C340C3241
:101EB0000B320A32093209C014F00AC015F00BC007
:101EC00016F00CC017F0184A192A19BE70EF0FF05F
:101ED000195008E11828D8A070EF0FF072EF0FF03A
:101EE0007CEF0FF0000E146E000E156E800E166E55
:101EF0007F0E176EAAEF0FF019BE89EF0FF0195081
:101F000006E11804D8B087EF0FF089EF0FF095EFD6
:101F10000FF0000E146E000E156E000E166E000E01
:101F2000176E000E0D6EAAEF0FF018C013F0FF0E23
:101F30001416FF0E15167F0E1616000E171613A098
:101F4000A4EF0FF0A6EF0FF0A7EF0FF0168ED890CA
:101F50001330176E0D50171214C001F015C002F0A7
:101F600016C003F017C004F012001C50800B296E3D
:101F70001C501C24306E1BAEC0EF0FF0C2EF0FF0F0
:101F8000C3EF0FF030803050D8B4C9EF0FF0CBEF73
:101F90000FF0E0EF0FF03028D8A4D1EF0FF0D3EF1F
:101FA0000FF0DBEF0FF0000E196E000E1A6E000E30
:101FB0001B6E000E1C6E1B8E000E1C6EE8EF0FF0E9
:101FC000000E196E000E1A6E000E1B6E000E1C6EB7
:101FD0002050800B291A20502024316E1FAEF3EFC1
:101FE0000FF0F5EF0FF0F6EF0FF031803150D8B46D
:101FF000FCEF0FF0FEEF0FF013EF10F03128D8A434
:1020000004EF10F006EF10F00EEF10F0000E1D6E52
:10201000000E1E6E000E1F6E000E206E1F8E000E34
:10202000206E1BEF10F0000E1D6E000E1E6E000ED7
:102030001F6E000E206E1D501E101F102010D8A401
:1020400024EF10F026EF10F03EEF10F0000E196EA6
:10205000000E1A6E000E1B6E000E1C6E800E1B1200
:102060007F0E1C1229501C1219C019F01AC01AF048
:102070001BC01BF01CC01CF081EF11F03050D8A425
:1020800044EF10F046EF10F050EF10F0000E196E14
:10209000000E1A6E000E1B6E000E1C6E81EF11F00A
:1020A000315030C021F0226A215E000E225A7F0E8C
:1020B00021242A6E000E22202B6E19C025F01AC092
:1020C00026F01BC027F01CC028F0000E196E000E71
:1020D0001A6E000E1B6E000E1C6E000E2C6E000E93
:1020E0002D6E000E2E6E000E2F6E000E316EB1EFB3
:1020F00010F03150D8B47FEF10F081EF10F098EF6E
:1021000010F0D8902536263627362836D89019363E
:102110001A361B361C362FAE90EF10F092EF10F0EF
:1021200093EF10F01980D8902C362D362E362F369E
:102130001D50255C1E5026581F50275820502858E7
:10214000D8A0A5EF10F0A7EF10F0B0EF10F02F8C93
:102150001D50255E1E50265A1F50275A2050285ABF
:10216000312A190E3164B7EF10F0B9EF10F079EFA2
:1021700010F02550261027102810D8B4C2EF10F008
:10218000C4EF10F0DCEF10F02C80DCEF10F0D890F2
:1021900019361A361B361C362FAED1EF10F0D3EF9E
:1021A00010F0D4EF10F01980D8902C362D362E3642
:1021B0002F362A06D8A02B061BAEE1EF10F0E3EF76
:1021C00010F0C7EF10F0000E316E2FAEEAEF10F0F6
:1021D000ECEF10F010EF11F0FF0E2C14216EFF0E3B
:1021E0002D14226EFF0E2E14236E7F0E2F14246EDC
:1021F0002150221023102410D8B401EF11F003EF66
:1022000011F007EF11F0010E316E10EF11F019A06F
:102210000CEF11F00EEF11F010EF11F003EF11F0D1
:102220003150D8B416EF11F018EF11F03CEF11F067
:10223000010E1926000E1A221B221C221CA023EFBD
:1022400011F025EF11F03CEF11F019C021F01AC088
:1022500022F01BC023F01CC024F02434243223328B
:102260002232213221C019F022C01AF023C01BF003
:1022700024C01CF02A4A2B2A2BBE47EF11F02B500A
:1022800008E12A28D8A047EF11F049EF11F054EFE8
:1022900011F0000E2B6E2A68000E196E000E1A6ED9
:1022A000000E1B6E000E1C6E2BBE61EF11F02B504A
:1022B00006E12A04D8B05FEF11F061EF11F06FEF83
:1022C00011F0000E2B6E000E2A6E000E196E000E1D
:1022D0001A6E000E1B6E000E1C6E000E296E2AC0B8
:1022E00030F030A076EF11F078EF11F07BEF11F0C5
:1022F0001B8E7CEF11F01B9ED89030301C6E32EF9D
:1023000010F012007F907D9E7996470E316E730E0D
:10231000326EB70E336E3350D8A40E0E346E0AEC04
:102320001DF0470E026EA2EC1DF08EB49AEF11F074
:102330009CEF11F095EF11F07F80290E466E960EFE
:10234000456E7F0EE82EFED7452EFCD7462EFAD7D7
:102350000000AEEC1BF04450D96EDA6A05C0DEFF17
:1023600006C0DDFF7F90470E316E220E326EB70E33
:10237000336E3350D8A40E0E346E0AEC1DF0470EA7
:10238000026EA2EC1DF08EB4C8EF11F0CAEF11F08E
:10239000C3EF11F07D8E290E466E960E456E7F0EB0
:1023A000E82EFED7452EFCD7462EFAD70000D6ECF5
:1023B0001BF04450D96EDA6A020ED92605C0DEFF42
:1023C00006C0DDFF7D9E470E316E3F0E326EB70EAA
:1023D000336E3350D8A40E0E346E0AEC1DF0470E47
:1023E000026EA2EC1DF08EB4F8EF11F0FAEF11F0CE
:1023F000F3EF11F07986290E466E960E456E7F0E2C
:10240000E82EFED7452EFCD7462EFAD7000026EC44
:102410001CF04450D96EDA6A040ED92605C0DEFFDE
:1024200006C0DDFF7996470E316E010E326EB70E93
:10243000336E3350D8A40E0E346E0AEC1DF0470EE6
:10244000026EA2EC1DF08EB428EF12F02AEF12F00B
:1024500023EF12F07F807D8E7986290E466E960ED0
:10246000456E7F0EE82EFED7452EFCD7462EFAD7B6
:102470000000FEEC1BF04450D96EDA6A060ED92635
:1024800005C0DEFF06C0DDFF7F907D9E7996470E7A
:10249000316E5A0E326EB70E336E3350D8A40E0E14
:1024A000346E0AEC1DF0470E026EA2EC1DF08EB4E5
:1024B0005CEF12F05EEF12F057EF12F0290E466E4D
:1024C000960E456E7F0EE82EFED7452EFCD7462E83
:1024D000FAD700001200096E0950D8B472EF12F05A
:1024E00074EF12F096EF12F004BE7BEF12F079EF6A
:1024F00012F096EF12F001C005F002C006F003C022
:1025000007F004C008F0051E061E071E081E052A57
:10251000000E06220722082205C00BF006C00CF0B0
:1025200007C00DF008C00EF09EEF12F001C00BF0D6
:1025300002C00CF003C00DF004C00EF001500210F8
:1025400003100410D8A4A7EF12F0A9EF12F0B3EF14
:1025500012F0000E016E000E026E000E036E000EF1
:10256000046E44EF13F0960E0A6EBDEF12F00A2AC5
:10257000D8900E320D320C320B32000E0B14056E59
:10258000000E0C14066E000E0D14076EFE0E0E14D7
:10259000086E0550061007100810D8A4D2EF12F0EC
:1025A000D4EF12F0B7EF12F0E2EF12F00A2A010EA8
:1025B0000B26000E0C220D220E22D8900E320D3268
:1025C0000C320B32000E0B14056E000E0C14066E4E
:1025D000000E0D14076EFF0E0E14086E0550061047
:1025E00007100810D8A4F7EF12F0F9EF12F0D6EFA9
:1025F00012F001EF13F00A06D8900B360C360D36A8
:102600000E360DBE06EF13F008EF13F010EF13F0C7
:10261000020E0A600EEF13F010EF13F0FBEF12F052
:102620000AB015EF13F017EF13F018EF13F00D9E2B
:10263000D8900A320AC005F0066A076A086A05C01F
:1026400008F0076A066A056A05500B1206500C125C
:1026500007500D1208500E120950D8B432EF13F083
:1026600034EF13F03CEF13F004BE3BEF13F039EFFF
:1026700013F03CEF13F00E8E0BC001F00CC002F013
:102680000DC003F00EC004F012003DEC1EF0F0ECA3
:102690001CF02EEC1EF0000E026E630E016EC1ECFB
:1026A00019F0000E0001E26F010EE36F010EE46FFE
:1026B000000EE66F630EE56FAA0EE76F0F0EE86F70
:1026C000A60EE96F0F0EEA6F000ED96F010EDA6FDA
:1026D000010EDB6F000EDD6F630EDC6F250EDE6F0B
:1026E0000F0EDF6F210EE06F0F0EE16F7C9E849E58
:1026F00087907F90859E7D9E8196799686860E0135
:10270000B49788968086190E0001C56F5A0EC46F63
:10271000B10EE82EFED7C42FFCD7C52FFAD700D0B4
:1027200080967E9486840E01B495F30E446E82ECFE
:1027300011F07F807D8E7986E20E136ED90E146EB5
:10274000CEEC1AF0FEEC1BF005C0F1F006C0F2F082
:10275000F1C001F0F2C002F0036A046A000E6BECF3
:1027600012F001C0C6F002C0C7F003C0C8F004C038
:10277000C9F0F9C001F0FAC002F0036A046A000E61
:102780006BEC12F001C0CAF002C0CBF003C0CCF079
:1027900004C0CDF0C6C019F0C7C01AF0C8C01BF005
:1027A000C9C01CF0CAC01DF0CBC01EF0CCC01FF0C9
:1027B000CDC020F0B5EC0FF019C0CEF01AC0CFF0AC
:1027C0001BC0D0F01CC0D1F09A0E016E990E026EA3
:1027D000990E036E3E0E046ECEC005F0CFC006F01B
:1027E000D0C007F0D1C008F0C0EC16F0D8B0FBEFB5
:1027F00013F0FDEF13F099EF13F0E20E136ED90E04
:10280000146E09EC1AF0EB0E486E42EC17F048C05B
:10281000D2F049C0D3F0D2C020F0D3C021F080EC78
:102820001BF099EF13F000EF00F02350D96EDA6A35
:10283000DFCFF6FF0E0EF76E000EF86E0800F550B3
:10284000250AD8A426EF14F028EF14F0C4EF14F0F2
:102850002350D96EDA6ADF2A000E0001D56F000E10
:10286000D46FD4C05BF0D669D769000E2B6E5FEFD2
:1028700014F05B822350D96EDA6ADF2A5FEF14F01E
:10288000010E2B6E5FEF14F02350D96EDA6ADFCFA2
:10289000F6FF0E0EF76E000EF86E0800F550256E6E
:1028A000266A2650000AD8B458EF14F040EF14F00E
:1028B0002550300AD8B439EF14F040EF14F02B5003
:1028C000D8B465EF14F067EF14F044EF14F023C0B0
:1028D00007F024C008F077EC18F007C0D4F008C067
:1028E000D5F00001D5BF79EF14F077EF14F07EEF4B
:1028F00014F05B80D46DD51FD8B0D52B2350D96E82
:10290000DA6ADF502C6E2CC0F6FF0E0EF76E000E4A
:10291000F86E0800F550640AD8B491EF14F093EF04
:1029200014F0A3EF14F02CC0F6FF0E0EF76E000E9D
:10293000F86E0800F550690AD8A4A1EF14F0A3EFCF
:1029400014F0BEEF14F02450D96EDA6A020EDF26BE
:10295000DF5CD96EDA6ADECF27F0DECF28F02350B5
:10296000D96EDA6A2C28DF6E22C017F027C018F063
:1029700028C019F0D8EC14F0D7EF14F02350D96E1A
:10298000DA6ADF2AD7EF14F02350D96EDA6ADFCF84
:10299000F6FF0E0EF76E000EF86E0800F550016E91
:1029A000026A22C003F023EC19F0BEEF14F012000B
:1029B000010E1C6E19BEDFEF14F0E2EF14F0010EF1
:1029C000E3EF14F0000E1F6ED4C01DF0D5C01EF052
:1029D0001F50D8B4EEEF14F0F0EF14F007EF15F03D
:1029E0001D06D8A01E061F50D8A4F9EF14F0FBEF67
:1029F00014F001EF15F0000E1B6E2B0E1A6E05EF92
:102A000015F0000E1B6E2D0E1A6E1AC01FF0000E70
:102A1000216E1F0E206E000E01018B6F3FEF15F02F
:102A20002006D8A021066C0E2024D96E010E21208C
:102A3000DA6E18C001F019C002F0000E046E0A0E22
:102A4000036E1FEC18F001C007F002C008F024EC80
:102A50001DF00750300FDF6E000E1C6E1D06D8A053
:102A60001E0618C001F019C002F0000E046E0A0E16
:102A7000036EBDEC17F001C018F002C019F021BEC2
:102A80004AEF15F0215008E12004D8A04AEF15F0D4
:102A90004CEF15F071EF15F018501910D8A453EF42
:102AA00015F055EF15F010EF15F01C50D8A45BEFA2
:102AB00015F05DEF15F010EF15F01EBE68EF15F084
:102AC0001E5008E11D04D8A068EF15F06AEF15F05C
:102AD00071EF15F05BB26FEF15F071EF15F010EFBD
:102AE00015F01F50D8B477EF15F079EF15F084EF9B
:102AF00015F02006D8A021066C0E2024D96E010EF8
:102B00002120DA6E1FC0DFFF17C00FF06C0E2024EB
:102B1000106E010E2120116E1DC012F01EC013F0A8
:102B200078EC19F012000E50D96EDA6A020ED9262E
:102B3000DF50D8B49EEF15F0A0EF15F0D0EF15F0F0
:102B40000E50D96EDA6ADF500F6E0F50016E026AB6
:102B50000E50D96EDA6A030ED926DECF03F0DDCF30
:102B600004F0FCEC1DF001C007F002C008F0000EFC
:102B70000A6E640E096E46EC1BF00E50D96EDA6ACE
:102B8000030ED926DF50106E0750105C116E0E50E8
:102B9000D96EDA6A030ED926DF50126EF1EF15F006
:102BA000000E116E0E50D96EDA6ADF500F6E0F50A4
:102BB000016E026A0E50D96EDA6A030ED926DECF94
:102BC00003F0DDCF04F0FCEC1DF001C007F002C003
:102BD00008F0000E0A6E640E096E46EC1BF00750FA
:102BE000126E0E50D96EDA6A010ED926DF50D8B4B3
:102BF000FCEF15F0FEEF15F01EEF16F00E50D96E3B
:102C0000DA6A050ED926DECF0FF0DDCF10F00FC047
:102C1000D9FF10C0DAFF11C0DFFF0E50D96EDA6A9B
:102C2000070ED926DECF0FF0DDCF10F00FC0D9FF91
:102C300010C0DAFF12C0DFFF3CEF16F00E50D96E65
:102C4000DA6A050ED926DECF0FF0DDCF10F00FC007
:102C5000D9FF10C0DAFF12C0DFFF0E50D96EDA6A5A
:102C6000070ED926DECF0FF0DDCF10F00FC0D9FF51
:102C700010C0DAFF11C0DFFF1200033404340A6E03
:102C80000A50D8A446EF16F048EF16F052EF16F0AF
:102C9000000E016E000E026E000E036E000E046E3A
:102CA000BFEF16F001C005F002C006F003C007F048
:102CB00004C008F0200E62EF16F0D89008320732F8
:102CC00006320532E82E5DEF16F00550096E038ED0
:102CD000FF0E0116FF0E0216FF0E0316000E04165D
:102CE000960E0A5E0ABE79EF16F077EF16F08FEFB8
:102CF00016F00A50800A970FD8B081EF16F083EFD4
:102D000016F085EF16F048EF16F0D8900432033233
:102D1000023201320A3E85EF16F0A7EF16F01F0EC1
:102D20000A6495EF16F097EF16F09FEF16F048EF54
:102D300016F0D89001360236033604360A060A50D9
:102D4000D8A4A5EF16F0A7EF16F099EF16F00950EA
:102D5000D8B4ADEF16F0AFEF16F0B7EF16F0041ED3
:102D6000031E021E016C000E02220322042201C077
:102D700001F002C002F003C003F004C004F012002E
:102D8000000E0114096E000E02140A6E800E031468
:102D90000B6E7F0E04140C6E09500A100B100C10F1
:102DA000D8A4D5EF16F0D7EF16F0DFEF16F0000E2F
:102DB000016E000E026E000E036E000E046E000E19
:102DC0000514096E000E06140A6E800E07140B6EB1
:102DD0007F0E08140C6E09500A100B100C10D8A4AA
:102DE000F4EF16F0F6EF16F0FEEF16F0000E056E9B
:102DF000000E066E000E076E000E086E04AE03EFA6
:102E000017F005EF17F00EEF17F0016C021ED8B0A7
:102E1000022A031ED8B0032A800E045608AE13EF10
:102E200017F015EF17F01EEF17F0056C061ED8B05F
:102E3000062A071ED8B0072A800E0856000E011A6F
:102E4000000E021A000E031A800E041A000E051A54
:102E5000000E061A000E071A800E081A0550015CB3
:102E6000065002580750035808500458D8B03BEF9A
:102E700017F03DEF17F040EF17F0D89041EF17F043
:102E8000D88012007F807D9E7996290E4B6E960E1B
:102E90004A6E7F0EE82EFED74A2EFCD74B2EFAD76D
:102EA0000000AEEC1BF04850D96EDA6A05C0DEFFB8
:102EB00006C0DDFF7F907D8E7996290E4B6E960EB3
:102EC0004A6E7F0EE82EFED74A2EFCD74B2EFAD73D
:102ED0000000D6EC1BF04850D96EDA6A020ED926F3
:102EE00005C0DEFF06C0DDFF7F907D9E7986290E3E
:102EF0004B6E960E4A6E7F0EE82EFED74A2EFCD7FA
:102F00004B2EFAD7000026EC1CF04850D96EDA6A36
:102F1000040ED92605C0DEFF06C0DDFF7F807D8E52
:102F20007986290E4B6E960E4A6E7F0EE82EFED7DE
:102F30004A2EFCD74B2EFAD70000FEEC1BF048506F
:102F4000D96EDA6A060ED92605C0DEFF06C0DDFF9F
:102F5000F30E446EEB0E456E5DEC07F044C04CF092
:102F600045C04DF04CC044F04DC045F01FEC1EF084
:102F70004CC048F04DC049F01200000E066E04BE71
:102F8000C6EF17F0C4EF17F0CCEF17F0036C041E78
:102F9000D8B0042A010E066E02BED3EF17F0D1EFAF
:102FA00017F0D9EF17F0016C021ED8B0022A010EFB
:102FB000061A000E086E000E076E03500410D8B4F7
:102FC000E4EF17F0E6EF17F00EEF18F0010E056EC4
:102FD000EEEF17F0D89003360436052A04AEF3EF6F
:102FE00017F0F5EF17F0EAEF17F0D890073608362C
:102FF0000350015C04500258D8A001EF18F003EF11
:1030000018F008EF18F00350015E0450025A0780D0
:10301000D89004320332052EF5EF17F00650D8B4DD
:1030200014EF18F016EF18F01AEF18F0076C081EDE
:10303000D8B0082A07C001F008C002F01200000E44
:10304000066E02BE28EF18F026EF18F02EEF18F0EB
:10305000016C021ED8B0022A010E066E04BE35EFC6
:1030600018F033EF18F039EF18F0036C041ED8B0E5
:10307000042A03500410D8B440EF18F042EF18F0BF
:1030800066EF18F0010E056E4AEF18F0D89003367F
:103090000436052A04AE4FEF18F051EF18F046EF52
:1030A00018F00350015C04500258D8A05AEF18F0F1
:1030B0005CEF18F060EF18F00350015E0450025A04
:1030C000D89004320332052E51EF18F00650D8B4D0
:1030D0006CEF18F06EEF18F072EF18F0016C021E32
:1030E000D8B0022A01C001F002C002F01200000EA6
:1030F0000B6E000E0A6E0750D96EDA6ADFCFF6FF4C
:103100000E0EF76E000EF86E0800F5502A0AD8A4CD
:103110008CEF18F08EEF18F0B4EF18F00750D96E5E
:10312000DA6ADF2A0850D96EDA6A020EDF26DF5C1F
:10313000D96EDA6ADECF0AF0DECF0BF0C9EF18F0F5
:103140000AC001F00BC002F0000E046E0A0E036EFE
:10315000FCEC1DF0095001240A6E000E02200B6EDB
:103160000750D96EDA6ADF2A0750D96EDA6ADFCFE4
:10317000F6FF0E0EF76E000EF86E0800F550D00F39
:10318000096E090E0964C7EF18F0C9EF18F0A0EF37
:1031900018F00AC007F00BC008F01200000E01146E
:1031A000096E000E02140A6E800E03140B6E7F0E61
:1031B00004140C6E09500A100B100C10D8A4E3EF85
:1031C00018F0E5EF18F0EDEF18F0000E016E000EAC
:1031D000026E000E036E000E046E000E0514096EE2
:1031E000000E06140A6E800E07140B6E7F0E081474
:1031F0000C6E09500A100B100C10D8A402EF19F035
:1032000004EF19F00CEF19F0000E056E000E066EBB
:10321000000E076E000E086E055001180FE10650F3
:1032200002180CE10750031809E108500418D8B43B
:103230001CEF19F01EEF19F021EF19F0D89022EFD2
:1032400019F0D88012000350D8B429EF19F02BEFF1
:1032500019F033EF19F00350D8A431EF19F033EF20
:1032600019F038EF19F001506BEC1EF077EF19F000
:103270000350D96EDA6A0A0ED926DE50DE10D8B4B1
:1032800044EF19F046EF19F05FEF19F00350D96ED3
:10329000DA6A0A0ED9260350E16EE26A030EE126CD
:1032A000DE50E65CE650800A086EDE50800A085860
:1032B000D8B05DEF19F05FEF19F077EF19F0035018
:1032C000D96EDA6A030ED926DF50046E0350D96E28
:1032D000DA6ADF500424D96EDA6A01C0DFFF0350D6
:1032E000D96EDA6A030ED926DE2A000EDD2212001C
:1032F0005BA07DEF19F07FEF19F087EF19F010C098
:1033000009F011C00AF00FC00BF0B3EC1CF013BEB3
:103310008EEF19F08CEF19F092EF19F0000E136E8A
:10332000000E126E000E166E000E156EA2EF19F052
:10333000000E026E200E016E0FC003F023EC19F098
:10334000154A162A1250155C1650800A146E135036
:10335000800A1458D8A0AFEF19F0B1EF19F098EF28
:1033600019F05BB0B6EF19F0B8EF19F0C0EF19F033
:1033700010C009F011C00AF00FC00BF0B3EC1CF044
:1033800012008594839E8598879C7D947B9E7D9872
:103390007F9C050E0E01746F060E766F070E696F27
:1033A000080E886FBD508F0B4009BD6EE00EBE1633
:1033B000BF50F00B0109BF6E01C0BCFFBD8E000EF7
:1033C000AA6E000EA66E000E0F01256F000E216F73
:1033D000FC0EAD16F30EAD16CF0EAD163F0EAD16AC
:1033E000AB88AB50F00B0C09AB6EAB8EA788A75027
:1033F000F00B0C09A76EA78E26892651F00B0C093D
:10340000266F268F22892251F00B0C09226F228F02
:10341000120039EF1AF01350D96EDA6ADF50D8B4BF
:1034200014EF1AF016EF1AF01AEF1AF01350D96EC3
:10343000DA6ADF061450D96EDA6ADF50D8B423EFA7
:103440001AF025EF1AF029EF1AF01450D96EDA6A43
:10345000DF0613C00EF093EC15F014C00EF093ECE1
:1034600015F00B0E156E620EE82EFED7152EFCD74A
:1034700000D01350D96EDA6ADF50D8A442EF1AF0A8
:1034800044EF1AF00BEF1AF01450D96EDA6ADF50DD
:10349000D8A44DEF1AF04FEF1AF00BEF1AF012000C
:1034A0001350D96EDA6A010ED926010EDF6E145060
:1034B000D96EDA6A010ED926DF6A13C00EF093ECDA
:1034C00015F014C00EF093EC15F0000E176E000E00
:1034D000166E1350D96EDA6ADF2A1450D96EDA6A82
:1034E000DF2A13C00EF093EC15F014C00EF093EC2D
:1034F00015F00B0E156E620EE82EFED7152EFCD7BA
:1035000000D0164A172A175009E1320E165CD8A0CF
:103510008CEF1AF08EEF1AF069EF1AF012001350C8
:10352000D96EDA6A010ED926DF6A1450D96EDA6ACA
:10353000010ED926010EDF6E13C00EF093EC15F0CC
:1035400014C00EF093EC15F0000E176E000E166E00
:103550001350D96EDA6ADF2A1450D96EDA6ADF2A7C
:1035600013C00EF093EC15F014C00EF093EC15F0B0
:103570000B0E156E620EE82EFED7152EFCD700D06E
:10358000164A172A175009E1320E165CD8A0CBEF65
:103590001AF0CDEF1AF0A8EF1AF012001350D96EFE
:1035A000DA6A010ED926010EDF6E1450D96EDA6A7E
:1035B000010ED926010EDF6E000E176E000E166E7C
:1035C0001350D96EDA6A16C0DFFF1450D96EDA6A6A
:1035D00016C0DFFF13C00EF093EC15F014C00EF010
:1035E00093EC15F00B0E156E620EE82EFED7152E1D
:1035F000FCD700D0164A172A17BE08EF1BF0175049
:1036000009E1330E165CD8A008EF1BF00AEF1BF09F
:10361000E0EF1AF012001350D96EDA6A010ED926C3
:10362000DF6A1450D96EDA6A010ED926DF6A000EFD
:10363000176E000E166E1350D96EDA6A16C0DFFFD1
:103640001450D96EDA6A16C0DFFF13C00EF093EC87
:1036500015F014C00EF093EC15F00B0E156E620E03
:10366000E82EFED7152EFCD700D0164A172A17BE13
:1036700043EF1BF0175009E1330E165CD8A043EF5F
:103680001BF045EF1BF01BEF1BF01200000E0C6E41
:10369000000E0B6E09500A10D8B451EF1BF053EF17
:1036A0001BF07BEF1BF0010E0D6E5BEF1BF0D89053
:1036B00009360A360D2A0AAE60EF1BF062EF1BF0E6
:1036C00057EF1BF0D8900B360C360950075C0A50A8
:1036D0000858D8A06EEF1BF070EF1BF075EF1BF0D1
:1036E0000950075E0A50085A0B80D8900A320932F6
:1036F0000D2E62EF1BF00BC007F00CC008F012009B
:10370000215007E1150E205CD8B089EF1BF08BEF3C
:103710001BF091EF1BF0E20E1C6ED90E1D6E3EECFD
:103720001DF0215009E1690E205CD8A09AEF1BF032
:103730009CEF1BF0ADEF1BF0215007E1830E205CE6
:10374000D8B0A5EF1BF0A7EF1BF0ADEF1BF0E20E1A
:103750001C6ED90E1D6E70EC1DF0120061EC1EF097
:10376000520E56EC1EF0B60E56EC1EF066EC1EF035
:10377000530E56EC1EF0010E92EC1CF0076E075033
:103780000A6E0B6A000E92EC1CF0076E0750096E71
:10379000086A0A5008100A6E0B5009100B6E5CEC98
:1037A0001EF00AC005F00BC006F0120061EC1EF01E
:1037B000520E56EC1EF0B80E56EC1EF066EC1EF0E3
:1037C000530E56EC1EF0010E92EC1CF0076E0750E3
:1037D0000A6E0B6A000E92EC1CF0076E0750096E21
:1037E000086A0A5008100A6E0B5009100B6E5CEC48
:1037F0001EF00AC005F00BC006F0120061EC1EF0CE
:10380000520E56EC1EF0B40E56EC1EF066EC1EF096
:10381000530E56EC1EF0010E92EC1CF0076E075092
:103820000A6E0B6A000E92EC1CF0076E0750096ED0
:10383000086A0A5008100A6E0B5009100B6E5CECF7
:103840001EF00AC005F00BC006F0120061EC1EF07D
:10385000520E56EC1EF0BA0E56EC1EF066EC1EF040
:10386000530E56EC1EF0010E92EC1CF0076E075042
:103870000A6E0B6A000E92EC1CF0076E0750096E80
:10388000086A0A5008100A6E0B5009100B6E5CECA7
:103890001EF00AC005F00BC006F01200000E151A4B
:1038A000000E161A000E171A800E181A11C001F019
:1038B00012C002F013C003F014C004F015C005F0EC
:1038C00016C006F017C007F018C008F040EC0BF067
:1038D00001C011F002C012F003C013F004C014F0D4
:1038E00012002EC030F07DEF1CF02DC022F0300E03
:1038F000236E2FC024F015EC14F030C0F6FF0E0E2E
:10390000F76E000EF86E0800F5500009D8A48BEF92
:103910001CF08DEF1CF075EF1CF0000E2E6E000EEB
:103920002D6E1200036EE8EC1DF00E01DA87E8EC54
:103930001DF0D5CE04F0E8EC1DF00350D8B4A3EF91
:103940001CF0A7EF1CF0026A022AA8EF1CF0026A22
:10395000023A02460E01DA510218DF0B0218DA6F42
:10396000DA8904501200000E0E6E000E0D6EC2EFCA
:103970001CF00CC001F0026A0BC003F023EC19F03C
:103980000D4A0E2A0D500924D96E0E500A20DA6E07
:10399000DF500C6E0C50D8A4D0EF1CF0D2EF1CF00E
:1039A000B9EF1CF01200D80EF66E3C0EF76E000E4A
:1039B000F86E0900F5CFFBF001EE00F08C0EEE6A18
:1039C000E806FDE100EED4F0270EEE6AE806FDE120
:1039D0005F6A5E6A5D6A5C6A5B6A000145EF13F0CC
:1039E000D3EC1DF0010E036E000E0FEC1EF03F0E27
:1039F000056E550EE82EFED7052EFCD70000030EEF
:103A0000036E000E0FEC1EF0D50E036E010E0FECD0
:103A10001EF01200330E376E31C038F0000E3C6ECF
:103A2000000E3B6E000E436E000E426E380E2D6E81
:103A300032C02EF0370E2F6E71EC1CF031503B244B
:103A4000D96EDA6ADF6A120008BE29EF1DF02BEF8B
:103A50001DF031EF1DF007C007F008C008F03DEF82
:103A60001DF007C009F008C00AF0091E0A1E094A25
:103A70000A2A09C007F00AC008F012001CC018F09A
:103A80001DC019F0BBEC1DF0290E1F6E960E1E6EA8
:103A90007F0EE82EFED71E2EFCD71F2EFAD7000071
:103AA0001CC018F01DC019F057EC1DF0120018C012
:103AB00013F019C014F050EC1AF0160E1B6E1B0E0A
:103AC0001A6E880EE82EFED71A2EFCD71B2EFAD7B8
:103AD00000D018C013F019C014F009EC1AF012004D
:103AE0001CC018F01DC019F0BBEC1DF0290E1F6E94
:103AF000960E1E6E7F0EE82EFED71E2EFCD71F2EB2
:103B0000FAD700001CC018F01DC019F089EC1DF098
:103B1000120018C013F019C014F08FEC1AF0160E32
:103B20001B6E1B0E1A6E880EE82EFED71A2EFCD7BF
:103B30001B2EFAD700D018C013F019C014F009ECEE
:103B40001AF01200AFEF1DF00250D96EDA6ADF50A2
:103B50004AEC1EF0022A6A0EE82EFED700D0025070
:103B6000D96EDA6ADF50D8A4B8EF1DF0BAEF1DF0B5
:103B7000A4EF1DF0120018C013F019C014F00BECE4
:103B80001BF0190E1B6E5A0E1A6EB20EE82EFED7DF
:103B90001A2EFCD71B2EFAD718C013F019C014F038
:103BA00009EC1AF012000E01D951F00B0809D96F77
:103BB000D98B9F0ED66F848A848CA79BA79D1D0EE0
:103BC0001D6F1E0E1C6F1C0E6F6F1B0E706F120090
:103BD0000E01D8B5EEEF1DF0F0EF1DF0E8EF1DF08F
:103BE000DACE01F01F0E0116D8A4F9EF1DF0FBEF9D
:103BF0001DF0E8EF1DF0120001500302F3CF05F0B5
:103C0000F4CF06F001500402F350062602500302DE
:103C1000F350062605C001F006C002F01200046E43
:103C200061EC1EF0520E56EC1EF00450800956EC6A
:103C30001EF0035056EC1EF05CEC1EF01200600EFD
:103C4000316EA00E326E44C033F045C034F00AEC41
:103C50001DF0600E026EA2EC1DF01200120E0E019D
:103C6000626F110E156FE997E895330EE56F000E40
:103C7000E66FE789E88BE78F1200868C0E01B48D22
:103C80000F015899FC0E58172E0E5F6F60946088D4
:103C9000608E1200016E0E0137A551EF1EF053EF3A
:103CA0001EF04BEF1EF001C0E4FE1200026EE8ECC5
:103CB0001DF002C0D5FE1200E8EC1DF00E01DA8501
:103CC0001200E8EC1DF00E01DA811200E8EC1DF0A4
:093CD0000E01DA8312001200015A
:020000040030CA
:02000000AAFF55
:020004009FFF5C
:00000001FF
