:040000009AEF0CF077
:100E000000566F6C74616765203D2025642E253087
:100E100032642C202000436C6561723D25642C20D7
:100E2000200D0A00477265656E3D25642C20200068
:100E3000426C75653D25642C2020005265643D257B
:100E4000642C202000002350D96EDA6ADFCFF6FF31
:100E50000E0EF76E000EF86E0800F550250AD8A4A5
:100E600034EF07F036EF07F0D1EF07F02350D96EDB
:100E7000DA6ADF2A000E576E000E566E56C058F022
:100E80000001F869F969000E2B6E6DEF07F05882CA
:100E90002350D96EDA6ADF2A6DEF07F0010E2B6E50
:100EA0006DEF07F02350D96EDA6ADFCFF6FF0E0E32
:100EB000F76E000EF86E0800F550256E266A265073
:100EC000000AD8B466EF07F04EEF07F02550300A5D
:100ED000D8B447EF07F04EEF07F02B50D8B473EFBC
:100EE00007F075EF07F052EF07F023C007F024C0BA
:100EF00008F032EC0AF007C056F008C057F057BEB1
:100F000086EF07F084EF07F08BEF07F05880566C00
:100F1000571ED8B0572A2350D96EDA6ADF502C6E8C
:100F20002CC0F6FF0E0EF76E000EF86E0800F5509E
:100F3000640AD8B49EEF07F0A0EF07F0B0EF07F017
:100F40002CC0F6FF0E0EF76E000EF86E0800F5507E
:100F5000690AD8A4AEEF07F0B0EF07F0CBEF07F0C7
:100F60002450D96EDA6A020EDF26DF5CD96EDA6AA7
:100F7000DECF27F0DECF28F02350D96EDA6A2C2896
:100F8000DF6E22C017F027C018F028C019F0E5EC7A
:100F900007F0E4EF07F02350D96EDA6ADF2AE4EFB6
:100FA00007F02350D96EDA6ADFCFF6FF0E0EF76E28
:100FB000000EF86E0800F550016E026A22C003F0C0
:100FC0007DEC09F0CBEF07F01200010E1C6E19BE8C
:100FD000ECEF07F0EFEF07F0010EF0EF07F0000E77
:100FE0001F6E56C01DF057C01EF01F50D8B4FBEF47
:100FF00007F0FDEF07F014EF08F01D06D8A01E065D
:101000001F50D8A406EF08F008EF08F00EEF08F024
:10101000000E1B6E2B0E1A6E12EF08F0000E1B6EE8
:101020002D0E1A6E1AC01FF0000E216E1F0E206EBC
:10103000000E0101836F4CEF08F02006D8A02106B6
:10104000640E2024D96E010E2120DA6E18C001F042
:1010500019C002F0000E046E0A0E036EDAEC09F0FD
:1010600001C007F002C008F0CFEC0CF00750300FC1
:10107000DF6E000E1C6E1D06D8A01E0618C001F003
:1010800019C002F0000E046E0A0E036E1BEC09F08C
:1010900001C018F002C019F021BE57EF08F021502E
:1010A00008E12004D8A057EF08F059EF08F07EEFD0
:1010B00008F018501910D8A460EF08F062EF08F09B
:1010C0001DEF08F01C50D8A468EF08F06AEF08F094
:1010D0001DEF08F01EBE75EF08F01E5008E11D045C
:1010E000D8A075EF08F077EF08F07EEF08F058B25F
:1010F0007CEF08F07EEF08F01DEF08F01F50D8B429
:1011000084EF08F086EF08F091EF08F02006D8A0F1
:101110002106640E2024D96E010E2120DA6E1FC034
:10112000DFFF17C00FF0640E2024106E010E212087
:10113000116E1DC012F01EC013F0DBEC0AF012009D
:101140005CEC0DF0B5EC0CF04DEC0DF07C9E849E4B
:10115000E9EC0CF001C04EF002C04FF05EEC0BF079
:1011600005C050F006C051F0D6EC0BF005C052F0AF
:1011700006C053F086EC0BF005C054F006C055F0E5
:10118000AEEC0BF005C0F6F006C0F7F0600E456E51
:101190004EC046F04FC047F089EC0AF0920E316E17
:1011A000326A3B0E336E50C034F051C035F060EC03
:1011B0000CF0C40E316E326A300E336E52C034F011
:1011C00053C035F060EC0CF0840E316E010E326EBF
:1011D000240E336E54C034F055C035F060EC0CF082
:1011E000B60E316E010E326E160E336EF6C034F04E
:1011F000F7C035F060EC0CF0600E026E036A7EEC16
:101200000CF0920E026E036A7EEC0CF0C40E026EBD
:10121000036A7EEC0CF0840E026E010E036E7EEC0F
:101220000CF0B60E026E010E036E7EEC0CF0A8EF11
:1012300008F000EF00F0000E066E04BE24EF09F087
:1012400022EF09F02AEF09F0036C041ED8B0042A3B
:10125000010E066E02BE31EF09F02FEF09F037EFF5
:1012600009F0016C021ED8B0022A010E061A000E07
:10127000086E000E076E03500410D8B442EF09F058
:1012800044EF09F06CEF09F0010E056E4CEF09F028
:10129000D89003360436052A04AE51EF09F053EF17
:1012A00009F048EF09F0D890073608360350015C82
:1012B00004500258D8A05FEF09F061EF09F066EF23
:1012C00009F00350015E0450025A0780D89004329E
:1012D0000332052E53EF09F00650D8B472EF09F02F
:1012E00074EF09F078EF09F0076C081ED8B0082AEF
:1012F00007C001F008C002F012000350D8B483EF19
:1013000009F085EF09F08DEF09F00350D8A48BEFB9
:1013100009F08DEF09F092EF09F001508AEC0DF021
:10132000D9EF09F00350D96EDA6A0A0ED926DE50D9
:10133000DE10D8B49EEF09F0A0EF09F0B9EF09F084
:101340000350D96EDA6A0A0ED9260350E16EE26ABA
:10135000030EE126DE50E65CE650800A086EDE50A1
:10136000800A0858D8B0B7EF09F0B9EF09F0D9EF03
:1013700009F00350D96EDA6A030ED926DECF04F0E5
:10138000DDCF05F00350D96EDA6ADECF06F0DDCF8F
:1013900007F004500624D96E05500720DA6E01C00C
:1013A000DFFF0350D96EDA6A030ED926DE2A000E5B
:1013B000DD221200000E066E02BEE3EF09F0E1EF3F
:1013C00009F0E9EF09F0016C021ED8B0022A010E03
:1013D000066E04BEF0EF09F0EEEF09F0F4EF09F04D
:1013E000036C041ED8B0042A03500410D8B4FBEFD9
:1013F00009F0FDEF09F021EF0AF0010E056E05EF8F
:101400000AF0D89003360436052A04AE0AEF0AF033
:101410000CEF0AF001EF0AF00350015C045002588F
:10142000D8A015EF0AF017EF0AF01BEF0AF00350EF
:10143000015E0450025AD89004320332052E0CEF9C
:101440000AF00650D8B427EF0AF029EF0AF02DEF82
:101450000AF0016C021ED8B0022A01C001F002C0DD
:1014600002F01200000E0B6E000E0A6E0750D96ECD
:10147000DA6ADFCFF6FF0E0EF76E000EF86E080088
:10148000F5502A0AD8A447EF0AF049EF0AF06FEFA7
:101490000AF00750D96EDA6ADF2A0850D96EDA6A84
:1014A000020EDF26DF5CD96EDA6ADECF0AF0DECF0D
:1014B0000BF084EF0AF00AC001F00BC002F0000E3E
:1014C000046E0A0E036E2AEC0DF0095001240A6E18
:1014D000000E02200B6E0750D96EDA6ADF2A075021
:1014E000D96EDA6ADFCFF6FF0E0EF76E000EF86ED9
:1014F0000800F550D00F096E090E096482EF0AF05A
:1015000084EF0AF05BEF0AF00AC007F00BC008F0A6
:10151000120046C007F047C008F0000E0A6E4D0EDC
:10152000096E24EC0BF007C04CF008C04DF046C02B
:1015300001F047C002F0000E046E640E036E2AEC48
:101540000DF001C007F002C008F0000E0A6E4D0E4B
:10155000096E24EC0BF007C048F008C049F04CC0FD
:1015600001F04DC002F0FF0E046E9C0E036E2AECDB
:101570000DF0015048244A6E025049204B6E45C080
:1015800031F0326A010E336E4CC034F04DC035F08C
:101590004AC036F04BC037F060EC0CF0520E496E8A
:1015A0002B0E486E000EE82EFED7482EFCD7492E93
:1015B000FAD700D0120058A0E0EF0AF0E2EF0AF0EC
:1015C000EAEF0AF010C009F011C00AF00FC00BF0EA
:1015D00040EC0CF013BEF1EF0AF0EFEF0AF0F5EF7C
:1015E0000AF0000E136E000E126E000E166E000E44
:1015F000156E05EF0BF0000E026E200E016E0FC08F
:1016000003F07DEC09F0154A162A1250155C1650AD
:10161000800A146E1350800A1458D8A012EF0BF0F1
:1016200014EF0BF0FBEF0AF058B019EF0BF01BEFC3
:101630000BF023EF0BF010C009F011C00AF00FC03F
:101640000BF040EC0CF01200000E0D6E000E0C6E54
:1016500009500A10D8B42FEF0BF031EF0BF059EF0F
:101660000BF0010E0B6E39EF0BF0D89009360A36ED
:101670000B2A0AAE3EEF0BF040EF0BF035EF0BF00C
:10168000D8900C360D360950075C0A500858D8A07F
:101690004CEF0BF04EEF0BF053EF0BF00950075EE1
:1016A0000A50085A0C80D8900A3209320B2E40EFAB
:1016B0000BF00CC007F00DC008F0120085EC0DF027
:1016C000520E75EC0DF0B60E75EC0DF07BEC0DF0D6
:1016D000530E75EC0DF0010EFEEC0BF0076E07508B
:1016E0000A6E0B6A000EFEEC0BF0076E0750096ED7
:1016F000086A0A5008100A6E0B5009100B6E80EC35
:101700000DF00AC005F00BC006F0120085EC0DF0DC
:10171000520E75EC0DF0B80E75EC0DF07BEC0DF083
:10172000530E75EC0DF0010EFEEC0BF0076E07503A
:101730000A6E0B6A000EFEEC0BF0076E0750096E86
:10174000086A0A5008100A6E0B5009100B6E80ECE4
:101750000DF00AC005F00BC006F0120085EC0DF08C
:10176000520E75EC0DF0B40E75EC0DF07BEC0DF037
:10177000530E75EC0DF0010EFEEC0BF0076E0750EA
:101780000A6E0B6A000EFEEC0BF0076E0750096E36
:10179000086A0A5008100A6E0B5009100B6E80EC94
:1017A0000DF00AC005F00BC006F0120085EC0DF03C
:1017B000520E75EC0DF0BA0E75EC0DF07BEC0DF0E1
:1017C000530E75EC0DF0010EFEEC0BF0076E07509A
:1017D0000A6E0B6A000EFEEC0BF0076E0750096EE6
:1017E000086A0A5008100A6E0B5009100B6E80EC44
:1017F0000DF00AC005F00BC006F01200036E16ECE7
:101800000DF00E01DA8716EC0DF0D5CE04F016ECD3
:101810000DF00350D8B40FEF0CF013EF0CF0026A88
:10182000022A14EF0CF0026A023A02460E01DA5163
:101830000218DF0B0218DA6FDA89045012002EC08A
:1018400030F02BEF0CF02DC022F0300E236E2FC0A5
:1018500024F023EC07F030C0F6FF0E0EF76E000EFA
:10186000F86E0800F5500009D8A439EF0CF03BEFF2
:101870000CF023EF0CF0000E2E6E000E2D6E1200F9
:10188000000E0E6E000E0D6E4FEF0CF00CC001F04E
:10189000026A0BC003F07DEC09F00D4A0E2A0D50D0
:1018A0000924D96E0E500A20DA6EDF500C6E0C50EF
:1018B000D8A45DEF0CF05FEF0CF046EF0CF01200D7
:1018C000340E386E31C039F032C03AF0000E3D6E41
:1018D000000E3C6E000E446E000E436E390E2D6EEF
:1018E00033C02EF0380E2F6E1FEC0CF03C5031241C
:1018F000D96E3D503220DA6EDF6A12008DEF0CF0A7
:1019000002C0D9FF03C0DAFFDF5069EC0DF0024AD4
:10191000032A6A0EE82EFED700D002C0D9FF03C00A
:10192000DAFFDF50D8A497EF0CF099EF0CF080EFBE
:101930000CF01200160EF66E1B0EF76E000EF86E0F
:101940000900F5CF5EF001EE00F0840EEE6AE806C5
:10195000FDE10001F96BF86B00EE56F0080EEE6A3F
:10196000E806FDE10001A0EF08F001EC0DF0010E2A
:10197000036E000E3DEC0DF03F0E056E550EE82E89
:10198000FED7052EFCD70000030E036E000E3DECC3
:101990000DF0D50E036E010E3DEC0DF0120008BEE9
:1019A000D4EF0CF0D6EF0CF0DCEF0CF007C007F032
:1019B00008C008F0E8EF0CF007C009F008C00AF012
:1019C000091E0A1E094A0A2A09C007F00AC008F0BF
:1019D0001200608060B0EFEF0CF0F1EF0CF0EAEF76
:1019E0000CF064CF03F0046A0350FF08036E045048
:1019F000D8A0E82A0008046E03C001F004C002F079
:101A000012000E01D951F00B0809D96FD98B9F0E26
:101A1000D66F848A848CA79BA79D1D0E1D6F1E0EFA
:101A20001C6F1C0E6F6F1B0E706F12000E01D8B56D
:101A30001CEF0DF01EEF0DF016EF0DF0DACE01F0F9
:101A40001F0E0116D8A427EF0DF029EF0DF016EFA9
:101A50000DF0120001500302F3CF05F0F4CF06F0B1
:101A600001500402F350062602500302F3500626EA
:101A700005C001F006C002F01200046E85EC0DF006
:101A8000520E75EC0DF00450800975EC0DF003500A
:101A900075EC0DF080EC0DF01200120E0E01626F6D
:101AA000110E156FE997E895330EE56F000EE66F9E
:101AB000E789E88BE78F1200868C0E01B48D0F0149
:101AC0005899FC0E58172E0E5F6F60946088608ED8
:101AD0001200016E0E0137A570EF0DF072EF0DF0E0
:101AE0006AEF0DF001C0E4FE1200026E16EC0DF07C
:101AF00002C0D5FE120016EC0DF00E01DA831200C2
:101B000016EC0DF00E01DA85120016EC0DF00E0148
:071B1000DA8112001200014E
:020000040030CA
:02000000AAFF55
:020004009FFF5C
:00000001FF
