:04000000ABEF15F05D
:100E00000043616C6962726174696F6E2073746112
:100E10007465203D2020616D6269656E74206C6987
:100E20006768740043616C6962726174696F6E20F7
:100E30007374617465203D20207768697465206C47
:100E4000696768740043616C6962726174696F6E8E
:100E5000207374617465203D20677265656E200A99
:100E60000D0043616C6962726174696F6E20737406
:100E70006174653D20626C7565200A0D0043414C2C
:100E80004942524154494F4E20434F4D504C4554D6
:100E90004544200A0D0043616C6962726174696F98
:100EA0006E207374617465203D2072656400566F16
:100EB0006C74616765203D2025642E253032642CDA
:100EC0002020006875653D253033642C2020002EDD
:100ED00000000450800B0D6E045004240F6E03AE0E
:100EE00074EF07F076EF07F077EF07F00F800F5001
:100EF000D8B47DEF07F07FEF07F094EF07F00F28ED
:100F0000D8A485EF07F087EF07F08FEF07F0000E0A
:100F1000016E000E026E000E036E000E046E038E54
:100F2000000E046E9CEF07F0000E016E000E026EC4
:100F3000000E036E000E046E0850800B0E6E0D50F6
:100F40000E18D8B4A6EF07F0A8EF07F0A9EF07F046
:100F50000D8C085008240E6E07AEB1EF07F0B3EF0A
:100F600007F0B4EF07F00E800E50D8B4BAEF07F0D8
:100F7000BCEF07F0D1EF07F00E28D8A4C2EF07F0BE
:100F8000C4EF07F0CCEF07F0000E056E000E066E02
:100F9000000E076E000E086E078E000E086ED9EF69
:100FA00007F0000E056E000E066E000E076E000EB6
:100FB000086E0F500E5CD8B0E0EF07F0E2EF07F0DC
:100FC00009EF08F00DACE7EF07F0E9EF07F0EBEF02
:100FD00007F0800E0D1A0FC010F00EC00FF010C0F9
:100FE0000EF001C010F005C001F010C005F002C005
:100FF00010F006C002F010C006F003C010F007C0E9
:1010000003F010C007F004C010F008C004F010C0D6
:1010100008F0000E106E0F500EC009F00A6A095E4B
:10102000000E0A5A0ABE1EEF08F00A5009E11A0E15
:10103000095CD8A01EEF08F020EF08F057EF08F089
:101040000150021003100410D8A429EF08F02CEF6F
:1010500008F0010E2DEF08F0000E106E000E016E6C
:10106000000E026E000E036E000E046E0EC00FF036
:1010700060EF08F010A03FEF08F041EF08F047EFF5
:1010800008F0D89010300109106E49EF08F0D890A0
:10109000103201A04EEF08F050EF08F051EF08F0C9
:1010A000108E043404320332023201320F2A0E5001
:1010B0000F5CD8A05EEF08F060EF08F03AEF08F0A0
:1010C0000DBC65EF08F067EF08F0A7EF08F00F50D0
:1010D000D8A46DEF08F06FEF08F079EF08F0000E7C
:1010E000016E000E026E000E036E000E046EC8EF5D
:1010F00009F005500126065002220750032208502D
:10110000042204A086EF08F088EF08F034EF09F01D
:1011100010A08DEF08F08FEF08F095EF08F0D89051
:1011200010300109106E97EF08F0D890103201A02E
:101130009CEF08F09EEF08F09FEF08F0108E04344B
:1011400004320332023201320F2A34EF09F0055023
:10115000015C06500258075003580450800A096E7B
:101160000850800A0958D8B0B8EF08F0BAEF08F074
:10117000E5EF08F00150055C096E025006580A6E52
:10118000035007580B6E045008580C6EFF0E0924CC
:10119000016EFF0E0A20026EFF0E0B20036EFF0E83
:1011A0000C20046E800E0D1A106C1050D8A4DBEFCA
:1011B00008F0DDEF08F0EDEF08F0010E0126000E5B
:1011C000022203220422EDEF08F00550015E0650D2
:1011D000025A0750035A0850045A015002100310D3
:1011E0000410D8A4F6EF08F0F8EF08F02DEF09F09E
:1011F0001050D8A4FEEF08F000EF09F02DEF09F031
:10120000000E016E000E026E000E036E000E046EE4
:10121000C8EF09F0D890013602360336043610AE16
:1012200014EF09F016EF09F017EF09F0018010A094
:101230001CEF09F01EEF09F022EF09F0D8801036FC
:1012400024EF09F0D89010360F50D8B42AEF09F0E7
:101250002CEF09F02DEF09F00F0603AE32EF09F085
:1012600034EF09F00AEF09F0000E0E6E10AE3BEFFE
:1012700009F03DEF09F055EF09F010C009F07F0EBD
:101280000916D8B446EF09F048EF09F04CEF09F021
:10129000010E0E6E55EF09F001A051EF09F053EF6A
:1012A00009F055EF09F048EF09F00E50D8B45BEFA4
:1012B00009F05DEF09F088EF09F0010E0126000E3C
:1012C00002220322042204A068EF09F06AEF09F069
:1012D00088EF09F001C009F002C00AF003C00BF06A
:1012E00004C00CF00C340C320B320A32093209C043
:1012F00001F00AC002F00BC003F00CC004F00F288C
:10130000D8B485EF09F087EF09F088EF09F00F2ACC
:101310000F28D8B48EEF09F090EF09F098EF09F09C
:101320000F50D8A496EF09F098EF09F0AAEF09F052
:10133000000E016E000E026E000E036E000E046EB3
:101340000F50D8A4A6EF09F0A8EF09F0AAEF09F012
:10135000000E0D6E0FA0AFEF09F0B1EF09F0B4EF82
:1013600009F0038EB5EF09F0039ED8900F30046E9C
:101370000DAEBDEF09F0BFEF09F0C0EF09F0048E2C
:1013800001C001F002C002F003C003F004C004F089
:1013900012001C50800B256E1C501C242B6E1BAEA3
:1013A000D4EF09F0D6EF09F0D7EF09F02B802B50DE
:1013B000D8B4DDEF09F0DFEF09F0F2EF09F02B28E8
:1013C000D8A4E5EF09F0E7EF09F0EFEF09F0000E20
:1013D000196E000E1A6E000E1B6E000E1C6E1B8E18
:1013E000FAEF09F0000E196E000E1A6E000E1B6E59
:1013F000000E1C6E2050800B251A205020242A6ECF
:101400001FAE05EF0AF007EF0AF008EF0AF02A8096
:101410002A50D8B40EEF0AF010EF0AF023EF0AF0CA
:101420002A28D8A416EF0AF018EF0AF020EF0AF0E5
:10143000000E1D6E000E1E6E000E1F6E000E206E42
:101440001F8E2BEF0AF0000E1D6E000E1E6E000E9A
:101450001F6E000E206E2A50D8B431EF0AF033EF21
:101460000AF03BEF0AF02B50D8A439EF0AF03BEF1B
:101470000AF045EF0AF0000E196E000E1A6E000E0B
:101480001B6E000E1C6EDDEF0BF01F501902F3CF28
:1014900030F0F4CF31F03050266E276A286A296A7E
:1014A00031502C6E2D6A2E6A2F6A1E501A02F3CF0D
:1014B00030F0F4CF31F030502626000E27222822BB
:1014C000292231502C26000E2D222E222F221D5093
:1014D0001B02F3CF30F0F4CF31F030502626000E4F
:1014E00027222822292231502C26000E2D222E229E
:1014F0002F2228C029F027C028F026C027F0266A0E
:101500001D501A02F3CF30F0F4CF31F030502626C0
:1015100031502722000E2822000E29221E501902C7
:10152000F3CF30F0F4CF31F030502626315027225F
:10153000000E2822000E292228C029F027C028F0FA
:1015400026C027F0266A1D501902F3CF30F0F4CFE1
:1015500031F03050262631502722000E2822000E6E
:1015600029221F501A02F3CF30F0F4CF31F030505F
:101570002C2631502D22000E2E22000E2F221E501E
:101580001B02F3CF30F0F4CF31F030502C26315025
:101590002D22000E2E22000E2F221F501B02F3CFF1
:1015A00030F0F4CF31F03050216E3150226E236A8A
:1015B000246A23C024F022C023F021C022F0216A33
:1015C00021502C2622502D2223502E2224502F220F
:1015D00026C021F027C022F028C023F029C024F023
:1015E000190EF8EF0AF0D890243223322232213239
:1015F000E82EF3EF0AF021502C2622502D22235002
:101600002E2224502F2228C029F027C028F026C0DF
:1016100027F0266A2A502BC021F0226A2126000ECC
:101620002222820E2124306EFF0E2220316E2EEFF8
:101630000BF0D8902C362D362E362F3629AE23EFD0
:101640000BF025EF0BF026EF0BF02C80D890263610
:101650002736283629363006D8A031062EAE33EF8D
:101660000BF035EF0BF019EF0BF0000E2A6E29AEE0
:101670003CEF0BF03EEF0BF062EF0BF0FF0E261489
:10168000216EFF0E2714226EFF0E2814236E7F0E8C
:101690002914246E2150221023102410D8B453EFA3
:1016A0000BF055EF0BF059EF0BF0010E2A6E62EFC5
:1016B0000BF02CA05EEF0BF060EF0BF062EF0BF085
:1016C00055EF0BF02A50D8B468EF0BF06AEF0BF02F
:1016D0008EEF0BF0010E2C26000E2D222E222F2233
:1016E0002FA075EF0BF077EF0BF08EEF0BF02CC007
:1016F00021F02DC022F02EC023F02FC024F024347E
:10170000243223322232213221C02CF022C02DF08B
:1017100023C02EF024C02FF0304A312A31BE99EF79
:101720000BF0315008E13028D8A099EF0BF09BEF77
:101730000BF0A5EF0BF0000E2C6E000E2D6E800E40
:101740002E6E7F0E2F6ED3EF0BF031BEB2EF0BF08B
:10175000315006E13004D8B0B0EF0BF0B2EF0BF02F
:10176000BEEF0BF0000E2C6E000E2D6E000E2E6ED6
:10177000000E2F6E000E256ED3EF0BF030C02BF055
:10178000FF0E2C16FF0E2D167F0E2E16000E2F1696
:101790002BA0CDEF0BF0CFEF0BF0D0EF0BF02E8E98
:1017A000D8902B302F6E25502F122CC019F02DC041
:1017B0001AF02EC01BF02FC01CF012003550800B09
:1017C000426E35503524496E34AEE9EF0BF0EBEF45
:1017D0000BF0ECEF0BF049804950D8B4F2EF0BF06E
:1017E000F4EF0BF009EF0CF04928D8A4FAEF0BF056
:1017F000FCEF0BF004EF0CF0000E326E000E336EB7
:10180000000E346E000E356E348E000E356E11EF04
:101810000CF0000E326E000E336E000E346E000EB1
:10182000356E3950800B421A395039244A6E38AE21
:101830001CEF0CF01EEF0CF01FEF0CF04A804A502A
:10184000D8B425EF0CF027EF0CF03CEF0CF04A2851
:10185000D8A42DEF0CF02FEF0CF037EF0CF0000EAA
:10186000366E000E376E000E386E000E396E388EF2
:10187000000E396E44EF0CF0000E366E000E376E1F
:10188000000E386E000E396E365037103810391091
:10189000D8A44DEF0CF04FEF0CF067EF0CF0000EFA
:1018A000326E000E336E000E346E000E356E800EFA
:1018B00034127F0E35124250351232C032F033C02E
:1018C00033F034C034F035C035F0AAEF0DF0495094
:1018D000D8A46DEF0CF06FEF0CF079EF0CF0000E68
:1018E000326E000E336E000E346E000E356EAAEFAF
:1018F0000DF04A5049C03AF03B6A3A5E000E3B5A3E
:101900007F0E3A24436E000E3B20446E32C03EF000
:1019100033C03FF034C040F035C041F0000E326EAD
:10192000000E336E000E346E000E356E000E456EE6
:10193000000E466E000E476E000E486E000E4A6E98
:10194000DAEF0CF04A50D8B4A8EF0CF0AAEF0CF084
:10195000C1EF0CF0D8903E363F3640364136D89035
:10196000323633363436353648AEB9EF0CF0BBEF8D
:101970000CF0BCEF0CF03280D89045364636473636
:10198000483636503E5C37503F58385040583950F2
:101990004158D8A0CEEF0CF0D0EF0CF0D9EF0CF0FE
:1019A000488C36503E5E37503F5A3850405A395076
:1019B000415A4A2A190E4A64E0EF0CF0E2EF0CF0AB
:1019C000A2EF0CF03E503F1040104110D8B4EBEFA6
:1019D0000CF0EDEF0CF005EF0DF0458005EF0DF08C
:1019E000D890323633363436353648AEFAEF0CF00E
:1019F000FCEF0CF0FDEF0CF03280D8904536463607
:101A0000473648364306D8A0440634AE0AEF0DF0F8
:101A10000CEF0DF0F0EF0CF0000E4A6E48AE13EF35
:101A20000DF015EF0DF039EF0DF0FF0E45143A6E85
:101A3000FF0E46143B6EFF0E47143C6E7F0E48149B
:101A40003D6E3A503B103C103D10D8B42AEF0DF0DB
:101A50002CEF0DF030EF0DF0010E4A6E39EF0DF066
:101A600032A035EF0DF037EF0DF039EF0DF02CEF20
:101A70000DF04A50D8B43FEF0DF041EF0DF065EF97
:101A80000DF0010E3226000E33223422352235A00D
:101A90004CEF0DF04EEF0DF065EF0DF032C03AF067
:101AA00033C03BF034C03CF035C03DF03D343D32F6
:101AB0003C323B323A323AC032F03BC033F03CC0A9
:101AC00034F03DC035F0434A442A44BE70EF0DF077
:101AD000445008E14328D8A070EF0DF072EF0DF0EC
:101AE0007DEF0DF0000E446E4368000E326E000E66
:101AF000336E000E346E000E356E44BE8AEF0DF06C
:101B0000445006E14304D8B088EF0DF08AEF0DF0A1
:101B100098EF0DF0000E446E000E436E000E326E14
:101B2000000E336E000E346E000E356E000E426EE7
:101B300043C049F049A09FEF0DF0A1EF0DF0A4EFD5
:101B40000DF0348EA5EF0DF0349ED8904930356EEF
:101B50005BEF0CF012007F907D9E7996470E316E00
:101B6000960E326ECF0E336E3350D8A40E0E346EF6
:101B7000E2EC15F0470E026E16EC16F08EB4C3EFD1
:101B80000DF0C5EF0DF0BEEF0DF07F80290E466E13
:101B9000960E456E7F0EE82EFED7452EFCD7462EBC
:101BA000FAD7000086EC14F04450D96EDA6A05C00A
:101BB000DEFF06C0DDFF7F90470E316E450E326EB0
:101BC000CF0E336E3350D8A40E0E346EE2EC15F007
:101BD000470E026E16EC16F08EB4F1EF0DF0F3EF37
:101BE0000DF0ECEF0DF07D8E290E466E960E456ED3
:101BF0007F0EE82EFED7452EFCD7462EFAD70000E2
:101C0000AEEC14F04450D96EDA6A020ED92605C043
:101C1000DEFF06C0DDFF7D9E470E316E620E326E26
:101C2000CF0E336E3350D8A40E0E346EE2EC15F0A6
:101C3000470E026E16EC16F08EB421EF0EF023EF75
:101C40000EF01CEF0EF07986290E466E960E456E4C
:101C50007F0EE82EFED7452EFCD7462EFAD7000081
:101C6000FEEC14F04450D96EDA6A040ED92605C091
:101C7000DEFF06C0DDFF7996470E316E240E326E10
:101C8000CF0E336E3350D8A40E0E346EE2EC15F046
:101C9000470E026E16EC16F08EB451EF0EF053EFB5
:101CA0000EF04CEF0EF07F807D8E7986290E466E09
:101CB000960E456E7F0EE82EFED7452EFCD7462E9B
:101CC000FAD70000D6EC14F04450D96EDA6A060E4A
:101CD000D92605C0DEFF06C0DDFF7F907D9E799688
:101CE000470E316E010E326ECF0E336E3350D8A4D4
:101CF0000E0E346EE2EC15F0470E026E16EC16F086
:101D00008EB485EF0EF087EF0EF080EF0EF07F803F
:101D10007D8E7986290E466E960E456E7F0EE82ED4
:101D2000FED7452EFCD7462EFAD70000D6EC14F08D
:101D30004450D96EDA6A080ED92605C0DEFF06C007
:101D4000DDFF7F907D9E7996470E316E7D0E326E5F
:101D5000CF0E336E3350D8A40E0E346EE2EC15F075
:101D6000470E026E16EC16F08EB4B9EF0EF0BBEF14
:101D70000EF0B4EF0EF0290E466E960E456E7F0EF5
:101D8000E82EFED7452EFCD7462EFAD700001200CB
:101D900099EC16F0C8EC15F08AEC16F0000E026E05
:101DA000630E016E3EEC14F0000E0001B46F010EE4
:101DB000B56F010EB66F000EB86F630EB76FAA0E47
:101DC000B96F0F0EBA6FA60EBB6F0F0EBC6F000E71
:101DD000AB6F010EAC6F010EAD6F000EAF6F630EF7
:101DE000AE6F250EB06F0F0EB16F210EB26F0F0EDA
:101DF000B36F7C9E849E87907F90859E7D9E81960A
:101E0000799686860E01B49788968086190E000111
:101E1000F06F5A0EEF6FB10EE82EFED7EF2FFCD702
:101E2000F02FFAD700D080967E9486840E01B49568
:101E3000A10E446EABEC0DF07F807D8E7986D6ECE2
:101E400014F005C00CF006C00DF00E6A0F6A000E0B
:101E5000B4EC0FF00CC0F1F00DC0F2F00EC0F3F0D6
:101E60000FC0F4F0A7C00CF0A8C00DF00E6A0F6A06
:101E7000000EB4EC0FF00CC0F5F00DC0F6F00EC083
:101E8000F7F00FC0F8F0A9C00CF0AAC00DF00E6A70
:101E90000F6A000EB4EC0FF00CC0FBF00DC0FCF0AC
:101EA0000EC0FDF00FC0FEF0FBC015F0FCC016F038
:101EB000FDC017F0FEC018F0F5C011F0F6C012F02A
:101EC000F7C013F0F8C014F026EC15F011C036F08E
:101ED00012C037F013C038F014C039F0000E1D6E78
:101EE000000E1E6EC80E1F6E420E206EFBC015F057
:101EF000FCC016F0FDC017F0FEC018F0F1C011F0E4
:101F0000F2C012F0F3C013F0F4C014F026EC15F098
:101F100011C019F012C01AF013C01BF014C01CF04D
:101F2000C9EC09F019C032F01AC033F01BC034F00C
:101F30001CC035F0DEEC0BF032C04BF033C04CF07F
:101F400034C04DF035C04EF00CEC12F04BC0F9F03F
:101F50004CC0FAF0F9C044F0FAC045F07BEC16F042
:101F60001FEF0FF000EF00F0146E1450D8B4BBEF69
:101F70000FF0BDEF0FF0DFEF0FF00FBEC4EF0FF06B
:101F8000C2EF0FF0DFEF0FF00CC010F00DC011F03A
:101F90000EC012F00FC013F0101E111E121E131EE1
:101FA000102A000E11221222132210C016F011C0A6
:101FB00017F012C018F013C019F0E7EF0FF00CC0C3
:101FC00016F00DC017F00EC018F00FC019F00C502D
:101FD0000D100E100F10D8A4F0EF0FF0F2EF0FF06D
:101FE000FCEF0FF0000E0C6E000E0D6E000E0E6E6C
:101FF000000E0F6E8DEF10F0960E156E06EF10F0BE
:10200000152AD8901932183217321632000E1614CB
:10201000106E000E1714116E000E1814126EFE0EC4
:102020001914136E1050111012101310D8A41BEFB6
:1020300010F01DEF10F000EF10F02BEF10F0152A4C
:10204000010E1626000E172218221922D8901932D6
:10205000183217321632000E1614106E000E1714B6
:10206000116E000E1814126EFF0E1914136E10501C
:10207000111012101310D8A440EF10F042EF10F01E
:102080001FEF10F04AEF10F01506D89016361736ED
:102090001836193618BE4FEF10F051EF10F059EF07
:1020A00010F0020E156057EF10F059EF10F044EFEA
:1020B00010F015B05EEF10F060EF10F061EF10F06F
:1020C000189ED890153215C010F0116A126A136A62
:1020D00010C013F0126A116A106A105016121150D3
:1020E000171212501812135019121450D8B47BEF53
:1020F00010F07DEF10F085EF10F00FBE84EF10F0C0
:1021000082EF10F085EF10F0198E16C00CF017C09A
:102110000DF018C00EF019C00FF012002350D96E48
:10212000DA6ADFCFF6FF0E0EF76E000EF86E0800CB
:10213000F550250AD8A49FEF10F0A1EF10F03DEF65
:1021400011F02350D96EDA6ADF2A000E0001936F76
:10215000000E926F92C05BF094699569000E2B6E31
:10216000D8EF10F05B822350D96EDA6ADF2AD8EFFD
:1021700010F0010E2B6ED8EF10F02350D96EDA6AF2
:10218000DFCFF6FF0E0EF76E000EF86E0800F5506A
:10219000256E266A2650000AD8B4D1EF10F0B9EFA8
:1021A00010F02550300AD8B4B2EF10F0B9EF10F0AB
:1021B0002B50D8B4DEEF10F0E0EF10F0BDEF10F0D0
:1021C00023C007F024C008F049EC13F007C092F0D8
:1021D00008C093F0000193BFF2EF10F0F0EF10F0A1
:1021E000F7EF10F05B80926D931FD8B0932B2350C4
:1021F000D96EDA6ADF502C6E2CC0F6FF0E0EF76E29
:10220000000EF86E0800F550640AD8B40AEF11F019
:102210000CEF11F01CEF11F02CC0F6FF0E0EF76E54
:10222000000EF86E0800F550690AD8A41AEF11F0F4
:102230001CEF11F037EF11F02450D96EDA6A020E5C
:10224000DF26DF5CD96EDA6ADECF27F0DECF28F03A
:102250002350D96EDA6A2C28DF6E22C017F027C00F
:1022600018F028C019F051EC11F050EF11F0235084
:10227000D96EDA6ADF2A50EF11F02350D96EDA6A8C
:10228000DFCFF6FF0E0EF76E000EF86E0800F55069
:10229000016E026A22C003F0A0EC13F037EF11F0D8
:1022A0001200010E1C6E19BE58EF11F05BEF11F019
:1022B000010E5CEF11F0000E1F6E92C01DF093C076
:1022C0001EF01F50D8B467EF11F069EF11F080EFE6
:1022D00011F01D06D8A01E061F50D8A472EF11F0F1
:1022E00074EF11F07AEF11F0000E1B6E2B0E1A6EC8
:1022F0007EEF11F0000E1B6E2D0E1A6E1AC01FF02D
:10230000000E216E1F0E206E000E01015B6FB8EFF4
:1023100011F02006D8A021063C0E2024D96E010E13
:102320002120DA6E18C001F019C002F0000E046E10
:102330000A0E036EF1EC12F001C007F002C008F0C3
:10234000FCEC15F00750300FDF6E000E1C6E1D0602
:10235000D8A01E0618C001F019C002F0000E046ECD
:102360000A0E036E8FEC12F001C018F002C019F0D3
:1023700021BEC3EF11F0215008E12004D8A0C3EF23
:1023800011F0C5EF11F0EAEF11F018501910D8A4B0
:10239000CCEF11F0CEEF11F089EF11F01C50D8A462
:1023A000D4EF11F0D6EF11F089EF11F01EBEE1EF7E
:1023B00011F01E5008E11D04D8A0E1EF11F0E3EF89
:1023C00011F0EAEF11F05BB2E8EF11F0EAEF11F073
:1023D00089EF11F01F50D8B4F0EF11F0F2EF11F0C7
:1023E000FDEF11F02006D8A021063C0E2024D96E66
:1023F000010E2120DA6E1FC0DFFF17C00FF03C0E68
:102400002024106E010E2120116E1DC012F01EC07E
:1024100013F0F5EC13F012004D344E34546E54505A
:10242000D8A415EF12F017EF12F021EF12F0000E02
:102430004B6E000E4C6E000E4D6E000E4E6E8EEF0B
:1024400012F04BC04FF04CC050F04DC051F04EC098
:1024500052F0200E31EF12F0D890523251325032F9
:102460004F32E82E2CEF12F04F50536E4D8EFF0E70
:102470004B16FF0E4C16FF0E4D16000E4E16960E06
:10248000545E54BE48EF12F046EF12F05EEF12F0C9
:102490005450800A970FD8B050EF12F052EF12F05C
:1024A00054EF12F017EF12F0D8904E324D324C32FA
:1024B0004B32543E54EF12F076EF12F01F0E54647C
:1024C00064EF12F066EF12F06EEF12F017EF12F0F9
:1024D000D8904B364C364D364E3654065450D8A410
:1024E00074EF12F076EF12F068EF12F05350D8B498
:1024F0007CEF12F07EEF12F086EF12F04E1E4D1EB2
:102500004C1E4B6C000E4C224D224E224BC04BF009
:102510004CC04CF04DC04DF04EC04EF01200000EBD
:10252000066E04BE98EF12F096EF12F09EEF12F0D6
:10253000036C041ED8B0042A010E066E02BEA5EF7D
:1025400012F0A3EF12F0ABEF12F0016C021ED8B044
:10255000022A010E061A000E086E000E076E0350C6
:102560000410D8B4B6EF12F0B8EF12F0E0EF12F0AA
:10257000010E056EC0EF12F0D89003360436052A1E
:1025800004AEC5EF12F0C7EF12F0BCEF12F0D89016
:10259000073608360350015C04500258D8A0D3EF28
:1025A00012F0D5EF12F0DAEF12F00350015E045092
:1025B000025A0780D89004320332052EC7EF12F07A
:1025C0000650D8B4E6EF12F0E8EF12F0ECEF12F09C
:1025D000076C081ED8B0082A07C001F008C002F036
:1025E0001200000E066E02BEFAEF12F0F8EF12F0C3
:1025F00000EF13F0016C021ED8B0022A010E066E25
:1026000004BE07EF13F005EF13F00BEF13F0036CAC
:10261000041ED8B0042A03500410D8B412EF13F0EB
:1026200014EF13F038EF13F0010E056E1CEF13F0EA
:10263000D89003360436052A04AE21EF13F023EFB9
:1026400013F018EF13F00350015C04500258D8A0A7
:102650002CEF13F02EEF13F032EF13F00350015E66
:102660000450025AD89004320332052E23EF13F09F
:102670000650D8B43EEF13F040EF13F044EF13F0E0
:10268000016C021ED8B0022A01C001F002C002F0A3
:102690001200000E0B6E000E0A6E0750D96EDA6A39
:1026A000DFCFF6FF0E0EF76E000EF86E0800F55045
:1026B0002A0AD8A45EEF13F060EF13F086EF13F050
:1026C0000750D96EDA6ADF2A0850D96EDA6A020E2C
:1026D000DF26DF5CD96EDA6ADECF0AF0DECF0BF0E0
:1026E0009BEF13F00AC001F00BC002F0000E046E65
:1026F0000A0E036E58EC16F0095001240A6E000E03
:1027000002200B6E0750D96EDA6ADF2A0750D96EA5
:10271000DA6ADFCFF6FF0E0EF76E000EF86E0800D5
:10272000F550D00F096E090E096499EF13F09BEF75
:1027300013F072EF13F00AC007F00BC008F012009C
:102740000350D8B4A6EF13F0A8EF13F0B0EF13F0D6
:102750000350D8A4AEEF13F0B0EF13F0B5EF13F0C1
:102760000150C7EC16F0F4EF13F00350D96EDA6A9B
:102770000A0ED926DE50DE10D8B4C1EF13F0C3EF35
:1027800013F0DCEF13F00350D96EDA6A0A0ED92683
:102790000350E16EE26A030EE126DE50E65CE6508D
:1027A000800A086EDE50800A0858D8B0DAEF13F0BD
:1027B000DCEF13F0F4EF13F00350D96EDA6A030E76
:1027C000D926DF50046E0350D96EDA6ADF50042434
:1027D000D96EDA6A01C0DFFF0350D96EDA6A030EE0
:1027E000D926DE2A000EDD2212005BA0FAEF13F0DC
:1027F000FCEF13F004EF14F010C009F011C00AF060
:102800000FC00BF08BEC15F013BE0BEF14F009EFBB
:1028100014F00FEF14F0000E136E000E126E000E87
:10282000166E000E156E1FEF14F0000E026E200ED5
:10283000016E0FC003F0A0EC13F0154A162A1250D7
:10284000155C1650800A146E1350800A1458D8A0D4
:102850002CEF14F02EEF14F015EF14F05BB033EF03
:1028600014F035EF14F03DEF14F010C009F011C072
:102870000AF00FC00BF08BEC15F012008594839ECC
:102880008598879C7D947B9E7D987F9C050E0E018C
:10289000746F060E766F070E696F080E886FBD5055
:1028A0008F0B4009BD6EE00EBE16BF50F00B010944
:1028B000BF6E01C0BCFFBD8E000EAA6E000EA66EDC
:1028C000000E0F01256F000E216FFC0EAD16F30EEA
:1028D000AD16CF0EAD163F0EAD16AB88AB50F00B5C
:1028E0000C09AB6EAB8EA788A750F00B0C09A76E36
:1028F000A78E26892651F00B0C09266F268F228978
:102900002251F00B0C09226F228F1200BDEC16F041
:10291000520EB2EC16F0B60EB2EC16F0C2EC16F097
:10292000530EB2EC16F0010E6AEC15F0076E07506C
:102930000A6E0B6A000E6AEC15F0076E0750096EFE
:10294000086A0A5008100A6E0B5009100B6EB8EC9A
:1029500016F00AC005F00BC006F01200BDEC16F030
:10296000520EB2EC16F0B80EB2EC16F0C2EC16F045
:10297000530EB2EC16F0010E6AEC15F0076E07501C
:102980000A6E0B6A000E6AEC15F0076E0750096EAE
:10299000086A0A5008100A6E0B5009100B6EB8EC4A
:1029A00016F00AC005F00BC006F01200BDEC16F0E0
:1029B000520EB2EC16F0B40EB2EC16F0C2EC16F0F9
:1029C000530EB2EC16F0010E6AEC15F0076E0750CC
:1029D0000A6E0B6A000E6AEC15F0076E0750096E5E
:1029E000086A0A5008100A6E0B5009100B6EB8ECFA
:1029F00016F00AC005F00BC006F01200BDEC16F090
:102A0000520EB2EC16F0BA0EB2EC16F0C2EC16F0A2
:102A1000530EB2EC16F0010E6AEC15F0076E07507B
:102A20000A6E0B6A000E6AEC15F0076E0750096E0D
:102A3000086A0A5008100A6E0B5009100B6EB8ECA9
:102A400016F00AC005F00BC006F01200000E151AB1
:102A5000000E161A000E171A800E181A11C001F077
:102A600012C002F013C003F014C004F015C005F04A
:102A700016C006F017C007F018C008F069EC07F0A0
:102A800001C011F002C012F003C013F004C014F032
:102A900012002EC030F055EF15F02DC022F0300E90
:102AA000236E2FC024F08EEC10F030C0F6FF0E0E17
:102AB000F76E000EF86E0800F5500009D8A463EF19
:102AC00015F065EF15F04DEF15F0000E2E6E000EAF
:102AD0002D6E1200036E44EC16F00E01DA8744EC02
:102AE00016F0D5CE04F044EC16F00350D8B47BEFCA
:102AF00015F07FEF15F0026A022A80EF15F0026AE6
:102B0000023A02460E01DA510218DF0B0218DA6FA0
:102B1000DA8904501200000E0E6E000E0D6E9AEF50
:102B200015F00CC001F0026A0BC003F0A0EC13F02A
:102B30000D4A0E2A0D500924D96E0E500A20DA6E65
:102B4000DF500C6E0C50D8A4A8EF15F0AAEF15F0CA
:102B500091EF15F01200900EF66E2D0EF76E000E2E
:102B6000F86E0900F5CFFFF001EE00F05C0EEE6AA2
:102B7000E806FDE100EE60F05D0EEE6AE806FDE1BC
:102B80005F6A5E6A5D6A5C6A5B6A0001C8EF0EF0AC
:102B90002FEC16F0010E036E000E6BEC16F03F0EDC
:102BA000056E550EE82EFED7052EFCD70000030E4D
:102BB000036E000E6BEC16F0D50E036E010E6BEC7F
:102BC00016F01200330E376E31C038F0000E3C6E36
:102BD000000E3B6E000E436E000E426E380E2D6EE0
:102BE00032C02EF0370E2F6E49EC15F031503B24D9
:102BF000D96EDA6ADF6A120008BE01EF16F003EF41
:102C000016F009EF16F007C007F008C008F015EF3E
:102C100016F007C009F008C00AF0091E0A1E094A8A
:102C20000A2A09C007F00AC008F0120023EF16F0C4
:102C30000250D96EDA6ADF50A6EC16F0022A6A0E4C
:102C4000E82EFED700D00250D96EDA6ADF50D8A441
:102C50002CEF16F02EEF16F018EF16F012000E0102
:102C6000D951F00B0809D96FD98B9F0ED66F848A82
:102C7000848CA79BA79D1D0E1D6F1E0E1C6F1C0E26
:102C80006F6F1B0E706F12000E01D8B54AEF16F071
:102C90004CEF16F044EF16F0DACE01F01F0E0116DD
:102CA000D8A455EF16F057EF16F044EF16F01200C7
:102CB00001500302F3CF05F0F4CF06F001500402F7
:102CC000F350062602500302F350062605C001F019
:102CD00006C002F01200046EBDEC16F0520EB2EC0B
:102CE00016F004508009B2EC16F00350B2EC16F066
:102CF000B8EC16F01200BD0E316EC30E326E44C039
:102D000033F045C034F0E2EC15F0BD0E026E16EC67
:102D100016F01200120E0E01626F110E156FE99778
:102D2000E895330EE56F000EE66FE789E88BE78FD5
:102D30001200868C0E01B48D0F015899FC0E5817A5
:102D40002E0E5F6F60946088608E1200016E0E011F
:102D500037A5ADEF16F0AFEF16F0A7EF16F001C0F4
:102D6000E4FE1200026E44EC16F002C0D5FE120022
:102D700044EC16F00E01DA85120044EC16F00E0158
:102D8000DA81120044EC16F00E01DA831200120010
:012D90000141
:020000040030CA
:02000000AAFF55
:020004009FFF5C
:00000001FF
