:040000008BEF1AF078
:100E00000043616C6962726174696F6E2073746112
:100E10007465203D20616D6269656E74206C696740
:100E200068740043616C6962726174696F6E2073EB
:100E300074617465203D20677265656E200A0D003F
:100E400043616C6962726174696F6E20737461745E
:100E5000653D20626C7565200A0D0043414C494296
:100E6000524154494F4E20434F4D504C45544544F8
:100E7000200A0D0043616C6962726174696F6E20B3
:100E80007374617465203D2072656400566F6C74E4
:100E9000616765203D2025642E253032642C20209A
:100EA00000477265656E5F6C696768743D25642CE8
:100EB000200A0D005265645F6C696768743D2564A3
:100EC0002C200A0D00416C6C5F6C69676874733D7F
:100ED0002564200A0D00426C75655F6C6967687453
:100EE0003D2564200A0D006875653D253033642C6E
:100EF0002020002E0000000E506E000E516E000EDD
:100F0000526E000E536E3250D96EDA6ADECF03F0A5
:100F1000DDCF04F03350D96EDA6ADECF01F0DDCFD9
:100F200002F09AEC18F001C008F002C009F00A6A59
:100F30000B6A000E08EC11F008C054F009C055F01F
:100F40000AC056F00BC057F03250D96EDA6A020E62
:100F5000D926DECF03F0DDCF04F03350D96EDA6A44
:100F6000020ED926DECF01F0DDCF02F09AEC18F0A8
:100F700001C008F002C009F00A6A0B6A000E08EC12
:100F800011F008C058F009C059F00AC05AF00BC05F
:100F90005BF03250D96EDA6A040ED926DECF03F048
:100FA000DDCF04F03350D96EDA6A040ED926DECFD5
:100FB00001F0DDCF02F09AEC18F001C008F002C099
:100FC00009F00A6A0B6A000E08EC11F008C05CF028
:100FD00009C05DF00AC05EF00BC05FF054C001F0C4
:100FE00055C002F056C003F057C004F058C005F0D9
:100FF00059C006F05AC007F05BC008F06EEC15F05F
:10100000D8A005EF08F007EF08F03CEF08F058C053
:1010100001F059C002F05AC003F05BC004F05CC09C
:1010200005F05DC006F05EC007F05FC008F06EEC32
:1010300015F0D8A01EEF08F020EF08F02AEF08F016
:101040005CC034F05DC035F05EC036F05FC037F094
:1010500032EF08F058C034F059C035F05AC036F0BD
:101060005BC037F034C044F035C045F036C046F0C0
:1010700037C047F06FEF08F054C001F055C002F0E0
:1010800056C003F057C004F05CC005F05DC006F028
:101090005EC007F05FC008F06EEC15F0D8A053EF0B
:1010A00008F055EF08F05FEF08F05CC038F05DC065
:1010B00039F05EC03AF05FC03BF067EF08F054C013
:1010C00038F055C039F056C03AF057C03BF038C040
:1010D00044F039C045F03AC046F03BC047F058C034
:1010E00001F059C002F05AC003F05BC004F054C0D4
:1010F00005F055C006F056C007F057C008F06EEC7A
:1011000015F0D8A086EF08F088EF08F0BDEF08F0E2
:101110005CC001F05DC002F05EC003F05FC004F08F
:1011200058C005F059C006F05AC007F05BC008F07F
:101130006EEC15F0D8A09FEF08F0A1EF08F0ABEF30
:1011400008F05CC03CF05DC03DF05EC03EF05FC0AA
:101150003FF0B3EF08F058C03CF059C03DF05AC022
:101160003EF05BC03FF03CC048F03DC049F03EC09F
:101170004AF03FC04BF0F0EF08F05CC001F05DC0FA
:1011800002F05EC003F05FC004F054C005F055C02B
:1011900006F056C007F057C008F06EEC15F0D8A066
:1011A000D4EF08F0D6EF08F0E0EF08F05CC040F0B4
:1011B0005DC041F05EC042F05FC043F0E8EF08F070
:1011C00054C040F055C041F056C042F057C043F003
:1011D00040C048F041C049F042C04AF043C04BF023
:1011E00048C011F049C012F04AC013F04BC014F0CF
:1011F00044C015F045C016F046C017F047C018F0BF
:101200009FEC19F011C04CF012C04DF013C04EF01D
:1012100014C04FF048C001F049C002F04AC003F0CA
:101220004BC004F044C005F045C006F046C007F0CE
:1012300047C008F05DEC17F0D8A021EF09F023EFCC
:1012400009F02DEF09F0000E506E000E516E000EE9
:10125000526E000E536EB7EF0AF048C001F049C05D
:1012600002F04AC003F04BC004F054C005F055C072
:1012700006F056C007F057C008F05DEC17F0D8A094
:1012800044EF09F046EF09F072EF09F058C015F08D
:1012900059C016F05AC017F05BC018F05CC011F0CE
:1012A0005DC012F05EC013F05FC014F09FEC19F047
:1012B00011C019F012C01AF013C01BF014C01CF0BA
:1012C0004CC01DF04DC01EF04EC01FF04FC020F0AE
:1012D0003BEC0FF019C050F01AC051F01BC052F097
:1012E0001CC053F054C001F055C002F056C003F0CA
:1012F00057C004F058C005F059C006F05AC007F0B6
:101300005BC008F06EEC15F0D8B089EF09F08BEFF8
:1013100009F0EAEF09F05CC001F05DC002F05EC0C8
:1013200003F05FC004F058C005F059C006F05AC081
:1013300007F05BC008F06EEC15F0D8B0A2EF09F032
:10134000A4EF09F0EAEF09F054C015F055C016F00B
:1013500056C017F057C018F05CC011F05DC012F015
:101360005EC013F05FC014F09FEC19F011C019F0CB
:1013700012C01AF013C01BF014C01CF04CC01DF0BA
:101380004DC01EF04EC01FF04FC020F03BEC0FF0E0
:1013900019C050F01AC051F01BC052F01CC053F0DD
:1013A00050C001F051C002F052C003F053C004F02D
:1013B000000E056E000E066E000E076E400E086EE3
:1013C000C6EC0AF001C050F002C051F003C052F068
:1013D00004C053F054C001F055C002F056C003F0F1
:1013E00057C004F05CC005F05DC006F05EC007F0B9
:1013F0005FC008F06EEC15F0D8B001EF0AF003EF13
:101400000AF07CEF0AF058C001F059C002F05AC04F
:1014100003F05BC004F05CC005F05DC006F05EC088
:1014200007F05FC008F06EEC15F0D8B01AEF0AF0C4
:101430001CEF0AF07CEF0AF05CC011F05DC012F006
:101440005EC013F05FC014F044C015F045C016F044
:1014500046C017F047C018F09FEC19F011C04CF0CF
:1014600012C04DF013C04EF014C04FF058C015F02C
:1014700059C016F05AC017F05BC018F054C011F0F4
:1014800055C012F056C013F057C014F09FEC19F07D
:1014900011C019F012C01AF013C01BF014C01CF0D8
:1014A0004CC01DF04DC01EF04EC01FF04FC020F0CC
:1014B0003BEC0FF019C050F01AC051F01BC052F0B5
:1014C0001CC053F050C001F051C002F052C003F0F4
:1014D00053C004F0000E056E000E066E800E076EFF
:1014E000400E086EC6EC0AF001C050F002C051F088
:1014F00003C052F004C053F050C001F051C002F0DC
:1015000052C003F053C004F0000E056E000E066ECC
:10151000700E076E420E086E26EC0DF001C050F002
:1015200002C051F003C052F004C053F053BE9DEF0F
:101530000AF09BEF0AF0B7EF0AF050C001F051C07B
:1015400002F052C003F053C004F0000E056E000E0E
:10155000066EB40E076E430E086EC6EC0AF001C0AC
:1015600050F002C051F003C052F004C053F050C01C
:1015700001F051C002F052C003F053C004F0EBEC94
:1015800014F001C032F002C033F012000450800B9E
:101590000D6E045004240F6E03AED1EF0AF0D3EFAA
:1015A0000AF0D4EF0AF00F800F50D8B4DAEF0AF047
:1015B000DCEF0AF0F1EF0AF00F28D8A4E2EF0AF00E
:1015C000E4EF0AF0ECEF0AF0000E016E000E026E7E
:1015D000000E036E000E046E038E000E046EF9EF13
:1015E0000AF0000E016E000E026E000E036E000E79
:1015F000046E0850800B0E6E0D500E18D8B403EF19
:101600000BF005EF0BF006EF0BF00D8C08500824E3
:101610000E6E07AE0EEF0BF010EF0BF011EF0BF0AC
:101620000E800E50D8B417EF0BF019EF0BF02EEF21
:101630000BF00E28D8A41FEF0BF021EF0BF029EFD1
:101640000BF0000E056E000E066E000E076E000E0B
:10165000086E078E000E086E36EF0BF0000E056E5A
:10166000000E066E000E076E000E086E0F500E5C28
:10167000D8B03DEF0BF03FEF0BF066EF0BF00DAC89
:1016800044EF0BF046EF0BF048EF0BF0800E0D1A15
:101690000FC010F00EC00FF010C00EF001C010F01F
:1016A00005C001F010C005F002C010F006C002F045
:1016B00010C006F003C010F007C003F010C007F020
:1016C00004C010F008C004F010C008F0000E106E46
:1016D0000F500EC009F00A6A095E000E0A5A0ABECF
:1016E0007BEF0BF00A5009E11A0E095CD8A07BEFE2
:1016F0000BF07DEF0BF0B4EF0BF001500210031074
:101700000410D8A486EF0BF089EF0BF0010E8AEFDE
:101710000BF0000E106E000E016E000E026E000E39
:10172000036E000E046E0EC00FF0BDEF0BF010A0A4
:101730009CEF0BF09EEF0BF0A4EF0BF0D890103065
:101740000109106EA6EF0BF0D890103201A0ABEF9C
:101750000BF0ADEF0BF0AEEF0BF0108E0434043253
:101760000332023201320F2A0E500F5CD8A0BBEFB9
:101770000BF0BDEF0BF097EF0BF00DBCC2EF0BF0D1
:10178000C4EF0BF004EF0CF00F50D8A4CAEF0BF02D
:10179000CCEF0BF0D6EF0BF0000E016E000E026ED8
:1017A000000E036E000E046E25EF0DF005500126AD
:1017B00006500222075003220850042204A0E3EF3F
:1017C0000BF0E5EF0BF091EF0CF010A0EAEF0BF04F
:1017D000ECEF0BF0F2EF0BF0D89010300109106E27
:1017E000F4EF0BF0D890103201A0F9EF0BF0FBEF03
:1017F0000BF0FCEF0BF0108E043404320332023293
:1018000001320F2A91EF0CF00550015C065002588E
:10181000075003580450800A096E0850800A09587E
:10182000D8B015EF0CF017EF0CF042EF0CF00150B0
:10183000055C096E025006580A6E035007580B6E7D
:10184000045008580C6EFF0E0924016EFF0E0A208A
:10185000026EFF0E0B20036EFF0E0C20046E800E36
:101860000D1A106C1050D8A438EF0CF03AEF0CF0B1
:101870004AEF0CF0010E0126000E02220322042280
:101880004AEF0CF00550015E0650025A0750035A09
:101890000850045A0150021003100410D8A453EF4A
:1018A0000CF055EF0CF08AEF0CF01050D8A45BEF61
:1018B0000CF05DEF0CF08AEF0CF0000E016E000EE4
:1018C000026E000E036E000E046E25EF0DF0D89030
:1018D000013602360336043610AE71EF0CF073EFAA
:1018E0000CF074EF0CF0018010A079EF0CF07BEF9E
:1018F0000CF07FEF0CF0D880103681EF0CF0D89010
:1019000010360F50D8B487EF0CF089EF0CF08AEF47
:101910000CF00F0603AE8FEF0CF091EF0CF067EFB9
:101920000CF0000E0E6E10AE98EF0CF09AEF0CF06B
:10193000B2EF0CF010C009F07F0E0916D8B4A3EF77
:101940000CF0A5EF0CF0A9EF0CF0010E0E6EB2EF4B
:101950000CF001A0AEEF0CF0B0EF0CF0B2EF0CF019
:10196000A5EF0CF00E50D8B4B8EF0CF0BAEF0CF0B5
:10197000E5EF0CF0010E0126000E022203220422E4
:1019800004A0C5EF0CF0C7EF0CF0E5EF0CF001C0C0
:1019900009F002C00AF003C00BF004C00CF00C34D4
:1019A0000C320B320A32093209C001F00AC002F0CF
:1019B0000BC003F00CC004F00F28D8B4E2EF0CF019
:1019C000E4EF0CF0E5EF0CF00F2A0F28D8B4EBEFA2
:1019D0000CF0EDEF0CF0F5EF0CF00F50D8A4F3EF96
:1019E0000CF0F5EF0CF007EF0DF0000E016E000E9D
:1019F000026E000E036E000E046E0F50D8A403EFAB
:101A00000DF005EF0DF007EF0DF0000E0D6E0FA0BD
:101A10000CEF0DF00EEF0DF011EF0DF0038E12EF45
:101A20000DF0039ED8900F30046E0DAE1AEF0DF03E
:101A30001CEF0DF01DEF0DF0048E01C001F002C08F
:101A400002F003C003F004C004F012000450800B45
:101A50000D6E04500424136E03AE31EF0DF033EF1E
:101A60000DF034EF0DF013801350D8B43AEF0DF0B1
:101A70003CEF0DF04FEF0DF01328D8A442EF0DF01E
:101A800044EF0DF04CEF0DF0000E016E000E026EF3
:101A9000000E036E000E046E038E57EF0DF0000E65
:101AA000016E000E026E000E036E000E046E0850F2
:101AB000800B0D1A08500824126E07AE62EF0DF06D
:101AC00064EF0DF065EF0DF012801250D8B46BEF9B
:101AD0000DF06DEF0DF080EF0DF01228D8A473EF2C
:101AE0000DF075EF0DF07DEF0DF0000E056E000EA0
:101AF000066E000E076E000E086E078E88EF0DF062
:101B0000000E056E000E066E000E076E000E086ECB
:101B10001250D8B48EEF0DF090EF0DF098EF0DF05D
:101B20001350D8A496EF0DF098EF0DF0A2EF0DF042
:101B3000000E016E000E026E000E036E000E046EAB
:101B40003AEF0FF007500102F3CF18F0F4CF19F07D
:101B500018500E6E0F6A106A116A1950146E156AC9
:101B6000166A176A06500202F3CF18F0F4CF19F084
:101B700018500E26000E0F22102211221950142682
:101B8000000E15221622172205500302F3CF18F07B
:101B9000F4CF19F018500E26000E0F221022112239
:101BA00019501426000E15221622172210C011F00B
:101BB0000FC010F00EC00FF00E6A05500202F3CFF6
:101BC00018F0F4CF19F018500E2619500F22000EFD
:101BD0001022000E112206500102F3CF18F0F4CFAC
:101BE00019F018500E2619500F22000E1022000E68
:101BF000112210C011F00FC010F00EC00FF00E6ACD
:101C000005500102F3CF18F0F4CF19F018500E264A
:101C100019500F22000E1022000E1122075002024E
:101C2000F3CF18F0F4CF19F01850142619501522DC
:101C3000000E1622000E172206500302F3CF18F0F2
:101C4000F4CF19F01850142619501522000E162240
:101C5000000E172207500302F3CF18F0F4CF19F04B
:101C60001850096E19500A6E0B6A0C6A0BC00CF002
:101C70000AC00BF009C00AF0096A095014260A507C
:101C800015220B5016220C5017220EC009F00FC05F
:101C90000AF010C00BF011C00CF0190E55EF0EF049
:101CA000D8900C320B320A320932E82E50EF0EF087
:101CB000095014260A5015220B5016220C501722D8
:101CC00010C011F00FC010F00EC00FF00E6A1250CD
:101CD00013C009F00A6A0926000E0A22820E09249E
:101CE000186EFF0E0A20196E8BEF0EF0D890143686
:101CF00015361636173611AE80EF0EF082EF0EF065
:101D000083EF0EF01480D8900E360F361036113651
:101D10001806D8A0190616AE90EF0EF092EF0EF04E
:101D200076EF0EF0000E126E11AE99EF0EF09BEFF3
:101D30000EF0BFEF0EF0FF0E0E14096EFF0E0F1423
:101D40000A6EFF0E10140B6E7F0E11140C6E0950EC
:101D50000A100B100C10D8B4B0EF0EF0B2EF0EF06A
:101D6000B6EF0EF0010E126EBFEF0EF014A0BBEF37
:101D70000EF0BDEF0EF0BFEF0EF0B2EF0EF012500E
:101D8000D8B4C5EF0EF0C7EF0EF0EBEF0EF0010E7A
:101D90001426000E15221622172217A0D2EF0EF0DD
:101DA000D4EF0EF0EBEF0EF014C009F015C00AF0FE
:101DB00016C00BF017C00CF00C340C320B320A3288
:101DC000093209C014F00AC015F00BC016F00CC09F
:101DD00017F0184A192A19BEF6EF0EF0195008E14B
:101DE0001828D8A0F6EF0EF0F8EF0EF002EF0FF083
:101DF000000E146E000E156E800E166E7F0E176E9E
:101E000030EF0FF019BE0FEF0FF0195006E1180474
:101E1000D8B00DEF0FF00FEF0FF01BEF0FF0000E2B
:101E2000146E000E156E000E166E000E176E000E6C
:101E30000D6E30EF0FF018C013F0FF0E1416FF0EEA
:101E400015167F0E1616000E171613A02AEF0FF0A8
:101E50002CEF0FF02DEF0FF0168ED8901330176E79
:101E60000D50171214C001F015C002F016C003F097
:101E700017C004F012001C50800B296E1C501C244B
:101E8000306E1BAE46EF0FF048EF0FF049EF0FF04A
:101E900030803050D8B44FEF0FF051EF0FF066EFB5
:101EA0000FF03028D8A457EF0FF059EF0FF061EF83
:101EB0000FF0000E196E000E1A6E000E1B6E000E53
:101EC0001C6E1B8E000E1C6E6EEF0FF0000E196E56
:101ED000000E1A6E000E1B6E000E1C6E2050800B42
:101EE000291A20502024316E1FAE79EF0FF07BEFBE
:101EF0000FF07CEF0FF031803150D8B482EF0FF04B
:101F000084EF0FF099EF0FF03128D8A48AEF0FF08B
:101F10008CEF0FF094EF0FF0000E1D6E000E1E6E92
:101F2000000E1F6E000E206E1F8E000E206EA1EFA1
:101F30000FF0000E1D6E000E1E6E000E1F6E000EC6
:101F4000206E1D501E101F102010D8A4AAEF0FF0F5
:101F5000ACEF0FF0C4EF0FF0000E196E000E1A6E0A
:101F6000000E1B6E000E1C6E800E1B127F0E1C12CC
:101F700029501C1219C019F01AC01AF01BC01BF00E
:101F80001CC01CF007EF11F03050D8A4CAEF0FF0BE
:101F9000CCEF0FF0D6EF0FF0000E196E000E1A6E98
:101FA000000E1B6E000E1C6E07EF11F0315030C09A
:101FB00021F0226A215E000E225A7F0E21242A6E11
:101FC000000E22202B6E19C025F01AC026F01BC06F
:101FD00027F01CC028F0000E196E000E1A6E000EBD
:101FE0001B6E000E1C6E000E2C6E000E2D6E000E71
:101FF0002E6E000E2F6E000E316E37EF10F0315046
:10200000D8B405EF10F007EF10F01EEF10F0D890E5
:102010002536263627362836D89019361A361B36F6
:102020001C362FAE16EF10F018EF10F019EF10F06D
:102030001980D8902C362D362E362F361D50255C23
:102040001E5026581F50275820502858D8A02BEF34
:1020500010F02DEF10F036EF10F02F8C1D50255E94
:102060001E50265A1F50275A2050285A312A190E1E
:1020700031643DEF10F03FEF10F0FFEF0FF025500F
:10208000261027102810D8B448EF10F04AEF10F0AF
:1020900062EF10F02C8062EF10F0D89019361A36EB
:1020A0001B361C362FAE57EF10F059EF10F05AEFD9
:1020B00010F01980D8902C362D362E362F362A0661
:1020C000D8A02B061BAE67EF10F069EF10F04DEFB4
:1020D00010F0000E316E2FAE70EF10F072EF10F0B6
:1020E00096EF10F0FF0E2C14216EFF0E2D14226EB1
:1020F000FF0E2E14236E7F0E2F14246E21502210FB
:1021000023102410D8B487EF10F089EF10F08DEF72
:1021100010F0010E316E96EF10F019A092EF10F052
:1021200094EF10F096EF10F089EF10F03150D8B422
:102130009CEF10F09EEF10F0C2EF10F0010E192688
:10214000000E1A221B221C221CA0A9EF10F0ABEFDC
:1021500010F0C2EF10F019C021F01AC022F01BC01D
:1021600023F01CC024F024342432233222322132C2
:1021700021C019F022C01AF023C01BF024C01CF0AB
:102180002A4A2B2A2BBECDEF10F02B5008E12A282B
:10219000D8A0CDEF10F0CFEF10F0DAEF10F0000E76
:1021A0002B6E2A68000E196E000E1A6E000E1B6E42
:1021B000000E1C6E2BBEE7EF10F02B5006E12A0438
:1021C000D8B0E5EF10F0E7EF10F0F5EF10F0000EEB
:1021D0002B6E000E2A6E000E196E000E1A6E000E87
:1021E0001B6E000E1C6E000E296E2AC030F030A04F
:1021F000FCEF10F0FEEF10F001EF11F01B8E02EF7C
:1022000011F01B9ED89030301C6EB8EF0FF012000A
:10221000106E1050D8B40FEF11F011EF11F033EF32
:1022200011F00BBE18EF11F016EF11F033EF11F0B3
:1022300008C00CF009C00DF00AC00EF00BC00FF082
:102240000C1E0D1E0E1E0F1E0C2A000E0D220E223D
:102250000F220CC012F00DC013F00EC014F00FC00E
:1022600015F03BEF11F008C012F009C013F00AC0DE
:1022700014F00BC015F0085009100A100B10D8A468
:1022800044EF11F046EF11F050EF11F0000E086E20
:10229000000E096E000E0A6E000E0B6EE1EF11F0DB
:1022A000960E116E5AEF11F0112AD8901532143291
:1022B00013321232000E12140C6E000E13140D6E37
:1022C000000E14140E6EFE0E15140F6E0C500D1031
:1022D0000E100F10D8A46FEF11F071EF11F054EF42
:1022E00011F07FEF11F0112A010E1226000E1322B9
:1022F00014221522D8901532143213321232000EE5
:1023000012140C6E000E13140D6E000E14140E6ECB
:10231000FF0E15140F6E0C500D100E100F10D8A4D8
:1023200094EF11F096EF11F073EF11F09EEF11F0B2
:102330001106D890123613361436153614BEA3EF94
:1023400011F0A5EF11F0ADEF11F0020E1160ABEF3F
:1023500011F0ADEF11F098EF11F011B0B2EF11F0F4
:10236000B4EF11F0B5EF11F0149ED890113211C0F6
:102370000CF00D6A0E6A0F6A0CC00FF00E6A0D6A3F
:102380000C6A0C5012120D5013120E5014120F50F2
:1023900015121050D8B4CFEF11F0D1EF11F0D9EFE2
:1023A00011F00BBED8EF11F0D6EF11F0D9EF11F00C
:1023B000158E12C008F013C009F014C00AF015C041
:1023C0000BF012007F907D9E7996470E316E740E51
:1023D000326EF30E336E3350D8A40E0E346E3EECD4
:1023E0001AF0470E026E72EC1AF08EB4FAEF11F08A
:1023F000FCEF11F0F5EF11F07F80290E466E960E7E
:10240000456E7F0EE82EFED7452EFCD7462EFAD716
:102410000000FFEC18F04450D96EDA6A05C0DEFF08
:1024200006C0DDFF7F90470E316E230E326EF30E35
:10243000336E3350D8A40E0E346E3EEC1AF0470EB5
:10244000026E72EC1AF08EB428EF12F02AEF12F03E
:1024500023EF12F07D8E290E466E960E456E7F0E8E
:10246000E82EFED7452EFCD7462EFAD7000027ECE3
:1024700019F04450D96EDA6A020ED92605C0DEFF83
:1024800006C0DDFF7D9E470E316E400E326EF30EAC
:10249000336E3350D8A40E0E346E3EEC1AF0470E55
:1024A000026E72EC1AF08EB458EF12F05AEF12F07E
:1024B00053EF12F07986290E466E960E456E7F0E0A
:1024C000E82EFED7452EFCD7462EFAD7000077EC33
:1024D00019F04450D96EDA6A040ED92605C0DEFF21
:1024E00006C0DDFF7996470E316E010E326EF30E97
:1024F000336E3350D8A40E0E346E3EEC1AF0470EF5
:10250000026E72EC1AF08EB488EF12F08AEF12F0BD
:1025100083EF12F07F807D8E7986290E466E960EAF
:10252000456E7F0EE82EFED7452EFCD7462EFAD7F5
:1025300000004FEC19F04450D96EDA6A060ED92625
:1025400005C0DEFF06C0DDFF7F907D9E7996470EB9
:10255000316E5B0E326EF30E336E3350D8A40E0E16
:10256000346E3EEC1AF0470E026E72EC1AF0120056
:102570002350D96EDA6ADFCFF6FF0E0EF76E000E2B
:10258000F86E0800F550250AD8A4C9EF12F0CBEF79
:1025900012F068EF13F02350D96EDA6ADF2A000ECA
:1025A0000001CD6F000ECC6FCCC0D0F0CE69CF69EA
:1025B000000E2B6E03EF13F00001D0832350D96E71
:1025C000DA6ADF2A03EF13F0010E2B6E03EF13F02C
:1025D0002350D96EDA6ADFCFF6FF0E0EF76E000ECB
:1025E000F86E0800F550256E266A2650000AD8B409
:1025F000FCEF12F0E4EF12F02550300AD8B4DCEF13
:1026000012F0E4EF12F02B50D8B409EF13F00BEFF7
:1026100013F0E8EF12F023C007F024C008F006EC36
:1026200017F007C0CCF008C0CDF00001CDBF1DEF02
:1026300013F01BEF13F022EF13F0D081CC6DCD1F00
:10264000D8B0CD2B2350D96EDA6ADF502C6E2CC057
:10265000F6FF0E0EF76E000EF86E0800F550640AD5
:10266000D8B435EF13F037EF13F047EF13F02CC069
:10267000F6FF0E0EF76E000EF86E0800F550690AB0
:10268000D8A445EF13F047EF13F062EF13F0245096
:10269000D96EDA6A020EDF26DF5CD96EDA6ADECF27
:1026A00027F0DECF28F02350D96EDA6A2C28DF6EAF
:1026B00022C017F027C018F028C019F07CEC13F0E6
:1026C0007BEF13F02350D96EDA6ADF2A7BEF13F029
:1026D0002350D96EDA6ADFCFF6FF0E0EF76E000ECA
:1026E000F86E0800F550016E026A22C003F0B2ECE9
:1026F00017F062EF13F01200010E1C6E19BE83EF8B
:1027000013F086EF13F0010E87EF13F0000E1F6E2B
:10271000CCC01DF0CDC01EF01F50D8B492EF13F006
:1027200094EF13F0ABEF13F01D06D8A01E061F5058
:10273000D8A49DEF13F09FEF13F0A5EF13F0000E58
:102740001B6E2B0E1A6EA9EF13F0000E1B6E2D0ED2
:102750001A6E1AC01FF0000E216E1F0E206E000EA2
:102760000101836FE3EF13F02006D8A02106640E69
:102770002024D96E010E2120DA6E18C001F019C094
:1027800002F0000E046E0A0E036EAEEC16F001C0ED
:1027900007F002C008F058EC1AF00750300FDF6E57
:1027A000000E1C6E1D06D8A01E0618C001F019C030
:1027B00002F0000E046E0A0E036EF0EC15F001C07C
:1027C00018F002C019F021BEEEEF13F0215008E11D
:1027D0002004D8A0EEEF13F0F0EF13F016EF14F092
:1027E00018501910D8A4F7EF13F0F9EF13F0B4EF65
:1027F00013F01C50D8A4FFEF13F001EF14F0B4EF66
:1028000013F01EBE0CEF14F01E5008E11D04D8A0FA
:102810000CEF14F00EEF14F016EF14F00001D0B32B
:1028200014EF14F016EF14F0B4EF13F01F50D8B4F7
:102830001CEF14F01EEF14F029EF14F02006D8A0BE
:102840002106640E2024D96E010E2120DA6E1FC0ED
:10285000DFFF17C00FF0640E2024106E010E212040
:10286000116E1DC012F01EC013F007EC18F012001C
:10287000000E0001C96F000EC86FC851C911D8A45D
:1028800044EF14F046EF14F05DEF14F07F807D9E6E
:102890007996940E316EB40E326E7FB052EF14F012
:1028A00056EF14F0926B922B58EF14F00001926BDC
:1028B0009251336E346A3EEC1AF00001C805C9111A
:1028C000D8A465EF14F067EF14F07EEF14F07F905A
:1028D0007D8E7996940E316EA10E326E7DBE73EFB1
:1028E00014F077EF14F0926B922B79EF14F0000153
:1028F000926B9251336E346A3EEC1AF0020E000174
:10290000C819C911D8A487EF14F089EF14F0A0EF0B
:1029100014F07F907D9E7986940E316ED60E326EC5
:1029200079B695EF14F099EF14F0926B922B9BEF20
:1029300014F00001926B9251336E346A3EEC1AF03F
:10294000030E0001C819C911D8A4A9EF14F0ABEF08
:1029500014F0B8EF14F07F807D8E7986940E316E7E
:10296000C50E326E000E346E010E336E3EEC1AF060
:10297000940E026E72EC1AF0E80E0C6ED4EC18F0A5
:10298000F00E326EE80E336E7BEC07F032C0C6F00C
:1029900033C0C7F0C6C044F0C7C045F0EFEC1AF032
:1029A000290E0001936F960E926F7F0EE82EFED7D0
:1029B000922FFCD7932FFAD70001C84BC92BC951CE
:1029C00009E1040EC85DD8A0E8EF14F0EAEF14F0B6
:1029D0003DEF14F01200033404340A6E0A50D8A4F8
:1029E000F4EF14F0F6EF14F000EF15F0000E016EA6
:1029F000000E026E000E036E000E046E6DEF15F0F9
:102A000001C005F002C006F003C007F004C008F0E2
:102A1000200E10EF15F0D89008320732063205323A
:102A2000E82E0BEF15F00550096E038EFF0E011610
:102A3000FF0E0216FF0E0316000E0416960E0A5E17
:102A40000ABE27EF15F025EF15F03DEF15F00A50FF
:102A5000800A970FD8B02FEF15F031EF15F033EF54
:102A600015F0F6EF14F0D89004320332023201323E
:102A70000A3E33EF15F055EF15F01F0E0A6443EFD1
:102A800015F045EF15F04DEF15F0F6EF14F0D89076
:102A900001360236033604360A060A50D8A453EF2C
:102AA00015F055EF15F047EF15F00950D8B45BEF6E
:102AB00015F05DEF15F065EF15F0041E031E021E04
:102AC000016C000E02220322042201C001F002C0A8
:102AD00002F003C003F004C004F01200000E011461
:102AE000096E000E02140A6E800E03140B6E7F0E28
:102AF00004140C6E09500A100B100C10D8A483EFAC
:102B000015F085EF15F08DEF15F0000E016E000E3B
:102B1000026E000E036E000E046E000E0514096EA8
:102B2000000E06140A6E800E07140B6E7F0E08143A
:102B30000C6E09500A100B100C10D8A4A2EF15F05F
:102B4000A4EF15F0ACEF15F0000E056E000E066E4A
:102B5000000E076E000E086E04AEB1EF15F0B3EF75
:102B600015F0BCEF15F0016C021ED8B0022A031E4E
:102B7000D8B0032A800E045608AEC1EF15F0C3EF9B
:102B800015F0CCEF15F0056C061ED8B0062A071E0E
:102B9000D8B0072A800E0856000E011A000E021A3D
:102BA000000E031A800E041A000E051A000E061AF3
:102BB000000E071A800E081A0550015C06500258D4
:102BC0000750035808500458D8B0E9EF15F0EBEF60
:102BD00015F0EEEF15F0D890EFEF15F0D880120059
:102BE000000E066E04BEF9EF15F0F7EF15F0FFEFDB
:102BF00015F0036C041ED8B0042A010E066E02BE46
:102C000006EF16F004EF16F00CEF16F0016C021E42
:102C1000D8B0022A010E061A000E086E000E076ECA
:102C200003500410D8B417EF16F019EF16F041EF67
:102C300016F0010E056E21EF16F0D890033604361B
:102C4000052A04AE26EF16F028EF16F01DEF16F059
:102C5000D890073608360350015C04500258D8A0BB
:102C600034EF16F036EF16F03BEF16F00350015E2E
:102C70000450025A0780D89004320332052E28EF00
:102C800016F00650D8B447EF16F049EF16F04DEFA6
:102C900016F0076C081ED8B0082A07C001F008C05B
:102CA00002F012000DEC1BF024EC1AF0FEEC1AF00E
:102CB000000E026E630E016E52EC18F0000E000161
:102CC000DF6F010EE06F010EE16F000EE36F630E28
:102CD000E26FAA0EE46F0F0EE56FA60EE66F0F0E01
:102CE000E76F000ED66F010ED76F010ED86F000E82
:102CF000DA6F630ED96F250EDB6F0F0EDC6F210EBE
:102D0000DD6F0F0EDE6F7C9E849E84967C8687909E
:102D10007F90859E7D9E8196799686860E01B497DA
:102D200088968086190E0001CB6F5A0ECA6FB10EBD
:102D3000E82EFED7CA2FFCD7CB2FFAD700D080962B
:102D40007E9486840E01B495F00E446EE2EC11F090
:102D500038EC14F0A8EF16F000EF00F0000E066E4D
:102D600002BEB7EF16F0B5EF16F0BDEF16F0016C2E
:102D7000021ED8B0022A010E066E04BEC4EF16F081
:102D8000C2EF16F0C8EF16F0036C041ED8B0042A88
:102D900003500410D8B4CFEF16F0D1EF16F0F5EFD2
:102DA00016F0010E056ED9EF16F0D89003360436F2
:102DB000052A04AEDEEF16F0E0EF16F0D5EF16F0C0
:102DC0000350015C04500258D8A0E9EF16F0EBEF75
:102DD00016F0EFEF16F00350015E0450025AD8903F
:102DE00004320332052EE0EF16F00650D8B4FBEFA4
:102DF00016F0FDEF16F001EF17F0016C021ED8B0CF
:102E0000022A01C001F002C002F01200000E0B6E97
:102E1000000E0A6E0750D96EDA6ADFCFF6FF0E0E8B
:102E2000F76E000EF86E0800F5502A0AD8A41BEFC2
:102E300017F01DEF17F043EF17F00750D96EDA6A5D
:102E4000DF2A0850D96EDA6A020EDF26DF5CD96EFF
:102E5000DA6ADECF0AF0DECF0BF058EF17F00AC0C7
:102E600001F00BC002F0000E046E0A0E036ECCECF3
:102E70001AF0095001240A6E000E02200B6E075052
:102E8000D96EDA6ADF2A0750D96EDA6ADFCFF6FF29
:102E90000E0EF76E000EF86E0800F550D00F096E9A
:102EA000090E096456EF17F058EF17F02FEF17F0DF
:102EB0000AC007F00BC008F01200000E0114096EE2
:102EC000000E02140A6E800E03140B6E7F0E0414A3
:102ED0000C6E09500A100B100C10D8A472EF17F0EA
:102EE00074EF17F07CEF17F0000E016E000E026E0B
:102EF000000E036E000E046E000E0514096E000E27
:102F000006140A6E800E07140B6E7F0E08140C6EEA
:102F100009500A100B100C10D8A491EF17F093EF82
:102F200017F09BEF17F0000E056E000E066E000EF8
:102F3000076E000E086E055001180FE106500218CA
:102F40000CE10750031809E108500418D8B4ABEF9E
:102F500017F0ADEF17F0B0EF17F0D890B1EF17F012
:102F6000D88012000350D8B4B8EF17F0BAEF17F0BA
:102F7000C2EF17F00350D8A4C0EF17F0C2EF17F05C
:102F8000C7EF17F001503BEC1BF006EF18F00350B1
:102F9000D96EDA6A0A0ED926DE50DE10D8B4D3EF25
:102FA00017F0D5EF17F0EEEF17F00350D96EDA6A8D
:102FB0000A0ED9260350E16EE26A030EE126DE50C6
:102FC000E65CE650800A086EDE50800A0858D8B0E9
:102FD000ECEF17F0EEEF17F006EF18F00350D96E94
:102FE000DA6A030ED926DF50046E0350D96EDA6A0E
:102FF000DF500424D96EDA6A01C0DFFF0350D96EB6
:10300000DA6A030ED926DE2A000EDD221200000144
:10301000D0A10DEF18F00FEF18F017EF18F010C057
:1030200009F011C00AF00FC00BF004EC1AF013BE47
:103030001EEF18F01CEF18F022EF18F0000E136EC0
:10304000000E126E000E166E000E156E32EF18F0A6
:10305000000E026E200E016E0FC003F0B2EC17F0EE
:10306000154A162A1250155C1650800A146E135019
:10307000800A1458D8A03FEF18F041EF18F028EF5D
:1030800018F00001D0B147EF18F049EF18F051EFF8
:1030900018F010C009F011C00AF00FC00BF004ECDA
:1030A0001AF012008594839E8598879C7D947B9E60
:1030B0007D987F9C050E0E01746F060E766F070ECD
:1030C000696F080E886FBD508F0B4009BD6EE00E12
:1030D000BE16BF50F00B0109BF6E01C0BCFFBD8E14
:1030E000000EAA6E000EA66E000E0F01256F000ED8
:1030F000216FFC0EAD16F30EAD16CF0EAD163F0EC2
:10310000AD16AB88AB50F00B0C09AB6EAB8EA7883D
:10311000A750F00B0C09A76EA78E26892651F00B3D
:103120000C09266F268F22892251F00B0C09226F81
:10313000228F1200000E066E000E056E0350041062
:10314000D8B4A5EF18F0A7EF18F0CFEF18F0010EE4
:10315000076EAFEF18F0D89003360436072A04AE96
:10316000B4EF18F0B6EF18F0ABEF18F0D8900536C2
:1031700006360350015C04500258D8A0C2EF18F084
:10318000C4EF18F0C9EF18F00350015E0450025A62
:103190000580D89004320332072EB6EF18F005C030
:1031A00001F006C002F01200FFEC18F00C50D96ECE
:1031B000DA6A05C0DEFF06C0DDFF77EC19F00C50BF
:1031C000D96EDA6A040ED92605C0DEFF06C0DDFF1F
:1031D00027EC19F00C50D96EDA6A020ED92605C018
:1031E000DEFF06C0DDFF4FEC19F00C50D96EDA6A35
:1031F000060ED92605C0DEFF06C0DDFF120031EC49
:103200001BF0520E26EC1BF0B60E26EC1BF036EC33
:103210001BF0530E26EC1BF0010EE3EC19F0076EC9
:1032200007500A6E0B6A000EE3EC19F0076E0750A8
:10323000096E086A0A5008100A6E0B5009100B6ECE
:103240002CEC1BF00AC005F00BC006F0120031ECAC
:103250001BF0520E26EC1BF0B80E26EC1BF036ECE1
:103260001BF0530E26EC1BF0010EE3EC19F0076E79
:1032700007500A6E0B6A000EE3EC19F0076E075058
:10328000096E086A0A5008100A6E0B5009100B6E7E
:103290002CEC1BF00AC005F00BC006F0120031EC5C
:1032A0001BF0520E26EC1BF0B40E26EC1BF036EC95
:1032B0001BF0530E26EC1BF0010EE3EC19F0076E29
:1032C00007500A6E0B6A000EE3EC19F0076E075008
:1032D000096E086A0A5008100A6E0B5009100B6E2E
:1032E0002CEC1BF00AC005F00BC006F0120031EC0C
:1032F0001BF0520E26EC1BF0BA0E26EC1BF036EC3F
:103300001BF0530E26EC1BF0010EE3EC19F0076ED8
:1033100007500A6E0B6A000EE3EC19F0076E0750B7
:10332000096E086A0A5008100A6E0B5009100B6EDD
:103330002CEC1BF00AC005F00BC006F01200000ECA
:10334000151A000E161A000E171A800E181A11C040
:1033500001F012C002F013C003F014C004F015C055
:1033600005F016C006F017C007F018C008F0C6EC4C
:103370000AF001C011F002C012F003C013F004C043
:1033800014F012002EC030F0CEEF19F02DC022F054
:10339000300E236E2FC024F0B8EC12F030C0F6FFD0
:1033A0000E0EF76E000EF86E0800F5500009D8A456
:1033B000DCEF19F0DEEF19F0C6EF19F0000E2E6EFB
:1033C000000E2D6E1200036EB8EC1AF00E01DA87B3
:1033D000B8EC1AF0D5CE04F0B8EC1AF00350D8B41B
:1033E000F4EF19F0F8EF19F0026A022AF9EF19F078
:1033F000026A023A02460E01DA510218DF0B021885
:10340000DA6FDA8904501200000E0E6E000E0D6E97
:1034100013EF1AF00CC001F0026A0BC003F0B2EC1B
:1034200017F00D4A0E2A0D500924D96E0E500A20AD
:10343000DA6EDF500C6E0C50D8A421EF1AF023EF97
:103440001AF00AEF1AF01200A3EC1AF0010E036E44
:10345000000EDFEC1AF03F0E056E550EE82EFED77B
:10346000052EFCD70000030E036E000EDFEC1AF0F1
:10347000D50E036E010EDFEC1AF01200330E376E1C
:1034800031C038F0000E3C6E000E3B6E000E436EF5
:10349000000E426E380E2D6E32C02EF0370E2F6E9B
:1034A000C2EC19F031503B24D96EDA6ADF6A12009F
:1034B00008BE5DEF1AF05FEF1AF065EF1AF007C073
:1034C00007F008C008F071EF1AF007C009F008C053
:1034D0000AF0091E0A1E094A0A2A09C007F00AC092
:1034E00008F012007FEF1AF00250D96EDA6ADF504E
:1034F0001AEC1BF0022A6A0EE82EFED700D002500A
:10350000D96EDA6ADF50D8A488EF1AF08AEF1AF081
:1035100074EF1AF01200780EF66E360EF76E000E8B
:10352000F86E0900F5CFF8F001EE00F0840EEE6AB7
:10353000E806FDE100EECCF02C0EEE6AE806FDE1B7
:10354000000152EF16F00E01D951F00B0809D96FA6
:10355000D98B9F0ED66F848A848CA79BA79D1D0E46
:103560001D6F1E0E1C6F1C0E6F6F1B0E706F1200F6
:103570000E01D8B5BEEF1AF0C0EF1AF0B8EF1AF08E
:10358000DACE01F01F0E0116D8A4C9EF1AF0CBEF66
:103590001AF0B8EF1AF0120001500302F3CF05F051
:1035A000F4CF06F001500402F35006260250030245
:1035B000F350062605C001F006C002F01200046EAA
:1035C00031EC1BF0520E26EC1BF00450800926EC67
:1035D0001BF0035026EC1BF02CEC1BF01200600ECD
:1035E000316EE70E326E44C033F045C034F03EEC2D
:1035F0001AF0600E026E72EC1AF01200120E0E013A
:10360000626F110E156FE997E895330EE56F000EA6
:10361000E66FE789E88BE78F1200868C0E01B48D88
:103620000F015899FC0E58172E0E5F6F609460883A
:10363000608E1200016E0E0137A521EF1BF023EF03
:103640001BF01BEF1BF001C0E4FE1200026EB8EC91
:103650001AF002C0D5FE1200B8EC1AF00E01DA859D
:103660001200B8EC1AF00E01DA811200B8EC1AF070
:093670000E01DA831200120001C0
:020000040030CA
:02000000AAFF55
:020004009FFF5C
:00000001FF
