:040000001DEF00F000
:100018005D80E0CF01F00E0133AB15EF00F017EF74
:1000280000F019EF00F07F82339B01C0E0FF5D9084
:06003800100077EF22F03A
:100E00000043616C6962726174696F6E2073746112
:100E10007465203D20677265656E200A0D00436190
:100E20006C6962726174696F6E207374617465209D
:100E30003D2020616D6269656E740043616C69627A
:100E4000726174696F6E2073746174653D20626CA9
:100E50007565200A0D0043616C6962726174696F87
:100E60006E207374617465203D2020776869746515
:100E70000043414C4942524154494F4E20434F4D4B
:100E8000504C45544544200A0D0043616C69627220
:100E90006174696F6E207374617465203D207265A2
:100EA0006400566F6C74616765203D2025642E25B3
:100EB0003032642C2020006875653D253033642C69
:100EC0002020002E0000000E00019C6F000E9D6F80
:100ED000000E9E6F000E9F6F4D50D96EDA6ADECF06
:100EE0004EF0DDCF4FF04EC002F04FC003F0046A69
:100EF000056A000E53EC16F002C060F003C061F00A
:100F000004C062F005C063F04C50D96EDA6ADECFDF
:100F10004EF0DDCF4FF04EC002F04FC003F0046A38
:100F2000056A000E53EC16F002C064F003C065F0D1
:100F300004C066F005C067F04D50D96EDA6A020E43
:100F4000D926DECF4EF0DDCF4FF04EC002F04FC0BD
:100F500003F0046A056A000E53EC16F002C068F054
:100F600003C069F004C06AF005C06BF04C50D96E44
:100F7000DA6A020ED926DECF4EF0DDCF4FF04EC03A
:100F800002F04FC003F0046A056A000E53EC16F03D
:100F900002C06CF003C06DF004C06EF005C06FF0CD
:100FA0004D50D96EDA6A040ED926DECF4EF0DDCF71
:100FB0004FF04EC002F04FC003F0046A056A000E05
:100FC00053EC16F002C070F003C071F004C072F070
:100FD00005C073F04C50D96EDA6A040ED926DECF04
:100FE0004EF0DDCF4FF04EC002F04FC003F0046A68
:100FF000056A000E53EC16F002C074F003C075F0E1
:1010000004C076F005C077F04D50D96EDA6A060E4E
:10101000D926DECF4EF0DDCF4FF04EC002F04FC0EC
:1010200003F0046A056A000E53EC16F002C078F073
:1010300003C079F004C07AF005C07BF04C50D96E43
:10104000DA6A060ED926DECF4EF0DDCF4FF04EC065
:1010500002F04FC003F0046A056A000E53EC16F06C
:1010600002C07CF003C07DF004C07EF005C07FF0BC
:1010700078C029F079C02AF07AC02BF07BC02CF020
:101080007CC02DF07DC02EF07EC02FF07FC030F0F0
:1010900005EC12F060C029F061C02AF062C02BF0AC
:1010A00063C02CF064C02DF065C02EF066C02FF038
:1010B00067C030F005EC12F029C0A0F02AC0A1F002
:1010C0002BC0A2F02CC0A3F068C029F069C02AF0A0
:1010D0006AC02BF06BC02CF06CC02DF06DC02EF0F0
:1010E0006EC02FF06FC030F005EC12F029C0A4F0F4
:1010F0002AC0A5F02BC0A6F02CC0A7F070C029F024
:1011000071C02AF072C02BF073C02CF074C02DF0A7
:1011100075C02EF076C02FF077C030F005EC12F0DD
:1011200029C0A8F02AC0A9F02BC0AAF02CC0ABF0AF
:10113000A0C002F0A1C003F0A2C004F0A3C005F05B
:10114000A4C006F0A5C007F0A6C008F0A7C009F02B
:10115000A9EC1BF0D8A0AFEF08F0B1EF08F0E6EF74
:1011600008F0A4C002F0A5C003F0A6C004F0A7C018
:1011700005F0A8C006F0A9C007F0AAC008F0ABC0EF
:1011800009F0A9EC1BF0D8A0C8EF08F0CAEF08F0EE
:10119000D4EF08F0A8C080F0A9C081F0AAC082F006
:1011A000ABC083F0DCEF08F0A4C080F0A5C081F0F4
:1011B000A6C082F0A7C083F080C090F081C091F0FB
:1011C00082C092F083C093F019EF09F0A0C002F042
:1011D000A1C003F0A2C004F0A3C005F0A8C006F0AF
:1011E000A9C007F0AAC008F0ABC009F0A9EC1BF039
:1011F000D8A0FDEF08F0FFEF08F009EF09F0A8C054
:1012000084F0A9C085F0AAC086F0ABC087F011EFCA
:1012100009F0A0C084F0A1C085F0A2C086F0A3C0F0
:1012200087F084C090F085C091F086C092F087C0AE
:1012300093F0A4C002F0A5C003F0A6C004F0A7C0BC
:1012400005F0A0C006F0A1C007F0A2C008F0A3C03E
:1012500009F0A9EC1BF0D8A030EF09F032EF09F04B
:1012600067EF09F0A8C002F0A9C003F0AAC004F01B
:10127000ABC005F0A4C006F0A5C007F0A6C008F0FA
:10128000A7C009F0A9EC1BF0D8A049EF09F04BEF7B
:1012900009F055EF09F0A8C088F0A9C089F0AAC0EC
:1012A0008AF0ABC08BF05DEF09F0A4C088F0A5C058
:1012B00089F0A6C08AF0A7C08BF088C098F089C0DA
:1012C00099F08AC09AF08BC09BF09AEF09F0A8C001
:1012D00002F0A9C003F0AAC004F0ABC005F0A0C0A2
:1012E00006F0A1C007F0A2C008F0A3C009F0A9EC65
:1012F0001BF0D8A07EEF09F080EF09F08AEF09F02B
:10130000A8C08CF0A9C08DF0AAC08EF0ABC08FF041
:1013100092EF09F0A0C08CF0A1C08DF0A2C08EF0B9
:10132000A3C08FF08CC098F08DC099F08EC09AF059
:101330008FC09BF098C012F099C013F09AC014F0BF
:101340009BC015F090C016F091C017F092C018F035
:1013500093C019F054EC22F012C094F013C095F031
:1013600014C096F015C097F098C002F099C003F031
:101370009AC004F09BC005F090C006F091C007F041
:1013800092C008F093C009F08CEC1EF0D8A0CBEF0F
:1013900009F0CDEF09F0D8EF09F0000E00019C6FC5
:1013A000000E9D6F000E9E6F000E9F6FE1EF0AF022
:1013B00098C002F099C003F09AC004F09BC005F0F9
:1013C000A0C006F0A1C007F0A2C008F0A3C009F0B9
:1013D0008CEC1EF0D8A0EFEF09F0F1EF09F01FEF51
:1013E0000AF0A4C016F0A5C017F0A6C018F0A7C058
:1013F00019F0A8C012F0A9C013F0AAC014F0ABC035
:1014000015F054EC22F012C029F013C02AF014C0D9
:101410002BF015C02CF094C02DF095C02EF096C086
:101420002FF097C030F005EC12F029C09CF02AC0D4
:101430009DF02BC09EF02CC09FF0E1EF0AF098C009
:1014400002F099C003F09AC004F09BC005F0A4C05C
:1014500006F0A5C007F0A6C008F0A7C009F08CEC04
:101460001EF0D8A036EF0AF038EF0AF080EF0AF04D
:10147000A0C016F0A1C017F0A2C018F0A3C019F0C8
:10148000A8C012F0A9C013F0AAC014F0ABC015F0A8
:1014900054EC22F012C029F013C02AF014C02BF033
:1014A00015C02CF094C02DF095C02EF096C02FF0F2
:1014B00097C030F005EC12F029C09CF02AC09DF0D6
:1014C0002BC09EF02CC09FF09CC002F09DC003F08A
:1014D0009EC004F09FC005F0000E066E000E076E61
:1014E000000E086E400E096E90EC0DF002C09CF0EC
:1014F00003C09DF004C09EF005C09FF0E1EF0AF02C
:1015000098C002F099C003F09AC004F09BC005F0A7
:10151000A8C006F0A9C007F0AAC008F0ABC009F047
:101520008CEC1EF0D8A097EF0AF099EF0AF0E1EFEB
:101530000AF0A4C016F0A5C017F0A6C018F0A7C006
:1015400019F0A0C012F0A1C013F0A2C014F0A3C003
:1015500015F054EC22F012C029F013C02AF014C088
:101560002BF015C02CF094C02DF095C02EF096C035
:101570002FF097C030F005EC12F029C09CF02AC083
:101580009DF02BC09EF02CC09FF09CC002F09DC02F
:1015900003F09EC004F09FC005F0000E066E000E22
:1015A000076E800E086E400E096E90EC0DF002C0C2
:1015B0009CF003C09DF004C09EF005C09FF0E1EFD9
:1015C0000AF09CC010F09DC011F09EC012F09FC0A8
:1015D00013F0000E146E000E156E700E166E420E95
:1015E000176EF0EC0FF010C09CF011C09DF012C00F
:1015F0009EF013C09FF000019FBF03EF0BF001EFBF
:101600000BF01DEF0BF09CC002F09DC003F09EC0DC
:1016100004F09FC005F0000E066E000E076EB40EBB
:10162000086E430E096E90EC0DF002C09CF003C0F2
:101630009DF004C09EF005C09FF09CC042F09DC08C
:1016400043F09EC044F09FC045F026EC1BF042C022
:101650004CF043C04DF01200BEEC25F0A4EC24F099
:10166000A0EC25F03CEC25F0000E036E630E026E3C
:10167000D0EC1FF0000E0001E76F010EE86F010EC5
:10168000E96F000EEB6F630EEA6FAA0EEC6F0F0EA0
:10169000ED6FA60EEE6F0F0EEF6F000EDE6F010EF8
:1016A000DF6F010EE06F000EE26F630EE16F250E3B
:1016B000E36F0F0EE46F210EE56F0F0EE66F87905C
:1016C0007F90859E7D9E8196799686840E01B49545
:1016D0008686B49787927F9288968086190E00013D
:1016E000AD6F5A0EAC6FB10EE82EFED7AC2FFCD703
:1016F000AD2FFAD700D08096D40E4E6E30EC15F098
:10170000000E0001BB6F000EBA6FDCC0AEF0DDC092
:10171000AFF0AEC04CF0AFC04DF0AFEC25F07F8025
:101720007D8E7986E70E4C6EDE0E4D6E16EC1DF04A
:10173000D58E04EC22F006C0D0F007C0D1F0D0C0A6
:1017400002F0D1C003F0046A056A000E53EC16F0F3
:1017500002C0BCF003C0BDF004C0BEF005C0BFF0C5
:10176000BCC042F0BDC043F0BEC044F0BFC045F0B5
:1017700026EC1BF042C04CF043C04DF0AFEC25F01E
:10178000DAC002F0DBC003F0046A056A000E53EC15
:1017900016F002C0B6F003C0B7F004C0B8F005C040
:1017A000B9F0B6C02DF0B7C02EF0B8C02FF0B9C058
:1017B00030F0000E146E000E156EC80E166E420E3E
:1017C000176EBCC010F0BDC011F0BEC012F0BFC09B
:1017D00013F0F0EC0FF010C029F011C02AF012C085
:1017E0002BF013C02CF005EC12F029C042F02AC0F7
:1017F00043F02BC044F02CC045F026EC1BF042C057
:10180000C0F043C0C1F0C0C04CF0C1C04DF0AFEC5F
:1018100025F067EF0CF004EC22F006C0D0F007C012
:10182000D1F0D0C002F0D1C003F0046A056A000E06
:1018300053EC16F002C0BCF003C0BDF004C0BEF013
:1018400005C0BFF0DAC002F0DBC003F0046A056A2D
:10185000000E53EC16F002C0B6F003C0B7F004C09F
:10186000B8F005C0B9F0B6C02DF0B7C02EF0B8C0C2
:101870002FF0B9C030F0000E146E000E156EC80EB9
:10188000166E420E176EBCC010F0BDC011F0BEC087
:1018900012F0BFC013F0F0EC0FF010C029F011C02F
:1018A0002AF012C02BF013C02CF005EC12F029C066
:1018B00042F02AC043F02BC044F02CC045F026EC87
:1018C0001BF042C0C0F043C0C1F003EF0CF00001B8
:1018D000C15109E1070EC05DD8A071EF0CF073EFA4
:1018E0000CF00BEF0CF0D59EE70E146EDE0E156EAD
:1018F00018EC20F0BAC01CF0BBC01DF036EC1FF095
:101900001CC0BAF01DC0BBF0110E0001AD6F3C0E43
:10191000AC6FCB0EE82EFED7AC2FFCD7AD2FFAD78D
:10192000E70E4C6EDE0E4D6E16EC1DF0190E00012A
:10193000AD6F5A0EAC6FB10EE82EFED7AC2FFCD7B0
:10194000AD2FFAD700D0E70E146EDE0E156E18EC30
:1019500020F0190E0001AD6F5A0EAC6FB10EE82EDB
:10196000FED7AC2FFCD7AD2FFAD700D0CA0E506EE1
:10197000A1EC1CF050C0B4F051C0B5F0D0C002F0E2
:10198000D1C003F0046A056A000E53EC16F002C0E1
:10199000BCF003C0BDF004C0BEF005C0BFF0DAC0AB
:1019A00002F0DBC003F0046A056A000E53EC16F087
:1019B00002C0B6F003C0B7F004C0B8F005C0B9F07B
:1019C000B6C02DF0B7C02EF0B8C02FF0B9C030F0BF
:1019D000000E146E000E156EC80E166E420E176EB7
:1019E000BCC010F0BDC011F0BEC012F0BFC013F0FB
:1019F000F0EC0FF010C029F011C02AF012C02BF04B
:101A000013C02CF005EC12F029C042F02AC043F0BC
:101A10002BC044F02CC045F026EC1BF042C0C0F0B7
:101A200043C0C1F00001C15109E1150EC05DD8A04D
:101A30001CEF0DF01EEF0DF037EF0DF0E70E4C6EC2
:101A4000DE0E4D6E16EC1DF0090E0001AD6F1E0E80
:101A5000AC6FE40EE82EFED7AC2FFCD7AD2FFAD733
:101A60000000E70E146EDE0E156E18EC20F000017B
:101A7000C15109E13D0EC05DD8A041EF0DF043EF2B
:101A80000DF059EF0DF02E0EB45D010EB559D8A032
:101A90004CEF0DF04EEF0DF060EF0DF05B0EB45D0E
:101AA000010EB559D8B057EF0DF059EF0DF060EFBA
:101AB0000DF07FA25EEF0DF060EF0DF07AEF0DF00C
:101AC000000EB16F080EB06FB0C04CF0B1C04DF059
:101AD000AFEC25F0E70E0001606FDE0E616FBAC05B
:101AE00062F0BBC063F0B2C064F0B3C065F0ADECAF
:101AF00018F07F92B4C025F0B5C026F0BAC027F028
:101B0000BBC028F0B2C029F0B3C02AF0D2EC13F069
:101B100025C0BAF026C0BBF08FEF0BF01DEF00F030
:101B20000550800B0E6E05500524106E04AE9BEF21
:101B30000DF09DEF0DF09EEF0DF010801050D8B419
:101B4000A4EF0DF0A6EF0DF0BBEF0DF01028D8A418
:101B5000ACEF0DF0AEEF0DF0B6EF0DF0000E026E33
:101B6000000E036E000E046E000E056E048E000E55
:101B7000056EC3EF0DF0000E026E000E036E000E38
:101B8000046E000E056E0950800B0F6E0E500F187C
:101B9000D8B4CDEF0DF0CFEF0DF0D0EF0DF00E8CEF
:101BA000095009240F6E08AED8EF0DF0DAEF0DF0F2
:101BB000DBEF0DF00F800F50D8B4E1EF0DF0E3EF45
:101BC0000DF0F8EF0DF00F28D8A4E9EF0DF0EBEFD2
:101BD0000DF0F3EF0DF0000E066E000E076E000E16
:101BE000086E000E096E088E000E096E00EF0EF0F2
:101BF000000E066E000E076E000E086E000E096ED7
:101C000010500F5CD8B007EF0EF009EF0EF030EF78
:101C10000EF00EAC0EEF0EF010EF0EF012EF0EF015
:101C2000800E0E1A10C011F00FC010F011C00FF08E
:101C300002C011F006C002F011C006F003C011F09E
:101C400007C003F011C007F004C011F008C004F091
:101C500011C008F005C011F009C005F011C009F06D
:101C6000000E116E10500FC00AF00B6A0A5E000ED3
:101C70000B5A0BBE45EF0EF00B5009E11A0E0A5C31
:101C8000D8A045EF0EF047EF0EF07EEF0EF00250B9
:101C9000031004100510D8A450EF0EF053EF0EF00F
:101CA000010E54EF0EF0000E116E000E026E000ECB
:101CB000036E000E046E000E056E0FC010F087EF6D
:101CC0000EF011A066EF0EF068EF0EF06EEF0EF062
:101CD000D89011300109116E70EF0EF0D8901132CA
:101CE00002A075EF0EF077EF0EF078EF0EF0118E88
:101CF00005340532043203320232102A0F50105CD0
:101D0000D8A085EF0EF087EF0EF061EF0EF00EBC5D
:101D10008CEF0EF08EEF0EF0CEEF0EF01050D8A438
:101D200094EF0EF096EF0EF0A0EF0EF0000E026EA4
:101D3000000E036E000E046E000E056EEFEF0FF046
:101D4000065002260750032208500422095005229B
:101D500005A0ADEF0EF0AFEF0EF05BEF0FF011A0AE
:101D6000B4EF0EF0B6EF0EF0BCEF0EF0D8901130DD
:101D70000109116EBEEF0EF0D890113202A0C3EF30
:101D80000EF0C5EF0EF0C6EF0EF0118E05340532E1
:101D9000043203320232102A5BEF0FF00650025C6D
:101DA00007500358085004580550800A0A6E09501D
:101DB000800A0A58D8B0DFEF0EF0E1EF0EF00CEF1A
:101DC0000FF00250065C0A6E035007580B6E045069
:101DD00008580C6E055009580D6EFF0E0A24026E4D
:101DE000FF0E0B20036EFF0E0C20046EFF0E0D2065
:101DF000056E800E0E1A116C1150D8A402EF0FF070
:101E000004EF0FF014EF0FF0010E0226000E032274
:101E10000422052214EF0FF00650025E0750035A09
:101E20000850045A0950055A0250031004100510B6
:101E3000D8A41DEF0FF01FEF0FF054EF0FF011506B
:101E4000D8A425EF0FF027EF0FF054EF0FF0000E9E
:101E5000026E000E036E000E046E000E056EEFEFB4
:101E60000FF0D890023603360436053611AE3BEF3C
:101E70000FF03DEF0FF03EEF0FF0028011A043EFA7
:101E80000FF045EF0FF049EF0FF0D88011364BEF10
:101E90000FF0D89011361050D8B451EF0FF053EF27
:101EA0000FF054EF0FF0100604AE59EF0FF05BEF98
:101EB0000FF031EF0FF0000E0F6E11AE62EF0FF06A
:101EC00064EF0FF07CEF0FF011C00AF07F0E0A16DE
:101ED000D8B46DEF0FF06FEF0FF073EF0FF0010E4E
:101EE0000F6E7CEF0FF002A078EF0FF07AEF0FF09B
:101EF0007CEF0FF06FEF0FF00F50D8B482EF0FF0C0
:101F000084EF0FF0AFEF0FF0010E0226000E032258
:101F10000422052205A08FEF0FF091EF0FF0AFEF35
:101F20000FF002C00AF003C00BF004C00CF005C0B3
:101F30000DF00D340D320C320B320A320AC002F0B1
:101F40000BC003F00CC004F00DC005F01028D8B48D
:101F5000ACEF0FF0AEEF0FF0AFEF0FF0102A10283C
:101F6000D8B4B5EF0FF0B7EF0FF0BFEF0FF0105090
:101F7000D8A4BDEF0FF0BFEF0FF0D1EF0FF0000EC0
:101F8000026E000E036E000E046E000E056E105001
:101F9000D8A4CDEF0FF0CFEF0FF0D1EF0FF0000E80
:101FA0000E6E10A0D6EF0FF0D8EF0FF0DBEF0FF0B2
:101FB000048EDCEF0FF0049ED8901030056E0EAE4C
:101FC000E4EF0FF0E6EF0FF0E7EF0FF0058E02C041
:101FD00002F003C003F004C004F005C005F01200D5
:101FE0001350800B1C6E13501324226E12AEFBEFA5
:101FF0000FF0FDEF0FF0FEEF0FF022802250D8B46B
:1020000004EF10F006EF10F019EF10F02228D8A41A
:102010000CEF10F00EEF10F016EF10F0000E106E37
:10202000000E116E000E126E000E136E128E21EF56
:1020300010F0000E106E000E116E000E126E000EEB
:10204000136E1750800B1C1A17501724216E16AEF2
:102050002CEF10F02EEF10F02FEF10F02180215018
:10206000D8B435EF10F037EF10F04AEF10F0212818
:10207000D8A43DEF10F03FEF10F047EF10F0000E46
:10208000146E000E156E000E166E000E176E168E74
:1020900052EF10F0000E146E000E156E000E166E4C
:1020A000000E176E2150D8B458EF10F05AEF10F010
:1020B00062EF10F02250D8A460EF10F062EF10F041
:1020C0006CEF10F0000E106E000E116E000E126E0E
:1020D000000E136E04EF12F016501002F3CF27F02B
:1020E000F4CF28F027501D6E1E6A1F6A206A285000
:1020F000236E246A256A266A15501102F3CF27F051
:10210000F4CF28F027501D26000E1E221F22202269
:1021100028502326000E24222522262214501202A3
:10212000F3CF27F0F4CF28F027501D26000E1E22F3
:102130001F22202228502326000E24222522262278
:102140001FC020F01EC01FF01DC01EF01D6A1450DD
:102150001102F3CF27F0F4CF28F027501D26285086
:102160001E22000E1F22000E202215501002F3CF57
:1021700027F0F4CF28F027501D2628501E22000EED
:102180001F22000E20221FC020F01EC01FF01DC005
:102190001EF01D6A14501002F3CF27F0F4CF28F080
:1021A00027501D2628501E22000E1F22000E20221E
:1021B00016501102F3CF27F0F4CF28F02750232632
:1021C00028502422000E2522000E2622155012022D
:1021D000F3CF27F0F4CF28F02750232628502422CD
:1021E000000E2522000E262216501202F3CF27F0F1
:1021F000F4CF28F02750186E2850196E1A6A1B6AFF
:102200001AC01BF019C01AF018C019F0186A18503B
:102210002326195024221A5025221B5026221DC085
:1022200018F01EC019F01FC01AF020C01BF0190EC4
:102230001FEF11F0D8901B321A3219321832E82EE3
:102240001AEF11F018502326195024221A50252273
:102250001B5026221FC020F01EC01FF01DC01EF004
:102260001D6A215022C018F0196A1826000E192282
:10227000820E1824276EFF0E1920286E55EF11F0DC
:10228000D890233624362536263620AE4AEF11F074
:102290004CEF11F04DEF11F02380D8901D361E3613
:1022A0001F3620362706D8A0280625AE5AEF11F093
:1022B0005CEF11F040EF11F0000E216E20AE63EFE5
:1022C00011F065EF11F089EF11F0FF0E1D14186E7B
:1022D000FF0E1E14196EFF0E1F141A6E7F0E2014AF
:1022E0001B6E185019101A101B10D8B47AEF11F089
:1022F0007CEF11F080EF11F0010E216E89EF11F0EB
:1023000023A085EF11F087EF11F089EF11F07CEF3A
:1023100011F02150D8B48FEF11F091EF11F0B5EF1B
:1023200011F0010E2326000E24222522262226A0AB
:102330009CEF11F09EEF11F0B5EF11F023C018F0F3
:1023400024C019F025C01AF026C01BF01B341B3224
:102350001A321932183218C023F019C024F01AC0EA
:1023600025F01BC026F0274A282A28BEC0EF11F00E
:10237000285008E12728D8A0C0EF11F0C2EF11F0D3
:10238000CCEF11F0000E236E000E246E800E256E31
:102390007F0E266EFAEF11F028BED9EF11F028500B
:1023A00006E12704D8B0D7EF11F0D9EF11F0E5EF2F
:1023B00011F0000E236E000E246E000E256E000E2E
:1023C000266E000E1C6EFAEF11F027C022F0FF0EF1
:1023D0002316FF0E24167F0E2516000E261622A0A9
:1023E000F4EF11F0F6EF11F0F7EF11F0258ED89021
:1023F0002230266E1C50261223C010F024C011F08B
:1024000025C012F026C013F012002C50800B396E3C
:102410002C502C24406E2BAE10EF12F012EF12F065
:1024200013EF12F040804050D8B419EF12F01BEFB8
:1024300012F030EF12F04028D8A421EF12F023EF71
:1024400012F02BEF12F0000E296E000E2A6E000E15
:102450002B6E000E2C6E2B8E000E2C6E38EF12F0B1
:10246000000E296E000E2A6E000E2B6E000E2C6ED2
:102470003050800B391A30503024416E2FAE43EF6C
:1024800012F045EF12F046EF12F041804150D8B4FF
:102490004CEF12F04EEF12F063EF12F04128D8A487
:1024A00054EF12F056EF12F05EEF12F0000E2D6EA8
:1024B000000E2E6E000E2F6E000E306E2F8E000E50
:1024C000306E6BEF12F0000E2D6E000E2E6E000EB1
:1024D0002F6E000E306E2D502E102F103010D8A4FD
:1024E00074EF12F076EF12F08EEF12F0000E296EFC
:1024F000000E2A6E000E2B6E000E2C6E800E2B121C
:102500007F0E2C1239502C1229C029F02AC02AF033
:102510002BC02BF02CC02CF0D1EF13F04050D8A4DE
:1025200094EF12F096EF12F0A0EF12F0000E296E69
:10253000000E2A6E000E2B6E000E2C6ED1EF13F0E3
:10254000415040C031F0326A315E000E325A7F0E87
:1025500031243A6E000E32203B6E29C035F02AC07D
:1025600036F02BC037F02CC038F0000E296E000E6C
:102570002A6E000E2B6E000E2C6E000E3C6E000EAE
:102580003D6E000E3E6E000E3F6E000E416E01EF7E
:1025900013F04150D8B4CFEF12F0D1EF12F0E8EFC2
:1025A00012F0D8903536363637363836D890293648
:1025B0002A362B362C363FAEE0EF12F0E2EF12F067
:1025C000E3EF12F02980D8903C363D363E363F3658
:1025D0002D50355C2E5036582F50375830503858C3
:1025E000D8A0F5EF12F0F7EF12F000EF13F03F8CE8
:1025F0002D50355E2E50365A2F50375A3050385A9B
:10260000412A190E416407EF13F009EF13F0C9EFE7
:1026100012F03550361037103810D8B412EF13F0CE
:1026200014EF13F02CEF13F03C802CEF13F0D89044
:1026300029362A362B362C363FAE21EF13F023EF06
:1026400013F024EF13F02980D8903C363D363E3607
:102650003F363A06D8A03B062BAE31EF13F033EFEE
:1026600013F017EF13F0000E416E3FAE3AEF13F088
:102670003CEF13F060EF13F0FF0E3C14316EFF0ED1
:102680003D14326EFF0E3E14336E7F0E3F14346ED7
:102690003150321033103410D8B451EF13F053EFDF
:1026A00013F057EF13F0010E416E60EF13F029A005
:1026B0005CEF13F05EEF13F060EF13F053EF13F0E5
:1026C0004150D8B466EF13F068EF13F08CEF13F0BD
:1026D000010E2926000E2A222B222C222CA073EF79
:1026E00013F075EF13F08CEF13F029C031F02AC00E
:1026F00032F02BC033F02CC034F034343432333267
:102700003232313231C029F032C02AF033C02BF0DE
:1027100034C02CF03A4A3B2A3BBE97EF13F03B50B3
:1027200008E13A28D8A097EF13F099EF13F0A4EF3F
:1027300013F0000E3B6E3A68000E296E000E2A6EF2
:10274000000E2B6E000E2C6E3BBEB1EF13F03B5013
:1027500006E13A04D8B0AFEF13F0B1EF13F0BFEFDA
:1027600013F0000E3B6E000E3A6E000E296E000E46
:102770002A6E000E2B6E000E2C6E000E396E3AC0C3
:1027800040F040A0C6EF13F0C8EF13F0CBEF13F00A
:102790002B8ECCEF13F02B9ED89040302C6E82EF16
:1027A00012F01200265009E10B0E255CD8A0DBEFD9
:1027B00013F0DDEF13F0E8EF13F0630E255C010E6C
:1027C0002658D8A0E6EF13F0E8EF13F005EF14F069
:1027D000E70E1F6EDE0E206E29C021F02AC022F007
:1027E000DAEC23F0000E026E000E036E000E046E93
:1027F000000E056E27C006F028C007F0010E87EC1A
:1028000021F0274A282A2BEF15F0265009E1690EFE
:10281000255CD8A00EEF14F010EF14F036EF14F092
:10282000265007E1830E255CD8B019EF14F01BEF9A
:1028300014F036EF14F0E70E1F6EDE0E206E29C086
:1028400021F02AC022F04EEC24F0000E026E000EA1
:10285000036E000E046E000E056E27C006F028C041
:1028600007F0020E87EC21F001EF14F0265009E189
:10287000E60E255CD8A03FEF14F041EF14F067EFAF
:1028800014F0265007E1F10E255CD8B04AEF14F0A1
:102890004CEF14F067EF14F0E70E1F6EDE0E206EA3
:1028A00029C021F02AC022F06BEC24F0000E026E49
:1028B000000E036E000E046E000E056E27C006F0BB
:1028C00028C007F0030E87EC21F001EF14F026502A
:1028D00009E1D80E255CD8A070EF14F072EF14F067
:1028E00098EF14F0265007E1DE0E255CD8B07BEFA0
:1028F00014F07DEF14F098EF14F0E70E1F6EDE0E6B
:10290000206E29C021F02AC022F031EC24F0000E04
:10291000026E000E036E000E046E000E056E27C0E0
:1029200006F028C007F0040E87EC21F001EF14F048
:102930002E0E255C010E2658D8A0A1EF14F0A3EFAF
:1029400014F0C9EF14F05B0E255C010E2658D8B0C8
:10295000ACEF14F0AEEF14F0C9EF14F0E70E1F6EF9
:10296000DE0E206E29C021F02AC022F0BDEC23F03B
:10297000000E026E000E036E000E046E000E056E59
:1029800027C006F028C007F0050E87EC21F001EF04
:1029900014F0265009E10F0E255CD8A0D2EF14F0F8
:1029A000D4EF14F0FAEF14F0265007E1240E255C62
:1029B000D8B0DDEF14F0DFEF14F0FAEF14F0E70E0B
:1029C0001F6EDE0E206E29C021F02AC022F014EC0A
:1029D00024F0000E026E000E036E000E046E000E58
:1029E000056E27C006F028C007F0060E87EC21F020
:1029F00001EF14F0265009E1F40E255CD8A003EF96
:102A000015F005EF15F02BEF15F0265007E1FC0E41
:102A1000255CD8B00EEF15F010EF15F02BEF15F088
:102A2000E70E1F6EDE0E206E29C021F02AC022F0B4
:102A3000F7EC23F0000E026E000E036E000E046E23
:102A4000000E056E27C006F028C007F0070E87ECC1
:102A500021F001EF14F027C025F028C026F0120065
:102A60007F907D9E7996920E326E8A0E336EC30EE3
:102A7000346E3450D8A40E0E356EBEEC24F0920E97
:102A8000036E0BEC25F08EB448EF15F04AEF15F00D
:102A900043EF15F07F80290E506E960E4F6E7F0E1D
:102AA000E82EFED74F2EFCD7502EFAD70000B4ECFC
:102AB00021F04E50D96EDA6A06C0DEFF07C0DDFF96
:102AC0007F90920E326E010E336EC30E346E345010
:102AD000D8A40E0E356EBEEC24F0920E036E0BECF5
:102AE00025F08EB476EF15F078EF15F071EF15F054
:102AF0007D8E290E506E960E4F6E7F0EE82EFED7FD
:102B00004F2EFCD7502EFAD70000DCEC21F04E50AF
:102B1000D96EDA6A020ED92606C0DEFF07C0DDFFD5
:102B20007D9E920E326E3B0E336EC30E346E345069
:102B3000D8A40E0E356EBEEC24F0920E036E0BEC94
:102B400025F08EB4A6EF15F0A8EF15F0A1EF15F063
:102B50007986290E506E960E4F6E7F0EE82EFED7A8
:102B60004F2EFCD7502EFAD700002CEC22F04E50FE
:102B7000D96EDA6A040ED92606C0DEFF07C0DDFF73
:102B80007996920E326E560E336EC30E346E3450FA
:102B9000D8A40E0E356EBEEC24F0920E036E0BEC34
:102BA00025F08EB4D6EF15F0D8EF15F0D1EF15F073
:102BB0007F807D8E7986290E506E960E4F6E7F0E29
:102BC000E82EFED74F2EFCD7502EFAD7000004EC8B
:102BD00022F04E50D96EDA6A060ED92606C0DEFF04
:102BE00007C0DDFF7F907D9E7996920E326E1E0E9D
:102BF000336EC30E346E3450D8A40E0E356EBEEC58
:102C000024F0920E036E0BEC25F08EB40AEF16F052
:102C10000CEF16F005EF16F07F807D8E7986290E79
:102C2000506E960E4F6E7F0EE82EFED74F2EFCD7BD
:102C3000502EFAD7000004EC22F04E50D96EDA6A1A
:102C4000080ED92606C0DEFF07C0DDFF7F907D9EFF
:102C50007996920E326E710E336EC30E346E34500E
:102C6000D8A40E0E356EBEEC24F0920E036E0BEC63
:102C700025F0DCC04CF0DDC04DF0AFEC25F08EB49B
:102C800044EF16F046EF16F03FEF16F0290E506EA7
:102C9000960E4F6E7F0EE82EFED74F2EFCD7502E8D
:102CA000FAD7000012000A6E0A50D8B45AEF16F094
:102CB0005CEF16F07EEF16F005BE63EF16F061EFE5
:102CC00016F07EEF16F002C006F003C007F004C055
:102CD00008F005C009F0061E071E081E091E062A78
:102CE000000E07220822092206C00CF007C00DF0D2
:102CF00008C00EF009C00FF086EF16F002C00CF00D
:102D000003C00DF004C00EF005C00FF00250031018
:102D100004100510D8A48FEF16F091EF16F09BEF7A
:102D200016F0000E026E000E036E000E046E000E12
:102D3000056E2CEF17F0960E0B6EA5EF16F00B2A12
:102D4000D8900F320E320D320C32000E0C14066E7B
:102D5000000E0D14076E000E0E14086EFE0E0F14FA
:102D6000096E0650071008100910D8A4BAEF16F023
:102D7000BCEF16F09FEF16F0CAEF16F00B2A010E0B
:102D80000C26000E0D220E220F22D8900F320E328A
:102D90000D320C32000E0C14066E000E0D14076E70
:102DA000000E0E14086EFF0E0F14096E0650071069
:102DB00008100910D8A4DFEF16F0E1EF16F0BEEF0F
:102DC00016F0E9EF16F00B06D8900C360D360E36DD
:102DD0000F360EBEEEEF16F0F0EF16F0F8EF16F02D
:102DE000020E0B60F6EF16F0F8EF16F0E3EF16F0B8
:102DF0000BB0FDEF16F0FFEF16F000EF17F00E9E90
:102E0000D8900B320BC006F0076A086A096A06C040
:102E100009F0086A076A066A06500C1207500D127C
:102E200008500E1209500F120A50D8B41AEF17F0BA
:102E30001CEF17F024EF17F005BE23EF17F021EF7A
:102E400017F024EF17F00F8E0CC002F00DC003F046
:102E50000EC004F00FC005F012002450D96EDA6ADB
:102E6000DFCFF6FF0E0EF76E000EF86E0800F5507D
:102E7000250AD8A43EEF17F040EF17F0DDEF17F06A
:102E80002450D96EDA6ADF2A000E0001C36F000EEB
:102E9000C26FC2C0C6F0C469C569000E2C6E78EF5F
:102EA00017F00001C6832450D96EDA6ADF2A78EF62
:102EB00017F0010E2C6E78EF17F02450D96EDA6AF5
:102EC000DFCFF6FF0E0EF76E000EF86E0800F5501D
:102ED000266E276A2750000AD8B471EF17F059EF11
:102EE00017F02650300AD8B451EF17F059EF17F009
:102EF0002C50D8B47EEF17F080EF17F05DEF17F08D
:102F000024C008F025C009F035EC1EF008C0C2F05E
:102F100009C0C3F00001C3BF92EF17F090EF17F0A4
:102F200097EF17F0C681C26DC31FD8B0C32B2450D2
:102F3000D96EDA6ADF502D6E2DC0F6FF0E0EF76ED9
:102F4000000EF86E0800F550640AD8B4AAEF17F026
:102F5000ACEF17F0BCEF17F02DC0F6FF0E0EF76EBA
:102F6000000EF86E0800F550690AD8A4BAEF17F001
:102F7000BCEF17F0D7EF17F02550D96EDA6A020EC2
:102F8000DF26DF5CD96EDA6ADECF28F0DECF29F0EB
:102F90002450D96EDA6A2D28DF6E23C018F028C0BD
:102FA00019F029C01AF0F1EC17F0F0EF17F02450E7
:102FB000D96EDA6ADF2AF0EF17F02450D96EDA6A98
:102FC000DFCFF6FF0E0EF76E000EF86E0800F5501C
:102FD000026E036A23C004F0E1EC1EF0D7EF17F095
:102FE0001200010E1D6E1ABEF8EF17F0FBEF17F07E
:102FF000010EFCEF17F0000E206EC2C01EF0C3C021
:103000001FF02050D8B407EF18F009EF18F020EFA8
:1030100018F01E06D8A01F062050D8A412EF18F0F2
:1030200014EF18F01AEF18F0000E1C6E2B0E1B6E2A
:103030001EEF18F0000E1C6E2D0E1B6E1BC020F034
:10304000000E226E1F0E216E000E0101B56F58EFAB
:1030500018F02106D8A02206960E2124D96E010E62
:103060002220DA6E19C002F01AC003F0000E056EBD
:103070000A0E046EDDEC1DF002C008F003C009F07A
:10308000D8EC24F00850300FDF6E000E1D6E1E06C7
:10309000D8A01F0619C002F01AC003F0000E056E7A
:1030A0000A0E046E7BEC1DF002C019F003C01AF08A
:1030B00022BE63EF18F0225008E12104D8A063EF8C
:1030C00018F065EF18F08BEF18F019501A10D8A40B
:1030D0006CEF18F06EEF18F029EF18F01D50D8A41F
:1030E00074EF18F076EF18F029EF18F01FBE81EF9B
:1030F00018F01F5008E11E04D8A081EF18F083EFEC
:1031000018F08BEF18F00001C6B389EF18F08BEFC1
:1031100018F029EF18F02050D8B491EF18F093EF81
:1031200018F09EEF18F02106D8A02206960E212452
:10313000D96E010E2220DA6E20C0DFFF18C010F019
:10314000960E2124116E010E2220126E1EC013F065
:103150001FC014F085EC1FF012007F907D9E7996C1
:10316000E70E1F6EDE0E206E64C021F065C022F0F7
:10317000A0EC23F0000162516311D8B4C2EF18F043
:10318000C4EF18F063EF19F0FF0E62256D6FFF0EAC
:1031900063216E6F3C0E6D25D96E010E6E21DA6EC5
:1031A000DF506C6F3D0E6D25D96E010E6E21DA6E0B
:1031B000050EDE18D8B4DFEF18F0E1EF18F0F0EFED
:1031C00018F03D0E6D25D96E010E6E21DA6E070ED8
:1031D000DE18D8A4EEEF18F0F0EF18F00EEF19F0AB
:1031E000000E666F020E676FD8906D35D96E6E3522
:1031F000DA6ED890D936DA366651D9266751DA2296
:10320000360EDE24686FF70EDE20696FFF0EDE20BB
:103210006A6FFF0EDE206B6F26EF19F0000E666FEF
:10322000020E676FD8906D35D96E6E35DA6ED89014
:10323000D936DA366651D9266751DA22DECF68F000
:10324000DECF69F0DECF6AF0DECF6BF06C51D8A430
:103250002CEF19F02EEF19F03EEF19F060C051F08D
:1032600061C052F068C053F069C054F06AC055F0B4
:103270006BC056F02BEC1CF052EF19F060C01FF041
:1032800061C020F06CC021F068C022F069C023F05A
:103290006AC024F06BC025F064C026F065C027F03A
:1032A0000FEC1AF000016D516E11D8A45AEF19F00D
:1032B0005CEF19F05EEF19F063EF19F06D07D8A01D
:1032C0006E07CAEF18F0030012000F50D96EDA6AC9
:1032D000020ED926DF50D8B470EF19F072EF19F052
:1032E000A2EF19F00F50D96EDA6ADF50106E10504D
:1032F000026E036A0F50D96EDA6A030ED926DECF4A
:1033000004F0DDCF05F07DEC25F002C008F003C02D
:1033100009F0000E0B6E640E0A6E18EC21F00F50CF
:10332000D96EDA6A030ED926DF50116E0850115C8F
:10333000126E0F50D96EDA6A030ED926DF50136E63
:10334000C3EF19F0000E126E0F50D96EDA6ADF501B
:10335000106E1050026E036A0F50D96EDA6A030EB7
:10336000D926DECF04F0DDCF05F07DEC25F002C0DC
:1033700008F003C009F0000E0B6E640E0A6E18EC24
:1033800021F00850136E0F50D96EDA6A010ED9265B
:10339000DF50D8B4CEEF19F0D0EF19F0F0EF19F0FC
:1033A0000F50D96EDA6A050ED926DECF10F0DDCFC8
:1033B00011F010C0D9FF11C0DAFF12C0DFFF0F50AB
:1033C000D96EDA6A070ED926DECF10F0DDCF11F004
:1033D00010C0D9FF11C0DAFF13C0DFFF0EEF1AF0E3
:1033E0000F50D96EDA6A050ED926DECF10F0DDCF88
:1033F00011F010C0D9FF11C0DAFF13C0DFFF0F506A
:10340000D96EDA6A070ED926DECF10F0DDCF11F0C3
:1034100010C0D9FF11C0DAFF12C0DFFF1200210473
:10342000D8A415EF1AF017EF1AF035EF1AF01FC0F5
:1034300019F020C01AF026C01BF027C01CF0FCECCD
:1034400022F0290E296E960E286E7F0EE82EFED7EA
:10345000282EFCD7292EFAD700001FC019F020C053
:103460001AF024EC25F09FEF1AF0020E2118D8A4D0
:103470003CEF1AF03EEF1AF04AEF1AF01FC019F0B5
:1034800020C01AF026C01BF027C01CF099EC22F0D7
:1034900021EF1AF0030E2118D8A451EF1AF053EFC0
:1034A0001AF05FEF1AF01FC019F020C01AF026C002
:1034B0001BF027C01CF01DEC23F021EF1AF0040EC6
:1034C0002118D8A466EF1AF068EF1AF074EF1AF01A
:1034D0001FC019F020C01AF026C01BF027C01CF036
:1034E000BAEC22F021EF1AF0050E2118D8A47BEFD8
:1034F0001AF07DEF1AF07FEF1AF017EF1AF0060EB0
:103500002118D8A486EF1AF088EF1AF094EF1AF079
:103510001FC019F020C01AF026C01BF027C01CF0F5
:10352000DBEC22F021EF1AF0070E2118D8A49BEF54
:103530001AF09DEF1AF09FEF1AF03EEF1AF012000A
:10354000000E176E15BEA9EF1AF0A7EF1AF0B3EF31
:103550001AF0151E141E131E126C000E13221422D4
:103560001522010E176E11BEBAEF1AF0B8EF1AF05D
:10357000C4EF1AF0111E101E0F1E0E6C000E0F224B
:1035800010221122010E171A000E186E000E196E6D
:10359000000E1A6E000E1B6E125013101410151030
:1035A000D8B4D5EF1AF0D7EF1AF00DEF1BF0010EDB
:1035B000166EE1EF1AF0D89012361336143615361F
:1035C000162A15AEE6EF1AF0E8EF1AF0DBEF1AF064
:1035D000D890183619361A361B3612500E5C135016
:1035E0000F581450105815501158D8A0FAEF1AF06F
:1035F000FCEF1AF005EF1BF012500E5E13500F5A3D
:103600001450105A1550115A1880D890153214328F
:1036100013321232162EE8EF1AF01750D8B413EF07
:103620001BF015EF1BF01DEF1BF01B1E1A1E191EC1
:10363000186C000E19221A221B2218C00EF019C095
:103640000FF01AC010F01BC011F0120044344534C2
:103650004B6E4B50D8A42FEF1BF031EF1BF03BEF1C
:103660001BF0000E426E000E436E000E446E000E04
:10367000456EA8EF1BF042C046F043C047F044C07F
:1036800048F045C049F0200E4BEF1BF0D89049326E
:10369000483247324632E82E46EF1BF046504A6E1B
:1036A000448EFF0E4216FF0E4316FF0E4416000E08
:1036B0004516960E4B5E4BBE62EF1BF060EF1BF0A3
:1036C00078EF1BF04B50800A970FD8B06AEF1BF0D1
:1036D0006CEF1BF06EEF1BF031EF1BF0D890453212
:1036E0004432433242324B3E6EEF1BF090EF1BF000
:1036F0001F0E4B647EEF1BF080EF1BF088EF1BF07A
:1037000031EF1BF0D89042364336443645364B06EF
:103710004B50D8A48EEF1BF090EF1BF082EF1BF004
:103720004A50D8B496EF1BF098EF1BF0A0EF1BF0B7
:10373000451E441E431E426C000E43224422452275
:1037400042C042F043C043F044C044F045C045F09D
:103750001200000E02140A6E000E03140B6E800E8F
:1037600004140C6E7F0E05140D6E0A500B100C1015
:103770000D10D8A4BEEF1BF0C0EF1BF0C8EF1BF07C
:10378000000E026E000E036E000E046E000E056E3B
:10379000000E06140A6E000E07140B6E800E08143D
:1037A0000C6E7F0E09140D6E0A500B100C100D10CC
:1037B000D8A4DDEF1BF0DFEF1BF0E7EF1BF0000EEE
:1037C000066E000E076E000E086E000E096E05AE46
:1037D000ECEF1BF0EEEF1BF0F7EF1BF0026C031E9B
:1037E000D8B0032A041ED8B0042A800E055609AEAC
:1037F000FCEF1BF0FEEF1BF007EF1CF0066C071E42
:10380000D8B0072A081ED8B0082A800E0956000E24
:10381000021A000E031A000E041A800E051A000E7A
:10382000061A000E071A000E081A800E091A065012
:10383000025C075003580850045809500558D8B086
:1038400024EF1CF026EF1CF029EF1CF0D8902AEF93
:103850001CF0D8801200030E5A6EE80E596E56BE48
:103860003EEF1CF0565055100BE1650E535C190EDF
:103870005458D8A03EEF1CF040EF1CF046EF1CF06F
:103880001E0E5A6E460E596E83EF1CF056BE55EF53
:103890001CF0565055100BE1A10E535C0F0E5458FE
:1038A000D8A055EF1CF057EF1CF06EEF1CF056BE81
:1038B00068EF1CF05650551009E1640E535C190E68
:1038C0005458D8B066EF1CF068EF1CF06EEF1CF097
:1038D000150E5A6E7C0E596E83EF1CF056BE7FEFAC
:1038E0001CF05650551009E1A00E535C0F0E5458B1
:1038F000D8B07DEF1CF07FEF1CF083EF1CF00A0EB8
:103900005A6EBE0E596EE70E4C6EDE0E4D6E16EC04
:103910001DF059C002F05AC003F088EC24F0E70E05
:10392000146EDE0E156E18EC20F0190E586E5A0E3D
:10393000576EB20EE82EFED7572EFCD7582EFAD768
:1039400012007F807D9E7996290E536E960E526EE0
:103950007F0EE82EFED7522EFCD7532EFAD700004A
:10396000B4EC21F05050D96EDA6A06C0DEFF07C011
:10397000DDFF7F907D8E7996290E536E960E526EE6
:103980007F0EE82EFED7522EFCD7532EFAD700001A
:10399000DCEC21F05050D96EDA6A020ED92606C04E
:1039A000DEFF07C0DDFF7F907D9E7986290E536E76
:1039B000960E526E7F0EE82EFED7522EFCD7532E57
:1039C000FAD700002CEC22F05050D96EDA6A040EBF
:1039D000D92606C0DEFF07C0DDFF7F807D8E798699
:1039E000290E536E960E526E7F0EE82EFED7522E83
:1039F000FCD7532EFAD7000004EC22F05050D96EB9
:103A0000DA6A060ED92606C0DEFF07C0DDFFD40E37
:103A10004C6ECA0E4D6E63EC07F04CC054F04DC0B6
:103A200055F054C050F055C051F012004C50D96EB2
:103A3000DA6A010ED926010EDF6E4D50D96EDA6AB0
:103A4000010ED926010EDF6E000E506E000E4F6E75
:103A50004C50D96EDA6A4FC0DFFF4D50D96EDA6A2A
:103A6000660E146E660E156E860E166E3F0E176E7F
:103A70004FC002F050C003F0000E03BEFF0E046EF4
:103A8000056E010E53EC16F002C010F003C011F0E9
:103A900004C012F005C013F0F0EC0FF010C042F0BB
:103AA00011C043F012C044F013C045F026EC1BF0E7
:103AB0004250DF6E4CC00FF065EC19F04DC00FF0B6
:103AC00065EC19F00B0E4E6E620EE82EFED74E2EF0
:103AD000FCD700D04F4A502A50BE78EF1DF050500E
:103AE00009E1330E4F5CD8A078EF1DF07AEF1DF09E
:103AF00028EF1DF01200000E076E05BE84EF1DF0CA
:103B000082EF1DF08AEF1DF0046C051ED8B0052A67
:103B1000010E076E03BE91EF1DF08FEF1DF097EFC2
:103B20001DF0026C031ED8B0032A010E071A000E06
:103B3000096E000E086E04500510D8B4A2EF1DF0F7
:103B4000A4EF1DF0CCEF1DF0010E066EACEF1DF0E2
:103B5000D89004360536062A05AEB1EF1DF0B3EF56
:103B60001DF0A8EF1DF0D890083609360450025C0D
:103B700005500358D8A0BFEF1DF0C1EF1DF0C6EFF0
:103B80001DF00450025E0550035A0880D89005329B
:103B90000432062EB3EF1DF00750D8B4D2EF1DF05B
:103BA000D4EF1DF0D8EF1DF0086C091ED8B0092A1B
:103BB00008C002F009C003F01200000E076E03BE39
:103BC000E6EF1DF0E4EF1DF0ECEF1DF0026C031EBC
:103BD000D8B0032A010E076E05BEF3EF1DF0F1EF1A
:103BE0001DF0F7EF1DF0046C051ED8B0052A045037
:103BF0000510D8B4FEEF1DF000EF1EF024EF1EF00C
:103C0000010E066E08EF1EF0D89004360536062A1F
:103C100005AE0DEF1EF00FEF1EF004EF1EF0045086
:103C2000025C05500358D8A018EF1EF01AEF1EF0E2
:103C30001EEF1EF00450025E0550035AD890053264
:103C40000432062E0FEF1EF00750D8B42AEF1EF0F4
:103C50002CEF1EF030EF1EF0026C031ED8B0032ACA
:103C600002C002F003C003F01200000E0C6E000E42
:103C70000B6E0850D96EDA6ADFCFF6FF0E0EF76EC4
:103C8000000EF86E0800F5502A0AD8A44AEF1EF07C
:103C90004CEF1EF072EF1EF00850D96EDA6ADF2A80
:103CA0000950D96EDA6A020EDF26DF5CD96EDA6A55
:103CB000DECF0BF0DECF0CF087EF1EF00BC002F072
:103CC0000CC003F0000E056E0A0E046E7DEC25F0AC
:103CD0000A5002240B6E000E03200C6E0850D96EA1
:103CE000DA6ADF2A0850D96EDA6ADFCFF6FF0E0EE5
:103CF000F76E000EF86E0800F550D00F0A6E090E30
:103D00000A6485EF1EF087EF1EF05EEF1EF00BC019
:103D100008F00CC009F01200000E02140A6E000E2A
:103D200003140B6E800E04140C6E7F0E05140D6EC2
:103D30000A500B100C100D10D8A4A1EF1EF0A3EF29
:103D40001EF0ABEF1EF0000E026E000E036E000EB2
:103D5000046E000E056E000E06140A6E000E0714A7
:103D60000B6E800E08140C6E7F0E09140D6E0A5037
:103D70000B100C100D10D8A4C0EF1EF0C2EF1EF0F7
:103D8000CAEF1EF0000E066E000E076E000E086EE3
:103D9000000E096E065002180FE1075003180CE1DF
:103DA0000850041809E109500518D8B4DAEF1EF0DC
:103DB000DCEF1EF0DFEF1EF0D890E0EF1EF0D880B1
:103DC00012000450D8B4E7EF1EF0E9EF1EF0F1EF57
:103DD0001EF00450D8A4EFEF1EF0F1EF1EF0F6EF46
:103DE0001EF00250ECEC25F035EF1FF00450D96EB8
:103DF000DA6A0A0ED926DE50DE10D8B402EF1FF0C0
:103E000004EF1FF01DEF1FF00450D96EDA6A0A0E9E
:103E1000D9260450E16EE26A030EE126DE50E65C2C
:103E2000E650800A096EDE50800A0958D8B01BEFB0
:103E30001FF01DEF1FF035EF1FF00450D96EDA6A46
:103E4000030ED926DF50056E0450D96EDA6ADF50B2
:103E50000524D96EDA6A02C0DFFF0450D96EDA6A2F
:103E6000030ED926DE2A000EDD221200D4501F6E6A
:103E70001E6AD350206E216A1E502010266E1F50DD
:103E80002110276E26C002F027C003F0000E03BEEB
:103E9000FF0E046E056E000E066E800E076EFF0E9E
:103EA000086E7F0E096E52EC21F002C00EF003C0C6
:103EB0000FF004C010F005C011F0000E126E900E4D
:103EC000136ED00E146E030E156EA0EC1AF00EC019
:103ED00022F00FC023F010C024F011C025F022C042
:103EE00002F023C003F024C004F025C005F01CC07C
:103EF00006F01DC007F0000E87EC21F01C4A1D2AB9
:103F00001CC01CF01DC01DF012000001C6A18BEFEB
:103F10001FF08DEF1FF095EF1FF011C00AF012C0D7
:103F20000BF010C00CF080EC23F014BE9CEF1FF0DF
:103F30009AEF1FF0A0EF1FF0000E146E000E136E2C
:103F4000000E176E000E166EB0EF1FF0000E036E1F
:103F5000200E026E10C004F0E1EC1EF0164A172A83
:103F60001350165C1750800A156E1450800A1558AD
:103F7000D8A0BDEF1FF0BFEF1FF0A6EF1FF00001AC
:103F8000C6B1C5EF1FF0C7EF1FF0CFEF1FF011C094
:103F90000AF012C00BF010C00CF080EC23F01200FD
:103FA0008594839E8598879C7D947B9E7D987F9C3D
:103FB000050E0E01746F060E766F070E696F080E00
:103FC000886FBD508F0B4009BD6EE00EBE16BF500E
:103FD000F00B0109BF6E02C0BCFFBD8E000EAA6EC1
:103FE000000EA66E000E0F01256F000E216FFC0E55
:103FF000AD16F30EAD16CF0EAD163F0EAD16AB8857
:10400000AB50F00B0C09AB6EAB8EA788A750F00B32
:104010000C09A76EA78E26892651F00B0C09266F76
:10402000268F22892251F00B0C09226F228F120059
:1040300048EF20F01450D96EDA6ADF50D8B423EF7D
:1040400020F025EF20F029EF20F01450D96EDA6A25
:10405000DF061550D96EDA6ADF50D8B432EF20F09F
:1040600034EF20F038EF20F01550D96EDA6ADF0611
:1040700014C00FF065EC19F015C00FF065EC19F0E5
:104080000B0E166E620EE82EFED7162EFCD700D051
:104090001450D96EDA6ADF50D8A451EF20F053EFF4
:1040A00020F01AEF20F01550D96EDA6ADF50D8A44C
:1040B0005CEF20F05EEF20F01AEF20F012001450B9
:1040C000D96EDA6A010ED926010EDF6E1550D96E4F
:1040D000DA6A010ED926DF6A14C00FF065EC19F018
:1040E00015C00FF065EC19F0000E186E000E176E7B
:1040F0001450D96EDA6ADF2A1550D96EDA6ADF2ACF
:1041000014C00FF065EC19F015C00FF065EC19F054
:104110000B0E166E620EE82EFED7162EFCD700D0C0
:10412000174A182A185009E1320E175CD8A09BEFE5
:1041300020F09DEF20F078EF20F012001450D96E9F
:10414000DA6A010ED926DF6A1550D96EDA6A010ED5
:10415000D926010EDF6E14C00FF065EC19F015C002
:104160000FF065EC19F0000E186E000E176E14506B
:10417000D96EDA6ADF2A1550D96EDA6ADF2A14C0DE
:104180000FF065EC19F015C00FF065EC19F00B0E8F
:10419000166E620EE82EFED7162EFCD700D0174AF8
:1041A000182A185009E1320E175CD8A0DAEF20F077
:1041B000DCEF20F0B7EF20F012001450D96EDA6A6D
:1041C000010ED926DF6A1550D96EDA6A010ED9269A
:1041D000DF6A000E186E000E176E1450D96EDA6A80
:1041E00017C0DFFF1550D96EDA6A17C0DFFF14C0A1
:1041F0000FF065EC19F015C00FF065EC19F00B0E1F
:10420000166E620EE82EFED7162EFCD700D0174A87
:10421000182A18BE15EF21F0185009E1330E175C6B
:10422000D8A015EF21F017EF21F0EDEF20F01200EC
:10423000000E0D6E000E0C6E0A500B10D8B423EF5A
:1042400021F025EF21F04DEF21F0010E0E6E2DEF44
:1042500021F0D8900A360B360E2A0BAE32EF21F041
:1042600034EF21F029EF21F0D8900C360D360A50AA
:10427000085C0B500958D8A040EF21F042EF21F024
:1042800047EF21F00A50085E0B50095A0C80D89075
:104290000B320A320E2E34EF21F00CC008F00DC0A4
:1042A00009F01200000E0A6E000E0B6E000E0C6E6E
:1042B000000E0D6E02A05FEF21F061EF21F069EFBB
:1042C00021F006500A2607500B2208500C220950F4
:1042D0000D22D8900636073608360936D8900532B2
:1042E0000432033202320250031004100510D8A425
:1042F0007CEF21F07EEF21F05AEF21F00AC002F0AE
:104300000BC003F00CC004F00DC005F012000A6EE3
:10431000075007E1320E065CD8B091EF21F093EF21
:1043200021F0B3EF21F03C0E0624D96E010E0720D8
:10433000DA6E0AC0DFFF000E086E020E096ED8901A
:104340000634D96E0734DA6ED890D936DA3608508A
:10435000D9260950DA2202C0DEFF03C0DEFF04C006
:10436000DEFF05C0DEFF1200E2EC25F0520ED7ECB6
:1043700025F0B60ED7EC25F0E7EC25F0530ED7EC80
:1043800025F0010E5FEC23F0086E08500B6E0C6AEE
:10439000000E5FEC23F0086E08500A6E096A0B509D
:1043A00009100B6E0C500A100C6EDDEC25F00BC0E2
:1043B00006F00CC007F01200E2EC25F0520ED7EC2C
:1043C00025F0B80ED7EC25F0E7EC25F0530ED7EC2E
:1043D00025F0010E5FEC23F0086E08500B6E0C6A9E
:1043E000000E5FEC23F0086E08500A6E096A0B504D
:1043F00009100B6E0C500A100C6EDDEC25F00BC092
:1044000006F00CC007F01200E2EC25F0520ED7ECDB
:1044100025F0B40ED7EC25F0E7EC25F0530ED7ECE1
:1044200025F0010E5FEC23F0086E08500B6E0C6A4D
:10443000000E5FEC23F0086E08500A6E096A0B50FC
:1044400009100B6E0C500A100C6EDDEC25F00BC041
:1044500006F00CC007F01200E2EC25F0520ED7EC8B
:1044600025F0BA0ED7EC25F0E7EC25F0530ED7EC8B
:1044700025F0010E5FEC23F0086E08500B6E0C6AFD
:10448000000E5FEC23F0086E08500A6E096A0B50AC
:1044900009100B6E0C500A100C6EDDEC25F00BC0F1
:1044A00006F00CC007F01200000E161A000E171AC4
:1044B000000E181A800E191A12C002F013C003F071
:1044C00014C004F015C005F016C006F017C007F0C0
:1044D00018C008F019C009F090EC0DF002C012F0FD
:1044E00003C013F004C014F005C015F01200DA0E7A
:1044F000F66E4B0EF76E000EF86E0900F5CFF0F079
:1045000002EE00F0C80EEE6AE806FDE101EE00F0F2
:10451000B60EEE6AE806FDE100EEC2F02E0EEE6A7F
:10452000E806FDE15C6A5B6A5D905D9200012CEF3C
:104530000BF0010E036E220E026E1BC004F01CC0B5
:1045400005F07DEC25F002C01DF003C01EF019C07F
:1045500014F01AC015F05FEC20F01DC002F01EC070
:1045600003F088EC24F019C014F01AC015F018EC10
:1045700020F01200010E036E900E026E1BC004F0BC
:104580001CC005F07DEC25F002C01DF003C01EF03C
:1045900019C014F01AC015F05FEC20F01DC002F035
:1045A0001EC003F088EC24F019C014F01AC015F0F6
:1045B00018EC20F01200010E036E900E026E1BC06C
:1045C00004F01CC005F07DEC25F002C01DF003C016
:1045D0001EF019C014F01AC015F09EEC20F01DC09A
:1045E00002F01EC003F088EC24F019C014F01AC0C9
:1045F00015F018EC20F01200010E036E220E026E70
:104600001BC004F01CC005F07DEC25F002C01DF0BD
:1046100003C01EF019C014F01AC015F09EEC20F073
:104620001DC002F01EC003F088EC24F019C014F085
:104630001AC015F018EC20F01200020E036E440EA2
:10464000026E1BC004F01CC005F07DEC25F002C01A
:104650001DF003C01EF019C014F01AC015F09EEC36
:1046600020F01DC002F01EC003F088EC24F019C039
:1046700014F01AC015F018EC20F012002FC031F021
:104680004AEF23F02EC023F0310E246E30C025F007
:104690002DEC17F031C0F6FF0E0EF76E000EF86E1F
:1046A0000800F5500009D8A458EF23F05AEF23F082
:1046B00042EF23F0000E2F6E000E2E6E1200046EDD
:1046C00069EC25F00E01DA8769EC25F0D5CE05F00E
:1046D00069EC25F00450D8B470EF23F074EF23F0A8
:1046E000036A032A75EF23F0036A033A03460E01B7
:1046F000DA510318DF0B0318DA6FDA89055012005C
:10470000000E0F6E000E0E6E8FEF23F00DC002F044
:10471000036A0CC004F0E1EC1EF00E4A0F2A0E50A2
:104720000A24D96E0F500B20DA6EDF500D6E0D503B
:10473000D8A49DEF23F09FEF23F086EF23F0120023
:104740001FC019F020C01AF024EC25F0290E246EA9
:10475000960E236E7F0EE82EFED7232EFCD7242E36
:10476000FAD700001FC019F020C01AF021C01BF0BA
:1047700022C01CF01DEC23F012001FC019F020C055
:104780001AF0F2EC24F0290E246E960E236E7F0EA2
:10479000E82EFED7232EFCD7242EFAD700001FC008
:1047A00019F020C01AF021C01BF022C01CF099ECB7
:1047B00022F012001FC019F020C01AF024EC25F0DE
:1047C000290E246E960E236E7F0EE82EFED7232E22
:1047D000FCD7242EFAD700001FC019F020C01AF011
:1047E00021C01BF022C01CF099EC22F012001FC067
:1047F00019F020C01AF0F2EC24F0290E246E960E67
:10480000236E7F0EE82EFED7232EFCD7242EFAD758
:1048100000001FC019F020C01AF021C01BF022C0F8
:104820001CF0FCEC22F012001FC019F020C01AF09E
:1048300024EC25F0290E246E960E236E7F0EE82EB2
:10484000FED7232EFCD7242EFAD700001FC019F064
:1048500020C01AF021C01BF022C01CF0BAEC22F0DC
:1048600012001FC019F020C01AF024EC25F0290E08
:10487000246E960E236E7F0EE82EFED7232EFCD7D5
:10488000242EFAD700001FC019F020C01AF021C052
:104890001BF022C01CF0DBEC22F012001FC019F04C
:1048A00020C01AF024EC25F0290E246E960E236EFB
:1048B0007F0EE82EFED7232EFCD7242EFAD7000039
:1048C0001FC019F020C01AF021C01BF022C01CF03C
:1048D000FCEC22F012001FC019F020C01AF024ECEA
:1048E00025F0290E246E960E236E7F0EE82EFED73D
:1048F000232EFCD7242EFAD700001FC019F020C0A9
:104900001AF021C01BF022C01CF01DEC23F0120095
:10491000000E066E000E056E98EF24F0150E046E64
:10492000C60EE82EFED7042EFCD700D0054A062A74
:104930000250055C03500658D8A0A1EF24F0A3EF65
:1049400024F08EEF24F0120054EC25F0010E046EDA
:10495000000E90EC25F03F0E066E550EE82EFED7A9
:10496000062EFCD70000030E046E000E90EC25F01E
:10497000D50E046E010E90EC25F01200340E386E48
:1049800032C039F0000E3D6E000E3C6E000E446EDB
:10499000000E436E390E2E6E33C02FF0380E306E7F
:1049A0003EEC23F032503C24D96EDA6ADF6A120002
:1049B00009BEDDEF24F0DFEF24F0E5EF24F008C0BE
:1049C00008F009C009F0F1EF24F008C00AF009C0AE
:1049D0000BF00A1E0B1E0A4A0B2A0AC008F00BC075
:1049E00009F0120019C014F01AC015F0DDEC20F027
:1049F0006A0E1C6E850E1B6EB40EE82EFED71B2EA3
:104A0000FCD71C2EFAD700D019C014F01AC015F02C
:104A100018EC20F0120018EF25F00350D96EDA6A76
:104A2000DF50CBEC25F0032A6A0EE82EFED700D02B
:104A30000350D96EDA6ADF50D8A421EF25F023EFB6
:104A400025F00DEF25F0120019C014F01AC015F072
:104A5000DDEC20F0190E1C6E5A0E1B6EB20EE82E05
:104A6000FED71B2EFCD71C2EFAD719C014F01AC083
:104A700015F018EC20F01200D6501F0B4009D66E2E
:104A8000D688D650F00B0D09D66ED5880E01298B2D
:104A9000339B1F9BF28AF28CF28E87827F92000EEC
:104AA000D36E000ED46E12000E01D951F00B08091E
:104AB000D96FD98B9F0ED66F848A848CA79BA79DB4
:104AC0001D0E1D6F1E0E1C6F1C0E6F6F1B0E706F68
:104AD00012000E01D8B56FEF25F071EF25F069EFE8
:104AE00025F0DACE02F01F0E0216D8A47AEF25F0D8
:104AF0007CEF25F069EF25F0120002500402F3CF9D
:104B000006F0F4CF07F002500502F35007260350D9
:104B10000402F350072606C002F007C003F012009B
:104B2000056EE2EC25F0520ED7EC25F00550800919
:104B3000D7EC25F00450D7EC25F0DDEC25F0120081
:104B4000120E0E01626F110E156FE997E895330E84
:104B5000E56F000EE66FE789E88BE78F1200600EC5
:104B6000326EB70E336E4CC034F04DC035F0BEEC33
:104B700024F0600E036E0BEC25F01200868C0E0103
:104B8000B48D0F015899FC0E58172E0E5F6F60946C
:104B90006088608E1200026E0E0137A5D2EF25F0FC
:104BA000D4EF25F0CCEF25F002C0E4FE1200036E36
:104BB00069EC25F003C0D5FE120069EC25F00E016A
:104BC000DA85120069EC25F00E01DA81120069EC39
:0B4BD00025F00E01DA83120012000134
:020000040030CA
:02000000AAFF55
:020004009FFF5C
:00000001FF
