:040000001DEF00F000
:100018005D80E0CF01F00E0133AB15EF00F017EF74
:1000280000F019EF00F07F82339B01C0E0FF5D9084
:06003800100086EF22F02B
:100E00000043616C6962726174696F6E2073746112
:100E10007465203D20677265656E200A0D00436190
:100E20006C6962726174696F6E207374617465209D
:100E30003D2020616D6269656E740043616C69627A
:100E4000726174696F6E2073746174653D20626CA9
:100E50007565200A0D0043616C6962726174696F87
:100E60006E207374617465203D2020776869746515
:100E70000043414C4942524154494F4E20434F4D4B
:100E8000504C45544544200A0D0043616C69627220
:100E90006174696F6E207374617465203D207265A2
:100EA0006400566F6C74616765203D2025642E25B3
:100EB0003032642C2020006875653D253033642C69
:100EC0002020002E0000000E00019C6F000E9D6F80
:100ED000000E9E6F000E9F6F4D50D96EDA6ADECF06
:100EE0004EF0DDCF4FF04EC002F04FC003F0046A69
:100EF000056A000E65EC16F002C060F003C061F0F8
:100F000004C062F005C063F04C50D96EDA6ADECFDF
:100F10004EF0DDCF4FF04EC002F04FC003F0046A38
:100F2000056A000E65EC16F002C064F003C065F0BF
:100F300004C066F005C067F04D50D96EDA6A020E43
:100F4000D926DECF4EF0DDCF4FF04EC002F04FC0BD
:100F500003F0046A056A000E65EC16F002C068F042
:100F600003C069F004C06AF005C06BF04C50D96E44
:100F7000DA6A020ED926DECF4EF0DDCF4FF04EC03A
:100F800002F04FC003F0046A056A000E65EC16F02B
:100F900002C06CF003C06DF004C06EF005C06FF0CD
:100FA0004D50D96EDA6A040ED926DECF4EF0DDCF71
:100FB0004FF04EC002F04FC003F0046A056A000E05
:100FC00065EC16F002C070F003C071F004C072F05E
:100FD00005C073F04C50D96EDA6A040ED926DECF04
:100FE0004EF0DDCF4FF04EC002F04FC003F0046A68
:100FF000056A000E65EC16F002C074F003C075F0CF
:1010000004C076F005C077F04D50D96EDA6A060E4E
:10101000D926DECF4EF0DDCF4FF04EC002F04FC0EC
:1010200003F0046A056A000E65EC16F002C078F061
:1010300003C079F004C07AF005C07BF04C50D96E43
:10104000DA6A060ED926DECF4EF0DDCF4FF04EC065
:1010500002F04FC003F0046A056A000E65EC16F05A
:1010600002C07CF003C07DF004C07EF005C07FF0BC
:1010700078C029F079C02AF07AC02BF07BC02CF020
:101080007CC02DF07DC02EF07EC02FF07FC030F0F0
:1010900017EC12F060C029F061C02AF062C02BF09A
:1010A00063C02CF064C02DF065C02EF066C02FF038
:1010B00067C030F017EC12F029C0A0F02AC0A1F0F0
:1010C0002BC0A2F02CC0A3F068C029F069C02AF0A0
:1010D0006AC02BF06BC02CF06CC02DF06DC02EF0F0
:1010E0006EC02FF06FC030F017EC12F029C0A4F0E2
:1010F0002AC0A5F02BC0A6F02CC0A7F070C029F024
:1011000071C02AF072C02BF073C02CF074C02DF0A7
:1011100075C02EF076C02FF077C030F017EC12F0CB
:1011200029C0A8F02AC0A9F02BC0AAF02CC0ABF0AF
:10113000A0C002F0A1C003F0A2C004F0A3C005F05B
:10114000A4C006F0A5C007F0A6C008F0A7C009F02B
:10115000B8EC1BF0D8A0AFEF08F0B1EF08F0E6EF65
:1011600008F0A4C002F0A5C003F0A6C004F0A7C018
:1011700005F0A8C006F0A9C007F0AAC008F0ABC0EF
:1011800009F0B8EC1BF0D8A0C8EF08F0CAEF08F0DF
:10119000D4EF08F0A8C080F0A9C081F0AAC082F006
:1011A000ABC083F0DCEF08F0A4C080F0A5C081F0F4
:1011B000A6C082F0A7C083F080C090F081C091F0FB
:1011C00082C092F083C093F019EF09F0A0C002F042
:1011D000A1C003F0A2C004F0A3C005F0A8C006F0AF
:1011E000A9C007F0AAC008F0ABC009F0B8EC1BF02A
:1011F000D8A0FDEF08F0FFEF08F009EF09F0A8C054
:1012000084F0A9C085F0AAC086F0ABC087F011EFCA
:1012100009F0A0C084F0A1C085F0A2C086F0A3C0F0
:1012200087F084C090F085C091F086C092F087C0AE
:1012300093F0A4C002F0A5C003F0A6C004F0A7C0BC
:1012400005F0A0C006F0A1C007F0A2C008F0A3C03E
:1012500009F0B8EC1BF0D8A030EF09F032EF09F03C
:1012600067EF09F0A8C002F0A9C003F0AAC004F01B
:10127000ABC005F0A4C006F0A5C007F0A6C008F0FA
:10128000A7C009F0B8EC1BF0D8A049EF09F04BEF6C
:1012900009F055EF09F0A8C088F0A9C089F0AAC0EC
:1012A0008AF0ABC08BF05DEF09F0A4C088F0A5C058
:1012B00089F0A6C08AF0A7C08BF088C098F089C0DA
:1012C00099F08AC09AF08BC09BF09AEF09F0A8C001
:1012D00002F0A9C003F0AAC004F0ABC005F0A0C0A2
:1012E00006F0A1C007F0A2C008F0A3C009F0B8EC56
:1012F0001BF0D8A07EEF09F080EF09F08AEF09F02B
:10130000A8C08CF0A9C08DF0AAC08EF0ABC08FF041
:1013100092EF09F0A0C08CF0A1C08DF0A2C08EF0B9
:10132000A3C08FF08CC098F08DC099F08EC09AF059
:101330008FC09BF098C012F099C013F09AC014F0BF
:101340009BC015F090C016F091C017F092C018F035
:1013500093C019F063EC22F012C094F013C095F022
:1013600014C096F015C097F098C002F099C003F031
:101370009AC004F09BC005F090C006F091C007F041
:1013800092C008F093C009F09BEC1EF0D8A0CBEF00
:1013900009F0CDEF09F0D8EF09F0000E00019C6FC5
:1013A000000E9D6F000E9E6F000E9F6FE1EF0AF022
:1013B00098C002F099C003F09AC004F09BC005F0F9
:1013C000A0C006F0A1C007F0A2C008F0A3C009F0B9
:1013D0009BEC1EF0D8A0EFEF09F0F1EF09F01FEF42
:1013E0000AF0A4C016F0A5C017F0A6C018F0A7C058
:1013F00019F0A8C012F0A9C013F0AAC014F0ABC035
:1014000015F063EC22F012C029F013C02AF014C0CA
:101410002BF015C02CF094C02DF095C02EF096C086
:101420002FF097C030F017EC12F029C09CF02AC0C2
:101430009DF02BC09EF02CC09FF0E1EF0AF098C009
:1014400002F099C003F09AC004F09BC005F0A4C05C
:1014500006F0A5C007F0A6C008F0A7C009F09BECF5
:101460001EF0D8A036EF0AF038EF0AF080EF0AF04D
:10147000A0C016F0A1C017F0A2C018F0A3C019F0C8
:10148000A8C012F0A9C013F0AAC014F0ABC015F0A8
:1014900063EC22F012C029F013C02AF014C02BF024
:1014A00015C02CF094C02DF095C02EF096C02FF0F2
:1014B00097C030F017EC12F029C09CF02AC09DF0C4
:1014C0002BC09EF02CC09FF09CC002F09DC003F08A
:1014D0009EC004F09FC005F0000E066E000E076E61
:1014E000000E086E400E096EA2EC0DF002C09CF0DA
:1014F00003C09DF004C09EF005C09FF0E1EF0AF02C
:1015000098C002F099C003F09AC004F09BC005F0A7
:10151000A8C006F0A9C007F0AAC008F0ABC009F047
:101520009BEC1EF0D8A097EF0AF099EF0AF0E1EFDC
:101530000AF0A4C016F0A5C017F0A6C018F0A7C006
:1015400019F0A0C012F0A1C013F0A2C014F0A3C003
:1015500015F063EC22F012C029F013C02AF014C079
:101560002BF015C02CF094C02DF095C02EF096C035
:101570002FF097C030F017EC12F029C09CF02AC071
:101580009DF02BC09EF02CC09FF09CC002F09DC02F
:1015900003F09EC004F09FC005F0000E066E000E22
:1015A000076E800E086E400E096EA2EC0DF002C0B0
:1015B0009CF003C09DF004C09EF005C09FF0E1EFD9
:1015C0000AF09CC010F09DC011F09EC012F09FC0A8
:1015D00013F0000E146E000E156E700E166E420E95
:1015E000176E02EC10F010C09CF011C09DF012C0FC
:1015F0009EF013C09FF000019FBF03EF0BF001EFBF
:101600000BF01DEF0BF09CC002F09DC003F09EC0DC
:1016100004F09FC005F0000E066E000E076EB40EBB
:10162000086E430E096EA2EC0DF002C09CF003C0E0
:101630009DF004C09EF005C09FF09CC042F09DC08C
:1016400043F09EC044F09FC045F035EC1BF042C013
:101650004CF043C04DF01200CDEC25F0B3EC24F07B
:10166000AFEC25F04BEC25F0000E036E630E026E1E
:10167000DFEC1FF0000E0001E76F010EE86F010EB6
:10168000E96F000EEB6F630EEA6FAA0EEC6F0F0EA0
:10169000ED6FA60EEE6F0F0EEF6F000EDE6F010EF8
:1016A000DF6F010EE06F000EE26F630EE16F250E3B
:1016B000E36F0F0EE46F210EE56F0F0EE66F87905C
:1016C0007F90859E7D9E8196799686840E01B49545
:1016D0008686B49788968086190E0001AD6F5A0EE3
:1016E000AC6FB10EE82EFED7AC2FFCD7AD2FFAD7DA
:1016F00000D08096D40E4E6E42EC15F0000E000124
:10170000BF6F000EBE6FDCC0AEF0DDC0AFF0AEC08C
:101710004CF0AFC04DF0BEEC25F07F807D8E798619
:10172000E70E4C6EDE0E4D6E25EC1DF0D58E13ECE3
:1017300022F006C0D0F007C0D1F0D0C002F0D1C076
:1017400003F0046A056A000E65EC16F002C0BAF0F8
:1017500003C0BBF004C0BCF005C0BDF0BAC042F08D
:10176000BBC043F0BCC044F0BDC045F035EC1BF03D
:1017700042C04CF043C04DF0BEEC25F0DAC002F0A0
:10178000DBC003F0046A056A000E65EC16F002C0C7
:10179000B6F003C0B7F004C0B8F005C0B9F0B6C0E9
:1017A0002DF0B7C02EF0B8C02FF0B9C030F0000E49
:1017B000146E000E156EC80E166E420E176EBAC06D
:1017C00010F0BBC011F0BCC012F0BDC013F002ECB1
:1017D00010F010C029F011C02AF012C02BF013C075
:1017E0002CF017EC12F029C042F02AC043F02BC0B5
:1017F00044F02CC045F035EC1BF042C0C0F043C0B3
:10180000C1F0C0C04CF0C1C04DF0BEEC25F065EF9A
:101810000CF013EC22F006C0D0F007C0D1F0D0C01D
:1018200002F0D1C003F0046A056A000E65EC16F000
:1018300002C0BAF003C0BBF004C0BCF005C0BDF0EC
:10184000DAC002F0DBC003F0046A056A000E65EC42
:1018500016F002C0B6F003C0B7F004C0B8F005C07F
:10186000B9F0B6C02DF0B7C02EF0B8C02FF0B9C097
:1018700030F0000E146E000E156EC80E166E420E7D
:10188000176EBAC010F0BBC011F0BCC012F0BDC0E2
:1018900013F002EC10F010C029F011C02AF012C0B1
:1018A0002BF013C02CF017EC12F029C042F02AC024
:1018B00043F02BC044F02CC045F035EC1BF042C087
:1018C000C0F043C0C1F001EF0CF00001C15109E1CB
:1018D000070EC05DD8A06FEF0CF071EF0CF009EFB0
:1018E0000CF0D59EE70E146EDE0E156E27EC20F080
:1018F000BEC01CF0BFC01DF045EC1FF01CC0BEF008
:101900001DC0BFF0110E0001AD6F3C0EAC6FCB0ED1
:10191000E82EFED7AC2FFCD7AD2FFAD7E70E4C6ED2
:10192000DE0E4D6E25EC1DF0190E0001AD6F5A0E46
:10193000AC6FB10EE82EFED7AC2FFCD7AD2FFAD787
:1019400000D0E70E146EDE0E156E27EC20F0190E97
:101950000001AD6F5A0EAC6FB10EE82EFED7AC2F62
:10196000FCD7AD2FFAD700D0CA0E506EB0EC1CF0E9
:1019700050C0B4F051C0B5F0D0C002F0D1C003F0F7
:10198000046A056A000E65EC16F002C0BAF003C0E6
:10199000BBF004C0BCF005C0BDF0DAC002F0DBC093
:1019A00003F0046A056A000E65EC16F002C0B6F09A
:1019B00003C0B7F004C0B8F005C0B9F0B6C02DF050
:1019C000B7C02EF0B8C02FF0B9C030F0000E146EC2
:1019D000000E156EC80E166E420E176EBAC010F0CD
:1019E000BBC011F0BCC012F0BDC013F002EC10F08F
:1019F00010C029F011C02AF012C02BF013C02CF037
:101A000017EC12F029C042F02AC043F02BC044F07A
:101A10002CC045F035EC1BF042C0C0F043C0C1F013
:101A20000001C15109E1150EC05DD8A01AEF0DF0FB
:101A30001CEF0DF035EF0DF0E70E4C6EDE0E4D6E27
:101A400025EC1DF0090E0001AD6F1E0EAC6FE40E0B
:101A5000E82EFED7AC2FFCD7AD2FFAD70000E70E4B
:101A6000146EDE0E156E27EC20F00001C15109E165
:101A70003D0EC05DD8A03FEF0DF041EF0DF057EFE8
:101A80000DF02E0EB45D010EB559D8A04AEF0DF041
:101A90004CEF0DF05EEF0DF05B0EB45D010EB5592D
:101AA000D8B055EF0DF057EF0DF05EEF0DF07FA2BF
:101AB0005CEF0DF05EEF0DF08CEF0DF07F907D9EF2
:101AC00079967FA266EF0DF068EF0DF072EF0DF0E2
:101AD000BEC01CF0BFC01DF045EC1FF01CC0BEF026
:101AE0001DC0BFF0000E0001B16F080EB06FB0C096
:101AF0004CF0B1C04DF0BEEC25F0E70E0001606F78
:101B0000DE0E616FBEC062F0BFC063F0B2C064F0B1
:101B1000B3C065F0BFEC18F0B4C025F0B5C026F036
:101B2000BEC027F0BFC028F0B2C029F0B3C02AF071
:101B3000E4EC13F025C0BEF026C0BFF08DEF0BF033
:101B40001DEF00F00550800B0E6E05500524106E41
:101B500004AEADEF0DF0AFEF0DF0B0EF0DF0108073
:101B60001050D8B4B6EF0DF0B8EF0DF0CDEF0DF08A
:101B70001028D8A4BEEF0DF0C0EF0DF0C8EF0DF0A7
:101B8000000E026E000E036E000E046E000E056E57
:101B9000048E000E056ED5EF0DF0000E026E000EE5
:101BA000036E000E046E000E056E0950800B0F6E62
:101BB0000E500F18D8B4DFEF0DF0E1EF0DF0E2EFAB
:101BC0000DF00E8C095009240F6E08AEEAEF0DF0EF
:101BD000ECEF0DF0EDEF0DF00F800F50D8B4F3EFF8
:101BE0000DF0F5EF0DF00AEF0EF00F28D8A4FBEF83
:101BF0000DF0FDEF0DF005EF0EF0000E066E000E7D
:101C0000076E000E086E000E096E088E000E096E3B
:101C100012EF0EF0000E066E000E076E000E086E3C
:101C2000000E096E10500F5CD8B019EF0EF01BEFCC
:101C30000EF042EF0EF00EAC20EF0EF022EF0EF0A1
:101C400024EF0EF0800E0E1A10C011F00FC010F02D
:101C500011C00FF002C011F006C002F011C006F072
:101C600003C011F007C003F011C007F004C011F069
:101C700008C004F011C008F005C011F009C005F05B
:101C800011C009F0000E116E10500FC00AF00B6A5F
:101C90000A5E000E0B5A0BBE57EF0EF00B5009E117
:101CA0001A0E0A5CD8A057EF0EF059EF0EF090EF25
:101CB0000EF00250031004100510D8A462EF0EF0CD
:101CC00065EF0EF0010E66EF0EF0000E116E000EC5
:101CD000026E000E036E000E046E000E056E0FC045
:101CE00010F099EF0EF011A078EF0EF07AEF0EF0F1
:101CF00080EF0EF0D89011300109116E82EF0EF0D6
:101D0000D890113202A087EF0EF089EF0EF08AEF23
:101D10000EF0118E05340532043203320232102ADD
:101D20000F50105CD8A097EF0EF099EF0EF073EF04
:101D30000EF00EBC9EEF0EF0A0EF0EF0E0EF0EF0F6
:101D40001050D8A4A6EF0EF0A8EF0EF0B2EF0EF0F0
:101D5000000E026E000E036E000E046E000E056E85
:101D600001EF10F00650022607500322085004220B
:101D70000950052205A0BFEF0EF0C1EF0EF06DEF88
:101D80000FF011A0C6EF0EF0C8EF0EF0CEEF0EF080
:101D9000D89011300109116ED0EF0EF0D8901132A9
:101DA00002A0D5EF0EF0D7EF0EF0D8EF0EF0118EA7
:101DB00005340532043203320232102A6DEF0FF07F
:101DC0000650025C07500358085004580550800A1A
:101DD0000A6E0950800A0A58D8B0F1EF0EF0F3EFFE
:101DE0000EF01EEF0FF00250065C0A6E035007580B
:101DF0000B6E045008580C6E055009580D6EFF0EFE
:101E00000A24026EFF0E0B20036EFF0E0C20046EE0
:101E1000FF0E0D20056E800E0E1A116C1150D8A405
:101E200014EF0FF016EF0FF026EF0FF0010E022661
:101E3000000E03220422052226EF0FF00650025E58
:101E40000750035A0850045A0950055A025003100B
:101E500004100510D8A42FEF0FF031EF0FF066EF4C
:101E60000FF01150D8A437EF0FF039EF0FF066EFF5
:101E70000FF0000E026E000E036E000E046E000ED8
:101E8000056E01EF10F0D8900236033604360536A1
:101E900011AE4DEF0FF04FEF0FF050EF0FF002804B
:101EA00011A055EF0FF057EF0FF05BEF0FF0D88058
:101EB00011365DEF0FF0D89011361050D8B463EFA3
:101EC0000FF065EF0FF066EF0FF0100604AE6BEF4A
:101ED0000FF06DEF0FF043EF0FF0000E0F6E11AE2D
:101EE00074EF0FF076EF0FF08EEF0FF011C00AF0E5
:101EF0007F0E0A16D8B47FEF0FF081EF0FF085EF59
:101F00000FF0010E0F6E8EEF0FF002A08AEF0FF0B0
:101F10008CEF0FF08EEF0FF081EF0FF00F50D8B471
:101F200094EF0FF096EF0FF0C1EF0FF0010E0226C5
:101F3000000E03220422052205A0A1EF0FF0A3EF5B
:101F40000FF0C1EF0FF002C00AF003C00BF004C0A5
:101F50000CF005C00DF00D340D320C320B320A328C
:101F60000AC002F00BC003F00CC004F00DC005F075
:101F70001028D8B4BEEF0FF0C0EF0FF0C1EF0FF094
:101F8000102A1028D8B4C7EF0FF0C9EF0FF0D1EF27
:101F90000FF01050D8A4CFEF0FF0D1EF0FF0E3EF18
:101FA0000FF0000E026E000E036E000E046E000EA7
:101FB000056E1050D8A4DFEF0FF0E1EF0FF0E3EF64
:101FC0000FF0000E0E6E10A0E8EF0FF0EAEF0FF02A
:101FD000EDEF0FF0048EEEEF0FF0049ED89010306E
:101FE000056E0EAEF6EF0FF0F8EF0FF0F9EF0FF011
:101FF000058E02C002F003C003F004C004F005C067
:1020000005F012001350800B1C6E13501324226E27
:1020100012AE0DEF10F00FEF10F010EF10F0228065
:102020002250D8B416EF10F018EF10F02BEF10F08C
:102030002228D8A41EEF10F020EF10F028EF10F0A7
:10204000000E106E000E116E000E126E000E136E5A
:10205000128E33EF10F0000E106E000E116E000E97
:10206000126E000E136E1750800B1C1A1750172497
:10207000216E16AE3EEF10F040EF10F041EF10F081
:1020800021802150D8B447EF10F049EF10F05CEFF9
:1020900010F02128D8A44FEF10F051EF10F059EFB5
:1020A00010F0000E146E000E156E000E166E000E6F
:1020B000176E168E64EF10F0000E146E000E156E83
:1020C000000E166E000E176E2150D8B46AEF10F095
:1020D0006CEF10F074EF10F02250D8A472EF10F0F3
:1020E00074EF10F07EEF10F0000E106E000E116E07
:1020F000000E126E000E136E16EF12F01650100244
:10210000F3CF27F0F4CF28F027501D6E1E6A1F6A08
:10211000206A2850236E246A256A266A1550110207
:10212000F3CF27F0F4CF28F027501D26000E1E22F3
:102130001F22202228502326000E24222522262278
:1021400014501202F3CF27F0F4CF28F027501D26A9
:10215000000E1E221F22202228502326000E242299
:10216000252226221FC020F01EC01FF01DC01EF019
:102170001D6A14501102F3CF27F0F4CF28F0275036
:102180001D2628501E22000E1F22000E2022155050
:102190001002F3CF27F0F4CF28F027501D26285047
:1021A0001E22000E1F22000E20221FC020F01EC083
:1021B0001FF01DC01EF01D6A14501002F3CF27F04F
:1021C000F4CF28F027501D2628501E22000E1F2273
:1021D000000E202216501102F3CF27F0F4CF28F082
:1021E0002750232628502422000E2522000E2622C6
:1021F00015501202F3CF27F0F4CF28F027502326F2
:1022000028502422000E2522000E262216501202EB
:10221000F3CF27F0F4CF28F02750186E2850196E0E
:102220001A6A1B6A1AC01BF019C01AF018C019F0FC
:10223000186A18502326195024221A5025221B50A0
:1022400026221DC018F01EC019F01FC01AF020C0B1
:102250001BF0190E31EF11F0D8901B321A321932DF
:102260001832E82E2CEF11F0185023261950242292
:102270001A5025221B5026221FC020F01EC01FF01E
:102280001DC01EF01D6A215022C018F0196A1826C0
:10229000000E1922820E1824276EFF0E1920286EB8
:1022A00067EF11F0D890233624362536263620AE37
:1022B0005CEF11F05EEF11F05FEF11F02380D8902A
:1022C0001D361E361F3620362706D8A0280625AE16
:1022D0006CEF11F06EEF11F052EF11F0000E216E65
:1022E00020AE75EF11F077EF11F09BEF11F0FF0EBC
:1022F0001D14186EFF0E1E14196EFF0E1F141A6E99
:102300007F0E20141B6E185019101A101B10D8B411
:102310008CEF11F08EEF11F092EF11F0010E216EA3
:102320009BEF11F023A097EF11F099EF11F09BEFC5
:1023300011F08EEF11F02150D8B4A1EF11F0A3EFFE
:1023400011F0C7EF11F0010E2326000E24222522E2
:10235000262226A0AEEF11F0B0EF11F0C7EF11F07A
:1023600023C018F024C019F025C01AF026C01BF0B5
:102370001B341B321A321932183218C023F019C01C
:1023800024F01AC025F01BC026F0274A282A28BEB0
:10239000D2EF11F0285008E12728D8A0D2EF11F091
:1023A000D4EF11F0DEEF11F0000E236E000E246E5C
:1023B000800E256E7F0E266E0CEF12F028BEEBEF1E
:1023C00011F0285006E12704D8B0E9EF11F0EBEF47
:1023D00011F0F7EF11F0000E236E000E246E000EC8
:1023E000256E000E266E000E1C6E0CEF12F027C03C
:1023F00022F0FF0E2316FF0E24167F0E2516000E68
:10240000261622A006EF12F008EF12F009EF12F0E4
:10241000258ED8902230266E1C50261223C010F034
:1024200024C011F025C012F026C013F012002C5069
:10243000800B396E2C502C24406E2BAE22EF12F004
:1024400024EF12F025EF12F040804050D8B42BEF6B
:1024500012F02DEF12F042EF12F04028D8A433EF23
:1024600012F035EF12F03DEF12F0000E296E000E63
:102470002A6E000E2B6E000E2C6E2B8E000E2C6E14
:102480004AEF12F0000E296E000E2A6E000E2B6E1F
:10249000000E2C6E3050800B391A30503024416EB3
:1024A0002FAE55EF12F057EF12F058EF12F04180B7
:1024B0004150D8B45EEF12F060EF12F075EF12F0F9
:1024C0004128D8A466EF12F068EF12F070EF12F016
:1024D000000E2D6E000E2E6E000E2F6E000E306E52
:1024E0002F8E000E306E7DEF12F0000E2D6E000E5E
:1024F0002E6E000E2F6E000E306E2D502E102F10EF
:102500003010D8A486EF12F088EF12F0A0EF12F08E
:10251000000E296E000E2A6E000E2B6E000E2C6E21
:10252000800E2B127F0E2C1239502C1229C029F04C
:102530002AC02AF02BC02BF02CC02CF0E3EF13F0B4
:102540004050D8A4A6EF12F0A8EF12F0B2EF12F0AC
:10255000000E296E000E2A6E000E2B6E000E2C6EE1
:10256000E3EF13F0415040C031F0326A315E000EAB
:10257000325A7F0E31243A6E000E32203B6E29C053
:1025800035F02AC036F02BC037F02CC038F0000EE2
:10259000296E000E2A6E000E2B6E000E2C6E000EA1
:1025A0003C6E000E3D6E000E3E6E000E3F6E000E45
:1025B000416E13EF13F04150D8B4E1EF12F0E3EFA6
:1025C00012F0FAEF12F0D890353636363736383604
:1025D000D89029362A362B362C363FAEF2EF12F041
:1025E000F4EF12F0F5EF12F02980D8903C363D362A
:1025F0003E363F362D50355C2E5036582F503758CA
:1026000030503858D8A007EF13F009EF13F012EF4D
:1026100013F03F8C2D50355E2E50365A2F50375ABE
:102620003050385A412A190E416419EF13F01BEF4C
:1026300013F0DBEF12F03550361037103810D8B4E5
:1026400024EF13F026EF13F03EEF13F03C803EEF43
:1026500013F0D89029362A362B362C363FAE33EF7E
:1026600013F035EF13F036EF13F02980D8903C3695
:102670003D363E363F363A06D8A03B062BAE43EFFA
:1026800013F045EF13F029EF13F0000E416E3FAE4B
:102690004CEF13F04EEF13F072EF13F0FF0E3C14FB
:1026A000316EFF0E3D14326EFF0E3E14336E7F0E00
:1026B0003F14346E3150321033103410D8B463EFFD
:1026C00013F065EF13F069EF13F0010E416E72EF36
:1026D00013F029A06EEF13F070EF13F072EF13F008
:1026E00065EF13F04150D8B478EF13F07AEF13F0A0
:1026F0009EEF13F0010E2926000E2A222B222C22F7
:102700002CA085EF13F087EF13F09EEF13F029C094
:1027100031F02AC032F02BC033F02CC034F0343406
:10272000343233323232313231C029F032C02AF001
:1027300033C02BF034C02CF03A4A3B2A3BBEA9EF01
:1027400013F03B5008E13A28D8A0A9EF13F0ABEF03
:1027500013F0B6EF13F0000E3B6E3A68000E296ED0
:10276000000E2A6E000E2B6E000E2C6E3BBEC3EFC9
:1027700013F03B5006E13A04D8B0C1EF13F0C3EFB9
:1027800013F0D1EF13F0000E3B6E000E3A6E000E08
:10279000296E000E2A6E000E2B6E000E2C6E000E9F
:1027A000396E3AC040F040A0D8EF13F0DAEF13F0E2
:1027B000DDEF13F02B8EDEEF13F02B9ED890403020
:1027C0002C6E94EF12F01200265009E10B0E255CDE
:1027D000D8A0EDEF13F0EFEF13F0FAEF13F0630E64
:1027E000255C010E2658D8A0F8EF13F0FAEF13F08D
:1027F00017EF14F0E70E1F6EDE0E206E29C021F0D9
:102800002AC022F0E9EC23F0000E026E000E036EE7
:10281000000E046E000E056E27C006F028C007F0FB
:10282000010E96EC21F0274A282A3DEF15F026509C
:1028300009E1690E255CD8A020EF14F022EF14F016
:1028400048EF14F0265007E1830E255CD8B02BEF3B
:1028500014F02DEF14F048EF14F0E70E1F6EDE0EAB
:10286000206E29C021F02AC022F05DEC24F0000E79
:10287000026E000E036E000E046E000E056E27C081
:1028800006F028C007F0020E96EC21F013EF14F0CA
:10289000265009E1E60E255CD8A051EF14F053EF65
:1028A00014F079EF14F0265007E1F10E255CD8B052
:1028B0005CEF14F05EEF14F079EF14F0E70E1F6E8A
:1028C000DE0E206E29C021F02AC022F07AEC24F01E
:1028D000000E026E000E036E000E046E000E056EFA
:1028E00027C006F028C007F0030E96EC21F013EF86
:1028F00014F0265009E1D80E255CD8A082EF14F020
:1029000084EF14F0AAEF14F0265007E1DE0E255CE8
:10291000D8B08DEF14F08FEF14F0AAEF14F0E70E9B
:102920001F6EDE0E206E29C021F02AC022F040EC7E
:1029300024F0000E026E000E036E000E046E000EF8
:10294000056E27C006F028C007F0040E96EC21F0B3
:1029500013EF14F02E0E255C010E2658D8A0B3EF0D
:1029600014F0B5EF14F0DBEF14F05B0E255C010EF4
:102970002658D8B0BEEF14F0C0EF14F0DBEF14F01F
:10298000E70E1F6EDE0E206E29C021F02AC022F055
:10299000CCEC23F0000E026E000E036E000E046EEF
:1029A000000E056E27C006F028C007F0050E96EC55
:1029B00021F013EF14F0265009E10F0E255CD8A08A
:1029C000E4EF14F0E6EF14F00CEF15F0265007E1F9
:1029D000240E255CD8B0EFEF14F0F1EF14F00CEFFB
:1029E00015F0E70E1F6EDE0E206E29C021F02AC002
:1029F00022F023EC24F0000E026E000E036E000E97
:102A0000046E000E056E27C006F028C007F0060E03
:102A100096EC21F013EF14F0265009E1F40E255C3A
:102A2000D8A015EF15F017EF15F03DEF15F0265073
:102A300007E1FC0E255CD8B020EF15F022EF15F071
:102A40003DEF15F0E70E1F6EDE0E206E29C021F05F
:102A50002AC022F006EC24F0000E026E000E036E77
:102A6000000E046E000E056E27C006F028C007F0A9
:102A7000070E96EC21F013EF14F027C025F028C0C4
:102A800026F012007F907D9E7996920E326E8A0E0D
:102A9000336EC30E346E3450D8A40E0E356ECDECAA
:102AA00024F0920E036E1AEC25F08EB45AEF15F056
:102AB0005CEF15F055EF15F07F80290E506E960EE5
:102AC0004F6E7F0EE82EFED74F2EFCD7502EFAD732
:102AD0000000C3EC21F04E50D96EDA6A06C0DEFF6A
:102AE00007C0DDFF7F90920E326E010E336EC30E73
:102AF000346E3450D8A40E0E356ECDEC24F0920E08
:102B0000036E1AEC25F08EB488EF15F08AEF15F0FD
:102B100083EF15F07D8E290E506E960E4F6E7F0E50
:102B2000E82EFED74F2EFCD7502EFAD70000EBEC44
:102B300021F04E50D96EDA6A020ED92606C0DEFFA9
:102B400007C0DDFF7D9E920E326E3B0E336EC30ECC
:102B5000346E3450D8A40E0E356ECDEC24F0920EA7
:102B6000036E1AEC25F08EB4B8EF15F0BAEF15F03D
:102B7000B3EF15F07986290E506E960E4F6E7F0ECC
:102B8000E82EFED74F2EFCD7502EFAD700003BEC94
:102B900022F04E50D96EDA6A040ED92606C0DEFF46
:102BA00007C0DDFF7996920E326E560E336EC30E5D
:102BB000346E3450D8A40E0E356ECDEC24F0920E47
:102BC000036E1AEC25F08EB4E8EF15F0EAEF15F07D
:102BD000E3EF15F07F807D8E7986290E506E960E7C
:102BE0004F6E7F0EE82EFED74F2EFCD7502EFAD711
:102BF000000013EC22F04E50D96EDA6A060ED92688
:102C000006C0DEFF07C0DDFF7F907D9E7996920EA5
:102C1000326E1E0E336EC30E346E3450D8A40E0EB8
:102C2000356ECDEC24F0920E036E1AEC25F08EB4C6
:102C30001CEF16F01EEF16F017EF16F07F807D8E5A
:102C40007986290E506E960E4F6E7F0EE82EFED7B7
:102C50004F2EFCD7502EFAD7000013EC22F04E5026
:102C6000D96EDA6A080ED92606C0DEFF07C0DDFF7E
:102C70007F907D9E7996920E326E710E336EC30EEA
:102C8000346E3450D8A40E0E356ECDEC24F0920E76
:102C9000036E1AEC25F0DCC04CF0DDC04DF0BEEC4C
:102CA00025F08EB456EF16F058EF16F051EF16F0EF
:102CB000290E506E960E4F6E7F0EE82EFED74F2EC9
:102CC000FCD7502EFAD7000012000A6E0A50D8B472
:102CD0006CEF16F06EEF16F090EF16F005BE75EF84
:102CE00016F073EF16F090EF16F002C006F003C076
:102CF00007F004C008F005C009F0061E071E081EF4
:102D0000091E062A000E07220822092206C00CF01E
:102D100007C00DF008C00EF009C00FF098EF16F0D4
:102D200002C00CF003C00DF004C00EF005C00FF09F
:102D30000250031004100510D8A4A1EF16F0A3EF61
:102D400016F0ADEF16F0000E026E000E036E000ED0
:102D5000046E000E056E3EEF17F0960E0B6EB7EF89
:102D600016F00B2AD8900F320E320D320C32000EB4
:102D70000C14066E000E0D14076E000E0E14086E75
:102D8000FE0E0F14096E0650071008100910D8A483
:102D9000CCEF16F0CEEF16F0B1EF16F0DCEF16F038
:102DA0000B2A010E0C26000E0D220E220F22D890A7
:102DB0000F320E320D320C32000E0C14066E000E65
:102DC0000D14076E000E0E14086EFF0E0F14096E20
:102DD0000650071008100910D8A4F1EF16F0F3EF11
:102DE00016F0D0EF16F0FBEF16F00B06D8900C366D
:102DF0000D360E360F360EBE00EF17F002EF17F04D
:102E00000AEF17F0020E0B6008EF17F00AEF17F049
:102E1000F5EF16F00BB00FEF17F011EF17F012EF00
:102E200017F00E9ED8900B320BC006F0076A086AA6
:102E3000096A06C009F0086A076A066A06500C1299
:102E400007500D1208500E1209500F120A50D8B434
:102E50002CEF17F02EEF17F036EF17F005BE35EF19
:102E600017F033EF17F036EF17F00F8E0CC002F0AB
:102E70000DC003F00EC004F00FC005F01200245086
:102E8000D96EDA6ADFCFF6FF0E0EF76E000EF86E1F
:102E90000800F550250AD8A450EF17F052EF17F0AC
:102EA000EFEF17F02450D96EDA6ADF2A000E000126
:102EB000C36F000EC26FC2C0C6F0C469C569000E00
:102EC0002C6E8AEF17F00001C6832450D96EDA6A9F
:102ED000DF2A8AEF17F0010E2C6E8AEF17F02450CC
:102EE000D96EDA6ADFCFF6FF0E0EF76E000EF86EBF
:102EF0000800F550266E276A2750000AD8B483EFE1
:102F000017F06BEF17F02650300AD8B463EF17F0C4
:102F10006BEF17F02C50D8B490EF17F092EF17F03A
:102F20006FEF17F024C008F025C009F044EC1EF044
:102F300008C0C2F009C0C3F00001C3BFA4EF17F07E
:102F4000A2EF17F0A9EF17F0C681C26DC31FD8B06A
:102F5000C32B2450D96EDA6ADF502D6E2DC0F6FFD8
:102F60000E0EF76E000EF86E0800F550640AD8B425
:102F7000BCEF17F0BEEF17F0CEEF17F02DC0F6FF45
:102F80000E0EF76E000EF86E0800F550690AD8A410
:102F9000CCEF17F0CEEF17F0E9EF17F02550D96E10
:102FA000DA6A020EDF26DF5CD96EDA6ADECF28F03D
:102FB000DECF29F02450D96EDA6A2D28DF6E23C0C7
:102FC00018F028C019F029C01AF003EC18F002EF2D
:102FD00018F02450D96EDA6ADF2A02EF18F0245074
:102FE000D96EDA6ADFCFF6FF0E0EF76E000EF86EBE
:102FF0000800F550026E036A23C004F0F0EC1EF0E6
:10300000E9EF17F01200010E1D6E1ABE0AEF18F05C
:103010000DEF18F0010E0EEF18F0000E206EC2C07A
:103020001EF0C3C01FF02050D8B419EF18F01BEFEA
:1030300018F032EF18F01E06D8A01F062050D8A4B2
:1030400024EF18F026EF18F02CEF18F0000E1C6E8D
:103050002B0E1B6E30EF18F0000E1C6E2D0E1B6E2B
:103060001BC020F0000E226E1F0E216E000E01010B
:10307000B56F6AEF18F02106D8A02206960E21241B
:10308000D96E010E2220DA6E19C002F01AC003F0C8
:10309000000E056E0A0E046EECEC1DF002C008F086
:1030A00003C009F0E7EC24F00850300FDF6E000E8B
:1030B0001D6E1E06D8A01F0619C002F01AC003F02C
:1030C000000E056E0A0E046E8AEC1DF002C019F0A7
:1030D00003C01AF022BE75EF18F0225008E1210457
:1030E000D8A075EF18F077EF18F09DEF18F0195091
:1030F0001A10D8A47EEF18F080EF18F03BEF18F00C
:103100001D50D8A486EF18F088EF18F03BEF18F0A8
:103110001FBE93EF18F01F5008E11E04D8A093EFD4
:1031200018F095EF18F09DEF18F00001C6B39BEF73
:1031300018F09DEF18F03BEF18F02050D8B4A3EF33
:1031400018F0A5EF18F0B0EF18F02106D8A022066D
:10315000960E2124D96E010E2220DA6E20C0DFFFE8
:1031600018C010F0960E2124116E010E2220126E4E
:103170001EC013F01FC014F094EC1FF01200E70EF5
:103180001F6EDE0E206E64C021F065C022F0AFEC31
:1031900023F0000162516311D8B4D1EF18F0D3EFDE
:1031A00018F072EF19F0FF0E62256D6FFF0E6321AC
:1031B0006E6F3C0E6D25D96E010E6E21DA6EDF50FA
:1031C0006C6F3D0E6D25D96E010E6E21DA6E050E07
:1031D000DE18D8B4EEEF18F0F0EF18F0FFEF18F0AB
:1031E0003D0E6D25D96E010E6E21DA6E070EDE18CA
:1031F000D8A4FDEF18F0FFEF18F01DEF19F0000E46
:10320000666F020E676FD8906D35D96E6E35DA6EC7
:10321000D890D936DA366651D9266751DA22360E79
:10322000DE24686FF70EDE20696FFF0EDE206A6F06
:10323000FF0EDE206B6F35EF19F0000E666F020E89
:10324000676FD8906D35D96E6E35DA6ED890D936F5
:10325000DA366651D9266751DA22DECF68F0DECF42
:1032600069F0DECF6AF0DECF6BF06C51D8A43BEF93
:1032700019F03DEF19F04DEF19F060C051F061C049
:1032800052F068C053F069C054F06AC055F06BC08A
:1032900056F03AEC1CF061EF19F060C01FF061C00D
:1032A00020F06CC021F068C022F069C023F06AC031
:1032B00024F06BC025F064C026F065C027F01EEC3A
:1032C0001AF000016D516E11D8A469EF19F06BEF7F
:1032D00019F06DEF19F072EF19F06D07D8A06E07B5
:1032E000D9EF18F0030012000F50D96EDA6A020EFF
:1032F000D926DF50D8B47FEF19F081EF19F0B1EF84
:1033000019F00F50D96EDA6ADF50106E1050026E4D
:10331000036A0F50D96EDA6A030ED926DECF04F0A5
:10332000DDCF05F08CEC25F002C008F003C009F0F9
:10333000000E0B6E640E0A6E27EC21F00F50D96E52
:10334000DA6A030ED926DF50116E0850115C126E36
:103350000F50D96EDA6A030ED926DF50136ED2EF02
:1033600019F0000E126E0F50D96EDA6ADF50106E2F
:103370001050026E036A0F50D96EDA6A030ED92616
:10338000DECF04F0DDCF05F08CEC25F002C008F0B4
:1033900003C009F0000E0B6E640E0A6E27EC21F0DC
:1033A0000850136E0F50D96EDA6A010ED926DF501D
:1033B000D8B4DDEF19F0DFEF19F0FFEF19F00F507F
:1033C000D96EDA6A050ED926DECF10F0DDCF11F006
:1033D00010C0D9FF11C0DAFF12C0DFFF0F50D96E45
:1033E000DA6A070ED926DECF10F0DDCF11F010C05B
:1033F000D9FF11C0DAFF13C0DFFF1DEF1AF00F5025
:10340000D96EDA6A050ED926DECF10F0DDCF11F0C5
:1034100010C0D9FF11C0DAFF13C0DFFF0F50D96E03
:10342000DA6A070ED926DECF10F0DDCF11F010C01A
:10343000D9FF11C0DAFF12C0DFFF12002104D8A4A7
:1034400024EF1AF026EF1AF044EF1AF01FC019F01B
:1034500020C01AF026C01BF027C01CF00BEC23F094
:10346000290E296E960E286E7F0EE82EFED7282E86
:10347000FCD7292EFAD700001FC019F020C01AF07F
:1034800033EC25F0AEEF1AF0020E2118D8A44BEF62
:103490001AF04DEF1AF059EF1AF01FC019F020C0C2
:1034A0001AF026C01BF027C01CF0A8EC22F030EF69
:1034B0001AF0030E2118D8A460EF1AF062EF1AF088
:1034C0006EEF1AF01FC019F020C01AF026C01BF0D2
:1034D00027C01CF02CEC23F030EF1AF0040E21185A
:1034E000D8A475EF1AF077EF1AF083EF1AF01FC027
:1034F00019F020C01AF026C01BF027C01CF0C9EC40
:1035000022F030EF1AF0050E2118D8A48AEF1AF035
:103510008CEF1AF08EEF1AF026EF1AF0060E211833
:10352000D8A495EF1AF097EF1AF0A3EF1AF01FC086
:1035300019F020C01AF026C01BF027C01CF0EAECDE
:1035400022F030EF1AF0070E2118D8A4AAEF1AF0D3
:10355000ACEF1AF0AEEF1AF04DEF1AF01200000EB9
:10356000176E15BEB8EF1AF0B6EF1AF0C2EF1AF0E8
:10357000151E141E131E126C000E13221422152287
:10358000010E176E11BEC9EF1AF0C7EF1AF0D3EF94
:103590001AF0111E101E0F1E0E6C000E0F221022AC
:1035A0001122010E171A000E186E000E196E000E71
:1035B0001A6E000E1B6E1250131014101510D8B492
:1035C000E4EF1AF0E6EF1AF01CEF1BF0010E166E96
:1035D000F0EF1AF0D8901236133614361536162A34
:1035E00015AEF5EF1AF0F7EF1AF0EAEF1AF0D890EF
:1035F000183619361A361B3612500E5C13500F58F7
:103600001450105815501158D8A009EF1BF00BEFAB
:103610001BF014EF1BF012500E5E13500F5A145093
:10362000105A1550115A1880D8901532143213328E
:103630001232162EF7EF1AF01750D8B422EF1BF003
:1036400024EF1BF02CEF1BF01B1E1A1E191E186C0A
:10365000000E19221A221B2218C00EF019C00FF0FA
:103660001AC010F01BC011F01200443445344B6EE8
:103670004B50D8A43EEF1BF040EF1BF04AEF1BF07D
:10368000000E426E000E436E000E446E000E456E3C
:10369000B7EF1BF042C046F043C047F044C048F0CB
:1036A00045C049F0200E5AEF1BF0D89049324832FD
:1036B00047324632E82E55EF1BF046504A6E448E94
:1036C000FF0E4216FF0E4316FF0E4416000E45165F
:1036D000960E4B5E4BBE71EF1BF06FEF1BF087EF4A
:1036E0001BF04B50800A970FD8B079EF1BF07BEF9F
:1036F0001BF07DEF1BF040EF1BF0D89045324432B9
:10370000433242324B3E7DEF1BF09FEF1BF01F0E0A
:103710004B648DEF1BF08FEF1BF097EF1BF040EF2A
:103720001BF0D89042364336443645364B064B5054
:10373000D8A49DEF1BF09FEF1BF091EF1BF04A50B8
:10374000D8B4A5EF1BF0A7EF1BF0AFEF1BF0451EA1
:10375000441E431E426C000E43224422452242C0B6
:1037600042F043C043F044C044F045C045F012006D
:10377000000E02140A6E000E03140B6E800E041469
:103780000C6E7F0E05140D6E0A500B100C100D10F0
:10379000D8A4CDEF1BF0CFEF1BF0D7EF1BF0000E3E
:1037A000026E000E036E000E046E000E056E000E1B
:1037B00006140A6E000E07140B6E800E08140C6EB1
:1037C0007F0E09140D6E0A500B100C100D10D8A4AA
:1037D000ECEF1BF0EEEF1BF0F6EF1BF0000E066EA9
:1037E000000E076E000E086E000E096E05AEFBEFB0
:1037F0001BF0FDEF1BF006EF1CF0026C031ED8B0AF
:10380000032A041ED8B0042A800E055609AE0BEF19
:103810001CF00DEF1CF016EF1CF0066C071ED8B064
:10382000072A081ED8B0082A800E0956000E021A70
:10383000000E031A000E041A800E051A000E061A56
:10384000000E071A000E081A800E091A0650025CB4
:10385000075003580850045809500558D8B033EFA2
:103860001CF035EF1CF038EF1CF0D89039EF1CF04D
:10387000D8801200030E5A6EE80E596E56BE4DEFF8
:103880001CF0565055100BE1650E535C190E545840
:10389000D8A04DEF1CF04FEF1CF055EF1CF01E0EA2
:1038A0005A6E460E596E92EF1CF056BE64EF1CF035
:1038B000565055100BE1A10E535C0F0E5458D8A072
:1038C00064EF1CF066EF1CF07DEF1CF056BE77EF46
:1038D0001CF05650551009E1640E535C190E5458F3
:1038E000D8B075EF1CF077EF1CF07DEF1CF0150ED3
:1038F0005A6E7C0E596E92EF1CF056BE8EEF1CF085
:103900005650551009E1A00E535C0F0E5458D8B014
:103910008CEF1CF08EEF1CF092EF1CF00A0E5A6E2A
:10392000BE0E596EE70E4C6EDE0E4D6E25EC1DF090
:1039300059C002F05AC003F097EC24F0E70E146E61
:10394000DE0E156E27EC20F0190E586E5A0E576ECB
:10395000B20EE82EFED7572EFCD7582EFAD71200FB
:103960007F807D9E7996290E536E960E526E7F0E45
:10397000E82EFED7522EFCD7532EFAD70000C3EC08
:1039800021F05050D96EDA6A06C0DEFF07C0DDFFB5
:103990007F907D8E7996290E536E960E526E7F0E15
:1039A000E82EFED7522EFCD7532EFAD70000EBECB0
:1039B00021F05050D96EDA6A020ED92606C0DEFF19
:1039C00007C0DDFF7F907D9E7986290E536E960E8F
:1039D000526E7F0EE82EFED7522EFCD7532EFAD70A
:1039E00000003BEC22F05050D96EDA6A040ED92662
:1039F00006C0DEFF07C0DDFF7F807D8E7986290E41
:103A0000536E960E526E7F0EE82EFED7522EFCD7C6
:103A1000532EFAD7000013EC22F05050D96EDA6A18
:103A2000060ED92606C0DEFF07C0DDFFD40E4C6EA1
:103A3000CA0E4D6E63EC07F04CC054F04DC055F00B
:103A400054C050F055C051F012004C50D96EDA6A93
:103A5000010ED926010EDF6E4D50D96EDA6A010EC5
:103A6000D926010EDF6E000E506E000E4F6E4C50C8
:103A7000D96EDA6A4FC0DFFF4D50D96EDA6A660E32
:103A8000146E660E156E860E166E3F0E176E4FC0C4
:103A900002F050C003F0000E03BEFF0E046E056E70
:103AA000010E65EC16F002C010F003C011F004C066
:103AB00012F005C013F002EC10F010C042F011C07B
:103AC00043F012C044F013C045F035EC1BF04250F7
:103AD000DF6E4CC00FF074EC19F04DC00FF074ECB9
:103AE00019F00B0E4E6E620EE82EFED74E2EFCD74E
:103AF00000D04F4A502A50BE87EF1DF0505009E1C8
:103B0000330E4F5CD8A087EF1DF089EF1DF037EF23
:103B10001DF01200000E076E05BE93EF1DF091EF31
:103B20001DF099EF1DF0046C051ED8B0052A010E9A
:103B3000076E03BEA0EF1DF09EEF1DF0A6EF1DF077
:103B4000026C031ED8B0032A010E071A000E096E7C
:103B5000000E086E04500510D8B4B1EF1DF0B3EF9D
:103B60001DF0DBEF1DF0010E066EBBEF1DF0D890CF
:103B700004360536062A05AEC0EF1DF0C2EF1DF073
:103B8000B7EF1DF0D890083609360450025C055096
:103B90000358D8A0CEEF1DF0D0EF1DF0D5EF1DF0EB
:103BA0000450025E0550035A0880D8900532043252
:103BB000062EC2EF1DF00750D8B4E1EF1DF0E3EF81
:103BC0001DF0E7EF1DF0086C091ED8B0092A08C0E7
:103BD00002F009C003F01200000E076E03BEF5EFFD
:103BE0001DF0F3EF1DF0FBEF1DF0026C031ED8B0CB
:103BF000032A010E076E05BE02EF1EF000EF1EF055
:103C000006EF1EF0046C051ED8B0052A04500510FE
:103C1000D8B40DEF1EF00FEF1EF033EF1EF0010EC3
:103C2000066E17EF1EF0D89004360536062A05AE4C
:103C30001CEF1EF01EEF1EF013EF1EF00450025C8E
:103C400005500358D8A027EF1EF029EF1EF02DEFE6
:103C50001EF00450025E0550035AD890053204321B
:103C6000062E1EEF1EF00750D8B439EF1EF03BEFC2
:103C70001EF03FEF1EF0026C031ED8B0032A02C0F4
:103C800002F003C003F01200000E0C6E000E0B6E6B
:103C90000850D96EDA6ADFCFF6FF0E0EF76E000E0F
:103CA000F86E0800F5502A0AD8A459EF1EF05BEF11
:103CB0001EF081EF1EF00850D96EDA6ADF2A095033
:103CC000D96EDA6A020EDF26DF5CD96EDA6ADECFE1
:103CD0000BF0DECF0CF096EF1EF00BC002F00CC024
:103CE00003F0000E056E0A0E046E8CEC25F00A50EF
:103CF00002240B6E000E03200C6E0850D96EDA6A97
:103D0000DF2A0850D96EDA6ADFCFF6FF0E0EF76EA3
:103D1000000EF86E0800F550D00F0A6E090E0A6406
:103D200094EF1EF096EF1EF06DEF1EF00BC008F042
:103D30000CC009F01200000E02140A6E000E0314EB
:103D40000B6E800E04140C6E7F0E05140D6E0A505F
:103D50000B100C100D10D8A4B0EF1EF0B2EF1EF037
:103D6000BAEF1EF0000E026E000E036E000E046E1F
:103D7000000E056E000E06140A6E000E07140B6E80
:103D8000800E08140C6E7F0E09140D6E0A500B1075
:103D90000C100D10D8A4CFEF1EF0D1EF1EF0D9EF0C
:103DA0001EF0000E066E000E076E000E086E000E6E
:103DB000096E065002180FE1075003180CE1085075
:103DC000041809E109500518D8B4E9EF1EF0EBEF2B
:103DD0001EF0EEEF1EF0D890EFEF1EF0D88012002C
:103DE0000450D8B4F6EF1EF0F8EF1EF000EF1FF00D
:103DF0000450D8A4FEEF1EF000EF1FF005EF1FF0F7
:103E00000250FBEC25F044EF1FF00450D96EDA6A43
:103E10000A0ED926DE50DE10D8B411EF1FF013EFD2
:103E20001FF02CEF1FF00450D96EDA6A0A0ED92663
:103E30000450E16EE26A030EE126DE50E65CE650D5
:103E4000800A096EDE50800A0958D8B02AEF1FF0A8
:103E50002CEF1FF044EF1FF00450D96EDA6A030E06
:103E6000D926DF50056E0450D96EDA6ADF5005247A
:103E7000D96EDA6A02C0DFFF0450D96EDA6A030E27
:103E8000D926DE2A000EDD221200D4501F6E1E6AD3
:103E9000D350206E216A1E502010266E1F50211014
:103EA000276E26C002F027C003F0000E03BEFF0EEF
:103EB000046E056E000E066E800E076EFF0E086E15
:103EC0007F0E096E61EC21F002C00EF003C00FF00E
:103ED00004C010F005C011F0000E126E900E136EAB
:103EE000D00E146E030E156EAFEC1AF00EC022F059
:103EF0000FC023F010C024F011C025F022C002F042
:103F000023C003F024C004F025C005F01CC006F057
:103F10001DC007F0000E96EC21F01C4A1D2A1CC0A3
:103F20001CF01DC01DF012000001C6A19AEF1FF089
:103F30009CEF1FF0A4EF1FF011C00AF012C00BF0AD
:103F400010C00CF08FEC23F014BEABEF1FF0A9EF04
:103F50001FF0AFEF1FF0000E146E000E136E000E78
:103F6000176E000E166EBFEF1FF0000E036E200ED0
:103F7000026E10C004F0F0EC1EF0164A172A13501F
:103F8000165C1750800A156E1450800A1558D8A078
:103F9000CCEF1FF0CEEF1FF0B5EF1FF00001C6B160
:103FA000D4EF1FF0D6EF1FF0DEEF1FF011C00AF0C4
:103FB00012C00BF010C00CF08FEC23F012008594AF
:103FC000839E8598879C7D947B9E7D987F9C050E23
:103FD0000E01746F060E766F070E696F080E886FFC
:103FE000BD508F0B4009BD6EE00EBE16BF50F00BEA
:103FF0000109BF6E02C0BCFFBD8E000EAA6E000E8E
:10400000A66E000E0F01256F000E216FFC0EAD167F
:10401000F30EAD16CF0EAD163F0EAD16AB88AB50FE
:10402000F00B0C09AB6EAB8EA788A750F00B0C09F8
:10403000A76EA78E26892651F00B0C09266F268FB6
:1040400022892251F00B0C09226F228F120057EFA8
:1040500020F01450D96EDA6ADF50D8B432EF20F075
:1040600034EF20F038EF20F01450D96EDA6ADF0612
:104070001550D96EDA6ADF50D8B441EF20F043EF23
:1040800020F047EF20F01550D96EDA6ADF0614C031
:104090000FF074EC19F015C00FF074EC19F00B0E62
:1040A000166E620EE82EFED7162EFCD700D01450E6
:1040B000D96EDA6ADF50D8A460EF20F062EF20F00A
:1040C00029EF20F01550D96EDA6ADF50D8A46BEFD3
:1040D00020F06DEF20F029EF20F012001450D96E7F
:1040E000DA6A010ED926010EDF6E1550D96EDA6A32
:1040F000010ED926DF6A14C00FF074EC19F015C058
:104100000FF074EC19F0000E186E000E176E1450BC
:10411000D96EDA6ADF2A1550D96EDA6ADF2A14C03E
:104120000FF074EC19F015C00FF074EC19F00B0ED1
:10413000166E620EE82EFED7162EFCD700D0174A58
:10414000182A185009E1320E175CD8A0AAEF20F007
:10415000ACEF20F087EF20F012001450D96EDA6A2D
:10416000010ED926DF6A1550D96EDA6A010ED926FA
:10417000010EDF6E14C00FF074EC19F015C00FF0D3
:1041800074EC19F0000E186E000E176E1450D96EF4
:10419000DA6ADF2A1550D96EDA6ADF2A14C00FF006
:1041A00074EC19F015C00FF074EC19F00B0E166ECC
:1041B000620EE82EFED7162EFCD700D0174A182A1A
:1041C000185009E1320E175CD8A0E9EF20F0EBEFB0
:1041D00020F0C6EF20F012001450D96EDA6A010EFA
:1041E000D926DF6A1550D96EDA6A010ED926DF6A40
:1041F000000E186E000E176E1450D96EDA6A17C0D2
:10420000DFFF1550D96EDA6A17C0DFFF14C00FF058
:1042100074EC19F015C00FF074EC19F00B0E166E5B
:10422000620EE82EFED7162EFCD700D0174A182AA9
:1042300018BE24EF21F0185009E1330E175CD8A006
:1042400024EF21F026EF21F0FCEF20F01200000E09
:104250000D6E000E0C6E0A500B10D8B432EF21F028
:1042600034EF21F05CEF21F0010E0E6E3CEF21F0F7
:10427000D8900A360B360E2A0BAE41EF21F043EFF1
:1042800021F038EF21F0D8900C360D360A50085C3A
:104290000B500958D8A04FEF21F051EF21F056EF05
:1042A00021F00A50085E0B50095A0C80D8900B324E
:1042B0000A320E2E43EF21F00CC008F00DC009F0B9
:1042C0001200000E0A6E000E0B6E000E0C6E000E39
:1042D0000D6E02A06EEF21F070EF21F078EF21F06B
:1042E00006500A2607500B2208500C2209500D22B6
:1042F000D8900636073608360936D890053204328B
:10430000033202320250031004100510D8A48BEFC0
:1043100021F08DEF21F069EF21F00AC002F00BC00F
:1043200003F00CC004F00DC005F012000A6E075037
:1043300007E1320E065CD8B0A0EF21F0A2EF21F029
:10434000C2EF21F03C0E0624D96E010E0720DA6E72
:104350000AC0DFFF000E086E020E096ED890063408
:10436000D96E0734DA6ED890D936DA360850D926A5
:104370000950DA2202C0DEFF03C0DEFF04C0DEFF08
:1043800005C0DEFF1200F1EC25F0520EE6EC25F040
:10439000B60EE6EC25F0F6EC25F0530EE6EC25F033
:1043A000010E6EEC23F0086E08500B6E0C6A000EC6
:1043B0006EEC23F0086E08500A6E096A0B50091063
:1043C0000B6E0C500A100C6EECEC25F00BC006F0D6
:1043D0000CC007F01200F1EC25F0520EE6EC25F0CF
:1043E000B80EE6EC25F0F6EC25F0530EE6EC25F0E1
:1043F000010E6EEC23F0086E08500B6E0C6A000E76
:104400006EEC23F0086E08500A6E096A0B50091012
:104410000B6E0C500A100C6EECEC25F00BC006F085
:104420000CC007F01200F1EC25F0520EE6EC25F07E
:10443000B40EE6EC25F0F6EC25F0530EE6EC25F094
:10444000010E6EEC23F0086E08500B6E0C6A000E25
:104450006EEC23F0086E08500A6E096A0B500910C2
:104460000B6E0C500A100C6EECEC25F00BC006F035
:104470000CC007F01200F1EC25F0520EE6EC25F02E
:10448000BA0EE6EC25F0F6EC25F0530EE6EC25F03E
:10449000010E6EEC23F0086E08500B6E0C6A000ED5
:1044A0006EEC23F0086E08500A6E096A0B50091072
:1044B0000B6E0C500A100C6EECEC25F00BC006F0E5
:1044C0000CC007F01200000E161A000E171A000E8C
:1044D000181A800E191A12C002F013C003F014C08B
:1044E00004F015C005F016C006F017C007F018C09C
:1044F00008F019C009F0A2EC0DF002C012F003C0E0
:1045000013F004C014F005C015F01200F80EF66E9A
:104510004B0EF76E000EF86E0900F5CFF0F002EECC
:1045200000F0C80EEE6AE806FDE101EE00F0B60EFE
:10453000EE6AE806FDE100EEC2F02E0EEE6AE80635
:10454000FDE15C6A5B6A5D905D9200012CEF0BF00F
:10455000010E036E220E026E1BC004F01CC005F09B
:104560008CEC25F002C01DF003C01EF019C014F041
:104570001AC015F06EEC20F01DC002F01EC003F052
:1045800097EC24F019C014F01AC015F027EC20F0B5
:104590001200010E036E900E026E1BC004F01CC0D0
:1045A00005F08CEC25F002C01DF003C01EF019C010
:1045B00014F01AC015F06EEC20F01DC002F01EC001
:1045C00003F097EC24F019C014F01AC015F027EC92
:1045D00020F01200010E036E900E026E1BC004F05C
:1045E0001CC005F08CEC25F002C01DF003C01EF0CD
:1045F00019C014F01AC015F0ADEC20F01DC002F087
:104600001EC003F097EC24F019C014F01AC015F086
:1046100027EC20F01200010E036E220E026E1BC06A
:1046200004F01CC005F08CEC25F002C01DF003C0A6
:104630001EF019C014F01AC015F0ADEC20F01DC02A
:1046400002F01EC003F097EC24F019C014F01AC059
:1046500015F027EC20F01200020E036E440E026EDD
:104660001BC004F01CC005F08CEC25F002C01DF04E
:1046700003C01EF019C014F01AC015F0ADEC20F004
:104680001DC002F01EC003F097EC24F019C014F016
:104690001AC015F027EC20F012002FC031F059EFAE
:1046A00023F02EC023F0310E246E30C025F03FECF5
:1046B00017F031C0F6FF0E0EF76E000EF86E080010
:1046C000F5500009D8A467EF23F069EF23F051EF0C
:1046D00023F0000E2F6E000E2E6E1200046E78EC8A
:1046E00025F00E01DA8778EC25F0D5CE05F078ECD0
:1046F00025F00450D8B47FEF23F083EF23F0036A52
:10470000032A84EF23F0036A033A03460E01DA51C9
:104710000318DF0B0318DA6FDA8905501200000E58
:104720000F6E000E0E6E9EEF23F00DC002F0036AB6
:104730000CC004F0F0EC1EF00E4A0F2A0E500A24B2
:10474000D96E0F500B20DA6EDF500D6E0D50D8A4CD
:10475000ACEF23F0AEEF23F095EF23F012001FC073
:1047600019F020C01AF033EC25F0290E246E960EB5
:10477000236E7F0EE82EFED7232EFCD7242EFAD7E9
:1047800000001FC019F020C01AF021C01BF022C089
:104790001CF02CEC23F012001FC019F020C01AF0FE
:1047A00001EC25F0290E246E960E236E7F0EE82E66
:1047B000FED7232EFCD7242EFAD700001FC019F0F5
:1047C00020C01AF021C01BF022C01CF0A8EC22F07F
:1047D00012001FC019F020C01AF033EC25F0290E8A
:1047E000246E960E236E7F0EE82EFED7232EFCD766
:1047F000242EFAD700001FC019F020C01AF021C0E3
:104800001BF022C01CF0A8EC22F012001FC019F00F
:1048100020C01AF001EC25F0290E246E960E236EAE
:104820007F0EE82EFED7232EFCD7242EFAD70000C9
:104830001FC019F020C01AF021C01BF022C01CF0CC
:104840000BEC23F012001FC019F020C01AF033EC5B
:1048500025F0290E246E960E236E7F0EE82EFED7CD
:10486000232EFCD7242EFAD700001FC019F020C039
:104870001AF021C01BF022C01CF0C9EC22F012007B
:104880001FC019F020C01AF033EC25F0290E246E59
:10489000960E236E7F0EE82EFED7232EFCD7242EF5
:1048A000FAD700001FC019F020C01AF021C01BF079
:1048B00022C01CF0EAEC22F012001FC019F020C048
:1048C0001AF033EC25F0290E246E960E236E7F0E1F
:1048D000E82EFED7232EFCD7242EFAD700001FC0C7
:1048E00019F020C01AF021C01BF022C01CF00BEC04
:1048F00023F012001FC019F020C01AF033EC25F08D
:10490000290E246E960E236E7F0EE82EFED7232EE0
:10491000FCD7242EFAD700001FC019F020C01AF0CF
:1049200021C01BF022C01CF02CEC23F01200000E62
:10493000066E000E056EA7EF24F0150E046EC60E6F
:10494000E82EFED7042EFCD700D0054A062A0250D6
:10495000055C03500658D8A0B0EF24F0B2EF24F065
:104960009DEF24F0120063EC25F0010E046E000EA2
:104970009FEC25F03F0E066E550EE82EFED7062E54
:10498000FCD70000030E046E000E9FEC25F0D50E40
:10499000046E010E9FEC25F01200340E386E32C00A
:1049A00039F0000E3D6E000E3C6E000E446E000E9F
:1049B000436E390E2E6E33C02FF0380E306E4DEC34
:1049C00023F032503C24D96EDA6ADF6A120009BE45
:1049D000ECEF24F0EEEF24F0F4EF24F008C008F040
:1049E00009C009F000EF25F008C00AF009C00BF07B
:1049F0000A1E0B1E0A4A0B2A0AC008F00BC009F057
:104A0000120019C014F01AC015F0ECEC20F06A0E78
:104A10001C6E850E1B6EB40EE82EFED71B2EFCD727
:104A20001C2EFAD700D019C014F01AC015F027ECCC
:104A300020F0120027EF25F00350D96EDA6ADF501C
:104A4000DAEC25F0032A6A0EE82EFED700D00350D8
:104A5000D96EDA6ADF50D8A430EF25F032EF25F0B6
:104A60001CEF25F0120019C014F01AC015F0ECEC80
:104A700020F0190E1C6E5A0E1B6EB20EE82EFED7D9
:104A80001B2EFCD71C2EFAD719C014F01AC015F033
:104A900027EC20F01200D6501F0B4009D66ED688A6
:104AA000D650F00B0D09D66ED5880E01298B339B9D
:104AB0001F9BF28AF28CF28E87927F92000ED36E49
:104AC000000ED46E12000E01D951F00B0809D96FF7
:104AD000D98B9F0ED66F848A848CA79BA79D1D0EB1
:104AE0001D6F1E0E1C6F1C0E6F6F1B0E706F120061
:104AF0000E01D8B57EEF25F080EF25F078EF25F098
:104B0000DACE02F01F0E0216D8A489EF25F08BEF43
:104B100025F078EF25F0120002500402F3CF06F0E2
:104B2000F4CF07F002500502F350072603500402A9
:104B3000F350072606C002F007C003F01200056E0E
:104B4000F1EC25F0520EE6EC25F005508009E6EC7C
:104B500025F00450E6EC25F0ECEC25F01200120EE6
:104B60000E01626F110E156FE997E895330EE56F30
:104B7000000EE66FE789E88BE78F1200600E326E59
:104B8000B70E336E4CC034F04DC035F0CDEC24F090
:104B9000600E036E1AEC25F01200868C0E01B48DA7
:104BA0000F015899FC0E58172E0E5F6F60946088A5
:104BB000608E1200026E0E0137A5E1EF25F0E3EFE3
:104BC00025F0DBEF25F002C0E4FE1200036E78EC66
:104BD00025F003C0D5FE120078EC25F00E01DA8531
:104BE000120078EC25F00E01DA81120078EC25F045
:094BF0000E01DA8312001200012B
:020000040030CA
:02000000AAFF55
:020004009FFF5C
:00000001FF
