:04000000F6EF13F014
:100E00000043616C6962726174696F6E2073746112
:100E10007465203D20616D6269656E74206C696740
:100E200068740043616C6962726174696F6E2073EB
:100E300074617465203D20677265656E200A0D003F
:100E400043616C6962726174696F6E20737461745E
:100E5000653D20626C7565200A0D0043414C494296
:100E6000524154494F4E20434F4D504C45544544F8
:100E7000200A0D0043616C6962726174696F6E20B3
:100E80007374617465203D2072656400566F6C74E4
:100E9000616765203D2025642E253032642C20209A
:100EA00000477265656E5F6C696768743D25642CE8
:100EB000200A0D005265645F6C696768743D2564A3
:100EC0002C200A0D00416C6C5F6C69676874733D7F
:100ED0002564200A0D00426C75655F6C6967687453
:100EE0003D2564200A0D006875653D253033642C6E
:100EF0002020002E000020EE04F03250D92633507E
:100F0000DA22DECF36F0DDCF37F036C009F037C059
:100F10000AF00B6A0C6A0D6A0E6A0F6A106A20EEFC
:100F200002F03450D9263550DA22DECF38F0DDCF4A
:100F300039F038C001F039C002F0036A046A056A6A
:100F4000066A076A086A27EC11F001C072F002C055
:100F500073F003C074F004C075F005C076F006C0ED
:100F600077F007C078F008C079F032C0D9FF33C0FD
:100F7000DAFFDECF36F0DDCF37F036C009F037C00C
:100F80000AF00B6A0C6A0D6A0E6A0F6A106A20EE8C
:100F900004F03450D9263550DA22DECF38F0DDCFD8
:100FA00039F038C001F039C002F0036A046A056AFA
:100FB000066A076A086A27EC11F001C07AF002C0DD
:100FC0007BF003C07CF004C07DF005C07EF006C05D
:100FD0007FF007C080F008C081F020EE04F03250AE
:100FE000D9263350DA22DECF36F0DDCF37F036C0E7
:100FF00009F037C00AF00B6A0C6A0D6A0E6A0F6AB4
:10100000106A34C0D9FF35C0DAFFDECF38F0DDCF4B
:1010100039F038C001F039C002F0036A046A056A89
:10102000066A076A086A27EC11F001C060F002C086
:1010300061F003C062F004C063F005C064F006C054
:1010400065F007C066F008C067F072C001F073C0B9
:1010500002F074C003F075C004F076C005F077C0EC
:1010600006F078C007F079C008F032C0D9FF33C06D
:10107000DAFFDECF36F0DDCF37F036C009F037C00B
:101080000AF00B6A0C6A0D6A0E6A0F6A106A27EC86
:1010900011F001C038F002C039F003C03AF004C0CA
:1010A0003BF005C03CF006C03DF007C03EF008C074
:1010B0003FF07AC001F07BC002F07CC003F07DC03D
:1010C00004F07EC005F07FC006F080C007F081C04C
:1010D00008F020EE02F03250D9263350DA22DECF6B
:1010E00040F0DDCF41F040C009F041C00AF00B6A8A
:1010F0000C6A0D6A0E6A0F6A106A27EC11F001C0C3
:1011000042F002C043F003C044F004C045F005C003
:1011100046F006C047F007C048F008C049F060C07C
:1011200001F061C002F062C003F063C004F064C06B
:1011300005F065C006F066C007F067C008F020EE55
:1011400002F03250D9263350DA22DECF4AF0DDCF1A
:101150004BF04AC009F04BC00AF00B6A0C6A0D6AEA
:101160000E6A0F6A106A27EC11F001C04CF002C041
:101170004DF003C04EF004C04FF005C050F006C063
:1011800051F007C052F008C053F042504C24546E46
:1011900043504D20556E44504E20566E45504F20C2
:1011A000576E46505020586E47505120596E485047
:1011B00052205A6E495053205B6E3850542400011F
:1011C0006A6F395055206B6F3A5056206C6F3B5008
:1011D00057206D6F3C5058206E6F3D5059206F6FF7
:1011E0003E505A20706F3F505B20716F000E856F2C
:1011F000000E846F000E876F000E866F000E836FE7
:10120000000E826F6A516B116C116D116E116F11AE
:1012100070117111D8B40FEF09F011EF09F0B0EFB0
:101220000AF020EE04F03250D9263350DA22DECF15
:1012300036F0DDCF37F036C009F037C00AF00B6A60
:101240000C6A0D6A0E6A0F6A106A34C0D9FF35C085
:10125000DAFFDECF38F0DDCF39F038C001F039C029
:1012600002F0036A046A056A066A076A086A27ECDC
:1012700011F001C072F002C073F003C074F004C03A
:1012800075F005C076F006C077F007C078F008C0AA
:1012900079F020EE02F03250D9263350DA22DECF38
:1012A00036F0DDCF37F036C009F037C00AF00B6AF0
:1012B0000C6A0D6A0E6A0F6A106A72C001F073C080
:1012C00002F074C003F075C004F076C005F077C07A
:1012D00006F078C007F079C008F027EC11F001C0E3
:1012E0007AF002C07BF003C07CF004C07DF005C042
:1012F0007EF006C07FF007C080F008C081F0640E69
:10130000096E000E0A6E000E0B6E000E0C6E000EC3
:101310000D6E000E0E6E000E0F6E000E106E7AC077
:1013200001F07BC002F07CC003F07DC004F07EC001
:1013300005F07FC006F080C007F081C008F027EC00
:1013400011F001C019F002C01AF003C01BF004C074
:101350001CF005C01DF006C01EF007C01FF008C03D
:1013600020F06AC021F06BC022F06CC023F06DC089
:1013700024F06EC025F06FC026F070C027F071C059
:1013800028F08CEC0EF019C036F01AC037F01BC0F4
:1013900038F01CC039F01DC03AF01EC03BF01FC031
:1013A0003CF020C03DF036C084F037C085F020EE20
:1013B00004F03250D9263350DA22DECF36F0DDCFBA
:1013C00037F036C009F037C00AF00B6A0C6A0D6AB4
:1013D0000E6A0F6A106A20EE02F03450D92635509A
:1013E000DA22DECF38F0DDCF39F038C001F039C075
:1013F00002F0036A046A056A066A076A086A27EC4B
:1014000011F001C072F002C073F003C074F004C0A8
:1014100075F005C076F006C077F007C078F008C018
:1014200079F032C0D9FF33C0DAFFDECF36F0DDCF3E
:1014300037F036C009F037C00AF00B6A0C6A0D6A43
:101440000E6A0F6A106A72C001F073C002F074C0B5
:1014500003F075C004F076C005F077C006F078C0E0
:1014600007F079C008F027EC11F001C07AF002C053
:101470007BF003C07CF004C07DF005C07EF006C0A8
:101480007FF007C080F008C081F0640E096E000E86
:101490000A6E000E0B6E000E0C6E000E0D6E000E2E
:1014A0000E6E000E0F6E000E106E7AC001F07BC043
:1014B00002F07CC003F07DC004F07EC005F07FC068
:1014C00006F080C007F081C008F027EC11F001C0E1
:1014D00019F002C01AF003C01BF004C01CF005C0D4
:1014E0001DF006C01EF007C01FF008C020F06AC043
:1014F00021F06BC022F06CC023F06DC024F06EC0F0
:1015000025F06FC026F070C027F071C028F08CEC79
:101510000EF019C036F01AC037F01BC038F01CC0EE
:1015200039F01DC03AF01EC03BF01FC03CF020C097
:101530003DF036C086F037C087F084C036F085C0F5
:1015400037F0361E371E364A372A00018651365E7E
:101550008751375A640E3624826F000E3720836F0E
:101560008451865D85518759D8B0B9EF0AF0BBEF39
:101570000AF0EFEF0AF08451825D85518359D8B0AB
:10158000C4EF0AF0C6EF0AF0EFEF0AF08251865D71
:1015900083518759D8B0CFEF0AF0D1EF0AF0E1EFCD
:1015A0000AF08251865D076E83518759086E865115
:1015B000845D096E875185590A6E09EC12F0EFEFD0
:1015C0000AF08251865D076E83518759086E8251F9
:1015D000845D096E835185590A6E09EC12F0000191
:1015E0008651845D87518559D8B0F9EF0AF0FBEF39
:1015F0000AF02FEF0BF08651825D87518359D8B0E6
:1016000004EF0BF006EF0BF02FEF0BF08451825D2F
:1016100085518359D8B00FEF0BF011EF0BF021EF8C
:101620000BF08451825D076E85518359086E82519B
:10163000865D096E835187590A6E09EC12F02FEF0F
:101640000BF08451825D076E85518359086E845179
:10165000865D096E855187590A6E09EC12F000010A
:101660008251845D83518559D8B039EF0BF03BEF3F
:101670000BF081EF0BF08251865D83518759D8B012
:1016800044EF0BF046EF0BF081EF0BF08451865DD9
:1016900085518759D8B04FEF0BF051EF0BF068EF41
:1016A0000BF08651845D076E87518559086E86510F
:1016B000825D096E875183590A6E09EC12F0040E9F
:1016C00007240001686F000E0820696F7DEF0BF0A2
:1016D0008651845D076E87518559086E8451825DFD
:1016E000096E855183590A6E09EC12F0040E072425
:1016F0000001686F000E0820696F68C032F069C091
:1017000033F012007F907D9E7996480E316E740EF4
:10171000326EF30E336E3350D8A40E0E346EA9EC35
:1017200013F0480E026EDDEC13F08EB49AEF0BF05E
:101730009CEF0BF095EF0BF07F80290E476E960E15
:10174000466E7F0EE82EFED7462EFCD7472EFAD7E0
:10175000000072EC12F044C0D9FF45C0DAFF05C0AA
:10176000DEFF06C0DDFF7F90480E316E230E326E25
:10177000F30E336E3350D8A40E0E346EA9EC13F072
:10178000480E026EDDEC13F08EB4C9EF0BF0CBEF18
:101790000BF0C4EF0BF07D8E290E476E960E466E51
:1017A0007F0EE82EFED7462EFCD7472EFAD7000034
:1017B0009AEC12F020EE02F04450D9264550DA227D
:1017C00005C0DEFF06C0DDFF7D9E480E316E400E77
:1017D000326EF30E336E3350D8A40E0E346EA9EC75
:1017E00013F0480E026EDDEC13F08EB4FAEF0BF03E
:1017F000FCEF0BF0F5EF0BF07986290E476E960E95
:10180000466E7F0EE82EFED7462EFCD7472EFAD71F
:101810000000EAEC12F020EE04F04450D9264550C6
:10182000DA2205C0DEFF06C0DDFF7996480E316E74
:10183000010E326EF30E336E3350D8A40E0E346E9A
:10184000A9EC13F0480E026EDDEC13F08EB42BEF12
:101850000CF02DEF0CF026EF0CF07F807D8E79865A
:10186000290E476E960E466E7F0EE82EFED7462E48
:10187000FCD7472EFAD70000C2EC12F020EE06F09B
:101880004450D9264550DA2205C0DEFF06C0DDFFF0
:101890007F907D9E7996480E316E5B0E326EF30E10
:1018A000336E3350D8A40E0E346EA9EC13F0480EEC
:1018B000026EDDEC13F012002350D96EDA6ADFCF2E
:1018C000F6FF0E0EF76E000EF86E0800F550250AB2
:1018D000D8A46DEF0CF06FEF0CF00EEF0DF023506D
:1018E000D96EDA6ADF2A000E0101656F000E646F9F
:1018F00064C1FCF066696769000E2B6EA7EF0CF0FF
:101900000001FC832350D96EDA6ADF2AA7EF0CF0BE
:10191000010E2B6EA7EF0CF02350D96EDA6ADFCFE1
:10192000F6FF0E0EF76E000EF86E0800F550256EED
:10193000266A2650000AD8B4A0EF0CF088EF0CF00D
:101940002550300AD8B480EF0CF088EF0CF02B5003
:10195000D8B4ADEF0CF0AFEF0CF08CEF0CF023C06F
:1019600007F024C008F02AEC10F007C064F108C0AA
:1019700065F1010165BFC1EF0CF0BFEF0CF0C8EFDE
:101980000CF00001FC810101646D651FD8B0652B6E
:101990002350D96EDA6ADF502C6E2CC0F6FF0E0E83
:1019A000F76E000EF86E0800F550640AD8B4DBEF4D
:1019B0000CF0DDEF0CF0EDEF0CF02CC0F6FF0E0E8E
:1019C000F76E000EF86E0800F550690AD8A4EBEF28
:1019D0000CF0EDEF0CF008EF0DF02450D96EDA6A40
:1019E000020EDF26DF5CD96EDA6ADECF27F0DECFAB
:1019F00028F02350D96EDA6A2C28DF6E22C017F047
:101A000027C018F028C019F022EC0DF021EF0DF0DE
:101A10002350D96EDA6ADF2A21EF0DF02350D96EF8
:101A2000DA6ADFCFF6FF0E0EF76E000EF86E0800D2
:101A3000F550016E026A22C003F081EC10F008EF4D
:101A40000DF01200010E1C6E19BE29EF0DF02CEFE7
:101A50000DF0010E2DEF0DF0000E1F6E64C11DF094
:101A600065C11EF01F50D8B438EF0DF03AEF0DF0FD
:101A700051EF0DF01D06D8A01E061F50D8A443EF4D
:101A80000DF045EF0DF04BEF0DF0000E1B6E2B0E21
:101A90001A6E4FEF0DF0000E1B6E2D0E1A6E1AC04F
:101AA0001FF0000E216E1F0E206E000E0101886FC8
:101AB00089EF0DF02006D8A02106690E2024D96EEA
:101AC000010E2120DA6E18C001F019C002F0000EDC
:101AD000046E0A0E036ED2EC0FF001C007F002C0D4
:101AE00008F0C3EC13F00750300FDF6E000E1C6ED1
:101AF0001D06D8A01E0618C001F019C002F0000E85
:101B0000046E0A0E036E70EC0FF001C018F002C0F4
:101B100019F021BE94EF0DF0215008E12004D8A067
:101B200094EF0DF096EF0DF0BCEF0DF0185019107A
:101B3000D8A49DEF0DF09FEF0DF05AEF0DF01C5063
:101B4000D8A4A5EF0DF0A7EF0DF05AEF0DF01EBED3
:101B5000B2EF0DF01E5008E11D04D8A0B2EF0DF059
:101B6000B4EF0DF0BCEF0DF00001FCB3BAEF0DF0D7
:101B7000BCEF0DF05AEF0DF01F50D8B4C2EF0DF0CE
:101B8000C4EF0DF0CFEF0DF02006D8A02106690EAE
:101B90002024D96E010E2120DA6E1FC0DFFF17C08E
:101BA0000FF0690E2024106E010E2120116E1DC051
:101BB00012F01EC013F076EC11F01200000E0001BE
:101BC000F96F000EF86FF851F911D8A4EAEF0DF093
:101BD000ECEF0DF002EF0EF07F807D9E7996C40E43
:101BE000316EB40E326E7FB0F8EF0DF0FCEF0DF0F9
:101BF0005E6A5E2AFDEF0DF05E6A5E50336E346AF7
:101C0000A9EC13F00001F805F911D8A40AEF0EF0C1
:101C10000CEF0EF022EF0EF07F907D8E7996C40EC1
:101C2000316EA10E326E7DBE18EF0EF01CEF0EF07D
:101C30005E6A5E2A1DEF0EF05E6A5E50336E346A95
:101C4000A9EC13F0020E0001F819F911D8A42BEF3A
:101C50000EF02DEF0EF043EF0EF07F907D9E798613
:101C6000C40E316ED60E326E79B639EF0EF03DEFFE
:101C70000EF05E6A5E2A3EEF0EF05E6A5E50336ED4
:101C8000346AA9EC13F0030E0001F819F911D8A475
:101C90004CEF0EF04EEF0EF05BEF0EF07F807D8E7E
:101CA0007986C40E316EC50E326E000E346E010E92
:101CB000336EA9EC13F0C40E026EDDEC13F09B0E34
:101CC0000C6E010E0D6E43EC12F0A30E326E010E7F
:101CD000336E9B0E346E010E356E7BEC07F032C016
:101CE000F6F033C0F7F05CC04DF05DC04EF0F6C0CA
:101CF0004FF0F7C050F074EC13F00001F84BF92BE3
:101D0000F95109E1040EF85DD8A089EF0EF08BEFD0
:101D10000EF0E3EF0DF0120020EE29F0070EDE6A60
:101D2000E806FDE221502210231024102510261071
:101D300027102810D8B49FEF0EF0A1EF0EF0F3EFAC
:101D40000EF0010E316EAFEF0EF0D8902136223634
:101D5000233624362536263627362836312A28AE2D
:101D6000B4EF0EF0B6EF0EF0A5EF0EF0D8902936D6
:101D70002A362B362C362D362E362F36303621503D
:101D8000195C22501A5823501B5824501C582550B7
:101D90001D5826501E5827501F5828502058D8A08C
:101DA000D4EF0EF0D6EF0EF0E7EF0EF02150195EF3
:101DB00022501A5A23501B5A24501C5A25501D5A7F
:101DC00026501E5A27501F5A2850205A2980D89032
:101DD000283227322632253224322332223221324F
:101DE000312EB6EF0EF029C019F02AC01AF02BC020
:101DF0001BF02CC01CF02DC01DF02EC01EF02FC0FB
:101E00001FF030C020F0120069EC14F08FEC13F0DA
:101E10005AEC14F0000E026E630E016EC1EC11F06C
:101E2000000E0101926F010E936F010E946F000E70
:101E3000966F630E956FAA0E976F0F0E986FA60E92
:101E4000996F0F0E9A6F000E896F010E8A6F010E47
:101E50008B6F000E8D6F630E8C6F250E8E6F0F0EC5
:101E60008F6F210E906F0F0E916F7C9E849E8496D3
:101E70007C8687907F90859E7D9E819679968896B8
:101E80008086190E0001FB6F5A0EFA6FB10EE82E14
:101E9000FED7FA2FFCD7FB2FFAD700D080967E947E
:101EA00086840E01B495A30E446E010E456E82EC3D
:101EB0000BF0520E0001FB6F2B0EFA6F000EE82E96
:101EC000FED7FA2FFCD7FB2FFAD70000ABC15CF08E
:101ED000ACC15DF0DEEC0DF059EF0FF000EF00F05B
:101EE000000E066E04BE79EF0FF077EF0FF07FEF74
:101EF0000FF0036C041ED8B0042A010E066E02BE59
:101F000086EF0FF084EF0FF08CEF0FF0016C021EE4
:101F1000D8B0022A010E061A000E086E000E076ED7
:101F200003500410D8B497EF0FF099EF0FF0C1EF02
:101F30000FF0010E056EA1EF0FF0D89003360436B6
:101F4000052A04AEA6EF0FF0A8EF0FF09DEF0FF0FB
:101F5000D890073608360350015C04500258D8A0C8
:101F6000B4EF0FF0B6EF0FF0BBEF0FF00350015ED0
:101F70000450025A0780D89004320332052EA8EF8D
:101F80000FF00650D8B4C7EF0FF0C9EF0FF0CDEF48
:101F90000FF0076C081ED8B0082A07C001F008C06F
:101FA00002F01200000E066E02BEDBEF0FF0D9EF5A
:101FB0000FF0E1EF0FF0016C021ED8B0022A010E03
:101FC000066E04BEE8EF0FF0E6EF0FF0ECEF0FF057
:101FD000036C041ED8B0042A03500410D8B4F3EFE5
:101FE0000FF0F5EF0FF019EF10F0010E056EFDEF99
:101FF0000FF0D89003360436052A04AE02EF10F035
:1020000004EF10F0F9EF0FF00350015C0450025898
:10201000D8A00DEF10F00FEF10F013EF10F00350F9
:10202000015E0450025AD89004320332052E04EFA8
:1020300010F00650D8B41FEF10F021EF10F025EF8C
:1020400010F0016C021ED8B0022A01C001F002C0DB
:1020500002F01200000E0B6E000E0A6E0750D96ED1
:10206000DA6ADFCFF6FF0E0EF76E000EF86E08008C
:10207000F5502A0AD8A43FEF10F041EF10F067EFB7
:1020800010F00750D96EDA6ADF2A0850D96EDA6A82
:10209000020EDF26DF5CD96EDA6ADECF0AF0DECF11
:1020A0000BF07CEF10F00AC001F00BC002F0000E44
:1020B000046E0A0E036E37EC14F0095001240A6E08
:1020C000000E02200B6E0750D96EDA6ADF2A075025
:1020D000D96EDA6ADFCFF6FF0E0EF76E000EF86EDD
:1020E0000800F550D00F096E090E09647AEF10F060
:1020F0007CEF10F053EF10F00AC007F00BC008F0AF
:1021000012000350D8B487EF10F089EF10F091EF70
:1021100010F00350D8A48FEF10F091EF10F096EF6D
:1021200010F0015097EC14F0D5EF10F00350D96E79
:10213000DA6A0A0ED926DE50DE10D8B4A2EF10F00B
:10214000A4EF10F0BDEF10F00350D96EDA6A0A0E5A
:10215000D9260350E16EE26A030EE126DE50E65C0A
:10216000E650800A086EDE50800A0858D8B0BBEFEF
:1021700010F0BDEF10F0D5EF10F00350D96EDA6A11
:10218000030ED926DF50046E0350D96EDA6ADF5091
:102190000424D96EDA6A01C0DFFF0350D96EDA6A0F
:1021A000030ED926DE2A000EDD22120045C007F0FC
:1021B00046C008F0000E0A6E4D0E096E09EC12F0D2
:1021C00007C04BF008C04CF045C001F046C002F01B
:1021D000000E046E640E036E37EC14F001C007F0BD
:1021E00002C008F0000E0A6E4D0E096E09EC12F0E6
:1021F00007C047F008C048F04BC001F04CC002F0E7
:10220000FF0E046E9C0E036E37EC14F00150472451
:10221000496E025048204A6E44C031F08C0E326E36
:102220004BC033F04CC034F049C035F04AC036F0F2
:10223000A9EC13F0520E486E2B0E476E000EE82EDE
:10224000FED7472EFCD7482EFAD700D0120020EE3A
:1022500011F0070EDE6AE806FDE201A032EF11F090
:1022600034EF11F044EF11F0095011260A501222F8
:102270000B5013220C5014220D5015220E50162212
:102280000F50172210501822D89009360A360B36F4
:102290000C360D360E360F361036D890083207320F
:1022A000063205320432033202320132015002108A
:1022B000031004100510061007100810D8A463EFCF
:1022C00011F065EF11F02DEF11F011C001F012C007
:1022D00002F013C003F014C004F015C005F016C0DE
:1022E00006F017C007F018C008F012000001FCA1AA
:1022F0007CEF11F07EEF11F086EF11F010C009F0C5
:1023000011C00AF00FC00BF054EC13F013BE8DEFA8
:1023100011F08BEF11F091EF11F0000E136E000E23
:10232000126E000E166E000E156EA1EF11F0000E6B
:10233000026E200E016E0FC003F081EC10F0154A02
:10234000162A1250155C1650800A146E1350800A1B
:102350001458D8A0AEEF11F0B0EF11F097EF11F0D4
:102360000001FCB1B6EF11F0B8EF11F0C0EF11F0C1
:1023700010C009F011C00AF00FC00BF054EC13F0BC
:1023800012008594839E8598879C7D947B9E7D9882
:102390007F9C050E0E01746F060E766F070E696F37
:1023A000080E886FBD508F0B4009BD6EE00EBE1643
:1023B000BF50F00B0109BF6E01C0BCFFBD8E000E07
:1023C000AA6E000EA66E000E0F01256F000E216F83
:1023D000FC0EAD16F30EAD16CF0EAD163F0EAD16BC
:1023E000AB88AB50F00B0C09AB6EAB8EA788A75037
:1023F000F00B0C09A76EA78E26892651F00B0C094D
:10240000266F268F22892251F00B0C09226F228F12
:102410001200000E0D6E000E0C6E09500A10D8B49A
:1024200014EF12F016EF12F03EEF12F0010E0B6EE9
:102430001EEF12F0D89009360A360B2A0AAE23EFA7
:1024400012F025EF12F01AEF12F0D8900C360D367C
:102450000950075C0A500858D8A031EF12F033EF4A
:1024600012F038EF12F00950075E0A50085A0C803B
:10247000D8900A3209320B2E25EF12F00CC007F06B
:102480000DC008F0120072EC12F00CC0D9FF0DC0A4
:10249000DAFF05C0DEFF06C0DDFFEAEC12F020EE39
:1024A00004F00C50D9260D50DA2205C0DEFF06C01C
:1024B000DDFF9AEC12F020EE02F00C50D9260D5000
:1024C000DA2205C0DEFF06C0DDFFC2EC12F020EE0E
:1024D00006F00C50D9260D50DA2205C0DEFF06C0EA
:1024E000DDFF12008DEC14F0520E82EC14F0B60EEB
:1024F00082EC14F092EC14F0530E82EC14F0010E06
:1025000033EC13F0076E07500A6E0B6A000E33ECC3
:1025100013F0076E0750096E086A0A5008100A6E19
:102520000B5009100B6E88EC14F00AC005F00BC0BC
:1025300006F012008DEC14F0520E82EC14F0B80E7E
:1025400082EC14F092EC14F0530E82EC14F0010EB5
:1025500033EC13F0076E07500A6E0B6A000E33EC73
:1025600013F0076E0750096E086A0A5008100A6EC9
:102570000B5009100B6E88EC14F00AC005F00BC06C
:1025800006F012008DEC14F0520E82EC14F0B40E32
:1025900082EC14F092EC14F0530E82EC14F0010E65
:1025A00033EC13F0076E07500A6E0B6A000E33EC23
:1025B00013F0076E0750096E086A0A5008100A6E79
:1025C0000B5009100B6E88EC14F00AC005F00BC01C
:1025D00006F012008DEC14F0520E82EC14F0BA0EDC
:1025E00082EC14F092EC14F0530E82EC14F0010E15
:1025F00033EC13F0076E07500A6E0B6A000E33ECD3
:1026000013F0076E0750096E086A0A5008100A6E28
:102610000B5009100B6E88EC14F00AC005F00BC0CB
:1026200006F012002EC030F01EEF13F02DC022F085
:10263000300E236E2FC024F05CEC0CF030C0F6FF9F
:102640000E0EF76E000EF86E0800F5500009D8A4C3
:102650002CEF13F02EEF13F016EF13F0000E2E6E8A
:10266000000E2D6E1200036E23EC14F00E01DA87BB
:1026700023EC14F0D5CE04F023EC14F00350D8B4BE
:1026800044EF13F048EF13F0026A022A49EF13F007
:10269000026A023A02460E01DA510218DF0B0218F2
:1026A000DA6FDA8904501200000E0E6E000E0D6E05
:1026B00063EF13F00CC001F0026A0BC003F081EC71
:1026C00010F00D4A0E2A0D500924D96E0E500A2022
:1026D000DA6EDF500C6E0C50D8A471EF13F073EF6C
:1026E00013F05AEF13F01200600E446E4DC045F027
:1026F0004EC046F0D6EC10F0920E316EE70E326E00
:102700004FC033F050C034F0A9EC13F0600E026EED
:10271000DDEC13F0920E026EDDEC13F012000EEC05
:1027200014F0010E036E000E4AEC14F03F0E056E1D
:10273000550EE82EFED7052EFCD70000030E036EC3
:10274000000E4AEC14F0D50E036E010E4AEC14F0A4
:102750001200330E376E31C038F0000E3C6E000EA2
:102760003B6E000E436E000E426E380E2D6E32C070
:102770002EF0370E2F6E12EC13F031503B24D96E31
:10278000DA6ADF6A120008BEC8EF13F0CAEF13F06E
:10279000D0EF13F007C007F008C008F0DCEF13F02B
:1027A00007C009F008C00AF0091E0A1E094A0A2AD1
:1027B00009C007F00AC008F01200EAEF13F0025057
:1027C000D96EDA6ADF5076EC14F0022A6A0EE82E2F
:1027D000FED700D00250D96EDA6ADF50D8A4F3EFEA
:1027E00013F0F5EF13F0DFEF13F01200300EF66E7A
:1027F000290EF76E000EF86E0900F5CFADF101EE6F
:1028000000F0AB0EEE6AE806FDE10001FF6BFE6B27
:10281000FD6BFC6B5F6A000104EF0FF00E01D951F4
:10282000F00B0809D96FD98B9F0ED66F848A848CE0
:10283000A79BA79D1D0E1D6F1E0E1C6F1C0E6F6F9C
:102840001B0E706F12000E01D8B529EF14F02BEF9C
:1028500014F023EF14F0DACE01F01F0E0116D8A405
:1028600034EF14F036EF14F023EF14F0120001509F
:102870000302F3CF05F0F4CF06F001500402F35049
:10288000062602500302F350062605C001F006C0DA
:1028900002F01200046E8DEC14F0520E82EC14F073
:1028A0000450800982EC14F0035082EC14F088ECA0
:1028B00014F01200120E0E01626F110E156FE997DF
:1028C000E895330EE56F000EE66FE789E88BE78F3A
:1028D0001200868C0E01B48D0F015899FC0E58170A
:1028E0002E0E5F6F60946088608E1200016E0E0184
:1028F00037A57DEF14F07FEF14F077EF14F001C0EF
:10290000E4FE1200026E23EC14F002C0D5FE1200A9
:1029100023EC14F00E01DA85120023EC14F00E0102
:10292000DA81120023EC14F00E01DA831200120097
:0129300001A5
:020000040030CA
:02000000AAFF55
:020004009FFF5C
:00000001FF
