:040000001DEF00F000
:100018005280E0CF01F00E0133AB15EF00F017EF7F
:1000280000F019EF00F07F82339B01C0E0FF52908F
:060038001000C8EF1FF0EC
:100E00000043616C6962726174696F6E2073746112
:100E10007465203D20677265656E200A0D00436190
:100E20006C6962726174696F6E2073746174653D80
:100E300020626C7565200A0D0043616C6962726105
:100E400074696F6E207374617465203D202077682B
:100E50006974650043414C4942524154494F4E2008
:100E6000434F4D504C45544544200A0D0043616C9E
:100E70006962726174696F6E207374617465203D7C
:100E80002072656400566F6C74616765203D202593
:100E9000642E253032642C2020006875653D253095
:090EA00033642C2020002E000018
:100EAA00000E00019C6F000E9D6F000E9E6F000EDB
:100EBA009F6F3F50D96EDA6ADECF40F0DDCF41F046
:100ECA0040C002F041C003F0046A056A000EE1EC7A
:100EDA0014F002C060F003C061F004C062F005C003
:100EEA0063F03E50D96EDA6ADECF40F0DDCF41F0D2
:100EFA0040C002F041C003F0046A056A000EE1EC4A
:100F0A0014F002C064F003C065F004C066F005C0C6
:100F1A0067F03F50D96EDA6A020ED926DECF40F06A
:100F2A00DDCF41F040C002F041C003F0046A056A17
:100F3A00000EE1EC14F002C068F003C069F004C0CE
:100F4A006AF005C06BF03E50D96EDA6A020ED926F5
:100F5A00DECF40F0DDCF41F040C002F041C003F0E7
:100F6A00046A056A000EE1EC14F002C06CF003C0DA
:100F7A006DF004C06EF005C06FF03F50D96EDA6AAA
:100F8A00040ED926DECF40F0DDCF41F040C002F09A
:100F9A0041C003F0046A056A000EE1EC14F002C0D5
:100FAA0070F003C071F004C072F005C073F03E50D7
:100FBA00D96EDA6A040ED926DECF40F0DDCF41F0D1
:100FCA0040C002F041C003F0046A056A000EE1EC79
:100FDA0014F002C074F003C075F004C076F005C0C6
:100FEA0077F03F50D96EDA6A060ED926DECF40F086
:100FFA00DDCF41F040C002F041C003F0046A056A47
:10100A00000EE1EC14F002C078F003C079F004C0DD
:10101A007AF005C07BF03E50D96EDA6A060ED92600
:10102A00DECF40F0DDCF41F040C002F041C003F016
:10103A00046A056A000EE1EC14F002C07CF003C0F9
:10104A007DF004C07EF005C07FF078C01BF079C047
:10105A001CF07AC01DF07BC01EF07CC01FF07DC062
:10106A0020F07EC021F07FC022F093EC0FF060C028
:10107A001BF061C01CF062C01DF063C01EF064C0AA
:10108A001FF065C020F066C021F067C022F093EC23
:10109A000FF01BC0A0F01CC0A1F01DC0A2F01EC022
:1010AA00A3F068C01BF069C01CF06AC01DF06BC0D9
:1010BA001EF06CC01FF06DC020F06EC021F06FC032
:1010CA0022F093EC0FF01BC0A4F01CC0A5F01DC0C9
:1010DA00A6F01EC0A7F070C01BF071C01CF072C051
:1010EA001DF073C01EF074C01FF075C020F076C0EA
:1010FA0021F077C022F093EC0FF01BC0A8F01CC0BF
:10110A00A9F01DC0AAF01EC0ABF0A0C002F0A1C099
:10111A0003F0A2C004F0A3C005F0A4C006F0A5C065
:10112A0007F0A6C008F0A7C009F068EC18F0D8A02C
:10113A00A1EF08F0A3EF08F0D8EF08F0A4C002F07E
:10114A00A5C003F0A6C004F0A7C005F0A8C006F029
:10115A00A9C007F0AAC008F0ABC009F068EC18F003
:10116A00D8A0BAEF08F0BCEF08F0C6EF08F0A8C0A4
:10117A0080F0A9C081F0AAC082F0ABC083F0CEEFA4
:10118A0008F0A4C080F0A5C081F0A6C082F0A7C074
:10119A0083F080C090F081C091F082C092F083C049
:1011AA0093F00BEF09F0A0C002F0A1C003F0A2C0B7
:1011BA0004F0A3C005F0A8C006F0A9C007F0AAC0B1
:1011CA0008F0ABC009F068EC18F0D8A0EFEF08F00F
:1011DA00F1EF08F0FBEF08F0A8C084F0A9C085F091
:1011EA00AAC086F0ABC087F003EF09F0A0C084F074
:1011FA00A1C085F0A2C086F0A3C087F084C090F099
:10120A0085C091F086C092F087C093F0A4C002F026
:10121A00A5C003F0A6C004F0A7C005F0A0C006F060
:10122A00A1C007F0A2C008F0A3C009F068EC18F04A
:10123A00D8A022EF09F024EF09F059EF09F0A8C06D
:10124A0002F0A9C003F0AAC004F0ABC005F0A4C024
:10125A0006F0A5C007F0A6C008F0A7C009F068EC20
:10126A0018F0D8A03BEF09F03DEF09F047EF09F07D
:10127A00A8C088F0A9C089F0AAC08AF0ABC08BF0D8
:10128A004FEF09F0A4C088F0A5C089F0A6C08AF083
:10129A00A7C08BF088C098F089C099F08AC09AF0EC
:1012AA008BC09BF08CEF09F0A8C002F0A9C003F034
:1012BA00AAC004F0ABC005F0A0C006F0A1C007F0B8
:1012CA00A2C008F0A3C009F068EC18F0D8A070EF2B
:1012DA0009F072EF09F07CEF09F0A8C08CF0A9C000
:1012EA008DF0AAC08EF0ABC08FF084EF09F0A0C0D9
:1012FA008CF0A1C08DF0A2C08EF0A3C08FF08CC07C
:10130A0098F08DC099F08EC09AF08FC09BF098C06B
:10131A0012F099C013F09AC014F09BC015F090C057
:10132A0016F091C017F092C018F093C019F00EECA5
:10133A0020F012C094F013C095F014C096F015C0B6
:10134A0097F098C002F099C003F09AC004F09BC0CD
:10135A0005F090C006F091C007F092C008F093C063
:10136A0009F043EC1BF0D8A0BDEF09F0BFEF09F07C
:10137A00CAEF09F0000E00019C6F000E9D6F000E6F
:10138A009E6F000E9F6FD3EF0AF098C002F099C0CB
:10139A0003F09AC004F09BC005F0A0C006F0A1C0FB
:1013AA0007F0A2C008F0A3C009F043EC1BF0D8A0D4
:1013BA00E1EF09F0E3EF09F011EF0AF0A4C016F02B
:1013CA00A5C017F0A6C018F0A7C019F0A8C012F05F
:1013DA00A9C013F0AAC014F0ABC015F00EEC20F0AF
:1013EA0012C01BF013C01CF014C01DF015C01EF073
:1013FA0094C01FF095C020F096C021F097C022F04B
:10140A0093EC0FF01BC09CF01CC09DF01DC09EF019
:10141A001EC09FF0D3EF0AF098C002F099C003F003
:10142A009AC004F09BC005F0A4C006F0A5C007F05E
:10143A00A6C008F0A7C009F043EC1BF0D8A028EF1B
:10144A000AF02AEF0AF072EF0AF0A0C016F0A1C063
:10145A0017F0A2C018F0A3C019F0A8C012F0A9C0D2
:10146A0013F0AAC014F0ABC015F00EEC20F012C0B5
:10147A001BF013C01CF014C01DF015C01EF094C060
:10148A001FF095C020F096C021F097C022F093EC8F
:10149A000FF01BC09CF01CC09DF01DC09EF01EC02A
:1014AA009FF09CC002F09DC003F09EC004F09FC054
:1014BA0005F0000E066E000E076E000E086E400E56
:1014CA00096E1EEC0BF002C09CF003C09DF004C034
:1014DA009EF005C09FF0D3EF0AF098C002F099C0C1
:1014EA0003F09AC004F09BC005F0A8C006F0A9C09A
:1014FA0007F0AAC008F0ABC009F043EC1BF0D8A073
:10150A0089EF0AF08BEF0AF0D3EF0AF0A4C016F0C5
:10151A00A5C017F0A6C018F0A7C019F0A0C012F015
:10152A00A1C013F0A2C014F0A3C015F00EEC20F075
:10153A0012C01BF013C01CF014C01DF015C01EF021
:10154A0094C01FF095C020F096C021F097C022F0F9
:10155A0093EC0FF01BC09CF01CC09DF01DC09EF0C8
:10156A001EC09FF09CC002F09DC003F09EC004F014
:10157A009FC005F0000E066E000E076E800E086E04
:10158A00400E096E1EEC0BF002C09CF003C09DF0E9
:10159A0004C09EF005C09FF0D3EF0AF09CC002F091
:1015AA009DC003F09EC004F09FC005F0000E066EB9
:1015BA00000E076E700E086E420E096E7EEC0DF07C
:1015CA0002C09CF003C09DF004C09EF005C09FF0CD
:1015DA0000019FBFF5EF0AF0F3EF0AF00FEF0BF0EF
:1015EA009CC002F09DC003F09EC004F09FC005F0AD
:1015FA00000E066E000E076EB40E086E430E096EDC
:10160A001EEC0BF002C09CF003C09DF004C09EF0DB
:10161A0005C09FF09CC034F09DC035F09EC036F0E6
:10162A009FC037F0E5EC17F034C03EF035C03FF00C
:10163A0012000550800B0E6E05500524106E04AE84
:10164A0029EF0BF02BEF0BF02CEF0BF01080105062
:10165A00D8B432EF0BF034EF0BF049EF0BF010284F
:10166A00D8A43AEF0BF03CEF0BF044EF0BF0000E6E
:10167A00026E000E036E000E046E000E056E048EDE
:10168A00000E056E51EF0BF0000E026E000E036E97
:10169A00000E046E000E056E0950800B0F6E0E5080
:1016AA000F18D8B45BEF0BF05DEF0BF05EEF0BF0A9
:1016BA000E8C095009240F6E08AE66EF0BF068EF26
:1016CA000BF069EF0BF00F800F50D8B46FEF0BF0EF
:1016DA0071EF0BF086EF0BF00F28D8A477EF0BF021
:1016EA0079EF0BF081EF0BF0000E066E000E076E1D
:1016FA00000E086E000E096E088E000E096E8EEF3F
:10170A000BF0000E066E000E076E000E086E000E3D
:10171A00096E10500F5CD8B095EF0BF097EF0BF0F5
:10172A00BEEF0BF00EAC9CEF0BF09EEF0BF0A0EFB0
:10173A000BF0800E0E1A10C011F00FC010F011C07D
:10174A000FF002C011F006C002F011C006F003C08B
:10175A0011F007C003F011C007F004C011F008C06F
:10176A0004F011C008F005C011F009C005F011C05D
:10177A0009F0000E116E10500FC00AF00B6A0A5ED3
:10178A00000E0B5A0BBED3EF0BF00B5009E11A0EE9
:10179A000A5CD8A0D3EF0BF0D5EF0BF00CEF0CF0EE
:1017AA000250031004100510D8A4DEEF0BF0E1EF8D
:1017BA000BF0010EE2EF0BF0000E116E000E026E3E
:1017CA00000E036E000E046E000E056E0FC010F0C0
:1017DA0015EF0CF011A0F4EF0BF0F6EF0BF0FCEFA5
:1017EA000BF0D89011300109116EFEEF0BF0D89072
:1017FA00113202A003EF0CF005EF0CF006EF0CF02B
:10180A00118E05340532043203320232102A0F5087
:10181A00105CD8A013EF0CF015EF0CF0EFEF0BF003
:10182A000EBC1AEF0CF01CEF0CF05CEF0CF0105031
:10183A00D8A422EF0CF024EF0CF02EEF0CF0000EDF
:10184A00026E000E036E000E046E000E056E7DEF32
:10185A000DF00650022607500322085004220950B0
:10186A00052205A03BEF0CF03DEF0CF0E9EF0CF080
:10187A0011A042EF0CF044EF0CF04AEF0CF0D890B4
:10188A0011300109116E4CEF0CF0D890113202A000
:10189A0051EF0CF053EF0CF054EF0CF0118E0534AD
:1018AA000532043203320232102AE9EF0CF00650F4
:1018BA00025C07500358085004580550800A0A6E03
:1018CA000950800A0A58D8B06DEF0CF06FEF0CF08F
:1018DA009AEF0CF00250065C0A6E035007580B6E22
:1018EA00045008580C6E055009580D6EFF0E0A2454
:1018FA00026EFF0E0B20036EFF0E0C20046EFF0E0D
:10190A000D20056E800E0E1A116C1150D8A490EF9E
:10191A000CF092EF0CF0A2EF0CF0010E0226000E72
:10192A00032204220522A2EF0CF00650025E0750A1
:10193A00035A0850045A0950055A02500310041059
:10194A000510D8A4ABEF0CF0ADEF0CF0E2EF0CF001
:10195A001150D8A4B3EF0CF0B5EF0CF0E2EF0CF095
:10196A00000E026E000E036E000E046E000E056E6F
:10197A007DEF0DF0D890023603360436053611AEE7
:10198A00C9EF0CF0CBEF0CF0CCEF0CF0028011A0F9
:10199A00D1EF0CF0D3EF0CF0D7EF0CF0D880113662
:1019AA00D9EF0CF0D89011361050D8B4DFEF0CF004
:1019BA00E1EF0CF0E2EF0CF0100604AEE7EF0CF0EA
:1019CA00E9EF0CF0BFEF0CF0000E0F6E11AEF0EF66
:1019DA000CF0F2EF0CF00AEF0DF011C00AF07F0ED6
:1019EA000A16D8B4FBEF0CF0FDEF0CF001EF0DF086
:1019FA00010E0F6E0AEF0DF002A006EF0DF008EFD0
:101A0A000DF00AEF0DF0FDEF0CF00F50D8B410EF07
:101A1A000DF012EF0DF03DEF0DF0010E0226000E53
:101A2A0003220422052205A01DEF0DF01FEF0DF081
:101A3A003DEF0DF002C00AF003C00BF004C00CF039
:101A4A0005C00DF00D340D320C320B320A320AC0C9
:101A5A0002F00BC003F00CC004F00DC005F0102812
:101A6A00D8B43AEF0DF03CEF0DF03DEF0DF0102A2F
:101A7A001028D8B443EF0DF045EF0DF04DEF0DF0FF
:101A8A001050D8A44BEF0DF04DEF0DF05FEF0DF0B5
:101A9A00000E026E000E036E000E046E000E056E3E
:101AAA001050D8A45BEF0DF05DEF0DF05FEF0DF075
:101ABA00000E0E6E10A064EF0DF066EF0DF069EFE8
:101ACA000DF0048E6AEF0DF0049ED8901030056E6A
:101ADA000EAE72EF0DF074EF0DF075EF0DF0058E8E
:101AEA0002C002F003C003F004C004F005C005F010
:101AFA0012000550800B0E6E05500524146E04AEBC
:101B0A0089EF0DF08BEF0DF08CEF0DF0148014506F
:101B1A00D8B492EF0DF094EF0DF0A7EF0DF0142862
:101B2A00D8A49AEF0DF09CEF0DF0A4EF0DF0000E83
:101B3A00026E000E036E000E046E000E056E048E19
:101B4A00AFEF0DF0000E026E000E036E000E046E73
:101B5A00000E056E0950800B0E1A09500924136EE7
:101B6A0008AEBAEF0DF0BCEF0DF0BDEF0DF013802B
:101B7A001350D8B4C3EF0DF0C5EF0DF0D8EF0DF048
:101B8A001328D8A4CBEF0DF0CDEF0DF0D5EF0DF063
:101B9A00000E066E000E076E000E086E000E096E2D
:101BAA00088EE0EF0DF0000E066E000E076E000EB6
:101BBA00086E000E096E1350D8B4E6EF0DF0E8EF88
:101BCA000DF0F0EF0DF01450D8A4EEEF0DF0F0EF99
:101BDA000DF0FAEF0DF0000E026E000E036E000E0D
:101BEA00046E000E056E92EF0FF008500202F3CF5A
:101BFA0019F0F4CF1AF019500F6E106A116A126AAE
:101C0A001A50156E166A176A186A07500302F3CF3C
:101C1A0019F0F4CF1AF019500F26000E10221122D3
:101C2A0012221A501526000E1622172218220650C2
:101C3A000402F3CF19F0F4CF1AF019500F26000E50
:101C4A001022112212221A501526000E16221722CD
:101C5A00182211C012F010C011F00FC010F00F6A54
:101C6A0006500302F3CF19F0F4CF1AF019500F26D9
:101C7A001A501022000E1122000E122207500202E0
:101C8A00F3CF19F0F4CF1AF019500F261A50102278
:101C9A00000E1122000E122211C012F010C011F013
:101CAA000FC010F00F6A06500202F3CF19F0F4CFFA
:101CBA001AF019500F261A501022000E1122000E87
:101CCA00122208500302F3CF19F0F4CF1AF0195078
:101CDA0015261A501622000E1722000E1822075037
:101CEA000402F3CF19F0F4CF1AF0195015261A503E
:101CFA001622000E1722000E182208500402F3CFF3
:101D0A0019F0F4CF1AF019500A6E1A500B6E0C6AB9
:101D1A000D6A0CC00DF00BC00CF00AC00BF00A6A79
:101D2A000A5015260B5016220C5017220D50182255
:101D3A000FC00AF010C00BF011C00CF012C00DF069
:101D4A00190EADEF0EF0D8900D320C320B320A326A
:101D5A00E82EA8EF0EF00A5015260B5016220C504A
:101D6A0017220D50182211C012F010C011F00FC026
:101D7A0010F00F6A135014C00AF00B6A0A26000EFC
:101D8A000B22820E0A24196EFF0E0B201A6EE3EF45
:101D9A000EF0D890153616361736183612AED8EF1A
:101DAA000EF0DAEF0EF0DBEF0EF01580D8900F365A
:101DBA001036113612361906D8A01A0617AEE8EFF1
:101DCA000EF0EAEF0EF0CEEF0EF0000E136E12AE2A
:101DDA00F1EF0EF0F3EF0EF017EF0FF0FF0E0F1406
:101DEA000A6EFF0E10140B6EFF0E11140C6E7F0E8E
:101DFA0012140D6E0A500B100C100D10D8B408EF07
:101E0A000FF00AEF0FF00EEF0FF0010E136E17EF3F
:101E1A000FF015A013EF0FF015EF0FF017EF0FF0FB
:101E2A000AEF0FF01350D8B41DEF0FF01FEF0FF0A9
:101E3A0043EF0FF0010E1526000E16221722182264
:101E4A0018A02AEF0FF02CEF0FF043EF0FF015C098
:101E5A000AF016C00BF017C00CF018C00DF00D34C4
:101E6A000D320C320B320A320AC015F00BC016F0D2
:101E7A000CC017F00DC018F0194A1A2A1ABE4EEFF4
:101E8A000FF01A5008E11928D8A04EEF0FF050EFC2
:101E9A000FF05AEF0FF0000E156E000E166E800E40
:101EAA00176E7F0E186E88EF0FF01ABE67EF0FF0ED
:101EBA001A5006E11904D8B065EF0FF067EF0FF07A
:101ECA0073EF0FF0000E156E000E166E000E176EF1
:101EDA00000E186E000E0E6E88EF0FF019C014F087
:101EEA00FF0E1516FF0E16167F0E1716000E181681
:101EFA0014A082EF0FF084EF0FF085EF0FF0178E2A
:101F0A00D8901430186E0E50181215C002F016C070
:101F1A0003F017C004F018C005F012001E50800B21
:101F2A002B6E1E501E24326E1DAE9EEF0FF0A0EFD8
:101F3A000FF0A1EF0FF032803250D8B4A7EF0FF0B4
:101F4A00A9EF0FF0BEEF0FF03228D8A4AFEF0FF0D1
:101F5A00B1EF0FF0B9EF0FF0000E1B6E000E1C6E02
:101F6A00000E1D6E000E1E6E1D8E000E1E6EC6EF3A
:101F7A000FF0000E1B6E000E1C6E000E1D6E000E82
:101F8A001E6E2250800B2B1A22502224336E21AE51
:101F9A00D1EF0FF0D3EF0FF0D4EF0FF033803350BF
:101FAA00D8B4DAEF0FF0DCEF0FF0F1EF0FF03328CF
:101FBA00D8A4E2EF0FF0E4EF0FF0ECEF0FF0000E11
:101FCA001F6E000E206E000E216E000E226E218EF4
:101FDA00000E226EF9EF0FF0000E1F6E000E206E3B
:101FEA00000E216E000E226E1F50201021102210AA
:101FFA00D8A402EF10F004EF10F01CEF10F0000E5E
:10200A001B6E000E1C6E000E1D6E000E1E6E800EE4
:10201A001D127F0E1E122B501E121BC01BF01CC05D
:10202A001CF01DC01DF01EC01EF05FEF11F03250F3
:10203A00D8A422EF10F024EF10F02EEF10F0000ECB
:10204A001B6E000E1C6E000E1D6E000E1E6E5FEFE4
:10205A0011F0335032C023F0246A235E000E245A52
:10206A007F0E23242C6E000E24202D6E1BC027F019
:10207A001CC028F01DC029F01EC02AF0000E1B6EDD
:10208A00000E1C6E000E1D6E000E1E6E000E2E6ED1
:10209A00000E2F6E000E306E000E316E000E336E83
:1020AA008FEF10F03350D8B45DEF10F05FEF10F0FF
:1020BA0076EF10F0D8902736283629362A36D89067
:1020CA001B361C361D361E3631AE6EEF10F070EF21
:1020DA0010F071EF10F01B80D8902E362F36303664
:1020EA0031361F50275C2050285821502958225039
:1020FA002A58D8A083EF10F085EF10F08EEF10F079
:10210A00318C1F50275E2050285A2150295A2250BC
:10211A002A5A332A190E336495EF10F097EF10F00C
:10212A0057EF10F02750281029102A10D8B4A0EF22
:10213A0010F0A2EF10F0BAEF10F02E80BAEF10F004
:10214A00D8901B361C361D361E3631AEAFEF10F056
:10215A00B1EF10F0B2EF10F01B80D8902E362F3668
:10216A00303631362C06D8A02D061DAEBFEF10F042
:10217A00C1EF10F0A5EF10F0000E336E31AEC8EFCC
:10218A0010F0CAEF10F0EEEF10F0FF0E2E14236ECF
:10219A00FF0E2F14246EFF0E3014256E7F0E31149D
:1021AA00266E2350241025102610D8B4DFEF10F025
:1021BA00E1EF10F0E5EF10F0010E336EEEEF10F0E4
:1021CA001BA0EAEF10F0ECEF10F0EEEF10F0E1EFE9
:1021DA0010F03350D8B4F4EF10F0F6EF10F01AEF15
:1021EA0011F0010E1B26000E1C221D221E221EA00B
:1021FA0001EF11F003EF11F01AEF11F01BC023F0F9
:10220A001CC024F01DC025F01EC026F0263426323C
:10221A0025322432233223C01BF024C01CF025C0EF
:10222A001DF026C01EF02C4A2D2A2DBE25EF11F0D6
:10223A002D5008E12C28D8A025EF11F027EF11F036
:10224A0032EF11F0000E2D6E2C68000E1B6E000E80
:10225A001C6E000E1D6E000E1E6E2DBE3FEF11F09D
:10226A002D5006E12C04D8B03DEF11F03FEF11F0EC
:10227A004DEF11F0000E2D6E000E2C6E000E1B6E2F
:10228A00000E1C6E000E1D6E000E1E6E000E2B6ED2
:10229A002CC032F032A054EF11F056EF11F059EF82
:1022AA0011F01D8E5AEF11F01D9ED89032301E6E1D
:1022BA0010EF10F0120056EC22F0AFEC20F038ECE0
:1022CA0022F0000E036E630E026E38EC1CF0000E54
:1022DA000001D46F010ED56F010ED66F000ED86FB4
:1022EA00630ED76FAA0ED96F0F0EDA6FA60EDB6FC9
:1022FA000F0EDC6F000ECB6F010ECC6F010ECD6F8F
:10230A00000ECF6F630ECE6F250ED06F0F0ED16FFA
:10231A00210ED26F0F0ED36F7C9E849E87907F9082
:10232A00859E7D9E8196799686860E01B4978684CF
:10233A007E94B49587927F92000E0001B96F000EC9
:10234A00B86F88968086190E4E6E5A0E4D6EB20E72
:10235A00E82EFED74D2EFCD74E2EFAD78096E50EE4
:10236A00456EF8EC13F0EBC002F0ECC003F0046A1F
:10237A00056A000EE1EC14F002C0ACF003C0ADF047
:10238A0004C0AEF005C0AFF07F807D8E7986D40E92
:10239A00146ECB0E156E45EC1DF0D58E7CEC1EF03E
:1023AA0006C0E3F007C0E4F0E3C002F0E4C003F0C3
:1023BA00046A056A000EE1EC14F002C0B0F003C032
:1023CA00B1F004C0B2F005C0B3F0ACC01FF0ADC0AC
:1023DA0020F0AEC021F0AFC022F0000E066E000E53
:1023EA00076EC80E086E420E096EB0C002F0B1C088
:1023FA0003F0B2C004F0B3C005F07EEC0DF002C0E9
:10240A001BF003C01CF004C01DF005C01EF093ECC5
:10241A000FF01BC034F01CC035F01DC036F01EC0D2
:10242A0037F0E5EC17F034C0BAF035C0BBF0000164
:10243A00BB5109E1090EBA5DD8A026EF12F028EFC8
:10244A0012F0C9EF11F0D40E146ECB0E156E80EC9B
:10245A001CF017EC22F002C0B4F003C0B5F0D59E10
:10246A00B4C008F0B5C009F0B8C00AF0B9C00BF0A2
:10247A00460EF7EC1DF0110E4E6E3C0E4D6ECB0E55
:10248A00E82EFED74D2EFCD74E2EFAD70000D40EDA
:10249A00146ECB0E156E45EC1DF0090E4E6E1E0E17
:1024AA004D6EE40EE82EFED74D2EFCD74E2EFAD7EF
:1024BA0000D0D40E146ECB0E156E80EC1CF0190EE3
:1024CA004E6E5A0E4D6EB20EE82EFED74D2EFCD72A
:1024DA004E2EFAD70001BB5109E1330EBA5DD8A0DE
:1024EA0079EF12F07BEF12F093EF12F0D40E146E24
:1024FA00CB0E156E45EC1DF0090E4E6E1E0E4D6E7E
:10250A00E40EE82EFED74D2EFCD74E2EFAD700D079
:10251A00D40E146ECB0E156E80EC1CF00001BB516C
:10252A0009E15B0EBA5DD8A09DEF12F09FEF12F0A1
:10253A00B5EF12F02E0EB65D010EB759D8A0A8EF6E
:10254A0012F0AAEF12F0BCEF12F05B0EB65D010EAC
:10255A00B759D8B0B3EF12F0B5EF12F0BCEF12F0E2
:10256A007FA2BAEF12F0BCEF12F0D1EF12F0000E18
:10257A00466E080E456E47EC22F0D40E216ECB0E45
:10258A00226E000E236E020E246EB8C025F0B9C06A
:10259A0026F034EC1AF07F92DD0E426EEAEC18F067
:1025AA0042C0B6F043C0B7F0B6C047F0B7C048F073
:1025BA00B8C049F0B9C04AF0E7EC12F0C9EF11F01F
:1025CA001DEF00F0485009E10B0E475CD8A0F0EF70
:1025DA0012F0F2EF12F0FDEF12F0630E475C010EFB
:1025EA004858D8A0FBEF12F0FDEF12F00DEF13F0F0
:1025FA00D40E1D6ECB0E1E6E49C01FF04AC020F0CD
:10260A00F0EC1EF0000E4C6E010E4B6EF1EF13F063
:10261A00485009E1690E475CD8A016EF13F018EF8D
:10262A0013F033EF13F0485007E1830E475CD8B03C
:10263A0021EF13F023EF13F033EF13F0D40E1D6ED6
:10264A00CB0E1E6E49C01FF04AC020F080EC1FF06E
:10265A00000E4C6E020E4B6EF1EF13F0485009E17A
:10266A00E60E475CD8A03CEF13F03EEF13F059EFAB
:10267A0013F0485007E1F10E475CD8B047EF13F06A
:10268A0049EF13F059EF13F0D40E1D6ECB0E1E6EE8
:10269A0049C01FF04AC020F0A4EC1FF0000E4C6E97
:1026AA00030E4B6EF1EF13F0485009E1D80E475C68
:1026BA00D8A062EF13F064EF13F07FEF13F04850E5
:1026CA0007E1DE0E475CD8B06DEF13F06FEF13F041
:1026DA007FEF13F0D40E1D6ECB0E1E6E49C01FF095
:1026EA004AC020F05CEC1FF0000E4C6E040E4B6EDC
:1026FA00F1EF13F02E0E475C010E4858D8A088EF70
:10270A0013F08AEF13F0A5EF13F05B0E475C010E8E
:10271A004858D8B093EF13F095EF13F0A5EF13F0E4
:10272A00D40E1D6ECB0E1E6E49C01FF04AC020F09B
:10273A00CCEC1EF0000E4C6E050E4B6EF1EF13F052
:10274A00485009E10F0E475CD8A0AEEF13F0B0EF86
:10275A0013F0CBEF13F0485007E1240E475CD8B0D2
:10276A00B9EF13F0BBEF13F0CBEF13F0D40E1D6EDD
:10277A00CB0E1E6E49C01FF04AC020F038EC1FF085
:10278A00000E4C6E060E4B6EF1EF13F0485009E145
:10279A00F40E475CD8A0D4EF13F0D6EF13F0F1EFA4
:1027AA0013F0485007E1FC0E475CD8B0DFEF13F096
:1027BA00E1EF13F0F1EF13F0D40E1D6ECB0E1E6E87
:1027CA0049C01FF04AC020F014EC1FF0000E4C6EF6
:1027DA00070E4B6EF1EF13F04BC045F04CC046F0BC
:1027EA0047EC22F012007F907D9E7996600E326E41
:1027FA006D0E336EA60E346E3450D8A40E0E356E9E
:10280A00C9EC20F0600E036E7AEC21F08EB410EF62
:10281A0014F012EF14F00BEF14F07F80290E476EBC
:10282A00960E466E7F0EE82EFED7462EFCD7472E12
:10283A00FAD700002CEC1EF04550D96EDA6A06C0B1
:10284A00DEFF07C0DDFF7F90600E326E010E336E31
:10285A00A60E346E3450D8A40E0E356EC9EC20F094
:10286A00600E036E7AEC21F08EB43EEF14F040EF66
:10287A0014F039EF14F07D8E290E476E960E466ECF
:10288A007F0EE82EFED7462EFCD7472EFAD7000039
:10289A0054EC1EF04550D96EDA6A020ED92606C0EB
:1028AA00DEFF07C0DDFF7D9E600E326E1E0E336EA8
:1028BA00A60E346E3450D8A40E0E356EC9EC20F034
:1028CA00600E036E7AEC21F08EB46EEF14F070EFA6
:1028DA0014F069EF14F07986290E476E960E466E4B
:1028EA007F0EE82EFED7462EFCD7472EFAD70000D9
:1028FA00A4EC1EF04550D96EDA6A040ED92606C039
:10290A00DEFF07C0DDFF7996600E326E390E336E38
:10291A00A60E346E3450D8A40E0E356EC9EC20F0D3
:10292A00600E036E7AEC21F08EB49EEF14F0A0EFE5
:10293A0014F099EF14F07F807D8E7986290E476E08
:10294A00960E466E7F0EE82EFED7462EFCD7472EF1
:10295A00FAD700007CEC1EF04550D96EDA6A060EF2
:10296A00D92606C0DEFF07C0DDFF7F907D9E7996DF
:10297A00600E326E540E336EA60E346E3450D8A4E6
:10298A000E0E356EC9EC20F0600E036E7AEC21F063
:10299A008EB4D2EF14F0D4EF14F0CDEF14F0290E68
:1029AA00476E960E466E7F0EE82EFED7462EFCD751
:1029BA00472EFAD7000012000A6E0A50D8B4E8EF80
:1029CA0014F0EAEF14F00CEF15F005BEF1EF14F075
:1029DA00EFEF14F00CEF15F002C006F003C007F099
:1029EA0004C008F005C009F0061E071E081E091ECD
:1029FA00062A000E07220822092206C00CF007C088
:102A0A000DF008C00EF009C00FF014EF15F002C067
:102A1A000CF003C00DF004C00EF005C00FF0025018
:102A2A00031004100510D8A41DEF15F01FEF15F0C0
:102A3A0029EF15F0000E026E000E036E000E046EF2
:102A4A00000E056EBAEF15F0960E0B6E33EF15F009
:102A5A000B2AD8900F320E320D320C32000E0C14A3
:102A6A00066E000E0D14076E000E0E14086EFE0E92
:102A7A000F14096E0650071008100910D8A448EF61
:102A8A0015F04AEF15F02DEF15F058EF15F00B2A57
:102A9A00010E0C26000E0D220E220F22D8900F32A4
:102AAA000E320D320C32000E0C14066E000E0D148E
:102ABA00076E000E0E14086EFF0E0F14096E0650F4
:102ACA00071008100910D8A46DEF15F06FEF15F074
:102ADA004CEF15F077EF15F00B06D8900C360D3643
:102AEA000E360F360EBE7CEF15F07EEF15F086EF30
:102AFA0015F0020E0B6084EF15F086EF15F071EFFA
:102B0A0015F00BB08BEF15F08DEF15F08EEF15F079
:102B1A000E9ED8900B320BC006F0076A086A096A43
:102B2A0006C009F0086A076A066A06500C120750BE
:102B3A000D1208500E1209500F120A50D8B4A8EFFD
:102B4A0015F0AAEF15F0B2EF15F005BEB1EF15F0CA
:102B5A00AFEF15F0B2EF15F00F8E0CC002F00DC0FA
:102B6A0003F00EC004F00FC005F012002450D96E15
:102B7A00DA6ADFCFF6FF0E0EF76E000EF86E080067
:102B8A00F550250AD8A4CCEF15F0CEEF15F06BEF6F
:102B9A0016F02450D96EDA6ADF2A000E0001C56FDA
:102BAA00000EC46FC4C0C8F0C669C769000E2C6E97
:102BBA0006EF16F00001C8832450D96EDA6ADF2ABC
:102BCA0006EF16F0010E2C6E06EF16F02450D96EA1
:102BDA00DA6ADFCFF6FF0E0EF76E000EF86E080007
:102BEA00F550266E276A2750000AD8B4FFEF15F071
:102BFA00E7EF15F02650300AD8B4DFEF15F0E7EF0B
:102C0A0015F02C50D8B40CEF16F00EEF16F0EBEFCF
:102C1A0015F024C008F025C009F0ECEC1AF008C041
:102C2A00C4F009C0C5F00001C5BF20EF16F01EEFC1
:102C3A0016F025EF16F0C881C46DC51FD8B0C52B94
:102C4A002450D96EDA6ADF502D6E2DC0F6FF0E0EB3
:102C5A00F76E000EF86E0800F550640AD8B438EF23
:102C6A0016F03AEF16F04AEF16F02DC0F6FF0E0EE8
:102C7A00F76E000EF86E0800F550690AD8A448EFFE
:102C8A0016F04AEF16F065EF16F02550D96EDA6A9B
:102C9A00020EDF26DF5CD96EDA6ADECF28F0DECFDD
:102CAA0029F02450D96EDA6A2D28DF6E23C018F075
:102CBA0028C019F029C01AF07FEC16F07EEF16F042
:102CCA002450D96EDA6ADF2A7EEF16F02450D96EC4
:102CDA00DA6ADFCFF6FF0E0EF76E000EF86E080006
:102CEA00F550026E036A23C004F098EC1BF065EFFE
:102CFA0016F01200010E1D6E1ABE86EF16F089EF4D
:102D0A0016F0010E8AEF16F0000E206EC4C01EF0F7
:102D1A00C5C01FF02050D8B495EF16F097EF16F003
:102D2A00AEEF16F01E06D8A01F062050D8A4A0EFBA
:102D3A0016F0A2EF16F0A8EF16F0000E1C6E2B0E7E
:102D4A001B6EACEF16F0000E1C6E2D0E1B6E1BC018
:102D5A0020F0000E226E1F0E216E000E0101836FFD
:102D6A00E6EF16F02106D8A02206640E2124D96EB9
:102D7A00010E2220DA6E19C002F01AC003F0000E0A
:102D8A00056E0A0E046E94EC1AF002C008F003C035
:102D9A0009F0E3EC20F00850300FDF6E000E1D6ED4
:102DAA001E06D8A01F0619C002F01AC003F0000EB2
:102DBA00056E0A0E046ED2EC19F002C019F003C0B7
:102DCA001AF022BEF1EF16F0225008E12104D8A031
:102DDA00F1EF16F0F3EF16F019EF17F019501A1079
:102DEA00D8A4FAEF16F0FCEF16F0B7EF16F01D5064
:102DFA00D8A402EF17F004EF17F0B7EF16F01FBED2
:102E0A000FEF17F01F5008E11E04D8A00FEF17F0BC
:102E1A0011EF17F019EF17F00001C8B317EF17F009
:102E2A0019EF17F0B7EF16F02050D8B41FEF17F0CC
:102E3A0021EF17F02CEF17F02106D8A02206640E16
:102E4A002124D96E010E2220DA6E20C0DFFF18C0BD
:102E5A0010F0640E2124116E010E2220126E1EC083
:102E6A0013F01FC014F0EDEC1BF012000F50D96ED6
:102E7A00DA6A020ED926DF50D8B446EF17F048EFC7
:102E8A0017F078EF17F00F50D96EDA6ADF50106E2C
:102E9A001050026E036A0F50D96EDA6A030ED926F1
:102EAA00DECF04F0DDCF05F004EC22F002C008F01A
:102EBA0003C009F0000E0B6E640E0A6EBDEC1DF025
:102ECA000F50D96EDA6A030ED926DF50116E0850F8
:102EDA00115C126E0F50D96EDA6A030ED926DF50D2
:102EEA00136E99EF17F0000E126E0F50D96EDA6A50
:102EFA00DF50106E1050026E036A0F50D96EDA6AF4
:102F0A00030ED926DECF04F0DDCF05F004EC22F063
:102F1A0002C008F003C009F0000E0B6E640E0A6EC0
:102F2A00BDEC1DF00850136E0F50D96EDA6A010E0F
:102F3A00D926DF50D8B4A4EF17F0A6EF17F0C6EFE2
:102F4A0017F00F50D96EDA6A050ED926DECF10F0C7
:102F5A00DDCF11F010C0D9FF11C0DAFF12C0DFFFB8
:102F6A000F50D96EDA6A070ED926DECF10F0DDCF00
:102F7A0011F010C0D9FF11C0DAFF13C0DFFFE4EF70
:102F8A0017F00F50D96EDA6A050ED926DECF10F087
:102F9A00DDCF11F010C0D9FF11C0DAFF13C0DFFF77
:102FAA000F50D96EDA6A070ED926DECF10F0DDCFC0
:102FBA0011F010C0D9FF11C0DAFF12C0DFFF1200F2
:102FCA00363437343D6E3D50D8A4EEEF17F0F0EFAB
:102FDA0017F0FAEF17F0000E346E000E356E000E81
:102FEA00366E000E376E67EF18F034C038F035C011
:102FFA0039F036C03AF037C03BF0200E0AEF18F02D
:10300A00D8903B323A3239323832E82E05EF18F08E
:10301A0038503C6E368EFF0E3416FF0E3516FF0EF4
:10302A003616000E3716960E3D5E3DBE21EF18F09D
:10303A001FEF18F037EF18F03D50800A970FD8B0FD
:10304A0029EF18F02BEF18F02DEF18F0F0EF17F02A
:10305A00D89037323632353234323D3E2DEF18F0C1
:10306A004FEF18F01F0E3D643DEF18F03FEF18F0D8
:10307A0047EF18F0F0EF17F0D89034363536363679
:10308A0037363D063D50D8A44DEF18F04FEF18F0F3
:10309A0041EF18F03C50D8B455EF18F057EF18F03C
:1030AA005FEF18F0371E361E351E346C000E3522BF
:1030BA003622372234C034F035C035F036C036F007
:1030CA0037C037F01200000E02140A6E000E031405
:1030DA000B6E800E04140C6E7F0E05140D6E0A50D2
:1030EA000B100C100D10D8A47DEF18F07FEF18F01C
:1030FA0087EF18F0000E026E000E036E000E046ECB
:10310A00000E056E000E06140A6E000E07140B6EF2
:10311A00800E08140C6E7F0E09140D6E0A500B10E7
:10312A000C100D10D8A49CEF18F09EEF18F0A6EF23
:10313A0018F0000E066E000E076E000E086E000EE6
:10314A00096E05AEABEF18F0ADEF18F0B6EF18F058
:10315A00026C031ED8B0032A041ED8B0042A800EBB
:10316A00055609AEBBEF18F0BDEF18F0C6EF18F020
:10317A00066C071ED8B0072A081ED8B0082A800E87
:10318A000956000E021A000E031A000E041A800EC7
:10319A00051A000E061A000E071A000E081A800EEB
:1031AA00091A0650025C075003580850045809507F
:1031BA000558D8B0E3EF18F0E5EF18F0E8EF18F08B
:1031CA00D890E9EF18F0D88012007F807D9E79961A
:1031DA00290E456E960E446E7F0EE82EFED7442EBB
:1031EA00FCD7452EFAD700002CEC1EF04250D96EBF
:1031FA00DA6A06C0DEFF07C0DDFF7F907D8E799612
:10320A00290E456E960E446E7F0EE82EFED7442E8A
:10321A00FCD7452EFAD7000054EC1EF04250D96E66
:10322A00DA6A020ED92606C0DEFF07C0DDFF7F90EC
:10323A007D9E7986290E456E960E446E7F0EE82E87
:10324A00FED7442EFCD7452EFAD70000A4EC1EF078
:10325A004250D96EDA6A040ED92606C0DEFF07C0CC
:10326A00DDFF7F807D8E7986290E456E960E446E2F
:10327A007F0EE82EFED7442EFCD7452EFAD7000043
:10328A007CEC1EF04250D96EDA6A060ED92606C0C8
:10329A00DEFF07C0DDFFE50E3E6EDD0E3F6E55EC2C
:1032AA0007F03EC046F03FC047F046C042F047C074
:1032BA0043F012001CBE6DEF19F07C0E1B5C150E5C
:1032CA001C58D8B06BEF19F06DEF19F07FEF19F0B9
:1032DA001CBE79EF19F0D50E1B5C170E1C58D8A02E
:1032EA0079EF19F07BEF19F07FEF19F00B0E1E6ED4
:1032FA00B80E1D6E1CBE8DEF19F0740E1B5C0E0EFF
:10330A001C58D8B08BEF19F08DEF19F09FEF19F018
:10331A001CBE99EF19F0050E1B5C100E1C58D8A0A4
:10332A0099EF19F09BEF19F09FEF19F0070E1E6E37
:10333A00D00E1D6E1CBEADEF19F0A40E1B5C060E5E
:10334A001C58D8B0ABEF19F0ADEF19F0BFEF19F078
:10335A001CBEB9EF19F0350E1B5C080E1C58D8A01C
:10336A00B9EF19F0BBEF19F0BFEF19F0030E1E6E9B
:10337A00E80E1D6E19C014F01AC015F045EC1DF0C8
:10338A001DC002F01EC003F093EC20F019C014F027
:10339A001AC015F080EC1CF01200000E076E05BE74
:1033AA00DBEF19F0D9EF19F0E1EF19F0046C051E03
:1033BA00D8B0052A010E076E03BEE8EF19F0E6EF52
:1033CA0019F0EEEF19F0026C031ED8B0032A010EB1
:1033DA00071A000E096E000E086E04500510D8B4C4
:1033EA00F9EF19F0FBEF19F023EF1AF0010E066E50
:1033FA0003EF1AF0D89004360536062A05AE08EF10
:10340A001AF00AEF1AF0FFEF19F0D89008360936C9
:10341A000450025C05500358D8A016EF1AF018EFB2
:10342A001AF01DEF1AF00450025E0550035A088084
:10343A00D89005320432062E0AEF1AF00750D8B493
:10344A0029EF1AF02BEF1AF02FEF1AF0086C091E69
:10345A00D8B0092A08C002F009C003F012007F9010
:10346A007D9E7996D40E1D6ECB0E1E6EFDEC20F05D
:10347A0025C02CF026C02DF02DBE48EF1AF046EFDD
:10348A001AF04AEF1AF092EF1AF0D8902C34D96E4B
:10349A002D34DA6E2350D9262450DA22DECF27F0D3
:1034AA00DDCF28F027C0D9FF28C0DAFFDF502B6E06
:1034BA00D8902C34D96E2D34DA6E2350D926245064
:1034CA00DA2210EE01F0DE50E126DD50E222E6CFEC
:1034DA0029F0E5CF2AF0460E2B18D8A477EF1AF078
:1034EA0079EF1AF085EF1AF021C019F022C01AF00C
:1034FA0029C01BF02AC01CF05FEC19F08DEF1AF0FE
:10350A0021C01DF022C01EF02BC01FF0EBEC1FF0F3
:10351A002C06D8A02D0641EF1AF003001200000E67
:10352A00076E03BE9DEF1AF09BEF1AF0A3EF1AF095
:10353A00026C031ED8B0032A010E076E05BEAAEF5D
:10354A001AF0A8EF1AF0AEEF1AF0046C051ED8B004
:10355A00052A04500510D8B4B5EF1AF0B7EF1AF0DF
:10356A00DBEF1AF0010E066EBFEF1AF0D8900436A0
:10357A000536062A05AEC4EF1AF0C6EF1AF0BBEFFD
:10358A001AF00450025C05500358D8A0CFEF1AF085
:10359A00D1EF1AF0D5EF1AF00450025E0550035A23
:1035AA00D89005320432062EC6EF1AF00750D8B466
:1035BA00E1EF1AF0E3EF1AF0E7EF1AF0026C031EDC
:1035CA00D8B0032A02C002F003C003F01200000EB2
:1035DA000C6E000E0B6E0850D96EDA6ADFCFF6FF5A
:1035EA000E0EF76E000EF86E0800F5502A0AD8A4DF
:1035FA0001EF1BF003EF1BF029EF1BF00850D96E07
:10360A00DA6ADF2A0950D96EDA6A020EDF26DF5C2F
:10361A00D96EDA6ADECF0BF0DECF0CF03EEF1BF08C
:10362A000BC002F00CC003F0000E056E0A0E046E09
:10363A0004EC22F00A5002240B6E000E03200C6EDA
:10364A000850D96EDA6ADF2A0850D96EDA6ADFCFF3
:10365A00F6FF0E0EF76E000EF86E0800F550D00F4A
:10366A000A6E090E0A643CEF1BF03EEF1BF015EFE1
:10367A001BF00BC008F00CC009F01200000E021477
:10368A000A6E000E03140B6E800E04140C6E7F0E6D
:10369A0005140D6E0A500B100C100D10D8A458EF1B
:1036AA001BF05AEF1BF062EF1BF0000E026E000EC9
:1036BA00036E000E046E000E056E000E06140A6EEE
:1036CA00000E07140B6E800E08140C6E7F0E091480
:1036DA000D6E0A500B100C100D10D8A477EF1BF0CA
:1036EA0079EF1BF081EF1BF0000E066E000E076EDD
:1036FA00000E086E000E096E065002180FE1075000
:10370A0003180CE10850041809E109500518D8B447
:10371A0091EF1BF093EF1BF096EF1BF0D89097EF09
:10372A001BF0D88012000450D8B49EEF1BF0A0EF13
:10373A001BF0A8EF1BF00450D8A4A6EF1BF0A8EFCB
:10374A001BF0ADEF1BF0025084EC22F0ECEF1BF003
:10375A000450D96EDA6A0A0ED926DE50DE10D8B4C1
:10376A00B9EF1BF0BBEF1BF0D4EF1BF00450D96E7E
:10377A00DA6A0A0ED9260450E16EE26A030EE126DD
:10378A00DE50E65CE650800A096EDE50800A09586F
:10379A00D8B0D2EF1BF0D4EF1BF0ECEF1BF00450C3
:1037AA00D96EDA6A030ED926DF50056E0450D96E37
:1037BA00DA6ADF500524D96EDA6A02C0DFFF0450E4
:1037CA00D96EDA6A030ED926DE2A000EDD2212002D
:1037DA000001C8A1F3EF1BF0F5EF1BF0FDEF1BF0A2
:1037EA0011C00AF012C00BF010C00CF073EC20F0FC
:1037FA0014BE04EF1CF002EF1CF008EF1CF0000EE0
:10380A00146E000E136E000E176E000E166E18EF71
:10381A001CF0000E036E200E026E10C004F098EC2D
:10382A001BF0164A172A1350165C1750800A156E99
:10383A001450800A1558D8A025EF1CF027EF1CF069
:10384A000EEF1CF00001C8B12DEF1CF02FEF1CF099
:10385A0037EF1CF011C00AF012C00BF010C00CF0C8
:10386A0073EC20F012008594839E8598879C7D9442
:10387A007B9E7D987F9C050E0E01746F060E766FF7
:10388A00070E696F080E886FBD508F0B4009BD6E19
:10389A00E00EBE16BF50F00B0109BF6E02C0BCFF9E
:1038AA00BD8E000EAA6E000EA66E000E0F01256FC9
:1038BA00000E216FFC0EAD16F30EAD16CF0EAD162F
:1038CA003F0EAD16AB88AB50F00B0C09AB6EAB8E4E
:1038DA00A788A750F00B0C09A76EA78E2689265138
:1038EA00F00B0C09266F268F22892251F00B0C0946
:1038FA00226F228F1200B0EF1CF01450D96EDA6AD0
:10390A00DF50D8B48BEF1CF08DEF1CF091EF1CF058
:10391A001450D96EDA6ADF061550D96EDA6ADF50AA
:10392A00D8B49AEF1CF09CEF1CF0A0EF1CF01550D5
:10393A00D96EDA6ADF0614C00FF03BEC17F015C037
:10394A000FF03BEC17F00B0E166E620EE82EFED748
:10395A00162EFCD700D01450D96EDA6ADF50D8A4DC
:10396A00B9EF1CF0BBEF1CF082EF1CF01550D96EBA
:10397A00DA6ADF50D8A4C4EF1CF0C6EF1CF082EF5D
:10398A001CF012001450D96EDA6A010ED926010E03
:10399A00DF6E1550D96EDA6A010ED926DF6A14C0B5
:1039AA000FF03BEC17F015C00FF03BEC17F0000ED0
:1039BA00186E000E176E1450D96EDA6ADF2A155087
:1039CA00D96EDA6ADF2A14C00FF03BEC17F015C083
:1039DA000FF03BEC17F00B0E166E620EE82EFED7B8
:1039EA00162EFCD700D0174A182A185009E1320EB1
:1039FA00175CD8A003EF1DF005EF1DF0E0EF1CF0F7
:103A0A0012001450D96EDA6A010ED926DF6A1550EF
:103A1A00D96EDA6A010ED926010EDF6E14C00FF0D4
:103A2A003BEC17F015C00FF03BEC17F0000E186EC8
:103A3A00000E176E1450D96EDA6ADF2A1550D96E45
:103A4A00DA6ADF2A14C00FF03BEC17F015C00FF04A
:103A5A003BEC17F00B0E166E620EE82EFED7162EF2
:103A6A00FCD700D0174A182A185009E1320E175C01
:103A7A00D8A042EF1DF044EF1DF01FEF1DF0120019
:103A8A001450D96EDA6A010ED926010EDF6E15506E
:103A9A00D96EDA6A010ED926010EDF6E000E186E93
:103AAA00000E176E1450D96EDA6A17C0DFFF155070
:103ABA00D96EDA6A17C0DFFF14C00FF03BEC17F0BB
:103ACA0015C00FF03BEC17F00B0E166E620EE82EC7
:103ADA00FED7162EFCD700D0174A182A18BE7FEF39
:103AEA001DF0185009E1330E175CD8A07FEF1DF0C6
:103AFA0081EF1DF057EF1DF012001450D96EDA6AEB
:103B0A00010ED926DF6A1550D96EDA6A010ED92656
:103B1A00DF6A000E186E000E176E1450D96EDA6A3C
:103B2A0017C0DFFF1550D96EDA6A17C0DFFF14C05D
:103B3A000FF03BEC17F015C00FF03BEC17F00B0E33
:103B4A00166E620EE82EFED7162EFCD700D0174A44
:103B5A00182A18BEBAEF1DF0185009E1330E175C87
:103B6A00D8A0BAEF1DF0BCEF1DF092EF1DF01200C5
:103B7A00000E0D6E000E0C6E0A500B10D8B4C8EF72
:103B8A001DF0CAEF1DF0F2EF1DF0010E0E6ED2EF1E
:103B9A001DF0D8900A360B360E2A0BAED7EF1DF061
:103BAA00D9EF1DF0CEEF1DF0D8900C360D360A5025
:103BBA00085C0B500958D8A0E5EF1DF0E7EF1DF09F
:103BCA00ECEF1DF00A50085E0B50095A0C80D89091
:103BDA000B320A320E2ED9EF1DF00CC008F00DC0C0
:103BEA0009F012000C6E0B5007E1320E0A5CD8B0D5
:103BFA0001EF1EF003EF1EF02BEF1EF00AC002F0D9
:103C0A000BC003F0000E056E050E046E04EC22F0E4
:103C1A00000E0224D96E020E0320DA6E0CC0DFFFFA
:103C2A000AC002F00BC003F0000E056E050E046E0A
:103C3A0004EC22F0010E0224D96E020E0320DA6E81
:103C4A0008C0DEFF09C0DDFF0A4A0B2A12007AEC1F
:103C5A0022F0520E6FEC22F0B60E6FEC22F07FECDF
:103C6A0022F0530E6FEC22F0010E52EC20F0086E97
:103C7A0008500B6E0C6A000E52EC20F0086E0850C9
:103C8A000A6E096A0B5009100B6E0C500A100C6E62
:103C9A0075EC22F00BC006F00CC007F012007AECAB
:103CAA0022F0520E6FEC22F0B80E6FEC22F07FEC8D
:103CBA0022F0530E6FEC22F0010E52EC20F0086E47
:103CCA0008500B6E0C6A000E52EC20F0086E085079
:103CDA000A6E096A0B5009100B6E0C500A100C6E12
:103CEA0075EC22F00BC006F00CC007F012007AEC5B
:103CFA0022F0520E6FEC22F0B40E6FEC22F07FEC41
:103D0A0022F0530E6FEC22F0010E52EC20F0086EF6
:103D1A0008500B6E0C6A000E52EC20F0086E085028
:103D2A000A6E096A0B5009100B6E0C500A100C6EC1
:103D3A0075EC22F00BC006F00CC007F012007AEC0A
:103D4A0022F0520E6FEC22F0BA0E6FEC22F07FECEA
:103D5A0022F0530E6FEC22F0010E52EC20F0086EA6
:103D6A0008500B6E0C6A000E52EC20F0086E0850D8
:103D7A000A6E096A0B5009100B6E0C500A100C6E71
:103D8A0075EC22F00BC006F00CC007F012001DC043
:103D9A0019F01EC01AF016EC21F0290E226E960EAA
:103DAA00216E7F0EE82EFED7212EFCD7222EFAD7BF
:103DBA0000001DC019F01EC01AF093EC21F0000E8D
:103DCA00096E000E086E1FC00AF020C00BF0520EDA
:103DDA00F7EC1DF012001DC019F01EC01AF0C3EC5A
:103DEA0021F0290E226E960E216E7F0EE82EFED746
:103DFA00212EFCD7222EFAD700001DC019F01EC0B2
:103E0A001AF093EC21F0000E096E000E086E1FC026
:103E1A000AF020C00BF0520EF7EC1DF012001DC084
:103E2A0019F01EC01AF016EC21F0290E226E960E19
:103E3A00216E7F0EE82EFED7212EFCD7222EFAD72E
:103E4A0000001DC019F01EC01AF0ABEC21F0000EE4
:103E5A00096E000E086E1FC00AF020C00BF04C0E4F
:103E6A00F7EC1DF012001DC019F01EC01AF0C3ECC9
:103E7A0021F0290E226E960E216E7F0EE82EFED7B5
:103E8A00212EFCD7222EFAD700001DC019F01EC021
:103E9A001AF02FEC21F0000E096E000E086E1FC0FA
:103EAA000AF020C00BF0520EF7EC1DF012001DC0F4
:103EBA0019F01EC01AF0C3EC21F0290E226E960EDC
:103ECA00216E7F0EE82EFED7212EFCD7222EFAD79E
:103EDA0000001DC019F01EC01AF048EC21F0000EB7
:103EEA00096E000E086E1FC00AF020C00BF04C0EBF
:103EFA00F7EC1DF012001DC019F01EC01AF0C3EC39
:103F0A0021F0290E226E960E216E7F0EE82EFED724
:103F1A00212EFCD7222EFAD700001DC019F01EC090
:103F2A001AF0ABEC21F0000E096E000E086E1FC0ED
:103F3A000AF020C00BF04C0EF7EC1DF012001DC069
:103F4A0019F01EC01AF0C3EC21F0290E226E960E4B
:103F5A00216E7F0EE82EFED7212EFCD7222EFAD70D
:103F6A0000001DC019F01EC01AF061EC21F0000E0D
:103F7A00096E000E086E1FC00AF020C00BF0300E4A
:103F8A00F7EC1DF012000A0EF66E450EF76E000EE3
:103F9A00F86E0900F5CFEDF002EE00F0FA0EEE6AC7
:103FAA00E806FDE101EE00F0840EEE6AE806FDE1A6
:103FBA0000EEBCF0310EEE6AE806FDE1516A506A85
:103FCA004F6A52905292000160EF11F0520E1F1880
:103FDA00D8A4F2EF1FF0F4EF1FF0FCEF1FF01DC0A2
:103FEA0014F01EC015F006EC1DF00DEF20F04C0E7B
:103FFA001F18D8A403EF20F005EF20F00DEF20F0F2
:10400A001DC014F01EC015F0C7EC1CF00DEF20F017
:10401A001200000E161A000E171A000E181A800E39
:10402A00191A12C002F013C003F014C004F015C02C
:10403A0005F016C006F017C007F018C008F019C03E
:10404A0009F01EEC0BF002C012F003C013F004C01A
:10405A0014F005C015F012002FC031F03DEF20F02A
:10406A002EC023F0310E246E30C025F0BBEC15F0C3
:10407A0031C0F6FF0E0EF76E000EF86E0800F5500E
:10408A000009D8A44BEF20F04DEF20F035EF20F0D7
:10409A00000E2F6E000E2E6E1200046EF0EC21F050
:1040AA000E01DA87F0EC21F0D5CE05F0F0EC21F024
:1040BA000450D8B463EF20F067EF20F0036A032AB4
:1040CA0068EF20F0036A033A03460E01DA51031837
:1040DA00DF0B0318DA6FDA8905501200000E0F6E33
:1040EA00000E0E6E82EF20F00DC002F0036A0CC0C3
:1040FA0004F098EC1BF00E4A0F2A0E500A24D96ECF
:10410A000F500B20DA6EDF500D6E0D50D8A490EFD1
:10411A0020F092EF20F079EF20F01200000E066EE8
:10412A00000E056EA3EF20F0150E046EC60EE82EE3
:10413A00FED7042EFCD700D0054A062A0250055C99
:10414A0003500658D8A0ACEF20F0AEEF20F099EF5C
:10415A0020F01200DBEC21F0010E046E000E28ECB8
:10416A0022F03F0E066E550EE82EFED7062EFCD71D
:10417A000000030E046E000E28EC22F0D50E046E29
:10418A00010E28EC22F01200340E386E32C039F0DB
:10419A00000E3D6E000E3C6E000E446E000E436E25
:1041AA00390E2E6E33C02FF0380E306E31EC20F0FF
:1041BA0032503C24D96EDA6ADF6A120009BEE8EF8F
:1041CA0020F0EAEF20F0F0EF20F008C008F009C074
:1041DA0009F0FCEF20F008C00AF009C00BF00A1E33
:1041EA000B1E0A4A0B2A0AC008F00BC009F012007B
:1041FA001DC019F01EC01AF0C3EC21F0290E206E62
:10420A00960E1F6E7F0EE82EFED71F2EFCD7202E8D
:10421A00FAD700001DC019F01EC01AF061EC21F097
:10422A00120019C014F01AC015F082EC1DF06A0EC3
:10423A001C6E850E1B6EB40EE82EFED71B2EFCD705
:10424A001C2EFAD700D019C014F01AC015F080EC51
:10425A001CF0120019C014F01AC015F0C7EC1CF0BB
:10426A00210E1C6E780E1B6E980EE82EFED71B2EA2
:10427A00FCD71C2EFAD700D019C014F01AC015F0BA
:10428A0080EC1CF0120019C014F01AC015F006ECEC
:10429A001DF0210E1C6E780E1B6E980EE82EFED7AE
:1042AA001B2EFCD71C2EFAD700D019C014F01AC046
:1042BA0015F080EC1CF0120019C014F01AC015F0A9
:1042CA0006EC1DF0300E1C6E140E1B6ED10EE82E7D
:1042DA00FED71B2EFCD71C2EFAD7000019C014F0EB
:1042EA001AC015F080EC1CF0120087EF21F0035081
:1042FA00D96EDA6ADF5063EC22F0032A6A0EE82EDE
:10430A00FED700D00350D96EDA6ADF50D8A490EFF6
:10431A0021F092EF21F07CEF21F0120019C014F085
:10432A001AC015F0C7EC1CF0180E1C6E8A0E1B6E14
:10433A00E80EE82EFED71B2EFCD71C2EFAD719C082
:10434A0014F01AC015F080EC1CF0120019C014F019
:10435A001AC015F006EC1DF0180E1C6E8A0E1B6EA4
:10436A00E80EE82EFED71B2EFCD71C2EFAD719C052
:10437A0014F01AC015F080EC1CF0120019C014F0E9
:10438A001AC015F082EC1DF0190E1C6E5A0E1B6E27
:10439A00B20EE82EFED71B2EFCD71C2EFAD719C058
:1043AA0014F01AC015F080EC1CF012000E01D9515D
:1043BA00F00B0809D96FD98B9F0ED66F848A848C2B
:1043CA00A79BA79D1D0E1D6F1E0E1C6F1C0E6F6FE7
:1043DA001B0E706F12000E01D8B5F6EF21F0F8EF40
:1043EA0021F0F0EF21F0DACE02F01F0E0216D8A467
:1043FA0001EF22F003EF22F0F0EF21F01200025059
:10440A000402F3CF06F0F4CF07F002500502F3508E
:10441A00072603500402F350072606C002F007C01D
:10442A0003F01200D450056E046AD350066E076A70
:10443A0004500610086E05500710096E08C002F0F5
:10444A0009C003F01200056E7AEC22F0520E6FECEE
:10445A0022F0055080096FEC22F004506FEC22F034
:10446A0075EC22F01200120E0E01626F110E156F1A
:10447A00E997E895330EE56F000EE66FE789E88B5A
:10448A00E78F1200600E326E9A0E336E45C034F01A
:10449A0046C035F0C9EC20F0600E036E7AEC21F0CC
:1044AA001200868C0E01B48D0F015899FC0E581714
:1044BA002E0E5F6F60946088608E1200026E0E018D
:1044CA0037A56AEF22F06CEF22F064EF22F002C007
:1044DA00E4FE1200036EF0EC21F003C0D5FE1200D8
:1044EA00F0EC21F00E01DA851200F0EC21F00E0159
:1044FA00DA811200F0EC21F00E01DA8312001200C8
:01450A0001AF
:020000040030CA
:02000000AAFF55
:020004009FFF5C
:00000001FF
